{
	"data": {
		"bytecode": {
			"linkReferences": {},
			"object": "60806040526001600255348015610014575f5ffd5b506040516122933803806122938339818101604052810190610036919061027d565b8060015f6101000a81548173ffffffffffffffffffffffffffffffffffffffff021916908373ffffffffffffffffffffffffffffffffffffffff1602179055506100885f5f1b336100c060201b60201c565b506100b97fa49807205ce4d355092ef5a8a18f56e8913cf4a201fbe287825b095693c21775336100c060201b60201c565b50506102a8565b5f6100d183836101b560201b60201c565b6101ab5760015f5f8581526020019081526020015f205f015f8473ffffffffffffffffffffffffffffffffffffffff1673ffffffffffffffffffffffffffffffffffffffff1681526020019081526020015f205f6101000a81548160ff02191690831515021790555061014861021860201b60201c565b73ffffffffffffffffffffffffffffffffffffffff168273ffffffffffffffffffffffffffffffffffffffff16847f2f8788117e7eff1d82e926ec794901d17c78024a50270940304540a733656f0d60405160405180910390a4600190506101af565b5f90505b92915050565b5f5f5f8481526020019081526020015f205f015f8373ffffffffffffffffffffffffffffffffffffffff1673ffffffffffffffffffffffffffffffffffffffff1681526020019081526020015f205f9054906101000a900460ff16905092915050565b5f33905090565b5f5ffd5b5f73ffffffffffffffffffffffffffffffffffffffff82169050919050565b5f61024c82610223565b9050919050565b61025c81610242565b8114610266575f5ffd5b50565b5f8151905061027781610253565b92915050565b5f602082840312156102925761029161021f565b5b5f61029f84828501610269565b91505092915050565b611fde806102b55f395ff3fe608060405234801561000f575f5ffd5b506004361061012a575f3560e01c80639a19c7b0116100ab578063d12af19a1161006f578063d12af19a1461033e578063d47875d01461035c578063d547741f1461038c578063e2eb41ff146103a8578063ed4b7eaa146103d95761012a565b80639a19c7b0146102ac578063a217fddf146102c8578063ba3f5a12146102e6578063c3dfdae614610304578063c634b78e146103225761012a565b80633596362b116100f25780633596362b146101f657806336568abe1461021257806373af16fc1461022e57806375b238fc1461025e57806391d148541461027c5761012a565b806301ffc9a71461012e57806315c6aee21461015e5780631db544c01461018e578063248a9ca3146101aa5780632f2ff15d146101da575b5f5ffd5b61014860048036038101906101439190611575565b6103f5565b60405161015591906115ba565b60405180910390f35b61017860048036038101906101739190611606565b61046e565b6040516101859190611670565b60405180910390f35b6101a860048036038101906101a391906116b3565b6104a9565b005b6101c460048036038101906101bf9190611724565b610819565b6040516101d1919061175e565b60405180910390f35b6101f460048036038101906101ef9190611777565b610835565b005b610210600480360381019061020b9190611606565b610857565b005b61022c60048036038101906102279190611777565b610905565b005b610248600480360381019061024391906117b5565b610980565b60405161025591906118e6565b60405180910390f35b610266610d53565b604051610273919061175e565b60405180910390f35b61029660048036038101906102919190611777565b610d77565b6040516102a391906115ba565b60405180910390f35b6102c660048036038101906102c19190611906565b610dda565b005b6102d0610e14565b6040516102dd919061175e565b60405180910390f35b6102ee610e1a565b6040516102fb9190611940565b60405180910390f35b61030c610e20565b60405161031991906119b4565b60405180910390f35b61033c60048036038101906103379190611906565b610e45565b005b610346610e7f565b6040516103539190611940565b60405180910390f35b61037660048036038101906103719190611906565b610e8c565b6040516103839190611940565b60405180910390f35b6103a660048036038101906103a19190611777565b610ed4565b005b6103c260048036038101906103bd9190611906565b610ef6565b6040516103d09291906119cd565b60405180910390f35b6103f360048036038101906103ee9190611a55565b610f16565b005b5f7f7965db0b000000000000000000000000000000000000000000000000000000007bffffffffffffffffffffffffffffffffffffffffffffffffffffffff1916827bffffffffffffffffffffffffffffffffffffffffffffffffffffffff191614806104675750610466826110a7565b5b9050919050565b6004818154811061047d575f80fd5b905f5260205f20015f915054906101000a900473ffffffffffffffffffffffffffffffffffffffff1681565b7fa49807205ce4d355092ef5a8a18f56e8913cf4a201fbe287825b095693c217756104d381611110565b5f73ffffffffffffffffffffffffffffffffffffffff168373ffffffffffffffffffffffffffffffffffffffff1603610541576040517f08c379a000000000000000000000000000000000000000000000000000000000815260040161053890611afa565b60405180910390fd5b5f8211610583576040517f08c379a000000000000000000000000000000000000000000000000000000000815260040161057a90611b62565b60405180910390fd5b5f60035f8573ffffffffffffffffffffffffffffffffffffffff1673ffffffffffffffffffffffffffffffffffffffff1681526020019081526020015f205f015414801561061057505f60035f8573ffffffffffffffffffffffffffffffffffffffff1673ffffffffffffffffffffffffffffffffffffffff1681526020019081526020015f2060010154145b156106b957600483908060018154018082558091505060019003905f5260205f20015f9091909190916101000a81548173ffffffffffffffffffffffffffffffffffffffff021916908373ffffffffffffffffffffffffffffffffffffffff1602179055508273ffffffffffffffffffffffffffffffffffffffff167ff2ae205522024c14e5a7a26ba6d1fb1252dc8e161b5abc79ed5795fd3c5b926160405160405180910390a25b8160035f8573ffffffffffffffffffffffffffffffffffffffff1673ffffffffffffffffffffffffffffffffffffffff1681526020019081526020015f205f015f8282546107079190611bad565b925050819055504260035f8573ffffffffffffffffffffffffffffffffffffffff1673ffffffffffffffffffffffffffffffffffffffff1681526020019081526020015f20600101819055505f670de0b6b3a76400006002548461076b9190611be0565b6107759190611be0565b90506107c3848260015f9054906101000a900473ffffffffffffffffffffffffffffffffffffffff1673ffffffffffffffffffffffffffffffffffffffff166111249092919063ffffffff16565b8373ffffffffffffffffffffffffffffffffffffffff167fb7f20d0949b6a8bc59d005af4a52f7ff5d0cfcde9056fa556adb0e4b24dcb6d2848360405161080b9291906119cd565b60405180910390a250505050565b5f5f5f8381526020019081526020015f20600101549050919050565b61083e82610819565b61084781611110565b61085183836111a3565b50505050565b7fa49807205ce4d355092ef5a8a18f56e8913cf4a201fbe287825b095693c2177561088181611110565b5f82116108c3576040517f08c379a00000000000000000000000000000000000000000000000000000000081526004016108ba90611c91565b60405180910390fd5b816002819055507fe6b19b2c6617851a0f4c49df91138e172046ffa3fc94114d4a7294d0e4362dd6826040516108f99190611940565b60405180910390a15050565b61090d61128c565b73ffffffffffffffffffffffffffffffffffffffff168173ffffffffffffffffffffffffffffffffffffffff1614610971576040517f6697b23200000000000000000000000000000000000000000000000000000000815260040160405180910390fd5b61097b8282611293565b505050565b606060048054905083106109c9576040517f08c379a00000000000000000000000000000000000000000000000000000000081526004016109c090611cf9565b60405180910390fd5b5f836004805490506109db9190611d17565b90505f8184116109eb57836109ed565b815b90505f8167ffffffffffffffff811115610a0a57610a09611d4a565b5b604051908082528060200260200182016040528015610a4357816020015b610a306114ea565b815260200190600190039081610a285790505b5090505f60048054905067ffffffffffffffff811115610a6657610a65611d4a565b5b604051908082528060200260200182016040528015610a9f57816020015b610a8c6114ea565b815260200190600190039081610a845790505b5090505f5f90505b600480549050811015610bbf57604051806040016040528060048381548110610ad357610ad2611d77565b5b905f5260205f20015f9054906101000a900473ffffffffffffffffffffffffffffffffffffffff1673ffffffffffffffffffffffffffffffffffffffff16815260200160035f60048581548110610b2d57610b2c611d77565b5b905f5260205f20015f9054906101000a900473ffffffffffffffffffffffffffffffffffffffff1673ffffffffffffffffffffffffffffffffffffffff1673ffffffffffffffffffffffffffffffffffffffff1681526020019081526020015f205f0154815250828281518110610ba757610ba6611d77565b5b60200260200101819052508080600101915050610aa7565b505f5f90505b815181108015610bdf57508388610bdc9190611bad565b81105b15610ce6575f8190505f600183610bf69190611bad565b90505b8351811015610c5757838281518110610c1557610c14611d77565b5b602002602001015160200151848281518110610c3457610c33611d77565b5b6020026020010151602001511115610c4a578091505b8080600101915050610bf9565b50818114610cd257828181518110610c7257610c71611d77565b5b6020026020010151838381518110610c8d57610c8c611d77565b5b6020026020010151848481518110610ca857610ca7611d77565b5b60200260200101858481518110610cc257610cc1611d77565b5b6020026020010182905282905250505b508080610cde90611da4565b915050610bc5565b505f5f90505b83811015610d4557818189610d019190611bad565b81518110610d1257610d11611d77565b5b6020026020010151838281518110610d2d57610d2c611d77565b5b60200260200101819052508080600101915050610cec565b508194505050505092915050565b7fa49807205ce4d355092ef5a8a18f56e8913cf4a201fbe287825b095693c2177581565b5f5f5f8481526020019081526020015f205f015f8373ffffffffffffffffffffffffffffffffffffffff1673ffffffffffffffffffffffffffffffffffffffff1681526020019081526020015f205f9054906101000a900460ff16905092915050565b5f5f1b610de681611110565b610e107fa49807205ce4d355092ef5a8a18f56e8913cf4a201fbe287825b095693c2177583610ed4565b5050565b5f5f1b81565b60025481565b60015f9054906101000a900473ffffffffffffffffffffffffffffffffffffffff1681565b5f5f1b610e5181611110565b610e7b7fa49807205ce4d355092ef5a8a18f56e8913cf4a201fbe287825b095693c2177583610835565b5050565b68056bc75e2d6310000081565b5f60035f8373ffffffffffffffffffffffffffffffffffffffff1673ffffffffffffffffffffffffffffffffffffffff1681526020019081526020015f205f01549050919050565b610edd82610819565b610ee681611110565b610ef08383611293565b50505050565b6003602052805f5260405f205f91509050805f0154908060010154905082565b68056bc75e2d6310000060015f9054906101000a900473ffffffffffffffffffffffffffffffffffffffff1673ffffffffffffffffffffffffffffffffffffffff1663dd62ed3e33306040518363ffffffff1660e01b8152600401610f7c929190611deb565b602060405180830381865afa158015610f97573d5f5f3e3d5ffd5b505050506040513d601f19601f82011682018060405250810190610fbb9190611e26565b1015610ffc576040517f08c379a0000000000000000000000000000000000000000000000000000000008152600401610ff390611e9b565b60405180910390fd5b611053333068056bc75e2d6310000060015f9054906101000a900473ffffffffffffffffffffffffffffffffffffffff1673ffffffffffffffffffffffffffffffffffffffff1661137c909392919063ffffffff16565b3373ffffffffffffffffffffffffffffffffffffffff167f769873612369de25d7a32b1071976767e3071b8182b9353e1cd5d6cf25b33dca838360405161109b929190611f03565b60405180910390a25050565b5f7f01ffc9a7000000000000000000000000000000000000000000000000000000007bffffffffffffffffffffffffffffffffffffffffffffffffffffffff1916827bffffffffffffffffffffffffffffffffffffffffffffffffffffffff1916149050919050565b6111218161111c61128c565b6113fe565b50565b61119e838473ffffffffffffffffffffffffffffffffffffffff1663a9059cbb8585604051602401611157929190611f25565b604051602081830303815290604052915060e01b6020820180517bffffffffffffffffffffffffffffffffffffffffffffffffffffffff838183161783525050505061144f565b505050565b5f6111ae8383610d77565b6112825760015f5f8581526020019081526020015f205f015f8473ffffffffffffffffffffffffffffffffffffffff1673ffffffffffffffffffffffffffffffffffffffff1681526020019081526020015f205f6101000a81548160ff02191690831515021790555061121f61128c565b73ffffffffffffffffffffffffffffffffffffffff168273ffffffffffffffffffffffffffffffffffffffff16847f2f8788117e7eff1d82e926ec794901d17c78024a50270940304540a733656f0d60405160405180910390a460019050611286565b5f90505b92915050565b5f33905090565b5f61129e8383610d77565b15611372575f5f5f8581526020019081526020015f205f015f8473ffffffffffffffffffffffffffffffffffffffff1673ffffffffffffffffffffffffffffffffffffffff1681526020019081526020015f205f6101000a81548160ff02191690831515021790555061130f61128c565b73ffffffffffffffffffffffffffffffffffffffff168273ffffffffffffffffffffffffffffffffffffffff16847ff6391f5c32d9c69d2a47ea670b442974b53935d1edc7fd64eb21e047a839171b60405160405180910390a460019050611376565b5f90505b92915050565b6113f8848573ffffffffffffffffffffffffffffffffffffffff166323b872dd8686866040516024016113b193929190611f4c565b604051602081830303815290604052915060e01b6020820180517bffffffffffffffffffffffffffffffffffffffffffffffffffffffff838183161783525050505061144f565b50505050565b6114088282610d77565b61144b5780826040517fe2517d3f000000000000000000000000000000000000000000000000000000008152600401611442929190611f81565b60405180910390fd5b5050565b5f5f60205f8451602086015f885af18061146e576040513d5f823e3d81fd5b3d92505f519150505f82146114875760018114156114a2565b5f8473ffffffffffffffffffffffffffffffffffffffff163b145b156114e457836040517f5274afe70000000000000000000000000000000000000000000000000000000081526004016114db9190611670565b60405180910390fd5b50505050565b60405180604001604052805f73ffffffffffffffffffffffffffffffffffffffff1681526020015f81525090565b5f5ffd5b5f5ffd5b5f7fffffffff0000000000000000000000000000000000000000000000000000000082169050919050565b61155481611520565b811461155e575f5ffd5b50565b5f8135905061156f8161154b565b92915050565b5f6020828403121561158a57611589611518565b5b5f61159784828501611561565b91505092915050565b5f8115159050919050565b6115b4816115a0565b82525050565b5f6020820190506115cd5f8301846115ab565b92915050565b5f819050919050565b6115e5816115d3565b81146115ef575f5ffd5b50565b5f81359050611600816115dc565b92915050565b5f6020828403121561161b5761161a611518565b5b5f611628848285016115f2565b91505092915050565b5f73ffffffffffffffffffffffffffffffffffffffff82169050919050565b5f61165a82611631565b9050919050565b61166a81611650565b82525050565b5f6020820190506116835f830184611661565b92915050565b61169281611650565b811461169c575f5ffd5b50565b5f813590506116ad81611689565b92915050565b5f5f604083850312156116c9576116c8611518565b5b5f6116d68582860161169f565b92505060206116e7858286016115f2565b9150509250929050565b5f819050919050565b611703816116f1565b811461170d575f5ffd5b50565b5f8135905061171e816116fa565b92915050565b5f6020828403121561173957611738611518565b5b5f61174684828501611710565b91505092915050565b611758816116f1565b82525050565b5f6020820190506117715f83018461174f565b92915050565b5f5f6040838503121561178d5761178c611518565b5b5f61179a85828601611710565b92505060206117ab8582860161169f565b9150509250929050565b5f5f604083850312156117cb576117ca611518565b5b5f6117d8858286016115f2565b92505060206117e9858286016115f2565b9150509250929050565b5f81519050919050565b5f82825260208201905092915050565b5f819050602082019050919050565b61182581611650565b82525050565b611834816115d3565b82525050565b604082015f82015161184e5f85018261181c565b506020820151611861602085018261182b565b50505050565b5f611872838361183a565b60408301905092915050565b5f602082019050919050565b5f611894826117f3565b61189e81856117fd565b93506118a98361180d565b805f5b838110156118d95781516118c08882611867565b97506118cb8361187e565b9250506001810190506118ac565b5085935050505092915050565b5f6020820190508181035f8301526118fe818461188a565b905092915050565b5f6020828403121561191b5761191a611518565b5b5f6119288482850161169f565b91505092915050565b61193a816115d3565b82525050565b5f6020820190506119535f830184611931565b92915050565b5f819050919050565b5f61197c61197761197284611631565b611959565b611631565b9050919050565b5f61198d82611962565b9050919050565b5f61199e82611983565b9050919050565b6119ae81611994565b82525050565b5f6020820190506119c75f8301846119a5565b92915050565b5f6040820190506119e05f830185611931565b6119ed6020830184611931565b9392505050565b5f5ffd5b5f5ffd5b5f5ffd5b5f5f83601f840112611a1557611a146119f4565b5b8235905067ffffffffffffffff811115611a3257611a316119f8565b5b602083019150836001820283011115611a4e57611a4d6119fc565b5b9250929050565b5f5f60208385031215611a6b57611a6a611518565b5b5f83013567ffffffffffffffff811115611a8857611a8761151c565b5b611a9485828601611a00565b92509250509250929050565b5f82825260208201905092915050565b7f496e76616c696420706c617965722061646472657373000000000000000000005f82015250565b5f611ae4601683611aa0565b9150611aef82611ab0565b602082019050919050565b5f6020820190508181035f830152611b1181611ad8565b9050919050565b7f53636f7265206d7573742062652067726561746572207468616e207a65726f005f82015250565b5f611b4c601f83611aa0565b9150611b5782611b18565b602082019050919050565b5f6020820190508181035f830152611b7981611b40565b9050919050565b7f4e487b71000000000000000000000000000000000000000000000000000000005f52601160045260245ffd5b5f611bb7826115d3565b9150611bc2836115d3565b9250828201905080821115611bda57611bd9611b80565b5b92915050565b5f611bea826115d3565b9150611bf5836115d3565b9250828202611c03816115d3565b91508282048414831517611c1a57611c19611b80565b5b5092915050565b7f4d756c7469706c696572206d7573742062652067726561746572207468616e205f8201527f7a65726f00000000000000000000000000000000000000000000000000000000602082015250565b5f611c7b602483611aa0565b9150611c8682611c21565b604082019050919050565b5f6020820190508181035f830152611ca881611c6f565b9050919050565b7f4f6666736574206f7574206f6620626f756e64730000000000000000000000005f82015250565b5f611ce3601483611aa0565b9150611cee82611caf565b602082019050919050565b5f6020820190508181035f830152611d1081611cd7565b9050919050565b5f611d21826115d3565b9150611d2c836115d3565b9250828203905081811115611d4457611d43611b80565b5b92915050565b7f4e487b71000000000000000000000000000000000000000000000000000000005f52604160045260245ffd5b7f4e487b71000000000000000000000000000000000000000000000000000000005f52603260045260245ffd5b5f611dae826115d3565b91507fffffffffffffffffffffffffffffffffffffffffffffffffffffffffffffffff8203611de057611ddf611b80565b5b600182019050919050565b5f604082019050611dfe5f830185611661565b611e0b6020830184611661565b9392505050565b5f81519050611e20816115dc565b92915050565b5f60208284031215611e3b57611e3a611518565b5b5f611e4884828501611e12565b91505092915050565b7f496e73756666696369656e7420616c6c6f77616e6365000000000000000000005f82015250565b5f611e85601683611aa0565b9150611e9082611e51565b602082019050919050565b5f6020820190508181035f830152611eb281611e79565b9050919050565b828183375f83830152505050565b5f601f19601f8301169050919050565b5f611ee28385611aa0565b9350611eef838584611eb9565b611ef883611ec7565b840190509392505050565b5f6020820190508181035f830152611f1c818486611ed7565b90509392505050565b5f604082019050611f385f830185611661565b611f456020830184611931565b9392505050565b5f606082019050611f5f5f830186611661565b611f6c6020830185611661565b611f796040830184611931565b949350505050565b5f604082019050611f945f830185611661565b611fa1602083018461174f565b939250505056fea2646970667358221220aff86586eed2327a3fe5c5a9fa48719d66c53f90dcbda49ad893d0d52f5e7ac364736f6c634300081e0033",
			"opcodes": "PUSH1 0x80 PUSH1 0x40 MSTORE PUSH1 0x1 PUSH1 0x2 SSTORE CALLVALUE DUP1 ISZERO PUSH2 0x14 JUMPI PUSH0 PUSH0 REVERT JUMPDEST POP PUSH1 0x40 MLOAD PUSH2 0x2293 CODESIZE SUB DUP1 PUSH2 0x2293 DUP4 CODECOPY DUP2 DUP2 ADD PUSH1 0x40 MSTORE DUP2 ADD SWAP1 PUSH2 0x36 SWAP2 SWAP1 PUSH2 0x27D JUMP JUMPDEST DUP1 PUSH1 0x1 PUSH0 PUSH2 0x100 EXP DUP2 SLOAD DUP2 PUSH20 0xFFFFFFFFFFFFFFFFFFFFFFFFFFFFFFFFFFFFFFFF MUL NOT AND SWAP1 DUP4 PUSH20 0xFFFFFFFFFFFFFFFFFFFFFFFFFFFFFFFFFFFFFFFF AND MUL OR SWAP1 SSTORE POP PUSH2 0x88 PUSH0 PUSH0 SHL CALLER PUSH2 0xC0 PUSH1 0x20 SHL PUSH1 0x20 SHR JUMP JUMPDEST POP PUSH2 0xB9 PUSH32 0xA49807205CE4D355092EF5A8A18F56E8913CF4A201FBE287825B095693C21775 CALLER PUSH2 0xC0 PUSH1 0x20 SHL PUSH1 0x20 SHR JUMP JUMPDEST POP POP PUSH2 0x2A8 JUMP JUMPDEST PUSH0 PUSH2 0xD1 DUP4 DUP4 PUSH2 0x1B5 PUSH1 0x20 SHL PUSH1 0x20 SHR JUMP JUMPDEST PUSH2 0x1AB JUMPI PUSH1 0x1 PUSH0 PUSH0 DUP6 DUP2 MSTORE PUSH1 0x20 ADD SWAP1 DUP2 MSTORE PUSH1 0x20 ADD PUSH0 KECCAK256 PUSH0 ADD PUSH0 DUP5 PUSH20 0xFFFFFFFFFFFFFFFFFFFFFFFFFFFFFFFFFFFFFFFF AND PUSH20 0xFFFFFFFFFFFFFFFFFFFFFFFFFFFFFFFFFFFFFFFF AND DUP2 MSTORE PUSH1 0x20 ADD SWAP1 DUP2 MSTORE PUSH1 0x20 ADD PUSH0 KECCAK256 PUSH0 PUSH2 0x100 EXP DUP2 SLOAD DUP2 PUSH1 0xFF MUL NOT AND SWAP1 DUP4 ISZERO ISZERO MUL OR SWAP1 SSTORE POP PUSH2 0x148 PUSH2 0x218 PUSH1 0x20 SHL PUSH1 0x20 SHR JUMP JUMPDEST PUSH20 0xFFFFFFFFFFFFFFFFFFFFFFFFFFFFFFFFFFFFFFFF AND DUP3 PUSH20 0xFFFFFFFFFFFFFFFFFFFFFFFFFFFFFFFFFFFFFFFF AND DUP5 PUSH32 0x2F8788117E7EFF1D82E926EC794901D17C78024A50270940304540A733656F0D PUSH1 0x40 MLOAD PUSH1 0x40 MLOAD DUP1 SWAP2 SUB SWAP1 LOG4 PUSH1 0x1 SWAP1 POP PUSH2 0x1AF JUMP JUMPDEST PUSH0 SWAP1 POP JUMPDEST SWAP3 SWAP2 POP POP JUMP JUMPDEST PUSH0 PUSH0 PUSH0 DUP5 DUP2 MSTORE PUSH1 0x20 ADD SWAP1 DUP2 MSTORE PUSH1 0x20 ADD PUSH0 KECCAK256 PUSH0 ADD PUSH0 DUP4 PUSH20 0xFFFFFFFFFFFFFFFFFFFFFFFFFFFFFFFFFFFFFFFF AND PUSH20 0xFFFFFFFFFFFFFFFFFFFFFFFFFFFFFFFFFFFFFFFF AND DUP2 MSTORE PUSH1 0x20 ADD SWAP1 DUP2 MSTORE PUSH1 0x20 ADD PUSH0 KECCAK256 PUSH0 SWAP1 SLOAD SWAP1 PUSH2 0x100 EXP SWAP1 DIV PUSH1 0xFF AND SWAP1 POP SWAP3 SWAP2 POP POP JUMP JUMPDEST PUSH0 CALLER SWAP1 POP SWAP1 JUMP JUMPDEST PUSH0 PUSH0 REVERT JUMPDEST PUSH0 PUSH20 0xFFFFFFFFFFFFFFFFFFFFFFFFFFFFFFFFFFFFFFFF DUP3 AND SWAP1 POP SWAP2 SWAP1 POP JUMP JUMPDEST PUSH0 PUSH2 0x24C DUP3 PUSH2 0x223 JUMP JUMPDEST SWAP1 POP SWAP2 SWAP1 POP JUMP JUMPDEST PUSH2 0x25C DUP2 PUSH2 0x242 JUMP JUMPDEST DUP2 EQ PUSH2 0x266 JUMPI PUSH0 PUSH0 REVERT JUMPDEST POP JUMP JUMPDEST PUSH0 DUP2 MLOAD SWAP1 POP PUSH2 0x277 DUP2 PUSH2 0x253 JUMP JUMPDEST SWAP3 SWAP2 POP POP JUMP JUMPDEST PUSH0 PUSH1 0x20 DUP3 DUP5 SUB SLT ISZERO PUSH2 0x292 JUMPI PUSH2 0x291 PUSH2 0x21F JUMP JUMPDEST JUMPDEST PUSH0 PUSH2 0x29F DUP5 DUP3 DUP6 ADD PUSH2 0x269 JUMP JUMPDEST SWAP2 POP POP SWAP3 SWAP2 POP POP JUMP JUMPDEST PUSH2 0x1FDE DUP1 PUSH2 0x2B5 PUSH0 CODECOPY PUSH0 RETURN INVALID PUSH1 0x80 PUSH1 0x40 MSTORE CALLVALUE DUP1 ISZERO PUSH2 0xF JUMPI PUSH0 PUSH0 REVERT JUMPDEST POP PUSH1 0x4 CALLDATASIZE LT PUSH2 0x12A JUMPI PUSH0 CALLDATALOAD PUSH1 0xE0 SHR DUP1 PUSH4 0x9A19C7B0 GT PUSH2 0xAB JUMPI DUP1 PUSH4 0xD12AF19A GT PUSH2 0x6F JUMPI DUP1 PUSH4 0xD12AF19A EQ PUSH2 0x33E JUMPI DUP1 PUSH4 0xD47875D0 EQ PUSH2 0x35C JUMPI DUP1 PUSH4 0xD547741F EQ PUSH2 0x38C JUMPI DUP1 PUSH4 0xE2EB41FF EQ PUSH2 0x3A8 JUMPI DUP1 PUSH4 0xED4B7EAA EQ PUSH2 0x3D9 JUMPI PUSH2 0x12A JUMP JUMPDEST DUP1 PUSH4 0x9A19C7B0 EQ PUSH2 0x2AC JUMPI DUP1 PUSH4 0xA217FDDF EQ PUSH2 0x2C8 JUMPI DUP1 PUSH4 0xBA3F5A12 EQ PUSH2 0x2E6 JUMPI DUP1 PUSH4 0xC3DFDAE6 EQ PUSH2 0x304 JUMPI DUP1 PUSH4 0xC634B78E EQ PUSH2 0x322 JUMPI PUSH2 0x12A JUMP JUMPDEST DUP1 PUSH4 0x3596362B GT PUSH2 0xF2 JUMPI DUP1 PUSH4 0x3596362B EQ PUSH2 0x1F6 JUMPI DUP1 PUSH4 0x36568ABE EQ PUSH2 0x212 JUMPI DUP1 PUSH4 0x73AF16FC EQ PUSH2 0x22E JUMPI DUP1 PUSH4 0x75B238FC EQ PUSH2 0x25E JUMPI DUP1 PUSH4 0x91D14854 EQ PUSH2 0x27C JUMPI PUSH2 0x12A JUMP JUMPDEST DUP1 PUSH4 0x1FFC9A7 EQ PUSH2 0x12E JUMPI DUP1 PUSH4 0x15C6AEE2 EQ PUSH2 0x15E JUMPI DUP1 PUSH4 0x1DB544C0 EQ PUSH2 0x18E JUMPI DUP1 PUSH4 0x248A9CA3 EQ PUSH2 0x1AA JUMPI DUP1 PUSH4 0x2F2FF15D EQ PUSH2 0x1DA JUMPI JUMPDEST PUSH0 PUSH0 REVERT JUMPDEST PUSH2 0x148 PUSH1 0x4 DUP1 CALLDATASIZE SUB DUP2 ADD SWAP1 PUSH2 0x143 SWAP2 SWAP1 PUSH2 0x1575 JUMP JUMPDEST PUSH2 0x3F5 JUMP JUMPDEST PUSH1 0x40 MLOAD PUSH2 0x155 SWAP2 SWAP1 PUSH2 0x15BA JUMP JUMPDEST PUSH1 0x40 MLOAD DUP1 SWAP2 SUB SWAP1 RETURN JUMPDEST PUSH2 0x178 PUSH1 0x4 DUP1 CALLDATASIZE SUB DUP2 ADD SWAP1 PUSH2 0x173 SWAP2 SWAP1 PUSH2 0x1606 JUMP JUMPDEST PUSH2 0x46E JUMP JUMPDEST PUSH1 0x40 MLOAD PUSH2 0x185 SWAP2 SWAP1 PUSH2 0x1670 JUMP JUMPDEST PUSH1 0x40 MLOAD DUP1 SWAP2 SUB SWAP1 RETURN JUMPDEST PUSH2 0x1A8 PUSH1 0x4 DUP1 CALLDATASIZE SUB DUP2 ADD SWAP1 PUSH2 0x1A3 SWAP2 SWAP1 PUSH2 0x16B3 JUMP JUMPDEST PUSH2 0x4A9 JUMP JUMPDEST STOP JUMPDEST PUSH2 0x1C4 PUSH1 0x4 DUP1 CALLDATASIZE SUB DUP2 ADD SWAP1 PUSH2 0x1BF SWAP2 SWAP1 PUSH2 0x1724 JUMP JUMPDEST PUSH2 0x819 JUMP JUMPDEST PUSH1 0x40 MLOAD PUSH2 0x1D1 SWAP2 SWAP1 PUSH2 0x175E JUMP JUMPDEST PUSH1 0x40 MLOAD DUP1 SWAP2 SUB SWAP1 RETURN JUMPDEST PUSH2 0x1F4 PUSH1 0x4 DUP1 CALLDATASIZE SUB DUP2 ADD SWAP1 PUSH2 0x1EF SWAP2 SWAP1 PUSH2 0x1777 JUMP JUMPDEST PUSH2 0x835 JUMP JUMPDEST STOP JUMPDEST PUSH2 0x210 PUSH1 0x4 DUP1 CALLDATASIZE SUB DUP2 ADD SWAP1 PUSH2 0x20B SWAP2 SWAP1 PUSH2 0x1606 JUMP JUMPDEST PUSH2 0x857 JUMP JUMPDEST STOP JUMPDEST PUSH2 0x22C PUSH1 0x4 DUP1 CALLDATASIZE SUB DUP2 ADD SWAP1 PUSH2 0x227 SWAP2 SWAP1 PUSH2 0x1777 JUMP JUMPDEST PUSH2 0x905 JUMP JUMPDEST STOP JUMPDEST PUSH2 0x248 PUSH1 0x4 DUP1 CALLDATASIZE SUB DUP2 ADD SWAP1 PUSH2 0x243 SWAP2 SWAP1 PUSH2 0x17B5 JUMP JUMPDEST PUSH2 0x980 JUMP JUMPDEST PUSH1 0x40 MLOAD PUSH2 0x255 SWAP2 SWAP1 PUSH2 0x18E6 JUMP JUMPDEST PUSH1 0x40 MLOAD DUP1 SWAP2 SUB SWAP1 RETURN JUMPDEST PUSH2 0x266 PUSH2 0xD53 JUMP JUMPDEST PUSH1 0x40 MLOAD PUSH2 0x273 SWAP2 SWAP1 PUSH2 0x175E JUMP JUMPDEST PUSH1 0x40 MLOAD DUP1 SWAP2 SUB SWAP1 RETURN JUMPDEST PUSH2 0x296 PUSH1 0x4 DUP1 CALLDATASIZE SUB DUP2 ADD SWAP1 PUSH2 0x291 SWAP2 SWAP1 PUSH2 0x1777 JUMP JUMPDEST PUSH2 0xD77 JUMP JUMPDEST PUSH1 0x40 MLOAD PUSH2 0x2A3 SWAP2 SWAP1 PUSH2 0x15BA JUMP JUMPDEST PUSH1 0x40 MLOAD DUP1 SWAP2 SUB SWAP1 RETURN JUMPDEST PUSH2 0x2C6 PUSH1 0x4 DUP1 CALLDATASIZE SUB DUP2 ADD SWAP1 PUSH2 0x2C1 SWAP2 SWAP1 PUSH2 0x1906 JUMP JUMPDEST PUSH2 0xDDA JUMP JUMPDEST STOP JUMPDEST PUSH2 0x2D0 PUSH2 0xE14 JUMP JUMPDEST PUSH1 0x40 MLOAD PUSH2 0x2DD SWAP2 SWAP1 PUSH2 0x175E JUMP JUMPDEST PUSH1 0x40 MLOAD DUP1 SWAP2 SUB SWAP1 RETURN JUMPDEST PUSH2 0x2EE PUSH2 0xE1A JUMP JUMPDEST PUSH1 0x40 MLOAD PUSH2 0x2FB SWAP2 SWAP1 PUSH2 0x1940 JUMP JUMPDEST PUSH1 0x40 MLOAD DUP1 SWAP2 SUB SWAP1 RETURN JUMPDEST PUSH2 0x30C PUSH2 0xE20 JUMP JUMPDEST PUSH1 0x40 MLOAD PUSH2 0x319 SWAP2 SWAP1 PUSH2 0x19B4 JUMP JUMPDEST PUSH1 0x40 MLOAD DUP1 SWAP2 SUB SWAP1 RETURN JUMPDEST PUSH2 0x33C PUSH1 0x4 DUP1 CALLDATASIZE SUB DUP2 ADD SWAP1 PUSH2 0x337 SWAP2 SWAP1 PUSH2 0x1906 JUMP JUMPDEST PUSH2 0xE45 JUMP JUMPDEST STOP JUMPDEST PUSH2 0x346 PUSH2 0xE7F JUMP JUMPDEST PUSH1 0x40 MLOAD PUSH2 0x353 SWAP2 SWAP1 PUSH2 0x1940 JUMP JUMPDEST PUSH1 0x40 MLOAD DUP1 SWAP2 SUB SWAP1 RETURN JUMPDEST PUSH2 0x376 PUSH1 0x4 DUP1 CALLDATASIZE SUB DUP2 ADD SWAP1 PUSH2 0x371 SWAP2 SWAP1 PUSH2 0x1906 JUMP JUMPDEST PUSH2 0xE8C JUMP JUMPDEST PUSH1 0x40 MLOAD PUSH2 0x383 SWAP2 SWAP1 PUSH2 0x1940 JUMP JUMPDEST PUSH1 0x40 MLOAD DUP1 SWAP2 SUB SWAP1 RETURN JUMPDEST PUSH2 0x3A6 PUSH1 0x4 DUP1 CALLDATASIZE SUB DUP2 ADD SWAP1 PUSH2 0x3A1 SWAP2 SWAP1 PUSH2 0x1777 JUMP JUMPDEST PUSH2 0xED4 JUMP JUMPDEST STOP JUMPDEST PUSH2 0x3C2 PUSH1 0x4 DUP1 CALLDATASIZE SUB DUP2 ADD SWAP1 PUSH2 0x3BD SWAP2 SWAP1 PUSH2 0x1906 JUMP JUMPDEST PUSH2 0xEF6 JUMP JUMPDEST PUSH1 0x40 MLOAD PUSH2 0x3D0 SWAP3 SWAP2 SWAP1 PUSH2 0x19CD JUMP JUMPDEST PUSH1 0x40 MLOAD DUP1 SWAP2 SUB SWAP1 RETURN JUMPDEST PUSH2 0x3F3 PUSH1 0x4 DUP1 CALLDATASIZE SUB DUP2 ADD SWAP1 PUSH2 0x3EE SWAP2 SWAP1 PUSH2 0x1A55 JUMP JUMPDEST PUSH2 0xF16 JUMP JUMPDEST STOP JUMPDEST PUSH0 PUSH32 0x7965DB0B00000000000000000000000000000000000000000000000000000000 PUSH28 0xFFFFFFFFFFFFFFFFFFFFFFFFFFFFFFFFFFFFFFFFFFFFFFFFFFFFFFFF NOT AND DUP3 PUSH28 0xFFFFFFFFFFFFFFFFFFFFFFFFFFFFFFFFFFFFFFFFFFFFFFFFFFFFFFFF NOT AND EQ DUP1 PUSH2 0x467 JUMPI POP PUSH2 0x466 DUP3 PUSH2 0x10A7 JUMP JUMPDEST JUMPDEST SWAP1 POP SWAP2 SWAP1 POP JUMP JUMPDEST PUSH1 0x4 DUP2 DUP2 SLOAD DUP2 LT PUSH2 0x47D JUMPI PUSH0 DUP1 REVERT JUMPDEST SWAP1 PUSH0 MSTORE PUSH1 0x20 PUSH0 KECCAK256 ADD PUSH0 SWAP2 POP SLOAD SWAP1 PUSH2 0x100 EXP SWAP1 DIV PUSH20 0xFFFFFFFFFFFFFFFFFFFFFFFFFFFFFFFFFFFFFFFF AND DUP2 JUMP JUMPDEST PUSH32 0xA49807205CE4D355092EF5A8A18F56E8913CF4A201FBE287825B095693C21775 PUSH2 0x4D3 DUP2 PUSH2 0x1110 JUMP JUMPDEST PUSH0 PUSH20 0xFFFFFFFFFFFFFFFFFFFFFFFFFFFFFFFFFFFFFFFF AND DUP4 PUSH20 0xFFFFFFFFFFFFFFFFFFFFFFFFFFFFFFFFFFFFFFFF AND SUB PUSH2 0x541 JUMPI PUSH1 0x40 MLOAD PUSH32 0x8C379A000000000000000000000000000000000000000000000000000000000 DUP2 MSTORE PUSH1 0x4 ADD PUSH2 0x538 SWAP1 PUSH2 0x1AFA JUMP JUMPDEST PUSH1 0x40 MLOAD DUP1 SWAP2 SUB SWAP1 REVERT JUMPDEST PUSH0 DUP3 GT PUSH2 0x583 JUMPI PUSH1 0x40 MLOAD PUSH32 0x8C379A000000000000000000000000000000000000000000000000000000000 DUP2 MSTORE PUSH1 0x4 ADD PUSH2 0x57A SWAP1 PUSH2 0x1B62 JUMP JUMPDEST PUSH1 0x40 MLOAD DUP1 SWAP2 SUB SWAP1 REVERT JUMPDEST PUSH0 PUSH1 0x3 PUSH0 DUP6 PUSH20 0xFFFFFFFFFFFFFFFFFFFFFFFFFFFFFFFFFFFFFFFF AND PUSH20 0xFFFFFFFFFFFFFFFFFFFFFFFFFFFFFFFFFFFFFFFF AND DUP2 MSTORE PUSH1 0x20 ADD SWAP1 DUP2 MSTORE PUSH1 0x20 ADD PUSH0 KECCAK256 PUSH0 ADD SLOAD EQ DUP1 ISZERO PUSH2 0x610 JUMPI POP PUSH0 PUSH1 0x3 PUSH0 DUP6 PUSH20 0xFFFFFFFFFFFFFFFFFFFFFFFFFFFFFFFFFFFFFFFF AND PUSH20 0xFFFFFFFFFFFFFFFFFFFFFFFFFFFFFFFFFFFFFFFF AND DUP2 MSTORE PUSH1 0x20 ADD SWAP1 DUP2 MSTORE PUSH1 0x20 ADD PUSH0 KECCAK256 PUSH1 0x1 ADD SLOAD EQ JUMPDEST ISZERO PUSH2 0x6B9 JUMPI PUSH1 0x4 DUP4 SWAP1 DUP1 PUSH1 0x1 DUP2 SLOAD ADD DUP1 DUP3 SSTORE DUP1 SWAP2 POP POP PUSH1 0x1 SWAP1 SUB SWAP1 PUSH0 MSTORE PUSH1 0x20 PUSH0 KECCAK256 ADD PUSH0 SWAP1 SWAP2 SWAP1 SWAP2 SWAP1 SWAP2 PUSH2 0x100 EXP DUP2 SLOAD DUP2 PUSH20 0xFFFFFFFFFFFFFFFFFFFFFFFFFFFFFFFFFFFFFFFF MUL NOT AND SWAP1 DUP4 PUSH20 0xFFFFFFFFFFFFFFFFFFFFFFFFFFFFFFFFFFFFFFFF AND MUL OR SWAP1 SSTORE POP DUP3 PUSH20 0xFFFFFFFFFFFFFFFFFFFFFFFFFFFFFFFFFFFFFFFF AND PUSH32 0xF2AE205522024C14E5A7A26BA6D1FB1252DC8E161B5ABC79ED5795FD3C5B9261 PUSH1 0x40 MLOAD PUSH1 0x40 MLOAD DUP1 SWAP2 SUB SWAP1 LOG2 JUMPDEST DUP2 PUSH1 0x3 PUSH0 DUP6 PUSH20 0xFFFFFFFFFFFFFFFFFFFFFFFFFFFFFFFFFFFFFFFF AND PUSH20 0xFFFFFFFFFFFFFFFFFFFFFFFFFFFFFFFFFFFFFFFF AND DUP2 MSTORE PUSH1 0x20 ADD SWAP1 DUP2 MSTORE PUSH1 0x20 ADD PUSH0 KECCAK256 PUSH0 ADD PUSH0 DUP3 DUP3 SLOAD PUSH2 0x707 SWAP2 SWAP1 PUSH2 0x1BAD JUMP JUMPDEST SWAP3 POP POP DUP2 SWAP1 SSTORE POP TIMESTAMP PUSH1 0x3 PUSH0 DUP6 PUSH20 0xFFFFFFFFFFFFFFFFFFFFFFFFFFFFFFFFFFFFFFFF AND PUSH20 0xFFFFFFFFFFFFFFFFFFFFFFFFFFFFFFFFFFFFFFFF AND DUP2 MSTORE PUSH1 0x20 ADD SWAP1 DUP2 MSTORE PUSH1 0x20 ADD PUSH0 KECCAK256 PUSH1 0x1 ADD DUP2 SWAP1 SSTORE POP PUSH0 PUSH8 0xDE0B6B3A7640000 PUSH1 0x2 SLOAD DUP5 PUSH2 0x76B SWAP2 SWAP1 PUSH2 0x1BE0 JUMP JUMPDEST PUSH2 0x775 SWAP2 SWAP1 PUSH2 0x1BE0 JUMP JUMPDEST SWAP1 POP PUSH2 0x7C3 DUP5 DUP3 PUSH1 0x1 PUSH0 SWAP1 SLOAD SWAP1 PUSH2 0x100 EXP SWAP1 DIV PUSH20 0xFFFFFFFFFFFFFFFFFFFFFFFFFFFFFFFFFFFFFFFF AND PUSH20 0xFFFFFFFFFFFFFFFFFFFFFFFFFFFFFFFFFFFFFFFF AND PUSH2 0x1124 SWAP1 SWAP3 SWAP2 SWAP1 PUSH4 0xFFFFFFFF AND JUMP JUMPDEST DUP4 PUSH20 0xFFFFFFFFFFFFFFFFFFFFFFFFFFFFFFFFFFFFFFFF AND PUSH32 0xB7F20D0949B6A8BC59D005AF4A52F7FF5D0CFCDE9056FA556ADB0E4B24DCB6D2 DUP5 DUP4 PUSH1 0x40 MLOAD PUSH2 0x80B SWAP3 SWAP2 SWAP1 PUSH2 0x19CD JUMP JUMPDEST PUSH1 0x40 MLOAD DUP1 SWAP2 SUB SWAP1 LOG2 POP POP POP POP JUMP JUMPDEST PUSH0 PUSH0 PUSH0 DUP4 DUP2 MSTORE PUSH1 0x20 ADD SWAP1 DUP2 MSTORE PUSH1 0x20 ADD PUSH0 KECCAK256 PUSH1 0x1 ADD SLOAD SWAP1 POP SWAP2 SWAP1 POP JUMP JUMPDEST PUSH2 0x83E DUP3 PUSH2 0x819 JUMP JUMPDEST PUSH2 0x847 DUP2 PUSH2 0x1110 JUMP JUMPDEST PUSH2 0x851 DUP4 DUP4 PUSH2 0x11A3 JUMP JUMPDEST POP POP POP POP JUMP JUMPDEST PUSH32 0xA49807205CE4D355092EF5A8A18F56E8913CF4A201FBE287825B095693C21775 PUSH2 0x881 DUP2 PUSH2 0x1110 JUMP JUMPDEST PUSH0 DUP3 GT PUSH2 0x8C3 JUMPI PUSH1 0x40 MLOAD PUSH32 0x8C379A000000000000000000000000000000000000000000000000000000000 DUP2 MSTORE PUSH1 0x4 ADD PUSH2 0x8BA SWAP1 PUSH2 0x1C91 JUMP JUMPDEST PUSH1 0x40 MLOAD DUP1 SWAP2 SUB SWAP1 REVERT JUMPDEST DUP2 PUSH1 0x2 DUP2 SWAP1 SSTORE POP PUSH32 0xE6B19B2C6617851A0F4C49DF91138E172046FFA3FC94114D4A7294D0E4362DD6 DUP3 PUSH1 0x40 MLOAD PUSH2 0x8F9 SWAP2 SWAP1 PUSH2 0x1940 JUMP JUMPDEST PUSH1 0x40 MLOAD DUP1 SWAP2 SUB SWAP1 LOG1 POP POP JUMP JUMPDEST PUSH2 0x90D PUSH2 0x128C JUMP JUMPDEST PUSH20 0xFFFFFFFFFFFFFFFFFFFFFFFFFFFFFFFFFFFFFFFF AND DUP2 PUSH20 0xFFFFFFFFFFFFFFFFFFFFFFFFFFFFFFFFFFFFFFFF AND EQ PUSH2 0x971 JUMPI PUSH1 0x40 MLOAD PUSH32 0x6697B23200000000000000000000000000000000000000000000000000000000 DUP2 MSTORE PUSH1 0x4 ADD PUSH1 0x40 MLOAD DUP1 SWAP2 SUB SWAP1 REVERT JUMPDEST PUSH2 0x97B DUP3 DUP3 PUSH2 0x1293 JUMP JUMPDEST POP POP POP JUMP JUMPDEST PUSH1 0x60 PUSH1 0x4 DUP1 SLOAD SWAP1 POP DUP4 LT PUSH2 0x9C9 JUMPI PUSH1 0x40 MLOAD PUSH32 0x8C379A000000000000000000000000000000000000000000000000000000000 DUP2 MSTORE PUSH1 0x4 ADD PUSH2 0x9C0 SWAP1 PUSH2 0x1CF9 JUMP JUMPDEST PUSH1 0x40 MLOAD DUP1 SWAP2 SUB SWAP1 REVERT JUMPDEST PUSH0 DUP4 PUSH1 0x4 DUP1 SLOAD SWAP1 POP PUSH2 0x9DB SWAP2 SWAP1 PUSH2 0x1D17 JUMP JUMPDEST SWAP1 POP PUSH0 DUP2 DUP5 GT PUSH2 0x9EB JUMPI DUP4 PUSH2 0x9ED JUMP JUMPDEST DUP2 JUMPDEST SWAP1 POP PUSH0 DUP2 PUSH8 0xFFFFFFFFFFFFFFFF DUP2 GT ISZERO PUSH2 0xA0A JUMPI PUSH2 0xA09 PUSH2 0x1D4A JUMP JUMPDEST JUMPDEST PUSH1 0x40 MLOAD SWAP1 DUP1 DUP3 MSTORE DUP1 PUSH1 0x20 MUL PUSH1 0x20 ADD DUP3 ADD PUSH1 0x40 MSTORE DUP1 ISZERO PUSH2 0xA43 JUMPI DUP2 PUSH1 0x20 ADD JUMPDEST PUSH2 0xA30 PUSH2 0x14EA JUMP JUMPDEST DUP2 MSTORE PUSH1 0x20 ADD SWAP1 PUSH1 0x1 SWAP1 SUB SWAP1 DUP2 PUSH2 0xA28 JUMPI SWAP1 POP JUMPDEST POP SWAP1 POP PUSH0 PUSH1 0x4 DUP1 SLOAD SWAP1 POP PUSH8 0xFFFFFFFFFFFFFFFF DUP2 GT ISZERO PUSH2 0xA66 JUMPI PUSH2 0xA65 PUSH2 0x1D4A JUMP JUMPDEST JUMPDEST PUSH1 0x40 MLOAD SWAP1 DUP1 DUP3 MSTORE DUP1 PUSH1 0x20 MUL PUSH1 0x20 ADD DUP3 ADD PUSH1 0x40 MSTORE DUP1 ISZERO PUSH2 0xA9F JUMPI DUP2 PUSH1 0x20 ADD JUMPDEST PUSH2 0xA8C PUSH2 0x14EA JUMP JUMPDEST DUP2 MSTORE PUSH1 0x20 ADD SWAP1 PUSH1 0x1 SWAP1 SUB SWAP1 DUP2 PUSH2 0xA84 JUMPI SWAP1 POP JUMPDEST POP SWAP1 POP PUSH0 PUSH0 SWAP1 POP JUMPDEST PUSH1 0x4 DUP1 SLOAD SWAP1 POP DUP2 LT ISZERO PUSH2 0xBBF JUMPI PUSH1 0x40 MLOAD DUP1 PUSH1 0x40 ADD PUSH1 0x40 MSTORE DUP1 PUSH1 0x4 DUP4 DUP2 SLOAD DUP2 LT PUSH2 0xAD3 JUMPI PUSH2 0xAD2 PUSH2 0x1D77 JUMP JUMPDEST JUMPDEST SWAP1 PUSH0 MSTORE PUSH1 0x20 PUSH0 KECCAK256 ADD PUSH0 SWAP1 SLOAD SWAP1 PUSH2 0x100 EXP SWAP1 DIV PUSH20 0xFFFFFFFFFFFFFFFFFFFFFFFFFFFFFFFFFFFFFFFF AND PUSH20 0xFFFFFFFFFFFFFFFFFFFFFFFFFFFFFFFFFFFFFFFF AND DUP2 MSTORE PUSH1 0x20 ADD PUSH1 0x3 PUSH0 PUSH1 0x4 DUP6 DUP2 SLOAD DUP2 LT PUSH2 0xB2D JUMPI PUSH2 0xB2C PUSH2 0x1D77 JUMP JUMPDEST JUMPDEST SWAP1 PUSH0 MSTORE PUSH1 0x20 PUSH0 KECCAK256 ADD PUSH0 SWAP1 SLOAD SWAP1 PUSH2 0x100 EXP SWAP1 DIV PUSH20 0xFFFFFFFFFFFFFFFFFFFFFFFFFFFFFFFFFFFFFFFF AND PUSH20 0xFFFFFFFFFFFFFFFFFFFFFFFFFFFFFFFFFFFFFFFF AND PUSH20 0xFFFFFFFFFFFFFFFFFFFFFFFFFFFFFFFFFFFFFFFF AND DUP2 MSTORE PUSH1 0x20 ADD SWAP1 DUP2 MSTORE PUSH1 0x20 ADD PUSH0 KECCAK256 PUSH0 ADD SLOAD DUP2 MSTORE POP DUP3 DUP3 DUP2 MLOAD DUP2 LT PUSH2 0xBA7 JUMPI PUSH2 0xBA6 PUSH2 0x1D77 JUMP JUMPDEST JUMPDEST PUSH1 0x20 MUL PUSH1 0x20 ADD ADD DUP2 SWAP1 MSTORE POP DUP1 DUP1 PUSH1 0x1 ADD SWAP2 POP POP PUSH2 0xAA7 JUMP JUMPDEST POP PUSH0 PUSH0 SWAP1 POP JUMPDEST DUP2 MLOAD DUP2 LT DUP1 ISZERO PUSH2 0xBDF JUMPI POP DUP4 DUP9 PUSH2 0xBDC SWAP2 SWAP1 PUSH2 0x1BAD JUMP JUMPDEST DUP2 LT JUMPDEST ISZERO PUSH2 0xCE6 JUMPI PUSH0 DUP2 SWAP1 POP PUSH0 PUSH1 0x1 DUP4 PUSH2 0xBF6 SWAP2 SWAP1 PUSH2 0x1BAD JUMP JUMPDEST SWAP1 POP JUMPDEST DUP4 MLOAD DUP2 LT ISZERO PUSH2 0xC57 JUMPI DUP4 DUP3 DUP2 MLOAD DUP2 LT PUSH2 0xC15 JUMPI PUSH2 0xC14 PUSH2 0x1D77 JUMP JUMPDEST JUMPDEST PUSH1 0x20 MUL PUSH1 0x20 ADD ADD MLOAD PUSH1 0x20 ADD MLOAD DUP5 DUP3 DUP2 MLOAD DUP2 LT PUSH2 0xC34 JUMPI PUSH2 0xC33 PUSH2 0x1D77 JUMP JUMPDEST JUMPDEST PUSH1 0x20 MUL PUSH1 0x20 ADD ADD MLOAD PUSH1 0x20 ADD MLOAD GT ISZERO PUSH2 0xC4A JUMPI DUP1 SWAP2 POP JUMPDEST DUP1 DUP1 PUSH1 0x1 ADD SWAP2 POP POP PUSH2 0xBF9 JUMP JUMPDEST POP DUP2 DUP2 EQ PUSH2 0xCD2 JUMPI DUP3 DUP2 DUP2 MLOAD DUP2 LT PUSH2 0xC72 JUMPI PUSH2 0xC71 PUSH2 0x1D77 JUMP JUMPDEST JUMPDEST PUSH1 0x20 MUL PUSH1 0x20 ADD ADD MLOAD DUP4 DUP4 DUP2 MLOAD DUP2 LT PUSH2 0xC8D JUMPI PUSH2 0xC8C PUSH2 0x1D77 JUMP JUMPDEST JUMPDEST PUSH1 0x20 MUL PUSH1 0x20 ADD ADD MLOAD DUP5 DUP5 DUP2 MLOAD DUP2 LT PUSH2 0xCA8 JUMPI PUSH2 0xCA7 PUSH2 0x1D77 JUMP JUMPDEST JUMPDEST PUSH1 0x20 MUL PUSH1 0x20 ADD ADD DUP6 DUP5 DUP2 MLOAD DUP2 LT PUSH2 0xCC2 JUMPI PUSH2 0xCC1 PUSH2 0x1D77 JUMP JUMPDEST JUMPDEST PUSH1 0x20 MUL PUSH1 0x20 ADD ADD DUP3 SWAP1 MSTORE DUP3 SWAP1 MSTORE POP POP JUMPDEST POP DUP1 DUP1 PUSH2 0xCDE SWAP1 PUSH2 0x1DA4 JUMP JUMPDEST SWAP2 POP POP PUSH2 0xBC5 JUMP JUMPDEST POP PUSH0 PUSH0 SWAP1 POP JUMPDEST DUP4 DUP2 LT ISZERO PUSH2 0xD45 JUMPI DUP2 DUP2 DUP10 PUSH2 0xD01 SWAP2 SWAP1 PUSH2 0x1BAD JUMP JUMPDEST DUP2 MLOAD DUP2 LT PUSH2 0xD12 JUMPI PUSH2 0xD11 PUSH2 0x1D77 JUMP JUMPDEST JUMPDEST PUSH1 0x20 MUL PUSH1 0x20 ADD ADD MLOAD DUP4 DUP3 DUP2 MLOAD DUP2 LT PUSH2 0xD2D JUMPI PUSH2 0xD2C PUSH2 0x1D77 JUMP JUMPDEST JUMPDEST PUSH1 0x20 MUL PUSH1 0x20 ADD ADD DUP2 SWAP1 MSTORE POP DUP1 DUP1 PUSH1 0x1 ADD SWAP2 POP POP PUSH2 0xCEC JUMP JUMPDEST POP DUP2 SWAP5 POP POP POP POP POP SWAP3 SWAP2 POP POP JUMP JUMPDEST PUSH32 0xA49807205CE4D355092EF5A8A18F56E8913CF4A201FBE287825B095693C21775 DUP2 JUMP JUMPDEST PUSH0 PUSH0 PUSH0 DUP5 DUP2 MSTORE PUSH1 0x20 ADD SWAP1 DUP2 MSTORE PUSH1 0x20 ADD PUSH0 KECCAK256 PUSH0 ADD PUSH0 DUP4 PUSH20 0xFFFFFFFFFFFFFFFFFFFFFFFFFFFFFFFFFFFFFFFF AND PUSH20 0xFFFFFFFFFFFFFFFFFFFFFFFFFFFFFFFFFFFFFFFF AND DUP2 MSTORE PUSH1 0x20 ADD SWAP1 DUP2 MSTORE PUSH1 0x20 ADD PUSH0 KECCAK256 PUSH0 SWAP1 SLOAD SWAP1 PUSH2 0x100 EXP SWAP1 DIV PUSH1 0xFF AND SWAP1 POP SWAP3 SWAP2 POP POP JUMP JUMPDEST PUSH0 PUSH0 SHL PUSH2 0xDE6 DUP2 PUSH2 0x1110 JUMP JUMPDEST PUSH2 0xE10 PUSH32 0xA49807205CE4D355092EF5A8A18F56E8913CF4A201FBE287825B095693C21775 DUP4 PUSH2 0xED4 JUMP JUMPDEST POP POP JUMP JUMPDEST PUSH0 PUSH0 SHL DUP2 JUMP JUMPDEST PUSH1 0x2 SLOAD DUP2 JUMP JUMPDEST PUSH1 0x1 PUSH0 SWAP1 SLOAD SWAP1 PUSH2 0x100 EXP SWAP1 DIV PUSH20 0xFFFFFFFFFFFFFFFFFFFFFFFFFFFFFFFFFFFFFFFF AND DUP2 JUMP JUMPDEST PUSH0 PUSH0 SHL PUSH2 0xE51 DUP2 PUSH2 0x1110 JUMP JUMPDEST PUSH2 0xE7B PUSH32 0xA49807205CE4D355092EF5A8A18F56E8913CF4A201FBE287825B095693C21775 DUP4 PUSH2 0x835 JUMP JUMPDEST POP POP JUMP JUMPDEST PUSH9 0x56BC75E2D63100000 DUP2 JUMP JUMPDEST PUSH0 PUSH1 0x3 PUSH0 DUP4 PUSH20 0xFFFFFFFFFFFFFFFFFFFFFFFFFFFFFFFFFFFFFFFF AND PUSH20 0xFFFFFFFFFFFFFFFFFFFFFFFFFFFFFFFFFFFFFFFF AND DUP2 MSTORE PUSH1 0x20 ADD SWAP1 DUP2 MSTORE PUSH1 0x20 ADD PUSH0 KECCAK256 PUSH0 ADD SLOAD SWAP1 POP SWAP2 SWAP1 POP JUMP JUMPDEST PUSH2 0xEDD DUP3 PUSH2 0x819 JUMP JUMPDEST PUSH2 0xEE6 DUP2 PUSH2 0x1110 JUMP JUMPDEST PUSH2 0xEF0 DUP4 DUP4 PUSH2 0x1293 JUMP JUMPDEST POP POP POP POP JUMP JUMPDEST PUSH1 0x3 PUSH1 0x20 MSTORE DUP1 PUSH0 MSTORE PUSH1 0x40 PUSH0 KECCAK256 PUSH0 SWAP2 POP SWAP1 POP DUP1 PUSH0 ADD SLOAD SWAP1 DUP1 PUSH1 0x1 ADD SLOAD SWAP1 POP DUP3 JUMP JUMPDEST PUSH9 0x56BC75E2D63100000 PUSH1 0x1 PUSH0 SWAP1 SLOAD SWAP1 PUSH2 0x100 EXP SWAP1 DIV PUSH20 0xFFFFFFFFFFFFFFFFFFFFFFFFFFFFFFFFFFFFFFFF AND PUSH20 0xFFFFFFFFFFFFFFFFFFFFFFFFFFFFFFFFFFFFFFFF AND PUSH4 0xDD62ED3E CALLER ADDRESS PUSH1 0x40 MLOAD DUP4 PUSH4 0xFFFFFFFF AND PUSH1 0xE0 SHL DUP2 MSTORE PUSH1 0x4 ADD PUSH2 0xF7C SWAP3 SWAP2 SWAP1 PUSH2 0x1DEB JUMP JUMPDEST PUSH1 0x20 PUSH1 0x40 MLOAD DUP1 DUP4 SUB DUP2 DUP7 GAS STATICCALL ISZERO DUP1 ISZERO PUSH2 0xF97 JUMPI RETURNDATASIZE PUSH0 PUSH0 RETURNDATACOPY RETURNDATASIZE PUSH0 REVERT JUMPDEST POP POP POP POP PUSH1 0x40 MLOAD RETURNDATASIZE PUSH1 0x1F NOT PUSH1 0x1F DUP3 ADD AND DUP3 ADD DUP1 PUSH1 0x40 MSTORE POP DUP2 ADD SWAP1 PUSH2 0xFBB SWAP2 SWAP1 PUSH2 0x1E26 JUMP JUMPDEST LT ISZERO PUSH2 0xFFC JUMPI PUSH1 0x40 MLOAD PUSH32 0x8C379A000000000000000000000000000000000000000000000000000000000 DUP2 MSTORE PUSH1 0x4 ADD PUSH2 0xFF3 SWAP1 PUSH2 0x1E9B JUMP JUMPDEST PUSH1 0x40 MLOAD DUP1 SWAP2 SUB SWAP1 REVERT JUMPDEST PUSH2 0x1053 CALLER ADDRESS PUSH9 0x56BC75E2D63100000 PUSH1 0x1 PUSH0 SWAP1 SLOAD SWAP1 PUSH2 0x100 EXP SWAP1 DIV PUSH20 0xFFFFFFFFFFFFFFFFFFFFFFFFFFFFFFFFFFFFFFFF AND PUSH20 0xFFFFFFFFFFFFFFFFFFFFFFFFFFFFFFFFFFFFFFFF AND PUSH2 0x137C SWAP1 SWAP4 SWAP3 SWAP2 SWAP1 PUSH4 0xFFFFFFFF AND JUMP JUMPDEST CALLER PUSH20 0xFFFFFFFFFFFFFFFFFFFFFFFFFFFFFFFFFFFFFFFF AND PUSH32 0x769873612369DE25D7A32B1071976767E3071B8182B9353E1CD5D6CF25B33DCA DUP4 DUP4 PUSH1 0x40 MLOAD PUSH2 0x109B SWAP3 SWAP2 SWAP1 PUSH2 0x1F03 JUMP JUMPDEST PUSH1 0x40 MLOAD DUP1 SWAP2 SUB SWAP1 LOG2 POP POP JUMP JUMPDEST PUSH0 PUSH32 0x1FFC9A700000000000000000000000000000000000000000000000000000000 PUSH28 0xFFFFFFFFFFFFFFFFFFFFFFFFFFFFFFFFFFFFFFFFFFFFFFFFFFFFFFFF NOT AND DUP3 PUSH28 0xFFFFFFFFFFFFFFFFFFFFFFFFFFFFFFFFFFFFFFFFFFFFFFFFFFFFFFFF NOT AND EQ SWAP1 POP SWAP2 SWAP1 POP JUMP JUMPDEST PUSH2 0x1121 DUP2 PUSH2 0x111C PUSH2 0x128C JUMP JUMPDEST PUSH2 0x13FE JUMP JUMPDEST POP JUMP JUMPDEST PUSH2 0x119E DUP4 DUP5 PUSH20 0xFFFFFFFFFFFFFFFFFFFFFFFFFFFFFFFFFFFFFFFF AND PUSH4 0xA9059CBB DUP6 DUP6 PUSH1 0x40 MLOAD PUSH1 0x24 ADD PUSH2 0x1157 SWAP3 SWAP2 SWAP1 PUSH2 0x1F25 JUMP JUMPDEST PUSH1 0x40 MLOAD PUSH1 0x20 DUP2 DUP4 SUB SUB DUP2 MSTORE SWAP1 PUSH1 0x40 MSTORE SWAP2 POP PUSH1 0xE0 SHL PUSH1 0x20 DUP3 ADD DUP1 MLOAD PUSH28 0xFFFFFFFFFFFFFFFFFFFFFFFFFFFFFFFFFFFFFFFFFFFFFFFFFFFFFFFF DUP4 DUP2 DUP4 AND OR DUP4 MSTORE POP POP POP POP PUSH2 0x144F JUMP JUMPDEST POP POP POP JUMP JUMPDEST PUSH0 PUSH2 0x11AE DUP4 DUP4 PUSH2 0xD77 JUMP JUMPDEST PUSH2 0x1282 JUMPI PUSH1 0x1 PUSH0 PUSH0 DUP6 DUP2 MSTORE PUSH1 0x20 ADD SWAP1 DUP2 MSTORE PUSH1 0x20 ADD PUSH0 KECCAK256 PUSH0 ADD PUSH0 DUP5 PUSH20 0xFFFFFFFFFFFFFFFFFFFFFFFFFFFFFFFFFFFFFFFF AND PUSH20 0xFFFFFFFFFFFFFFFFFFFFFFFFFFFFFFFFFFFFFFFF AND DUP2 MSTORE PUSH1 0x20 ADD SWAP1 DUP2 MSTORE PUSH1 0x20 ADD PUSH0 KECCAK256 PUSH0 PUSH2 0x100 EXP DUP2 SLOAD DUP2 PUSH1 0xFF MUL NOT AND SWAP1 DUP4 ISZERO ISZERO MUL OR SWAP1 SSTORE POP PUSH2 0x121F PUSH2 0x128C JUMP JUMPDEST PUSH20 0xFFFFFFFFFFFFFFFFFFFFFFFFFFFFFFFFFFFFFFFF AND DUP3 PUSH20 0xFFFFFFFFFFFFFFFFFFFFFFFFFFFFFFFFFFFFFFFF AND DUP5 PUSH32 0x2F8788117E7EFF1D82E926EC794901D17C78024A50270940304540A733656F0D PUSH1 0x40 MLOAD PUSH1 0x40 MLOAD DUP1 SWAP2 SUB SWAP1 LOG4 PUSH1 0x1 SWAP1 POP PUSH2 0x1286 JUMP JUMPDEST PUSH0 SWAP1 POP JUMPDEST SWAP3 SWAP2 POP POP JUMP JUMPDEST PUSH0 CALLER SWAP1 POP SWAP1 JUMP JUMPDEST PUSH0 PUSH2 0x129E DUP4 DUP4 PUSH2 0xD77 JUMP JUMPDEST ISZERO PUSH2 0x1372 JUMPI PUSH0 PUSH0 PUSH0 DUP6 DUP2 MSTORE PUSH1 0x20 ADD SWAP1 DUP2 MSTORE PUSH1 0x20 ADD PUSH0 KECCAK256 PUSH0 ADD PUSH0 DUP5 PUSH20 0xFFFFFFFFFFFFFFFFFFFFFFFFFFFFFFFFFFFFFFFF AND PUSH20 0xFFFFFFFFFFFFFFFFFFFFFFFFFFFFFFFFFFFFFFFF AND DUP2 MSTORE PUSH1 0x20 ADD SWAP1 DUP2 MSTORE PUSH1 0x20 ADD PUSH0 KECCAK256 PUSH0 PUSH2 0x100 EXP DUP2 SLOAD DUP2 PUSH1 0xFF MUL NOT AND SWAP1 DUP4 ISZERO ISZERO MUL OR SWAP1 SSTORE POP PUSH2 0x130F PUSH2 0x128C JUMP JUMPDEST PUSH20 0xFFFFFFFFFFFFFFFFFFFFFFFFFFFFFFFFFFFFFFFF AND DUP3 PUSH20 0xFFFFFFFFFFFFFFFFFFFFFFFFFFFFFFFFFFFFFFFF AND DUP5 PUSH32 0xF6391F5C32D9C69D2A47EA670B442974B53935D1EDC7FD64EB21E047A839171B PUSH1 0x40 MLOAD PUSH1 0x40 MLOAD DUP1 SWAP2 SUB SWAP1 LOG4 PUSH1 0x1 SWAP1 POP PUSH2 0x1376 JUMP JUMPDEST PUSH0 SWAP1 POP JUMPDEST SWAP3 SWAP2 POP POP JUMP JUMPDEST PUSH2 0x13F8 DUP5 DUP6 PUSH20 0xFFFFFFFFFFFFFFFFFFFFFFFFFFFFFFFFFFFFFFFF AND PUSH4 0x23B872DD DUP7 DUP7 DUP7 PUSH1 0x40 MLOAD PUSH1 0x24 ADD PUSH2 0x13B1 SWAP4 SWAP3 SWAP2 SWAP1 PUSH2 0x1F4C JUMP JUMPDEST PUSH1 0x40 MLOAD PUSH1 0x20 DUP2 DUP4 SUB SUB DUP2 MSTORE SWAP1 PUSH1 0x40 MSTORE SWAP2 POP PUSH1 0xE0 SHL PUSH1 0x20 DUP3 ADD DUP1 MLOAD PUSH28 0xFFFFFFFFFFFFFFFFFFFFFFFFFFFFFFFFFFFFFFFFFFFFFFFFFFFFFFFF DUP4 DUP2 DUP4 AND OR DUP4 MSTORE POP POP POP POP PUSH2 0x144F JUMP JUMPDEST POP POP POP POP JUMP JUMPDEST PUSH2 0x1408 DUP3 DUP3 PUSH2 0xD77 JUMP JUMPDEST PUSH2 0x144B JUMPI DUP1 DUP3 PUSH1 0x40 MLOAD PUSH32 0xE2517D3F00000000000000000000000000000000000000000000000000000000 DUP2 MSTORE PUSH1 0x4 ADD PUSH2 0x1442 SWAP3 SWAP2 SWAP1 PUSH2 0x1F81 JUMP JUMPDEST PUSH1 0x40 MLOAD DUP1 SWAP2 SUB SWAP1 REVERT JUMPDEST POP POP JUMP JUMPDEST PUSH0 PUSH0 PUSH1 0x20 PUSH0 DUP5 MLOAD PUSH1 0x20 DUP7 ADD PUSH0 DUP9 GAS CALL DUP1 PUSH2 0x146E JUMPI PUSH1 0x40 MLOAD RETURNDATASIZE PUSH0 DUP3 RETURNDATACOPY RETURNDATASIZE DUP2 REVERT JUMPDEST RETURNDATASIZE SWAP3 POP PUSH0 MLOAD SWAP2 POP POP PUSH0 DUP3 EQ PUSH2 0x1487 JUMPI PUSH1 0x1 DUP2 EQ ISZERO PUSH2 0x14A2 JUMP JUMPDEST PUSH0 DUP5 PUSH20 0xFFFFFFFFFFFFFFFFFFFFFFFFFFFFFFFFFFFFFFFF AND EXTCODESIZE EQ JUMPDEST ISZERO PUSH2 0x14E4 JUMPI DUP4 PUSH1 0x40 MLOAD PUSH32 0x5274AFE700000000000000000000000000000000000000000000000000000000 DUP2 MSTORE PUSH1 0x4 ADD PUSH2 0x14DB SWAP2 SWAP1 PUSH2 0x1670 JUMP JUMPDEST PUSH1 0x40 MLOAD DUP1 SWAP2 SUB SWAP1 REVERT JUMPDEST POP POP POP POP JUMP JUMPDEST PUSH1 0x40 MLOAD DUP1 PUSH1 0x40 ADD PUSH1 0x40 MSTORE DUP1 PUSH0 PUSH20 0xFFFFFFFFFFFFFFFFFFFFFFFFFFFFFFFFFFFFFFFF AND DUP2 MSTORE PUSH1 0x20 ADD PUSH0 DUP2 MSTORE POP SWAP1 JUMP JUMPDEST PUSH0 PUSH0 REVERT JUMPDEST PUSH0 PUSH0 REVERT JUMPDEST PUSH0 PUSH32 0xFFFFFFFF00000000000000000000000000000000000000000000000000000000 DUP3 AND SWAP1 POP SWAP2 SWAP1 POP JUMP JUMPDEST PUSH2 0x1554 DUP2 PUSH2 0x1520 JUMP JUMPDEST DUP2 EQ PUSH2 0x155E JUMPI PUSH0 PUSH0 REVERT JUMPDEST POP JUMP JUMPDEST PUSH0 DUP2 CALLDATALOAD SWAP1 POP PUSH2 0x156F DUP2 PUSH2 0x154B JUMP JUMPDEST SWAP3 SWAP2 POP POP JUMP JUMPDEST PUSH0 PUSH1 0x20 DUP3 DUP5 SUB SLT ISZERO PUSH2 0x158A JUMPI PUSH2 0x1589 PUSH2 0x1518 JUMP JUMPDEST JUMPDEST PUSH0 PUSH2 0x1597 DUP5 DUP3 DUP6 ADD PUSH2 0x1561 JUMP JUMPDEST SWAP2 POP POP SWAP3 SWAP2 POP POP JUMP JUMPDEST PUSH0 DUP2 ISZERO ISZERO SWAP1 POP SWAP2 SWAP1 POP JUMP JUMPDEST PUSH2 0x15B4 DUP2 PUSH2 0x15A0 JUMP JUMPDEST DUP3 MSTORE POP POP JUMP JUMPDEST PUSH0 PUSH1 0x20 DUP3 ADD SWAP1 POP PUSH2 0x15CD PUSH0 DUP4 ADD DUP5 PUSH2 0x15AB JUMP JUMPDEST SWAP3 SWAP2 POP POP JUMP JUMPDEST PUSH0 DUP2 SWAP1 POP SWAP2 SWAP1 POP JUMP JUMPDEST PUSH2 0x15E5 DUP2 PUSH2 0x15D3 JUMP JUMPDEST DUP2 EQ PUSH2 0x15EF JUMPI PUSH0 PUSH0 REVERT JUMPDEST POP JUMP JUMPDEST PUSH0 DUP2 CALLDATALOAD SWAP1 POP PUSH2 0x1600 DUP2 PUSH2 0x15DC JUMP JUMPDEST SWAP3 SWAP2 POP POP JUMP JUMPDEST PUSH0 PUSH1 0x20 DUP3 DUP5 SUB SLT ISZERO PUSH2 0x161B JUMPI PUSH2 0x161A PUSH2 0x1518 JUMP JUMPDEST JUMPDEST PUSH0 PUSH2 0x1628 DUP5 DUP3 DUP6 ADD PUSH2 0x15F2 JUMP JUMPDEST SWAP2 POP POP SWAP3 SWAP2 POP POP JUMP JUMPDEST PUSH0 PUSH20 0xFFFFFFFFFFFFFFFFFFFFFFFFFFFFFFFFFFFFFFFF DUP3 AND SWAP1 POP SWAP2 SWAP1 POP JUMP JUMPDEST PUSH0 PUSH2 0x165A DUP3 PUSH2 0x1631 JUMP JUMPDEST SWAP1 POP SWAP2 SWAP1 POP JUMP JUMPDEST PUSH2 0x166A DUP2 PUSH2 0x1650 JUMP JUMPDEST DUP3 MSTORE POP POP JUMP JUMPDEST PUSH0 PUSH1 0x20 DUP3 ADD SWAP1 POP PUSH2 0x1683 PUSH0 DUP4 ADD DUP5 PUSH2 0x1661 JUMP JUMPDEST SWAP3 SWAP2 POP POP JUMP JUMPDEST PUSH2 0x1692 DUP2 PUSH2 0x1650 JUMP JUMPDEST DUP2 EQ PUSH2 0x169C JUMPI PUSH0 PUSH0 REVERT JUMPDEST POP JUMP JUMPDEST PUSH0 DUP2 CALLDATALOAD SWAP1 POP PUSH2 0x16AD DUP2 PUSH2 0x1689 JUMP JUMPDEST SWAP3 SWAP2 POP POP JUMP JUMPDEST PUSH0 PUSH0 PUSH1 0x40 DUP4 DUP6 SUB SLT ISZERO PUSH2 0x16C9 JUMPI PUSH2 0x16C8 PUSH2 0x1518 JUMP JUMPDEST JUMPDEST PUSH0 PUSH2 0x16D6 DUP6 DUP3 DUP7 ADD PUSH2 0x169F JUMP JUMPDEST SWAP3 POP POP PUSH1 0x20 PUSH2 0x16E7 DUP6 DUP3 DUP7 ADD PUSH2 0x15F2 JUMP JUMPDEST SWAP2 POP POP SWAP3 POP SWAP3 SWAP1 POP JUMP JUMPDEST PUSH0 DUP2 SWAP1 POP SWAP2 SWAP1 POP JUMP JUMPDEST PUSH2 0x1703 DUP2 PUSH2 0x16F1 JUMP JUMPDEST DUP2 EQ PUSH2 0x170D JUMPI PUSH0 PUSH0 REVERT JUMPDEST POP JUMP JUMPDEST PUSH0 DUP2 CALLDATALOAD SWAP1 POP PUSH2 0x171E DUP2 PUSH2 0x16FA JUMP JUMPDEST SWAP3 SWAP2 POP POP JUMP JUMPDEST PUSH0 PUSH1 0x20 DUP3 DUP5 SUB SLT ISZERO PUSH2 0x1739 JUMPI PUSH2 0x1738 PUSH2 0x1518 JUMP JUMPDEST JUMPDEST PUSH0 PUSH2 0x1746 DUP5 DUP3 DUP6 ADD PUSH2 0x1710 JUMP JUMPDEST SWAP2 POP POP SWAP3 SWAP2 POP POP JUMP JUMPDEST PUSH2 0x1758 DUP2 PUSH2 0x16F1 JUMP JUMPDEST DUP3 MSTORE POP POP JUMP JUMPDEST PUSH0 PUSH1 0x20 DUP3 ADD SWAP1 POP PUSH2 0x1771 PUSH0 DUP4 ADD DUP5 PUSH2 0x174F JUMP JUMPDEST SWAP3 SWAP2 POP POP JUMP JUMPDEST PUSH0 PUSH0 PUSH1 0x40 DUP4 DUP6 SUB SLT ISZERO PUSH2 0x178D JUMPI PUSH2 0x178C PUSH2 0x1518 JUMP JUMPDEST JUMPDEST PUSH0 PUSH2 0x179A DUP6 DUP3 DUP7 ADD PUSH2 0x1710 JUMP JUMPDEST SWAP3 POP POP PUSH1 0x20 PUSH2 0x17AB DUP6 DUP3 DUP7 ADD PUSH2 0x169F JUMP JUMPDEST SWAP2 POP POP SWAP3 POP SWAP3 SWAP1 POP JUMP JUMPDEST PUSH0 PUSH0 PUSH1 0x40 DUP4 DUP6 SUB SLT ISZERO PUSH2 0x17CB JUMPI PUSH2 0x17CA PUSH2 0x1518 JUMP JUMPDEST JUMPDEST PUSH0 PUSH2 0x17D8 DUP6 DUP3 DUP7 ADD PUSH2 0x15F2 JUMP JUMPDEST SWAP3 POP POP PUSH1 0x20 PUSH2 0x17E9 DUP6 DUP3 DUP7 ADD PUSH2 0x15F2 JUMP JUMPDEST SWAP2 POP POP SWAP3 POP SWAP3 SWAP1 POP JUMP JUMPDEST PUSH0 DUP2 MLOAD SWAP1 POP SWAP2 SWAP1 POP JUMP JUMPDEST PUSH0 DUP3 DUP3 MSTORE PUSH1 0x20 DUP3 ADD SWAP1 POP SWAP3 SWAP2 POP POP JUMP JUMPDEST PUSH0 DUP2 SWAP1 POP PUSH1 0x20 DUP3 ADD SWAP1 POP SWAP2 SWAP1 POP JUMP JUMPDEST PUSH2 0x1825 DUP2 PUSH2 0x1650 JUMP JUMPDEST DUP3 MSTORE POP POP JUMP JUMPDEST PUSH2 0x1834 DUP2 PUSH2 0x15D3 JUMP JUMPDEST DUP3 MSTORE POP POP JUMP JUMPDEST PUSH1 0x40 DUP3 ADD PUSH0 DUP3 ADD MLOAD PUSH2 0x184E PUSH0 DUP6 ADD DUP3 PUSH2 0x181C JUMP JUMPDEST POP PUSH1 0x20 DUP3 ADD MLOAD PUSH2 0x1861 PUSH1 0x20 DUP6 ADD DUP3 PUSH2 0x182B JUMP JUMPDEST POP POP POP POP JUMP JUMPDEST PUSH0 PUSH2 0x1872 DUP4 DUP4 PUSH2 0x183A JUMP JUMPDEST PUSH1 0x40 DUP4 ADD SWAP1 POP SWAP3 SWAP2 POP POP JUMP JUMPDEST PUSH0 PUSH1 0x20 DUP3 ADD SWAP1 POP SWAP2 SWAP1 POP JUMP JUMPDEST PUSH0 PUSH2 0x1894 DUP3 PUSH2 0x17F3 JUMP JUMPDEST PUSH2 0x189E DUP2 DUP6 PUSH2 0x17FD JUMP JUMPDEST SWAP4 POP PUSH2 0x18A9 DUP4 PUSH2 0x180D JUMP JUMPDEST DUP1 PUSH0 JUMPDEST DUP4 DUP2 LT ISZERO PUSH2 0x18D9 JUMPI DUP2 MLOAD PUSH2 0x18C0 DUP9 DUP3 PUSH2 0x1867 JUMP JUMPDEST SWAP8 POP PUSH2 0x18CB DUP4 PUSH2 0x187E JUMP JUMPDEST SWAP3 POP POP PUSH1 0x1 DUP2 ADD SWAP1 POP PUSH2 0x18AC JUMP JUMPDEST POP DUP6 SWAP4 POP POP POP POP SWAP3 SWAP2 POP POP JUMP JUMPDEST PUSH0 PUSH1 0x20 DUP3 ADD SWAP1 POP DUP2 DUP2 SUB PUSH0 DUP4 ADD MSTORE PUSH2 0x18FE DUP2 DUP5 PUSH2 0x188A JUMP JUMPDEST SWAP1 POP SWAP3 SWAP2 POP POP JUMP JUMPDEST PUSH0 PUSH1 0x20 DUP3 DUP5 SUB SLT ISZERO PUSH2 0x191B JUMPI PUSH2 0x191A PUSH2 0x1518 JUMP JUMPDEST JUMPDEST PUSH0 PUSH2 0x1928 DUP5 DUP3 DUP6 ADD PUSH2 0x169F JUMP JUMPDEST SWAP2 POP POP SWAP3 SWAP2 POP POP JUMP JUMPDEST PUSH2 0x193A DUP2 PUSH2 0x15D3 JUMP JUMPDEST DUP3 MSTORE POP POP JUMP JUMPDEST PUSH0 PUSH1 0x20 DUP3 ADD SWAP1 POP PUSH2 0x1953 PUSH0 DUP4 ADD DUP5 PUSH2 0x1931 JUMP JUMPDEST SWAP3 SWAP2 POP POP JUMP JUMPDEST PUSH0 DUP2 SWAP1 POP SWAP2 SWAP1 POP JUMP JUMPDEST PUSH0 PUSH2 0x197C PUSH2 0x1977 PUSH2 0x1972 DUP5 PUSH2 0x1631 JUMP JUMPDEST PUSH2 0x1959 JUMP JUMPDEST PUSH2 0x1631 JUMP JUMPDEST SWAP1 POP SWAP2 SWAP1 POP JUMP JUMPDEST PUSH0 PUSH2 0x198D DUP3 PUSH2 0x1962 JUMP JUMPDEST SWAP1 POP SWAP2 SWAP1 POP JUMP JUMPDEST PUSH0 PUSH2 0x199E DUP3 PUSH2 0x1983 JUMP JUMPDEST SWAP1 POP SWAP2 SWAP1 POP JUMP JUMPDEST PUSH2 0x19AE DUP2 PUSH2 0x1994 JUMP JUMPDEST DUP3 MSTORE POP POP JUMP JUMPDEST PUSH0 PUSH1 0x20 DUP3 ADD SWAP1 POP PUSH2 0x19C7 PUSH0 DUP4 ADD DUP5 PUSH2 0x19A5 JUMP JUMPDEST SWAP3 SWAP2 POP POP JUMP JUMPDEST PUSH0 PUSH1 0x40 DUP3 ADD SWAP1 POP PUSH2 0x19E0 PUSH0 DUP4 ADD DUP6 PUSH2 0x1931 JUMP JUMPDEST PUSH2 0x19ED PUSH1 0x20 DUP4 ADD DUP5 PUSH2 0x1931 JUMP JUMPDEST SWAP4 SWAP3 POP POP POP JUMP JUMPDEST PUSH0 PUSH0 REVERT JUMPDEST PUSH0 PUSH0 REVERT JUMPDEST PUSH0 PUSH0 REVERT JUMPDEST PUSH0 PUSH0 DUP4 PUSH1 0x1F DUP5 ADD SLT PUSH2 0x1A15 JUMPI PUSH2 0x1A14 PUSH2 0x19F4 JUMP JUMPDEST JUMPDEST DUP3 CALLDATALOAD SWAP1 POP PUSH8 0xFFFFFFFFFFFFFFFF DUP2 GT ISZERO PUSH2 0x1A32 JUMPI PUSH2 0x1A31 PUSH2 0x19F8 JUMP JUMPDEST JUMPDEST PUSH1 0x20 DUP4 ADD SWAP2 POP DUP4 PUSH1 0x1 DUP3 MUL DUP4 ADD GT ISZERO PUSH2 0x1A4E JUMPI PUSH2 0x1A4D PUSH2 0x19FC JUMP JUMPDEST JUMPDEST SWAP3 POP SWAP3 SWAP1 POP JUMP JUMPDEST PUSH0 PUSH0 PUSH1 0x20 DUP4 DUP6 SUB SLT ISZERO PUSH2 0x1A6B JUMPI PUSH2 0x1A6A PUSH2 0x1518 JUMP JUMPDEST JUMPDEST PUSH0 DUP4 ADD CALLDATALOAD PUSH8 0xFFFFFFFFFFFFFFFF DUP2 GT ISZERO PUSH2 0x1A88 JUMPI PUSH2 0x1A87 PUSH2 0x151C JUMP JUMPDEST JUMPDEST PUSH2 0x1A94 DUP6 DUP3 DUP7 ADD PUSH2 0x1A00 JUMP JUMPDEST SWAP3 POP SWAP3 POP POP SWAP3 POP SWAP3 SWAP1 POP JUMP JUMPDEST PUSH0 DUP3 DUP3 MSTORE PUSH1 0x20 DUP3 ADD SWAP1 POP SWAP3 SWAP2 POP POP JUMP JUMPDEST PUSH32 0x496E76616C696420706C61796572206164647265737300000000000000000000 PUSH0 DUP3 ADD MSTORE POP JUMP JUMPDEST PUSH0 PUSH2 0x1AE4 PUSH1 0x16 DUP4 PUSH2 0x1AA0 JUMP JUMPDEST SWAP2 POP PUSH2 0x1AEF DUP3 PUSH2 0x1AB0 JUMP JUMPDEST PUSH1 0x20 DUP3 ADD SWAP1 POP SWAP2 SWAP1 POP JUMP JUMPDEST PUSH0 PUSH1 0x20 DUP3 ADD SWAP1 POP DUP2 DUP2 SUB PUSH0 DUP4 ADD MSTORE PUSH2 0x1B11 DUP2 PUSH2 0x1AD8 JUMP JUMPDEST SWAP1 POP SWAP2 SWAP1 POP JUMP JUMPDEST PUSH32 0x53636F7265206D7573742062652067726561746572207468616E207A65726F00 PUSH0 DUP3 ADD MSTORE POP JUMP JUMPDEST PUSH0 PUSH2 0x1B4C PUSH1 0x1F DUP4 PUSH2 0x1AA0 JUMP JUMPDEST SWAP2 POP PUSH2 0x1B57 DUP3 PUSH2 0x1B18 JUMP JUMPDEST PUSH1 0x20 DUP3 ADD SWAP1 POP SWAP2 SWAP1 POP JUMP JUMPDEST PUSH0 PUSH1 0x20 DUP3 ADD SWAP1 POP DUP2 DUP2 SUB PUSH0 DUP4 ADD MSTORE PUSH2 0x1B79 DUP2 PUSH2 0x1B40 JUMP JUMPDEST SWAP1 POP SWAP2 SWAP1 POP JUMP JUMPDEST PUSH32 0x4E487B7100000000000000000000000000000000000000000000000000000000 PUSH0 MSTORE PUSH1 0x11 PUSH1 0x4 MSTORE PUSH1 0x24 PUSH0 REVERT JUMPDEST PUSH0 PUSH2 0x1BB7 DUP3 PUSH2 0x15D3 JUMP JUMPDEST SWAP2 POP PUSH2 0x1BC2 DUP4 PUSH2 0x15D3 JUMP JUMPDEST SWAP3 POP DUP3 DUP3 ADD SWAP1 POP DUP1 DUP3 GT ISZERO PUSH2 0x1BDA JUMPI PUSH2 0x1BD9 PUSH2 0x1B80 JUMP JUMPDEST JUMPDEST SWAP3 SWAP2 POP POP JUMP JUMPDEST PUSH0 PUSH2 0x1BEA DUP3 PUSH2 0x15D3 JUMP JUMPDEST SWAP2 POP PUSH2 0x1BF5 DUP4 PUSH2 0x15D3 JUMP JUMPDEST SWAP3 POP DUP3 DUP3 MUL PUSH2 0x1C03 DUP2 PUSH2 0x15D3 JUMP JUMPDEST SWAP2 POP DUP3 DUP3 DIV DUP5 EQ DUP4 ISZERO OR PUSH2 0x1C1A JUMPI PUSH2 0x1C19 PUSH2 0x1B80 JUMP JUMPDEST JUMPDEST POP SWAP3 SWAP2 POP POP JUMP JUMPDEST PUSH32 0x4D756C7469706C696572206D7573742062652067726561746572207468616E20 PUSH0 DUP3 ADD MSTORE PUSH32 0x7A65726F00000000000000000000000000000000000000000000000000000000 PUSH1 0x20 DUP3 ADD MSTORE POP JUMP JUMPDEST PUSH0 PUSH2 0x1C7B PUSH1 0x24 DUP4 PUSH2 0x1AA0 JUMP JUMPDEST SWAP2 POP PUSH2 0x1C86 DUP3 PUSH2 0x1C21 JUMP JUMPDEST PUSH1 0x40 DUP3 ADD SWAP1 POP SWAP2 SWAP1 POP JUMP JUMPDEST PUSH0 PUSH1 0x20 DUP3 ADD SWAP1 POP DUP2 DUP2 SUB PUSH0 DUP4 ADD MSTORE PUSH2 0x1CA8 DUP2 PUSH2 0x1C6F JUMP JUMPDEST SWAP1 POP SWAP2 SWAP1 POP JUMP JUMPDEST PUSH32 0x4F6666736574206F7574206F6620626F756E6473000000000000000000000000 PUSH0 DUP3 ADD MSTORE POP JUMP JUMPDEST PUSH0 PUSH2 0x1CE3 PUSH1 0x14 DUP4 PUSH2 0x1AA0 JUMP JUMPDEST SWAP2 POP PUSH2 0x1CEE DUP3 PUSH2 0x1CAF JUMP JUMPDEST PUSH1 0x20 DUP3 ADD SWAP1 POP SWAP2 SWAP1 POP JUMP JUMPDEST PUSH0 PUSH1 0x20 DUP3 ADD SWAP1 POP DUP2 DUP2 SUB PUSH0 DUP4 ADD MSTORE PUSH2 0x1D10 DUP2 PUSH2 0x1CD7 JUMP JUMPDEST SWAP1 POP SWAP2 SWAP1 POP JUMP JUMPDEST PUSH0 PUSH2 0x1D21 DUP3 PUSH2 0x15D3 JUMP JUMPDEST SWAP2 POP PUSH2 0x1D2C DUP4 PUSH2 0x15D3 JUMP JUMPDEST SWAP3 POP DUP3 DUP3 SUB SWAP1 POP DUP2 DUP2 GT ISZERO PUSH2 0x1D44 JUMPI PUSH2 0x1D43 PUSH2 0x1B80 JUMP JUMPDEST JUMPDEST SWAP3 SWAP2 POP POP JUMP JUMPDEST PUSH32 0x4E487B7100000000000000000000000000000000000000000000000000000000 PUSH0 MSTORE PUSH1 0x41 PUSH1 0x4 MSTORE PUSH1 0x24 PUSH0 REVERT JUMPDEST PUSH32 0x4E487B7100000000000000000000000000000000000000000000000000000000 PUSH0 MSTORE PUSH1 0x32 PUSH1 0x4 MSTORE PUSH1 0x24 PUSH0 REVERT JUMPDEST PUSH0 PUSH2 0x1DAE DUP3 PUSH2 0x15D3 JUMP JUMPDEST SWAP2 POP PUSH32 0xFFFFFFFFFFFFFFFFFFFFFFFFFFFFFFFFFFFFFFFFFFFFFFFFFFFFFFFFFFFFFFFF DUP3 SUB PUSH2 0x1DE0 JUMPI PUSH2 0x1DDF PUSH2 0x1B80 JUMP JUMPDEST JUMPDEST PUSH1 0x1 DUP3 ADD SWAP1 POP SWAP2 SWAP1 POP JUMP JUMPDEST PUSH0 PUSH1 0x40 DUP3 ADD SWAP1 POP PUSH2 0x1DFE PUSH0 DUP4 ADD DUP6 PUSH2 0x1661 JUMP JUMPDEST PUSH2 0x1E0B PUSH1 0x20 DUP4 ADD DUP5 PUSH2 0x1661 JUMP JUMPDEST SWAP4 SWAP3 POP POP POP JUMP JUMPDEST PUSH0 DUP2 MLOAD SWAP1 POP PUSH2 0x1E20 DUP2 PUSH2 0x15DC JUMP JUMPDEST SWAP3 SWAP2 POP POP JUMP JUMPDEST PUSH0 PUSH1 0x20 DUP3 DUP5 SUB SLT ISZERO PUSH2 0x1E3B JUMPI PUSH2 0x1E3A PUSH2 0x1518 JUMP JUMPDEST JUMPDEST PUSH0 PUSH2 0x1E48 DUP5 DUP3 DUP6 ADD PUSH2 0x1E12 JUMP JUMPDEST SWAP2 POP POP SWAP3 SWAP2 POP POP JUMP JUMPDEST PUSH32 0x496E73756666696369656E7420616C6C6F77616E636500000000000000000000 PUSH0 DUP3 ADD MSTORE POP JUMP JUMPDEST PUSH0 PUSH2 0x1E85 PUSH1 0x16 DUP4 PUSH2 0x1AA0 JUMP JUMPDEST SWAP2 POP PUSH2 0x1E90 DUP3 PUSH2 0x1E51 JUMP JUMPDEST PUSH1 0x20 DUP3 ADD SWAP1 POP SWAP2 SWAP1 POP JUMP JUMPDEST PUSH0 PUSH1 0x20 DUP3 ADD SWAP1 POP DUP2 DUP2 SUB PUSH0 DUP4 ADD MSTORE PUSH2 0x1EB2 DUP2 PUSH2 0x1E79 JUMP JUMPDEST SWAP1 POP SWAP2 SWAP1 POP JUMP JUMPDEST DUP3 DUP2 DUP4 CALLDATACOPY PUSH0 DUP4 DUP4 ADD MSTORE POP POP POP JUMP JUMPDEST PUSH0 PUSH1 0x1F NOT PUSH1 0x1F DUP4 ADD AND SWAP1 POP SWAP2 SWAP1 POP JUMP JUMPDEST PUSH0 PUSH2 0x1EE2 DUP4 DUP6 PUSH2 0x1AA0 JUMP JUMPDEST SWAP4 POP PUSH2 0x1EEF DUP4 DUP6 DUP5 PUSH2 0x1EB9 JUMP JUMPDEST PUSH2 0x1EF8 DUP4 PUSH2 0x1EC7 JUMP JUMPDEST DUP5 ADD SWAP1 POP SWAP4 SWAP3 POP POP POP JUMP JUMPDEST PUSH0 PUSH1 0x20 DUP3 ADD SWAP1 POP DUP2 DUP2 SUB PUSH0 DUP4 ADD MSTORE PUSH2 0x1F1C DUP2 DUP5 DUP7 PUSH2 0x1ED7 JUMP JUMPDEST SWAP1 POP SWAP4 SWAP3 POP POP POP JUMP JUMPDEST PUSH0 PUSH1 0x40 DUP3 ADD SWAP1 POP PUSH2 0x1F38 PUSH0 DUP4 ADD DUP6 PUSH2 0x1661 JUMP JUMPDEST PUSH2 0x1F45 PUSH1 0x20 DUP4 ADD DUP5 PUSH2 0x1931 JUMP JUMPDEST SWAP4 SWAP3 POP POP POP JUMP JUMPDEST PUSH0 PUSH1 0x60 DUP3 ADD SWAP1 POP PUSH2 0x1F5F PUSH0 DUP4 ADD DUP7 PUSH2 0x1661 JUMP JUMPDEST PUSH2 0x1F6C PUSH1 0x20 DUP4 ADD DUP6 PUSH2 0x1661 JUMP JUMPDEST PUSH2 0x1F79 PUSH1 0x40 DUP4 ADD DUP5 PUSH2 0x1931 JUMP JUMPDEST SWAP5 SWAP4 POP POP POP POP JUMP JUMPDEST PUSH0 PUSH1 0x40 DUP3 ADD SWAP1 POP PUSH2 0x1F94 PUSH0 DUP4 ADD DUP6 PUSH2 0x1661 JUMP JUMPDEST PUSH2 0x1FA1 PUSH1 0x20 DUP4 ADD DUP5 PUSH2 0x174F JUMP JUMPDEST SWAP4 SWAP3 POP POP POP JUMP INVALID LOG2 PUSH5 0x6970667358 0x22 SLT KECCAK256 0xAF EXTCALL PUSH6 0x86EED2327A3F JUMPF 0xC5A9 STATICCALL BASEFEE PUSH18 0x9D66C53F90DCBDA49AD893D0D52F5E7AC364 PUSH20 0x6F6C634300081E00330000000000000000000000 "
		},
		"gasEstimates": {
			"creation": {
				"codeDepositCost": "1631600",
				"executionCost": "infinite",
				"totalCost": "infinite"
			},
			"external": {
				"ADMIN_ROLE()": "414",
				"DEFAULT_ADMIN_ROLE()": "374",
				"REPAIR_COST()": "347",
				"gameToken()": "infinite",
				"getLeaderboard(uint256,uint256)": "infinite",
				"getRoleAdmin(bytes32)": "infinite",
				"getScore(address)": "2878",
				"grantAdminRole(address)": "infinite",
				"grantRole(bytes32,address)": "infinite",
				"hasRole(bytes32,address)": "3231",
				"playerAddresses(uint256)": "4990",
				"players(address)": "infinite",
				"renounceRole(bytes32,address)": "infinite",
				"repairVehicle(string)": "infinite",
				"revokeAdminRole(address)": "infinite",
				"revokeRole(bytes32,address)": "infinite",
				"submitScore(address,uint256)": "infinite",
				"supportsInterface(bytes4)": "741",
				"tokenMultiplier()": "2492",
				"updateTokenMultiplier(uint256)": "infinite"
			}
		},
		"methodIdentifiers": {
			"ADMIN_ROLE()": "75b238fc",
			"DEFAULT_ADMIN_ROLE()": "a217fddf",
			"REPAIR_COST()": "d12af19a",
			"gameToken()": "c3dfdae6",
			"getLeaderboard(uint256,uint256)": "73af16fc",
			"getRoleAdmin(bytes32)": "248a9ca3",
			"getScore(address)": "d47875d0",
			"grantAdminRole(address)": "c634b78e",
			"grantRole(bytes32,address)": "2f2ff15d",
			"hasRole(bytes32,address)": "91d14854",
			"playerAddresses(uint256)": "15c6aee2",
			"players(address)": "e2eb41ff",
			"renounceRole(bytes32,address)": "36568abe",
			"repairVehicle(string)": "ed4b7eaa",
			"revokeAdminRole(address)": "9a19c7b0",
			"revokeRole(bytes32,address)": "d547741f",
			"submitScore(address,uint256)": "1db544c0",
			"supportsInterface(bytes4)": "01ffc9a7",
			"tokenMultiplier()": "ba3f5a12",
			"updateTokenMultiplier(uint256)": "3596362b"
		}
	},
	"abi": [
		{
			"inputs": [
				{
					"internalType": "address",
					"name": "_tokenAddress",
					"type": "address"
				}
			],
			"stateMutability": "nonpayable",
			"type": "constructor"
		},
		{
			"inputs": [],
			"name": "AccessControlBadConfirmation",
			"type": "error"
		},
		{
			"inputs": [
				{
					"internalType": "address",
					"name": "account",
					"type": "address"
				},
				{
					"internalType": "bytes32",
					"name": "neededRole",
					"type": "bytes32"
				}
			],
			"name": "AccessControlUnauthorizedAccount",
			"type": "error"
		},
		{
			"inputs": [
				{
					"internalType": "address",
					"name": "token",
					"type": "address"
				}
			],
			"name": "SafeERC20FailedOperation",
			"type": "error"
		},
		{
			"anonymous": false,
			"inputs": [
				{
					"indexed": false,
					"internalType": "uint256",
					"name": "newMultiplier",
					"type": "uint256"
				}
			],
			"name": "FormulaUpdated",
			"type": "event"
		},
		{
			"anonymous": false,
			"inputs": [
				{
					"indexed": true,
					"internalType": "address",
					"name": "player",
					"type": "address"
				}
			],
			"name": "PlayerAdded",
			"type": "event"
		},
		{
			"anonymous": false,
			"inputs": [
				{
					"indexed": true,
					"internalType": "bytes32",
					"name": "role",
					"type": "bytes32"
				},
				{
					"indexed": true,
					"internalType": "bytes32",
					"name": "previousAdminRole",
					"type": "bytes32"
				},
				{
					"indexed": true,
					"internalType": "bytes32",
					"name": "newAdminRole",
					"type": "bytes32"
				}
			],
			"name": "RoleAdminChanged",
			"type": "event"
		},
		{
			"anonymous": false,
			"inputs": [
				{
					"indexed": true,
					"internalType": "bytes32",
					"name": "role",
					"type": "bytes32"
				},
				{
					"indexed": true,
					"internalType": "address",
					"name": "account",
					"type": "address"
				},
				{
					"indexed": true,
					"internalType": "address",
					"name": "sender",
					"type": "address"
				}
			],
			"name": "RoleGranted",
			"type": "event"
		},
		{
			"anonymous": false,
			"inputs": [
				{
					"indexed": true,
					"internalType": "bytes32",
					"name": "role",
					"type": "bytes32"
				},
				{
					"indexed": true,
					"internalType": "address",
					"name": "account",
					"type": "address"
				},
				{
					"indexed": true,
					"internalType": "address",
					"name": "sender",
					"type": "address"
				}
			],
			"name": "RoleRevoked",
			"type": "event"
		},
		{
			"anonymous": false,
			"inputs": [
				{
					"indexed": true,
					"internalType": "address",
					"name": "player",
					"type": "address"
				},
				{
					"indexed": false,
					"internalType": "uint256",
					"name": "score",
					"type": "uint256"
				},
				{
					"indexed": false,
					"internalType": "uint256",
					"name": "tokensEarned",
					"type": "uint256"
				}
			],
			"name": "ScoreSubmitted",
			"type": "event"
		},
		{
			"anonymous": false,
			"inputs": [
				{
					"indexed": true,
					"internalType": "address",
					"name": "player",
					"type": "address"
				},
				{
					"indexed": false,
					"internalType": "string",
					"name": "component",
					"type": "string"
				}
			],
			"name": "VehicleRepaired",
			"type": "event"
		},
		{
			"inputs": [],
			"name": "ADMIN_ROLE",
			"outputs": [
				{
					"internalType": "bytes32",
					"name": "",
					"type": "bytes32"
				}
			],
			"stateMutability": "view",
			"type": "function"
		},
		{
			"inputs": [],
			"name": "DEFAULT_ADMIN_ROLE",
			"outputs": [
				{
					"internalType": "bytes32",
					"name": "",
					"type": "bytes32"
				}
			],
			"stateMutability": "view",
			"type": "function"
		},
		{
			"inputs": [],
			"name": "REPAIR_COST",
			"outputs": [
				{
					"internalType": "uint256",
					"name": "",
					"type": "uint256"
				}
			],
			"stateMutability": "view",
			"type": "function"
		},
		{
			"inputs": [],
			"name": "gameToken",
			"outputs": [
				{
					"internalType": "contract IERC20",
					"name": "",
					"type": "address"
				}
			],
			"stateMutability": "view",
			"type": "function"
		},
		{
			"inputs": [
				{
					"internalType": "uint256",
					"name": "offset",
					"type": "uint256"
				},
				{
					"internalType": "uint256",
					"name": "limit",
					"type": "uint256"
				}
			],
			"name": "getLeaderboard",
			"outputs": [
				{
					"components": [
						{
							"internalType": "address",
							"name": "player",
							"type": "address"
						},
						{
							"internalType": "uint256",
							"name": "score",
							"type": "uint256"
						}
					],
					"internalType": "struct GameLogic.LeaderboardEntry[]",
					"name": "",
					"type": "tuple[]"
				}
			],
			"stateMutability": "view",
			"type": "function"
		},
		{
			"inputs": [
				{
					"internalType": "bytes32",
					"name": "role",
					"type": "bytes32"
				}
			],
			"name": "getRoleAdmin",
			"outputs": [
				{
					"internalType": "bytes32",
					"name": "",
					"type": "bytes32"
				}
			],
			"stateMutability": "view",
			"type": "function"
		},
		{
			"inputs": [
				{
					"internalType": "address",
					"name": "wallet",
					"type": "address"
				}
			],
			"name": "getScore",
			"outputs": [
				{
					"internalType": "uint256",
					"name": "",
					"type": "uint256"
				}
			],
			"stateMutability": "view",
			"type": "function"
		},
		{
			"inputs": [
				{
					"internalType": "address",
					"name": "account",
					"type": "address"
				}
			],
			"name": "grantAdminRole",
			"outputs": [],
			"stateMutability": "nonpayable",
			"type": "function"
		},
		{
			"inputs": [
				{
					"internalType": "bytes32",
					"name": "role",
					"type": "bytes32"
				},
				{
					"internalType": "address",
					"name": "account",
					"type": "address"
				}
			],
			"name": "grantRole",
			"outputs": [],
			"stateMutability": "nonpayable",
			"type": "function"
		},
		{
			"inputs": [
				{
					"internalType": "bytes32",
					"name": "role",
					"type": "bytes32"
				},
				{
					"internalType": "address",
					"name": "account",
					"type": "address"
				}
			],
			"name": "hasRole",
			"outputs": [
				{
					"internalType": "bool",
					"name": "",
					"type": "bool"
				}
			],
			"stateMutability": "view",
			"type": "function"
		},
		{
			"inputs": [
				{
					"internalType": "uint256",
					"name": "",
					"type": "uint256"
				}
			],
			"name": "playerAddresses",
			"outputs": [
				{
					"internalType": "address",
					"name": "",
					"type": "address"
				}
			],
			"stateMutability": "view",
			"type": "function"
		},
		{
			"inputs": [
				{
					"internalType": "address",
					"name": "",
					"type": "address"
				}
			],
			"name": "players",
			"outputs": [
				{
					"internalType": "uint256",
					"name": "score",
					"type": "uint256"
				},
				{
					"internalType": "uint256",
					"name": "lastSubmissionTimestamp",
					"type": "uint256"
				}
			],
			"stateMutability": "view",
			"type": "function"
		},
		{
			"inputs": [
				{
					"internalType": "bytes32",
					"name": "role",
					"type": "bytes32"
				},
				{
					"internalType": "address",
					"name": "callerConfirmation",
					"type": "address"
				}
			],
			"name": "renounceRole",
			"outputs": [],
			"stateMutability": "nonpayable",
			"type": "function"
		},
		{
			"inputs": [
				{
					"internalType": "string",
					"name": "component",
					"type": "string"
				}
			],
			"name": "repairVehicle",
			"outputs": [],
			"stateMutability": "nonpayable",
			"type": "function"
		},
		{
			"inputs": [
				{
					"internalType": "address",
					"name": "account",
					"type": "address"
				}
			],
			"name": "revokeAdminRole",
			"outputs": [],
			"stateMutability": "nonpayable",
			"type": "function"
		},
		{
			"inputs": [
				{
					"internalType": "bytes32",
					"name": "role",
					"type": "bytes32"
				},
				{
					"internalType": "address",
					"name": "account",
					"type": "address"
				}
			],
			"name": "revokeRole",
			"outputs": [],
			"stateMutability": "nonpayable",
			"type": "function"
		},
		{
			"inputs": [
				{
					"internalType": "address",
					"name": "player",
					"type": "address"
				},
				{
					"internalType": "uint256",
					"name": "score",
					"type": "uint256"
				}
			],
			"name": "submitScore",
			"outputs": [],
			"stateMutability": "nonpayable",
			"type": "function"
		},
		{
			"inputs": [
				{
					"internalType": "bytes4",
					"name": "interfaceId",
					"type": "bytes4"
				}
			],
			"name": "supportsInterface",
			"outputs": [
				{
					"internalType": "bool",
					"name": "",
					"type": "bool"
				}
			],
			"stateMutability": "view",
			"type": "function"
		},
		{
			"inputs": [],
			"name": "tokenMultiplier",
			"outputs": [
				{
					"internalType": "uint256",
					"name": "",
					"type": "uint256"
				}
			],
			"stateMutability": "view",
			"type": "function"
		},
		{
			"inputs": [
				{
					"internalType": "uint256",
					"name": "newMultiplier",
					"type": "uint256"
				}
			],
			"name": "updateTokenMultiplier",
			"outputs": [],
			"stateMutability": "nonpayable",
			"type": "function"
		}
	]
}