{
	"contracts/game.sol": {
		"GameLogic": {
			"abi": [
				{
					"inputs": [
						{
							"internalType": "address",
							"name": "_tokenAddress",
							"type": "address"
						}
					],
					"stateMutability": "nonpayable",
					"type": "constructor"
				},
				{
					"inputs": [],
					"name": "AccessControlBadConfirmation",
					"type": "error"
				},
				{
					"inputs": [
						{
							"internalType": "address",
							"name": "account",
							"type": "address"
						},
						{
							"internalType": "bytes32",
							"name": "neededRole",
							"type": "bytes32"
						}
					],
					"name": "AccessControlUnauthorizedAccount",
					"type": "error"
				},
				{
					"inputs": [
						{
							"internalType": "address",
							"name": "token",
							"type": "address"
						}
					],
					"name": "SafeERC20FailedOperation",
					"type": "error"
				},
				{
					"anonymous": false,
					"inputs": [
						{
							"indexed": false,
							"internalType": "uint256",
							"name": "newMultiplier",
							"type": "uint256"
						}
					],
					"name": "FormulaUpdated",
					"type": "event"
				},
				{
					"anonymous": false,
					"inputs": [
						{
							"indexed": true,
							"internalType": "address",
							"name": "player",
							"type": "address"
						}
					],
					"name": "PlayerAdded",
					"type": "event"
				},
				{
					"anonymous": false,
					"inputs": [
						{
							"indexed": true,
							"internalType": "bytes32",
							"name": "role",
							"type": "bytes32"
						},
						{
							"indexed": true,
							"internalType": "bytes32",
							"name": "previousAdminRole",
							"type": "bytes32"
						},
						{
							"indexed": true,
							"internalType": "bytes32",
							"name": "newAdminRole",
							"type": "bytes32"
						}
					],
					"name": "RoleAdminChanged",
					"type": "event"
				},
				{
					"anonymous": false,
					"inputs": [
						{
							"indexed": true,
							"internalType": "bytes32",
							"name": "role",
							"type": "bytes32"
						},
						{
							"indexed": true,
							"internalType": "address",
							"name": "account",
							"type": "address"
						},
						{
							"indexed": true,
							"internalType": "address",
							"name": "sender",
							"type": "address"
						}
					],
					"name": "RoleGranted",
					"type": "event"
				},
				{
					"anonymous": false,
					"inputs": [
						{
							"indexed": true,
							"internalType": "bytes32",
							"name": "role",
							"type": "bytes32"
						},
						{
							"indexed": true,
							"internalType": "address",
							"name": "account",
							"type": "address"
						},
						{
							"indexed": true,
							"internalType": "address",
							"name": "sender",
							"type": "address"
						}
					],
					"name": "RoleRevoked",
					"type": "event"
				},
				{
					"anonymous": false,
					"inputs": [
						{
							"indexed": true,
							"internalType": "address",
							"name": "player",
							"type": "address"
						},
						{
							"indexed": false,
							"internalType": "uint256",
							"name": "score",
							"type": "uint256"
						},
						{
							"indexed": false,
							"internalType": "uint256",
							"name": "tokensEarned",
							"type": "uint256"
						}
					],
					"name": "ScoreSubmitted",
					"type": "event"
				},
				{
					"anonymous": false,
					"inputs": [
						{
							"indexed": true,
							"internalType": "address",
							"name": "player",
							"type": "address"
						},
						{
							"indexed": false,
							"internalType": "string",
							"name": "component",
							"type": "string"
						}
					],
					"name": "VehicleRepaired",
					"type": "event"
				},
				{
					"inputs": [],
					"name": "ADMIN_ROLE",
					"outputs": [
						{
							"internalType": "bytes32",
							"name": "",
							"type": "bytes32"
						}
					],
					"stateMutability": "view",
					"type": "function"
				},
				{
					"inputs": [],
					"name": "DEFAULT_ADMIN_ROLE",
					"outputs": [
						{
							"internalType": "bytes32",
							"name": "",
							"type": "bytes32"
						}
					],
					"stateMutability": "view",
					"type": "function"
				},
				{
					"inputs": [],
					"name": "REPAIR_COST",
					"outputs": [
						{
							"internalType": "uint256",
							"name": "",
							"type": "uint256"
						}
					],
					"stateMutability": "view",
					"type": "function"
				},
				{
					"inputs": [],
					"name": "gameToken",
					"outputs": [
						{
							"internalType": "contract IERC20",
							"name": "",
							"type": "address"
						}
					],
					"stateMutability": "view",
					"type": "function"
				},
				{
					"inputs": [
						{
							"internalType": "uint256",
							"name": "offset",
							"type": "uint256"
						},
						{
							"internalType": "uint256",
							"name": "limit",
							"type": "uint256"
						}
					],
					"name": "getLeaderboard",
					"outputs": [
						{
							"components": [
								{
									"internalType": "address",
									"name": "player",
									"type": "address"
								},
								{
									"internalType": "uint256",
									"name": "score",
									"type": "uint256"
								}
							],
							"internalType": "struct GameLogic.LeaderboardEntry[]",
							"name": "",
							"type": "tuple[]"
						}
					],
					"stateMutability": "view",
					"type": "function"
				},
				{
					"inputs": [
						{
							"internalType": "bytes32",
							"name": "role",
							"type": "bytes32"
						}
					],
					"name": "getRoleAdmin",
					"outputs": [
						{
							"internalType": "bytes32",
							"name": "",
							"type": "bytes32"
						}
					],
					"stateMutability": "view",
					"type": "function"
				},
				{
					"inputs": [
						{
							"internalType": "address",
							"name": "wallet",
							"type": "address"
						}
					],
					"name": "getScore",
					"outputs": [
						{
							"internalType": "uint256",
							"name": "",
							"type": "uint256"
						}
					],
					"stateMutability": "view",
					"type": "function"
				},
				{
					"inputs": [
						{
							"internalType": "address",
							"name": "account",
							"type": "address"
						}
					],
					"name": "grantAdminRole",
					"outputs": [],
					"stateMutability": "nonpayable",
					"type": "function"
				},
				{
					"inputs": [
						{
							"internalType": "bytes32",
							"name": "role",
							"type": "bytes32"
						},
						{
							"internalType": "address",
							"name": "account",
							"type": "address"
						}
					],
					"name": "grantRole",
					"outputs": [],
					"stateMutability": "nonpayable",
					"type": "function"
				},
				{
					"inputs": [
						{
							"internalType": "bytes32",
							"name": "role",
							"type": "bytes32"
						},
						{
							"internalType": "address",
							"name": "account",
							"type": "address"
						}
					],
					"name": "hasRole",
					"outputs": [
						{
							"internalType": "bool",
							"name": "",
							"type": "bool"
						}
					],
					"stateMutability": "view",
					"type": "function"
				},
				{
					"inputs": [
						{
							"internalType": "uint256",
							"name": "",
							"type": "uint256"
						}
					],
					"name": "playerAddresses",
					"outputs": [
						{
							"internalType": "address",
							"name": "",
							"type": "address"
						}
					],
					"stateMutability": "view",
					"type": "function"
				},
				{
					"inputs": [
						{
							"internalType": "address",
							"name": "",
							"type": "address"
						}
					],
					"name": "players",
					"outputs": [
						{
							"internalType": "uint256",
							"name": "score",
							"type": "uint256"
						},
						{
							"internalType": "uint256",
							"name": "lastSubmissionTimestamp",
							"type": "uint256"
						}
					],
					"stateMutability": "view",
					"type": "function"
				},
				{
					"inputs": [
						{
							"internalType": "bytes32",
							"name": "role",
							"type": "bytes32"
						},
						{
							"internalType": "address",
							"name": "callerConfirmation",
							"type": "address"
						}
					],
					"name": "renounceRole",
					"outputs": [],
					"stateMutability": "nonpayable",
					"type": "function"
				},
				{
					"inputs": [
						{
							"internalType": "string",
							"name": "component",
							"type": "string"
						}
					],
					"name": "repairVehicle",
					"outputs": [],
					"stateMutability": "nonpayable",
					"type": "function"
				},
				{
					"inputs": [
						{
							"internalType": "address",
							"name": "account",
							"type": "address"
						}
					],
					"name": "revokeAdminRole",
					"outputs": [],
					"stateMutability": "nonpayable",
					"type": "function"
				},
				{
					"inputs": [
						{
							"internalType": "bytes32",
							"name": "role",
							"type": "bytes32"
						},
						{
							"internalType": "address",
							"name": "account",
							"type": "address"
						}
					],
					"name": "revokeRole",
					"outputs": [],
					"stateMutability": "nonpayable",
					"type": "function"
				},
				{
					"inputs": [
						{
							"internalType": "address",
							"name": "player",
							"type": "address"
						},
						{
							"internalType": "uint256",
							"name": "score",
							"type": "uint256"
						}
					],
					"name": "submitScore",
					"outputs": [],
					"stateMutability": "nonpayable",
					"type": "function"
				},
				{
					"inputs": [
						{
							"internalType": "bytes4",
							"name": "interfaceId",
							"type": "bytes4"
						}
					],
					"name": "supportsInterface",
					"outputs": [
						{
							"internalType": "bool",
							"name": "",
							"type": "bool"
						}
					],
					"stateMutability": "view",
					"type": "function"
				},
				{
					"inputs": [],
					"name": "tokenMultiplier",
					"outputs": [
						{
							"internalType": "uint256",
							"name": "",
							"type": "uint256"
						}
					],
					"stateMutability": "view",
					"type": "function"
				},
				{
					"inputs": [
						{
							"internalType": "uint256",
							"name": "newMultiplier",
							"type": "uint256"
						}
					],
					"name": "updateTokenMultiplier",
					"outputs": [],
					"stateMutability": "nonpayable",
					"type": "function"
				}
			],
			"devdoc": {
				"errors": {
					"AccessControlBadConfirmation()": [
						{
							"details": "The caller of a function is not the expected one. NOTE: Don't confuse with {AccessControlUnauthorizedAccount}."
						}
					],
					"AccessControlUnauthorizedAccount(address,bytes32)": [
						{
							"details": "The `account` is missing a role."
						}
					],
					"SafeERC20FailedOperation(address)": [
						{
							"details": "An operation with an ERC-20 token failed."
						}
					]
				},
				"events": {
					"RoleAdminChanged(bytes32,bytes32,bytes32)": {
						"details": "Emitted when `newAdminRole` is set as ``role``'s admin role, replacing `previousAdminRole` `DEFAULT_ADMIN_ROLE` is the starting admin for all roles, despite {RoleAdminChanged} not being emitted to signal this."
					},
					"RoleGranted(bytes32,address,address)": {
						"details": "Emitted when `account` is granted `role`. `sender` is the account that originated the contract call. This account bears the admin role (for the granted role). Expected in cases where the role was granted using the internal {AccessControl-_grantRole}."
					},
					"RoleRevoked(bytes32,address,address)": {
						"details": "Emitted when `account` is revoked `role`. `sender` is the account that originated the contract call:   - if using `revokeRole`, it is the admin role bearer   - if using `renounceRole`, it is the role bearer (i.e. `account`)"
					}
				},
				"kind": "dev",
				"methods": {
					"getRoleAdmin(bytes32)": {
						"details": "Returns the admin role that controls `role`. See {grantRole} and {revokeRole}. To change a role's admin, use {_setRoleAdmin}."
					},
					"grantRole(bytes32,address)": {
						"details": "Grants `role` to `account`. If `account` had not been already granted `role`, emits a {RoleGranted} event. Requirements: - the caller must have ``role``'s admin role. May emit a {RoleGranted} event."
					},
					"hasRole(bytes32,address)": {
						"details": "Returns `true` if `account` has been granted `role`."
					},
					"renounceRole(bytes32,address)": {
						"details": "Revokes `role` from the calling account. Roles are often managed via {grantRole} and {revokeRole}: this function's purpose is to provide a mechanism for accounts to lose their privileges if they are compromised (such as when a trusted device is misplaced). If the calling account had been revoked `role`, emits a {RoleRevoked} event. Requirements: - the caller must be `callerConfirmation`. May emit a {RoleRevoked} event."
					},
					"revokeRole(bytes32,address)": {
						"details": "Revokes `role` from `account`. If `account` had been granted `role`, emits a {RoleRevoked} event. Requirements: - the caller must have ``role``'s admin role. May emit a {RoleRevoked} event."
					},
					"supportsInterface(bytes4)": {
						"details": "Returns true if this contract implements the interface defined by `interfaceId`. See the corresponding https://eips.ethereum.org/EIPS/eip-165#how-interfaces-are-identified[ERC section] to learn more about how these ids are created. This function call must use less than 30 000 gas."
					}
				},
				"version": 1
			},
			"evm": {
				"assembly": "    /* \"contracts/game.sol\":241:4877  contract GameLogic is AccessControl {... */\n  mstore(0x40, 0x80)\n    /* \"contracts/game.sol\":419:420  1 */\n  0x01\n    /* \"contracts/game.sol\":386:420  uint256 public tokenMultiplier = 1 */\n  0x02\n  sstore\n    /* \"contracts/game.sol\":1243:1469  constructor(address _tokenAddress) {... */\n  callvalue\n  dup1\n  iszero\n  tag_1\n  jumpi\n  revert(0x00, 0x00)\ntag_1:\n  pop\n  mload(0x40)\n  sub(codesize, bytecodeSize)\n  dup1\n  bytecodeSize\n  dup4\n  codecopy\n  dup2\n  dup2\n  add\n  0x40\n  mstore\n  dup2\n  add\n  swap1\n  tag_2\n  swap2\n  swap1\n  tag_3\n  jump\t// in\ntag_2:\n    /* \"contracts/game.sol\":1307:1320  _tokenAddress */\n  dup1\n    /* \"contracts/game.sol\":1288:1297  gameToken */\n  0x01\n  0x00\n    /* \"contracts/game.sol\":1288:1321  gameToken = IERC20(_tokenAddress) */\n  0x0100\n  exp\n  dup2\n  sload\n  dup2\n  0xffffffffffffffffffffffffffffffffffffffff\n  mul\n  not\n  and\n  swap1\n  dup4\n  0xffffffffffffffffffffffffffffffffffffffff\n  and\n  mul\n  or\n  swap1\n  sstore\n  pop\n    /* \"contracts/game.sol\":1376:1418  _grantRole(DEFAULT_ADMIN_ROLE, msg.sender) */\n  tag_6\n    /* \"@openzeppelin/contracts/access/AccessControl.sol\":2241:2245  0x00 */\n  0x00\n    /* \"contracts/game.sol\":1387:1405  DEFAULT_ADMIN_ROLE */\n  0x00\n  shl\n    /* \"contracts/game.sol\":1407:1417  msg.sender */\n  caller\n    /* \"contracts/game.sol\":1376:1386  _grantRole */\n  shl(0x20, tag_7)\n    /* \"contracts/game.sol\":1376:1418  _grantRole(DEFAULT_ADMIN_ROLE, msg.sender) */\n  0x20\n  shr\n  jump\t// in\ntag_6:\n  pop\n    /* \"contracts/game.sol\":1428:1462  _grantRole(ADMIN_ROLE, msg.sender) */\n  tag_8\n    /* \"contracts/game.sol\":609:632  keccak256(\"ADMIN_ROLE\") */\n  0xa49807205ce4d355092ef5a8a18f56e8913cf4a201fbe287825b095693c21775\n    /* \"contracts/game.sol\":1451:1461  msg.sender */\n  caller\n    /* \"contracts/game.sol\":1428:1438  _grantRole */\n  shl(0x20, tag_7)\n    /* \"contracts/game.sol\":1428:1462  _grantRole(ADMIN_ROLE, msg.sender) */\n  0x20\n  shr\n  jump\t// in\ntag_8:\n  pop\n    /* \"contracts/game.sol\":1243:1469  constructor(address _tokenAddress) {... */\n  pop\n    /* \"contracts/game.sol\":241:4877  contract GameLogic is AccessControl {... */\n  jump(tag_9)\n    /* \"@openzeppelin/contracts/access/AccessControl.sol\":6155:6471  function _grantRole(bytes32 role, address account) internal virtual returns (bool) {... */\ntag_7:\n    /* \"@openzeppelin/contracts/access/AccessControl.sol\":6232:6236  bool */\n  0x00\n    /* \"@openzeppelin/contracts/access/AccessControl.sol\":6253:6275  hasRole(role, account) */\n  tag_11\n    /* \"@openzeppelin/contracts/access/AccessControl.sol\":6261:6265  role */\n  dup4\n    /* \"@openzeppelin/contracts/access/AccessControl.sol\":6267:6274  account */\n  dup4\n    /* \"@openzeppelin/contracts/access/AccessControl.sol\":6253:6260  hasRole */\n  shl(0x20, tag_12)\n    /* \"@openzeppelin/contracts/access/AccessControl.sol\":6253:6275  hasRole(role, account) */\n  0x20\n  shr\n  jump\t// in\ntag_11:\n    /* \"@openzeppelin/contracts/access/AccessControl.sol\":6248:6465  if (!hasRole(role, account)) {... */\n  tag_13\n  jumpi\n    /* \"@openzeppelin/contracts/access/AccessControl.sol\":6323:6327  true */\n  0x01\n    /* \"@openzeppelin/contracts/access/AccessControl.sol\":6291:6297  _roles */\n  0x00\n    /* \"@openzeppelin/contracts/access/AccessControl.sol\":6291:6303  _roles[role] */\n  0x00\n    /* \"@openzeppelin/contracts/access/AccessControl.sol\":6298:6302  role */\n  dup6\n    /* \"@openzeppelin/contracts/access/AccessControl.sol\":6291:6303  _roles[role] */\n  dup2\n  mstore\n  0x20\n  add\n  swap1\n  dup2\n  mstore\n  0x20\n  add\n  0x00\n  keccak256\n    /* \"@openzeppelin/contracts/access/AccessControl.sol\":6291:6311  _roles[role].hasRole */\n  0x00\n  add\n    /* \"@openzeppelin/contracts/access/AccessControl.sol\":6291:6320  _roles[role].hasRole[account] */\n  0x00\n    /* \"@openzeppelin/contracts/access/AccessControl.sol\":6312:6319  account */\n  dup5\n    /* \"@openzeppelin/contracts/access/AccessControl.sol\":6291:6320  _roles[role].hasRole[account] */\n  0xffffffffffffffffffffffffffffffffffffffff\n  and\n  0xffffffffffffffffffffffffffffffffffffffff\n  and\n  dup2\n  mstore\n  0x20\n  add\n  swap1\n  dup2\n  mstore\n  0x20\n  add\n  0x00\n  keccak256\n  0x00\n    /* \"@openzeppelin/contracts/access/AccessControl.sol\":6291:6327  _roles[role].hasRole[account] = true */\n  0x0100\n  exp\n  dup2\n  sload\n  dup2\n  0xff\n  mul\n  not\n  and\n  swap1\n  dup4\n  iszero\n  iszero\n  mul\n  or\n  swap1\n  sstore\n  pop\n    /* \"@openzeppelin/contracts/access/AccessControl.sol\":6373:6385  _msgSender() */\n  tag_14\n    /* \"@openzeppelin/contracts/access/AccessControl.sol\":6373:6383  _msgSender */\n  shl(0x20, tag_15)\n    /* \"@openzeppelin/contracts/access/AccessControl.sol\":6373:6385  _msgSender() */\n  0x20\n  shr\n  jump\t// in\ntag_14:\n    /* \"@openzeppelin/contracts/access/AccessControl.sol\":6346:6386  RoleGranted(role, account, _msgSender()) */\n  0xffffffffffffffffffffffffffffffffffffffff\n  and\n    /* \"@openzeppelin/contracts/access/AccessControl.sol\":6364:6371  account */\n  dup3\n    /* \"@openzeppelin/contracts/access/AccessControl.sol\":6346:6386  RoleGranted(role, account, _msgSender()) */\n  0xffffffffffffffffffffffffffffffffffffffff\n  and\n    /* \"@openzeppelin/contracts/access/AccessControl.sol\":6358:6362  role */\n  dup5\n    /* \"@openzeppelin/contracts/access/AccessControl.sol\":6346:6386  RoleGranted(role, account, _msgSender()) */\n  0x2f8788117e7eff1d82e926ec794901d17c78024a50270940304540a733656f0d\n  mload(0x40)\n  mload(0x40)\n  dup1\n  swap2\n  sub\n  swap1\n  log4\n    /* \"@openzeppelin/contracts/access/AccessControl.sol\":6407:6411  true */\n  0x01\n    /* \"@openzeppelin/contracts/access/AccessControl.sol\":6400:6411  return true */\n  swap1\n  pop\n  jump(tag_10)\n    /* \"@openzeppelin/contracts/access/AccessControl.sol\":6248:6465  if (!hasRole(role, account)) {... */\ntag_13:\n    /* \"@openzeppelin/contracts/access/AccessControl.sol\":6449:6454  false */\n  0x00\n    /* \"@openzeppelin/contracts/access/AccessControl.sol\":6442:6454  return false */\n  swap1\n  pop\n    /* \"@openzeppelin/contracts/access/AccessControl.sol\":6155:6471  function _grantRole(bytes32 role, address account) internal virtual returns (bool) {... */\ntag_10:\n  swap3\n  swap2\n  pop\n  pop\n  jump\t// out\n    /* \"@openzeppelin/contracts/access/AccessControl.sol\":2830:2966  function hasRole(bytes32 role, address account) public view virtual returns (bool) {... */\ntag_12:\n    /* \"@openzeppelin/contracts/access/AccessControl.sol\":2907:2911  bool */\n  0x00\n    /* \"@openzeppelin/contracts/access/AccessControl.sol\":2930:2936  _roles */\n  0x00\n    /* \"@openzeppelin/contracts/access/AccessControl.sol\":2930:2942  _roles[role] */\n  0x00\n    /* \"@openzeppelin/contracts/access/AccessControl.sol\":2937:2941  role */\n  dup5\n    /* \"@openzeppelin/contracts/access/AccessControl.sol\":2930:2942  _roles[role] */\n  dup2\n  mstore\n  0x20\n  add\n  swap1\n  dup2\n  mstore\n  0x20\n  add\n  0x00\n  keccak256\n    /* \"@openzeppelin/contracts/access/AccessControl.sol\":2930:2950  _roles[role].hasRole */\n  0x00\n  add\n    /* \"@openzeppelin/contracts/access/AccessControl.sol\":2930:2959  _roles[role].hasRole[account] */\n  0x00\n    /* \"@openzeppelin/contracts/access/AccessControl.sol\":2951:2958  account */\n  dup4\n    /* \"@openzeppelin/contracts/access/AccessControl.sol\":2930:2959  _roles[role].hasRole[account] */\n  0xffffffffffffffffffffffffffffffffffffffff\n  and\n  0xffffffffffffffffffffffffffffffffffffffff\n  and\n  dup2\n  mstore\n  0x20\n  add\n  swap1\n  dup2\n  mstore\n  0x20\n  add\n  0x00\n  keccak256\n  0x00\n  swap1\n  sload\n  swap1\n  0x0100\n  exp\n  swap1\n  div\n  0xff\n  and\n    /* \"@openzeppelin/contracts/access/AccessControl.sol\":2923:2959  return _roles[role].hasRole[account] */\n  swap1\n  pop\n    /* \"@openzeppelin/contracts/access/AccessControl.sol\":2830:2966  function hasRole(bytes32 role, address account) public view virtual returns (bool) {... */\n  swap3\n  swap2\n  pop\n  pop\n  jump\t// out\n    /* \"@openzeppelin/contracts/utils/Context.sol\":656:752  function _msgSender() internal view virtual returns (address) {... */\ntag_15:\n    /* \"@openzeppelin/contracts/utils/Context.sol\":709:716  address */\n  0x00\n    /* \"@openzeppelin/contracts/utils/Context.sol\":735:745  msg.sender */\n  caller\n    /* \"@openzeppelin/contracts/utils/Context.sol\":728:745  return msg.sender */\n  swap1\n  pop\n    /* \"@openzeppelin/contracts/utils/Context.sol\":656:752  function _msgSender() internal view virtual returns (address) {... */\n  swap1\n  jump\t// out\n    /* \"#utility.yul\":88:205   */\ntag_20:\n    /* \"#utility.yul\":197:198   */\n  0x00\n    /* \"#utility.yul\":194:195   */\n  0x00\n    /* \"#utility.yul\":187:199   */\n  revert\n    /* \"#utility.yul\":334:460   */\ntag_22:\n    /* \"#utility.yul\":371:378   */\n  0x00\n    /* \"#utility.yul\":411:453   */\n  0xffffffffffffffffffffffffffffffffffffffff\n    /* \"#utility.yul\":404:409   */\n  dup3\n    /* \"#utility.yul\":400:454   */\n  and\n    /* \"#utility.yul\":389:454   */\n  swap1\n  pop\n    /* \"#utility.yul\":334:460   */\n  swap2\n  swap1\n  pop\n  jump\t// out\n    /* \"#utility.yul\":466:562   */\ntag_23:\n    /* \"#utility.yul\":503:510   */\n  0x00\n    /* \"#utility.yul\":532:556   */\n  tag_32\n    /* \"#utility.yul\":550:555   */\n  dup3\n    /* \"#utility.yul\":532:556   */\n  tag_22\n  jump\t// in\ntag_32:\n    /* \"#utility.yul\":521:556   */\n  swap1\n  pop\n    /* \"#utility.yul\":466:562   */\n  swap2\n  swap1\n  pop\n  jump\t// out\n    /* \"#utility.yul\":568:690   */\ntag_24:\n    /* \"#utility.yul\":641:665   */\n  tag_34\n    /* \"#utility.yul\":659:664   */\n  dup2\n    /* \"#utility.yul\":641:665   */\n  tag_23\n  jump\t// in\ntag_34:\n    /* \"#utility.yul\":634:639   */\n  dup2\n    /* \"#utility.yul\":631:666   */\n  eq\n    /* \"#utility.yul\":621:684   */\n  tag_35\n  jumpi\n    /* \"#utility.yul\":680:681   */\n  0x00\n    /* \"#utility.yul\":677:678   */\n  0x00\n    /* \"#utility.yul\":670:682   */\n  revert\n    /* \"#utility.yul\":621:684   */\ntag_35:\n    /* \"#utility.yul\":568:690   */\n  pop\n  jump\t// out\n    /* \"#utility.yul\":696:839   */\ntag_25:\n    /* \"#utility.yul\":753:758   */\n  0x00\n    /* \"#utility.yul\":784:790   */\n  dup2\n    /* \"#utility.yul\":778:791   */\n  mload\n    /* \"#utility.yul\":769:791   */\n  swap1\n  pop\n    /* \"#utility.yul\":800:833   */\n  tag_37\n    /* \"#utility.yul\":827:832   */\n  dup2\n    /* \"#utility.yul\":800:833   */\n  tag_24\n  jump\t// in\ntag_37:\n    /* \"#utility.yul\":696:839   */\n  swap3\n  swap2\n  pop\n  pop\n  jump\t// out\n    /* \"#utility.yul\":845:1196   */\ntag_3:\n    /* \"#utility.yul\":915:921   */\n  0x00\n    /* \"#utility.yul\":964:966   */\n  0x20\n    /* \"#utility.yul\":952:961   */\n  dup3\n    /* \"#utility.yul\":943:950   */\n  dup5\n    /* \"#utility.yul\":939:962   */\n  sub\n    /* \"#utility.yul\":935:967   */\n  slt\n    /* \"#utility.yul\":932:1051   */\n  iszero\n  tag_39\n  jumpi\n    /* \"#utility.yul\":970:1049   */\n  tag_40\n  tag_20\n  jump\t// in\ntag_40:\n    /* \"#utility.yul\":932:1051   */\ntag_39:\n    /* \"#utility.yul\":1090:1091   */\n  0x00\n    /* \"#utility.yul\":1115:1179   */\n  tag_41\n    /* \"#utility.yul\":1171:1178   */\n  dup5\n    /* \"#utility.yul\":1162:1168   */\n  dup3\n    /* \"#utility.yul\":1151:1160   */\n  dup6\n    /* \"#utility.yul\":1147:1169   */\n  add\n    /* \"#utility.yul\":1115:1179   */\n  tag_25\n  jump\t// in\ntag_41:\n    /* \"#utility.yul\":1105:1179   */\n  swap2\n  pop\n    /* \"#utility.yul\":1061:1189   */\n  pop\n    /* \"#utility.yul\":845:1196   */\n  swap3\n  swap2\n  pop\n  pop\n  jump\t// out\n    /* \"contracts/game.sol\":241:4877  contract GameLogic is AccessControl {... */\ntag_9:\n  dataSize(sub_0)\n  dup1\n  dataOffset(sub_0)\n  0x00\n  codecopy\n  0x00\n  return\nstop\n\nsub_0: assembly {\n        /* \"contracts/game.sol\":241:4877  contract GameLogic is AccessControl {... */\n      mstore(0x40, 0x80)\n      callvalue\n      dup1\n      iszero\n      tag_1\n      jumpi\n      revert(0x00, 0x00)\n    tag_1:\n      pop\n      jumpi(tag_2, lt(calldatasize, 0x04))\n      shr(0xe0, calldataload(0x00))\n      dup1\n      0x9a19c7b0\n      gt\n      tag_23\n      jumpi\n      dup1\n      0xd12af19a\n      gt\n      tag_24\n      jumpi\n      dup1\n      0xd12af19a\n      eq\n      tag_18\n      jumpi\n      dup1\n      0xd47875d0\n      eq\n      tag_19\n      jumpi\n      dup1\n      0xd547741f\n      eq\n      tag_20\n      jumpi\n      dup1\n      0xe2eb41ff\n      eq\n      tag_21\n      jumpi\n      dup1\n      0xed4b7eaa\n      eq\n      tag_22\n      jumpi\n      jump(tag_2)\n    tag_24:\n      dup1\n      0x9a19c7b0\n      eq\n      tag_13\n      jumpi\n      dup1\n      0xa217fddf\n      eq\n      tag_14\n      jumpi\n      dup1\n      0xba3f5a12\n      eq\n      tag_15\n      jumpi\n      dup1\n      0xc3dfdae6\n      eq\n      tag_16\n      jumpi\n      dup1\n      0xc634b78e\n      eq\n      tag_17\n      jumpi\n      jump(tag_2)\n    tag_23:\n      dup1\n      0x3596362b\n      gt\n      tag_25\n      jumpi\n      dup1\n      0x3596362b\n      eq\n      tag_8\n      jumpi\n      dup1\n      0x36568abe\n      eq\n      tag_9\n      jumpi\n      dup1\n      0x73af16fc\n      eq\n      tag_10\n      jumpi\n      dup1\n      0x75b238fc\n      eq\n      tag_11\n      jumpi\n      dup1\n      0x91d14854\n      eq\n      tag_12\n      jumpi\n      jump(tag_2)\n    tag_25:\n      dup1\n      0x01ffc9a7\n      eq\n      tag_3\n      jumpi\n      dup1\n      0x15c6aee2\n      eq\n      tag_4\n      jumpi\n      dup1\n      0x1db544c0\n      eq\n      tag_5\n      jumpi\n      dup1\n      0x248a9ca3\n      eq\n      tag_6\n      jumpi\n      dup1\n      0x2f2ff15d\n      eq\n      tag_7\n      jumpi\n    tag_2:\n      revert(0x00, 0x00)\n        /* \"@openzeppelin/contracts/access/AccessControl.sol\":2541:2743  function supportsInterface(bytes4 interfaceId) public view virtual override returns (bool) {... */\n    tag_3:\n      tag_26\n      0x04\n      dup1\n      calldatasize\n      sub\n      dup2\n      add\n      swap1\n      tag_27\n      swap2\n      swap1\n      tag_28\n      jump\t// in\n    tag_27:\n      tag_29\n      jump\t// in\n    tag_26:\n      mload(0x40)\n      tag_30\n      swap2\n      swap1\n      tag_31\n      jump\t// in\n    tag_30:\n      mload(0x40)\n      dup1\n      swap2\n      sub\n      swap1\n      return\n        /* \"contracts/game.sol\":876:908  address[] public playerAddresses */\n    tag_4:\n      tag_32\n      0x04\n      dup1\n      calldatasize\n      sub\n      dup2\n      add\n      swap1\n      tag_33\n      swap2\n      swap1\n      tag_34\n      jump\t// in\n    tag_33:\n      tag_35\n      jump\t// in\n    tag_32:\n      mload(0x40)\n      tag_36\n      swap2\n      swap1\n      tag_37\n      jump\t// in\n    tag_36:\n      mload(0x40)\n      dup1\n      swap2\n      sub\n      swap1\n      return\n        /* \"contracts/game.sol\":1520:2330  function submitScore(address player, uint256 score) external onlyRole(ADMIN_ROLE) {... */\n    tag_5:\n      tag_38\n      0x04\n      dup1\n      calldatasize\n      sub\n      dup2\n      add\n      swap1\n      tag_39\n      swap2\n      swap1\n      tag_40\n      jump\t// in\n    tag_39:\n      tag_41\n      jump\t// in\n    tag_38:\n      stop\n        /* \"@openzeppelin/contracts/access/AccessControl.sol\":3786:3906  function getRoleAdmin(bytes32 role) public view virtual returns (bytes32) {... */\n    tag_6:\n      tag_42\n      0x04\n      dup1\n      calldatasize\n      sub\n      dup2\n      add\n      swap1\n      tag_43\n      swap2\n      swap1\n      tag_44\n      jump\t// in\n    tag_43:\n      tag_45\n      jump\t// in\n    tag_42:\n      mload(0x40)\n      tag_46\n      swap2\n      swap1\n      tag_47\n      jump\t// in\n    tag_46:\n      mload(0x40)\n      dup1\n      swap2\n      sub\n      swap1\n      return\n        /* \"@openzeppelin/contracts/access/AccessControl.sol\":4202:4338  function grantRole(bytes32 role, address account) public virtual onlyRole(getRoleAdmin(role)) {... */\n    tag_7:\n      tag_48\n      0x04\n      dup1\n      calldatasize\n      sub\n      dup2\n      add\n      swap1\n      tag_49\n      swap2\n      swap1\n      tag_50\n      jump\t// in\n    tag_49:\n      tag_51\n      jump\t// in\n    tag_48:\n      stop\n        /* \"contracts/game.sol\":4323:4575  function updateTokenMultiplier(uint256 newMultiplier) external onlyRole(ADMIN_ROLE) {... */\n    tag_8:\n      tag_52\n      0x04\n      dup1\n      calldatasize\n      sub\n      dup2\n      add\n      swap1\n      tag_53\n      swap2\n      swap1\n      tag_34\n      jump\t// in\n    tag_53:\n      tag_54\n      jump\t// in\n    tag_52:\n      stop\n        /* \"@openzeppelin/contracts/access/AccessControl.sol\":5304:5549  function renounceRole(bytes32 role, address callerConfirmation) public virtual {... */\n    tag_9:\n      tag_55\n      0x04\n      dup1\n      calldatasize\n      sub\n      dup2\n      add\n      swap1\n      tag_56\n      swap2\n      swap1\n      tag_50\n      jump\t// in\n    tag_56:\n      tag_57\n      jump\t// in\n    tag_55:\n      stop\n        /* \"contracts/game.sol\":2521:3918  function getLeaderboard(uint256 offset, uint256 limit) external view returns (LeaderboardEntry[] memory) {... */\n    tag_10:\n      tag_58\n      0x04\n      dup1\n      calldatasize\n      sub\n      dup2\n      add\n      swap1\n      tag_59\n      swap2\n      swap1\n      tag_60\n      jump\t// in\n    tag_59:\n      tag_61\n      jump\t// in\n    tag_58:\n      mload(0x40)\n      tag_62\n      swap2\n      swap1\n      tag_63\n      jump\t// in\n    tag_62:\n      mload(0x40)\n      dup1\n      swap2\n      sub\n      swap1\n      return\n        /* \"contracts/game.sol\":572:632  bytes32 public constant ADMIN_ROLE = keccak256(\"ADMIN_ROLE\") */\n    tag_11:\n      tag_64\n      tag_65\n      jump\t// in\n    tag_64:\n      mload(0x40)\n      tag_66\n      swap2\n      swap1\n      tag_47\n      jump\t// in\n    tag_66:\n      mload(0x40)\n      dup1\n      swap2\n      sub\n      swap1\n      return\n        /* \"@openzeppelin/contracts/access/AccessControl.sol\":2830:2966  function hasRole(bytes32 role, address account) public view virtual returns (bool) {... */\n    tag_12:\n      tag_67\n      0x04\n      dup1\n      calldatasize\n      sub\n      dup2\n      add\n      swap1\n      tag_68\n      swap2\n      swap1\n      tag_50\n      jump\t// in\n    tag_68:\n      tag_69\n      jump\t// in\n    tag_67:\n      mload(0x40)\n      tag_70\n      swap2\n      swap1\n      tag_31\n      jump\t// in\n    tag_70:\n      mload(0x40)\n      dup1\n      swap2\n      sub\n      swap1\n      return\n        /* \"contracts/game.sol\":4747:4875  function revokeAdminRole(address account) external onlyRole(DEFAULT_ADMIN_ROLE) {... */\n    tag_13:\n      tag_71\n      0x04\n      dup1\n      calldatasize\n      sub\n      dup2\n      add\n      swap1\n      tag_72\n      swap2\n      swap1\n      tag_73\n      jump\t// in\n    tag_72:\n      tag_74\n      jump\t// in\n    tag_71:\n      stop\n        /* \"@openzeppelin/contracts/access/AccessControl.sol\":2196:2245  bytes32 public constant DEFAULT_ADMIN_ROLE = 0x00 */\n    tag_14:\n      tag_75\n      tag_76\n      jump\t// in\n    tag_75:\n      mload(0x40)\n      tag_77\n      swap2\n      swap1\n      tag_47\n      jump\t// in\n    tag_77:\n      mload(0x40)\n      dup1\n      swap2\n      sub\n      swap1\n      return\n        /* \"contracts/game.sol\":386:420  uint256 public tokenMultiplier = 1 */\n    tag_15:\n      tag_78\n      tag_79\n      jump\t// in\n    tag_78:\n      mload(0x40)\n      tag_80\n      swap2\n      swap1\n      tag_81\n      jump\t// in\n    tag_80:\n      mload(0x40)\n      dup1\n      swap2\n      sub\n      swap1\n      return\n        /* \"contracts/game.sol\":316:339  IERC20 public gameToken */\n    tag_16:\n      tag_82\n      tag_83\n      jump\t// in\n    tag_82:\n      mload(0x40)\n      tag_84\n      swap2\n      swap1\n      tag_85\n      jump\t// in\n    tag_84:\n      mload(0x40)\n      dup1\n      swap2\n      sub\n      swap1\n      return\n        /* \"contracts/game.sol\":4615:4741  function grantAdminRole(address account) external onlyRole(DEFAULT_ADMIN_ROLE) {... */\n    tag_17:\n      tag_86\n      0x04\n      dup1\n      calldatasize\n      sub\n      dup2\n      add\n      swap1\n      tag_87\n      swap2\n      swap1\n      tag_73\n      jump\t// in\n    tag_87:\n      tag_88\n      jump\t// in\n    tag_86:\n      stop\n        /* \"contracts/game.sol\":466:518  uint256 public constant REPAIR_COST = 100 * 10 ** 18 */\n    tag_18:\n      tag_89\n      tag_90\n      jump\t// in\n    tag_89:\n      mload(0x40)\n      tag_91\n      swap2\n      swap1\n      tag_81\n      jump\t// in\n    tag_91:\n      mload(0x40)\n      dup1\n      swap2\n      sub\n      swap1\n      return\n        /* \"contracts/game.sol\":2371:2482  function getScore(address wallet) external view returns (uint256) {... */\n    tag_19:\n      tag_92\n      0x04\n      dup1\n      calldatasize\n      sub\n      dup2\n      add\n      swap1\n      tag_93\n      swap2\n      swap1\n      tag_73\n      jump\t// in\n    tag_93:\n      tag_94\n      jump\t// in\n    tag_92:\n      mload(0x40)\n      tag_95\n      swap2\n      swap1\n      tag_81\n      jump\t// in\n    tag_95:\n      mload(0x40)\n      dup1\n      swap2\n      sub\n      swap1\n      return\n        /* \"@openzeppelin/contracts/access/AccessControl.sol\":4618:4756  function revokeRole(bytes32 role, address account) public virtual onlyRole(getRoleAdmin(role)) {... */\n    tag_20:\n      tag_96\n      0x04\n      dup1\n      calldatasize\n      sub\n      dup2\n      add\n      swap1\n      tag_97\n      swap2\n      swap1\n      tag_50\n      jump\t// in\n    tag_97:\n      tag_98\n      jump\t// in\n    tag_96:\n      stop\n        /* \"contracts/game.sol\":814:855  mapping(address => Player) public players */\n    tag_21:\n      tag_99\n      0x04\n      dup1\n      calldatasize\n      sub\n      dup2\n      add\n      swap1\n      tag_100\n      swap2\n      swap1\n      tag_73\n      jump\t// in\n    tag_100:\n      tag_101\n      jump\t// in\n    tag_99:\n      mload(0x40)\n      tag_102\n      swap3\n      swap2\n      swap1\n      tag_103\n      jump\t// in\n    tag_102:\n      mload(0x40)\n      dup1\n      swap2\n      sub\n      swap1\n      return\n        /* \"contracts/game.sol\":3956:4257  function repairVehicle(string calldata component) external {... */\n    tag_22:\n      tag_104\n      0x04\n      dup1\n      calldatasize\n      sub\n      dup2\n      add\n      swap1\n      tag_105\n      swap2\n      swap1\n      tag_106\n      jump\t// in\n    tag_105:\n      tag_107\n      jump\t// in\n    tag_104:\n      stop\n        /* \"@openzeppelin/contracts/access/AccessControl.sol\":2541:2743  function supportsInterface(bytes4 interfaceId) public view virtual override returns (bool) {... */\n    tag_29:\n        /* \"@openzeppelin/contracts/access/AccessControl.sol\":2626:2630  bool */\n      0x00\n        /* \"@openzeppelin/contracts/access/AccessControl.sol\":2664:2696  type(IAccessControl).interfaceId */\n      0x7965db0b00000000000000000000000000000000000000000000000000000000\n        /* \"@openzeppelin/contracts/access/AccessControl.sol\":2649:2696  interfaceId == type(IAccessControl).interfaceId */\n      not(0xffffffffffffffffffffffffffffffffffffffffffffffffffffffff)\n      and\n        /* \"@openzeppelin/contracts/access/AccessControl.sol\":2649:2660  interfaceId */\n      dup3\n        /* \"@openzeppelin/contracts/access/AccessControl.sol\":2649:2696  interfaceId == type(IAccessControl).interfaceId */\n      not(0xffffffffffffffffffffffffffffffffffffffffffffffffffffffff)\n      and\n      eq\n        /* \"@openzeppelin/contracts/access/AccessControl.sol\":2649:2736  interfaceId == type(IAccessControl).interfaceId || super.supportsInterface(interfaceId) */\n      dup1\n      tag_109\n      jumpi\n      pop\n        /* \"@openzeppelin/contracts/access/AccessControl.sol\":2700:2736  super.supportsInterface(interfaceId) */\n      tag_110\n        /* \"@openzeppelin/contracts/access/AccessControl.sol\":2724:2735  interfaceId */\n      dup3\n        /* \"@openzeppelin/contracts/access/AccessControl.sol\":2700:2723  super.supportsInterface */\n      tag_111\n        /* \"@openzeppelin/contracts/access/AccessControl.sol\":2700:2736  super.supportsInterface(interfaceId) */\n      jump\t// in\n    tag_110:\n        /* \"@openzeppelin/contracts/access/AccessControl.sol\":2649:2736  interfaceId == type(IAccessControl).interfaceId || super.supportsInterface(interfaceId) */\n    tag_109:\n        /* \"@openzeppelin/contracts/access/AccessControl.sol\":2642:2736  return interfaceId == type(IAccessControl).interfaceId || super.supportsInterface(interfaceId) */\n      swap1\n      pop\n        /* \"@openzeppelin/contracts/access/AccessControl.sol\":2541:2743  function supportsInterface(bytes4 interfaceId) public view virtual override returns (bool) {... */\n      swap2\n      swap1\n      pop\n      jump\t// out\n        /* \"contracts/game.sol\":876:908  address[] public playerAddresses */\n    tag_35:\n      0x04\n      dup2\n      dup2\n      sload\n      dup2\n      lt\n      tag_112\n      jumpi\n      0x00\n      dup1\n      revert\n    tag_112:\n      swap1\n      0x00\n      mstore\n      keccak256(0x00, 0x20)\n      add\n      0x00\n      swap2\n      pop\n      sload\n      swap1\n      0x0100\n      exp\n      swap1\n      div\n      0xffffffffffffffffffffffffffffffffffffffff\n      and\n      dup2\n      jump\t// out\n        /* \"contracts/game.sol\":1520:2330  function submitScore(address player, uint256 score) external onlyRole(ADMIN_ROLE) {... */\n    tag_41:\n        /* \"contracts/game.sol\":609:632  keccak256(\"ADMIN_ROLE\") */\n      0xa49807205ce4d355092ef5a8a18f56e8913cf4a201fbe287825b095693c21775\n        /* \"@openzeppelin/contracts/access/AccessControl.sol\":2473:2489  _checkRole(role) */\n      tag_115\n        /* \"@openzeppelin/contracts/access/AccessControl.sol\":2484:2488  role */\n      dup2\n        /* \"@openzeppelin/contracts/access/AccessControl.sol\":2473:2483  _checkRole */\n      tag_116\n        /* \"@openzeppelin/contracts/access/AccessControl.sol\":2473:2489  _checkRole(role) */\n      jump\t// in\n    tag_115:\n        /* \"contracts/game.sol\":1638:1639  0 */\n      0x00\n        /* \"contracts/game.sol\":1620:1640  player != address(0) */\n      0xffffffffffffffffffffffffffffffffffffffff\n      and\n        /* \"contracts/game.sol\":1620:1626  player */\n      dup4\n        /* \"contracts/game.sol\":1620:1640  player != address(0) */\n      0xffffffffffffffffffffffffffffffffffffffff\n      and\n      sub\n        /* \"contracts/game.sol\":1612:1667  require(player != address(0), \"Invalid player address\") */\n      tag_118\n      jumpi\n      mload(0x40)\n      0x08c379a000000000000000000000000000000000000000000000000000000000\n      dup2\n      mstore\n      0x04\n      add\n      tag_119\n      swap1\n      tag_120\n      jump\t// in\n    tag_119:\n      mload(0x40)\n      dup1\n      swap2\n      sub\n      swap1\n      revert\n    tag_118:\n        /* \"contracts/game.sol\":1693:1694  0 */\n      0x00\n        /* \"contracts/game.sol\":1685:1690  score */\n      dup3\n        /* \"contracts/game.sol\":1685:1694  score > 0 */\n      gt\n        /* \"contracts/game.sol\":1677:1730  require(score > 0, \"Score must be greater than zero\") */\n      tag_121\n      jumpi\n      mload(0x40)\n      0x08c379a000000000000000000000000000000000000000000000000000000000\n      dup2\n      mstore\n      0x04\n      add\n      tag_122\n      swap1\n      tag_123\n      jump\t// in\n    tag_122:\n      mload(0x40)\n      dup1\n      swap2\n      sub\n      swap1\n      revert\n    tag_121:\n        /* \"contracts/game.sol\":1814:1815  0 */\n      0x00\n        /* \"contracts/game.sol\":1789:1796  players */\n      0x03\n        /* \"contracts/game.sol\":1789:1804  players[player] */\n      0x00\n        /* \"contracts/game.sol\":1797:1803  player */\n      dup6\n        /* \"contracts/game.sol\":1789:1804  players[player] */\n      0xffffffffffffffffffffffffffffffffffffffff\n      and\n      0xffffffffffffffffffffffffffffffffffffffff\n      and\n      dup2\n      mstore\n      0x20\n      add\n      swap1\n      dup2\n      mstore\n      0x20\n      add\n      0x00\n      keccak256\n        /* \"contracts/game.sol\":1789:1810  players[player].score */\n      0x00\n      add\n      sload\n        /* \"contracts/game.sol\":1789:1815  players[player].score == 0 */\n      eq\n        /* \"contracts/game.sol\":1789:1863  players[player].score == 0 && players[player].lastSubmissionTimestamp == 0 */\n      dup1\n      iszero\n      tag_124\n      jumpi\n      pop\n        /* \"contracts/game.sol\":1862:1863  0 */\n      0x00\n        /* \"contracts/game.sol\":1819:1826  players */\n      0x03\n        /* \"contracts/game.sol\":1819:1834  players[player] */\n      0x00\n        /* \"contracts/game.sol\":1827:1833  player */\n      dup6\n        /* \"contracts/game.sol\":1819:1834  players[player] */\n      0xffffffffffffffffffffffffffffffffffffffff\n      and\n      0xffffffffffffffffffffffffffffffffffffffff\n      and\n      dup2\n      mstore\n      0x20\n      add\n      swap1\n      dup2\n      mstore\n      0x20\n      add\n      0x00\n      keccak256\n        /* \"contracts/game.sol\":1819:1858  players[player].lastSubmissionTimestamp */\n      0x01\n      add\n      sload\n        /* \"contracts/game.sol\":1819:1863  players[player].lastSubmissionTimestamp == 0 */\n      eq\n        /* \"contracts/game.sol\":1789:1863  players[player].score == 0 && players[player].lastSubmissionTimestamp == 0 */\n    tag_124:\n        /* \"contracts/game.sol\":1785:1956  if (players[player].score == 0 && players[player].lastSubmissionTimestamp == 0) {... */\n      iszero\n      tag_125\n      jumpi\n        /* \"contracts/game.sol\":1879:1894  playerAddresses */\n      0x04\n        /* \"contracts/game.sol\":1900:1906  player */\n      dup4\n        /* \"contracts/game.sol\":1879:1907  playerAddresses.push(player) */\n      swap1\n      dup1\n      0x01\n      dup2\n      sload\n      add\n      dup1\n      dup3\n      sstore\n      dup1\n      swap2\n      pop\n      pop\n      0x01\n      swap1\n      sub\n      swap1\n      0x00\n      mstore\n      keccak256(0x00, 0x20)\n      add\n      0x00\n      swap1\n      swap2\n      swap1\n      swap2\n      swap1\n      swap2\n      0x0100\n      exp\n      dup2\n      sload\n      dup2\n      0xffffffffffffffffffffffffffffffffffffffff\n      mul\n      not\n      and\n      swap1\n      dup4\n      0xffffffffffffffffffffffffffffffffffffffff\n      and\n      mul\n      or\n      swap1\n      sstore\n      pop\n        /* \"contracts/game.sol\":1938:1944  player */\n      dup3\n        /* \"contracts/game.sol\":1926:1945  PlayerAdded(player) */\n      0xffffffffffffffffffffffffffffffffffffffff\n      and\n      0xf2ae205522024c14e5a7a26ba6d1fb1252dc8e161b5abc79ed5795fd3c5b9261\n      mload(0x40)\n      mload(0x40)\n      dup1\n      swap2\n      sub\n      swap1\n      log2\n        /* \"contracts/game.sol\":1785:1956  if (players[player].score == 0 && players[player].lastSubmissionTimestamp == 0) {... */\n    tag_125:\n        /* \"contracts/game.sol\":1991:1996  score */\n      dup2\n        /* \"contracts/game.sol\":1966:1973  players */\n      0x03\n        /* \"contracts/game.sol\":1966:1981  players[player] */\n      0x00\n        /* \"contracts/game.sol\":1974:1980  player */\n      dup6\n        /* \"contracts/game.sol\":1966:1981  players[player] */\n      0xffffffffffffffffffffffffffffffffffffffff\n      and\n      0xffffffffffffffffffffffffffffffffffffffff\n      and\n      dup2\n      mstore\n      0x20\n      add\n      swap1\n      dup2\n      mstore\n      0x20\n      add\n      0x00\n      keccak256\n        /* \"contracts/game.sol\":1966:1987  players[player].score */\n      0x00\n      add\n      0x00\n        /* \"contracts/game.sol\":1966:1996  players[player].score += score */\n      dup3\n      dup3\n      sload\n      tag_127\n      swap2\n      swap1\n      tag_128\n      jump\t// in\n    tag_127:\n      swap3\n      pop\n      pop\n      dup2\n      swap1\n      sstore\n      pop\n        /* \"contracts/game.sol\":2048:2063  block.timestamp */\n      timestamp\n        /* \"contracts/game.sol\":2006:2013  players */\n      0x03\n        /* \"contracts/game.sol\":2006:2021  players[player] */\n      0x00\n        /* \"contracts/game.sol\":2014:2020  player */\n      dup6\n        /* \"contracts/game.sol\":2006:2021  players[player] */\n      0xffffffffffffffffffffffffffffffffffffffff\n      and\n      0xffffffffffffffffffffffffffffffffffffffff\n      and\n      dup2\n      mstore\n      0x20\n      add\n      swap1\n      dup2\n      mstore\n      0x20\n      add\n      0x00\n      keccak256\n        /* \"contracts/game.sol\":2006:2045  players[player].lastSubmissionTimestamp */\n      0x01\n      add\n        /* \"contracts/game.sol\":2006:2063  players[player].lastSubmissionTimestamp = block.timestamp */\n      dup2\n      swap1\n      sstore\n      pop\n        /* \"contracts/game.sol\":2153:2173  uint256 tokensToMint */\n      0x00\n        /* \"contracts/game.sol\":2202:2210  10 ** 18 */\n      0x0de0b6b3a7640000\n        /* \"contracts/game.sol\":2184:2199  tokenMultiplier */\n      sload(0x02)\n        /* \"contracts/game.sol\":2176:2181  score */\n      dup5\n        /* \"contracts/game.sol\":2176:2199  score * tokenMultiplier */\n      tag_129\n      swap2\n      swap1\n      tag_130\n      jump\t// in\n    tag_129:\n        /* \"contracts/game.sol\":2176:2210  score * tokenMultiplier * 10 ** 18 */\n      tag_131\n      swap2\n      swap1\n      tag_130\n      jump\t// in\n    tag_131:\n        /* \"contracts/game.sol\":2153:2210  uint256 tokensToMint = score * tokenMultiplier * 10 ** 18 */\n      swap1\n      pop\n        /* \"contracts/game.sol\":2220:2264  gameToken.safeTransfer(player, tokensToMint) */\n      tag_132\n        /* \"contracts/game.sol\":2243:2249  player */\n      dup5\n        /* \"contracts/game.sol\":2251:2263  tokensToMint */\n      dup3\n        /* \"contracts/game.sol\":2220:2229  gameToken */\n      0x01\n      0x00\n      swap1\n      sload\n      swap1\n      0x0100\n      exp\n      swap1\n      div\n      0xffffffffffffffffffffffffffffffffffffffff\n      and\n        /* \"contracts/game.sol\":2220:2242  gameToken.safeTransfer */\n      0xffffffffffffffffffffffffffffffffffffffff\n      and\n      tag_133\n      swap1\n        /* \"contracts/game.sol\":2220:2264  gameToken.safeTransfer(player, tokensToMint) */\n      swap3\n      swap2\n      swap1\n      0xffffffff\n      and\n      jump\t// in\n    tag_132:\n        /* \"contracts/game.sol\":2295:2301  player */\n      dup4\n        /* \"contracts/game.sol\":2280:2323  ScoreSubmitted(player, score, tokensToMint) */\n      0xffffffffffffffffffffffffffffffffffffffff\n      and\n      0xb7f20d0949b6a8bc59d005af4a52f7ff5d0cfcde9056fa556adb0e4b24dcb6d2\n        /* \"contracts/game.sol\":2303:2308  score */\n      dup5\n        /* \"contracts/game.sol\":2310:2322  tokensToMint */\n      dup4\n        /* \"contracts/game.sol\":2280:2323  ScoreSubmitted(player, score, tokensToMint) */\n      mload(0x40)\n      tag_134\n      swap3\n      swap2\n      swap1\n      tag_103\n      jump\t// in\n    tag_134:\n      mload(0x40)\n      dup1\n      swap2\n      sub\n      swap1\n      log2\n        /* \"contracts/game.sol\":1602:2330  {... */\n      pop\n        /* \"contracts/game.sol\":1520:2330  function submitScore(address player, uint256 score) external onlyRole(ADMIN_ROLE) {... */\n      pop\n      pop\n      pop\n      jump\t// out\n        /* \"@openzeppelin/contracts/access/AccessControl.sol\":3786:3906  function getRoleAdmin(bytes32 role) public view virtual returns (bytes32) {... */\n    tag_45:\n        /* \"@openzeppelin/contracts/access/AccessControl.sol\":3851:3858  bytes32 */\n      0x00\n        /* \"@openzeppelin/contracts/access/AccessControl.sol\":3877:3883  _roles */\n      0x00\n        /* \"@openzeppelin/contracts/access/AccessControl.sol\":3877:3889  _roles[role] */\n      0x00\n        /* \"@openzeppelin/contracts/access/AccessControl.sol\":3884:3888  role */\n      dup4\n        /* \"@openzeppelin/contracts/access/AccessControl.sol\":3877:3889  _roles[role] */\n      dup2\n      mstore\n      0x20\n      add\n      swap1\n      dup2\n      mstore\n      0x20\n      add\n      0x00\n      keccak256\n        /* \"@openzeppelin/contracts/access/AccessControl.sol\":3877:3899  _roles[role].adminRole */\n      0x01\n      add\n      sload\n        /* \"@openzeppelin/contracts/access/AccessControl.sol\":3870:3899  return _roles[role].adminRole */\n      swap1\n      pop\n        /* \"@openzeppelin/contracts/access/AccessControl.sol\":3786:3906  function getRoleAdmin(bytes32 role) public view virtual returns (bytes32) {... */\n      swap2\n      swap1\n      pop\n      jump\t// out\n        /* \"@openzeppelin/contracts/access/AccessControl.sol\":4202:4338  function grantRole(bytes32 role, address account) public virtual onlyRole(getRoleAdmin(role)) {... */\n    tag_51:\n        /* \"@openzeppelin/contracts/access/AccessControl.sol\":4276:4294  getRoleAdmin(role) */\n      tag_136\n        /* \"@openzeppelin/contracts/access/AccessControl.sol\":4289:4293  role */\n      dup3\n        /* \"@openzeppelin/contracts/access/AccessControl.sol\":4276:4288  getRoleAdmin */\n      tag_45\n        /* \"@openzeppelin/contracts/access/AccessControl.sol\":4276:4294  getRoleAdmin(role) */\n      jump\t// in\n    tag_136:\n        /* \"@openzeppelin/contracts/access/AccessControl.sol\":2473:2489  _checkRole(role) */\n      tag_138\n        /* \"@openzeppelin/contracts/access/AccessControl.sol\":2484:2488  role */\n      dup2\n        /* \"@openzeppelin/contracts/access/AccessControl.sol\":2473:2483  _checkRole */\n      tag_116\n        /* \"@openzeppelin/contracts/access/AccessControl.sol\":2473:2489  _checkRole(role) */\n      jump\t// in\n    tag_138:\n        /* \"@openzeppelin/contracts/access/AccessControl.sol\":4306:4331  _grantRole(role, account) */\n      tag_140\n        /* \"@openzeppelin/contracts/access/AccessControl.sol\":4317:4321  role */\n      dup4\n        /* \"@openzeppelin/contracts/access/AccessControl.sol\":4323:4330  account */\n      dup4\n        /* \"@openzeppelin/contracts/access/AccessControl.sol\":4306:4316  _grantRole */\n      tag_141\n        /* \"@openzeppelin/contracts/access/AccessControl.sol\":4306:4331  _grantRole(role, account) */\n      jump\t// in\n    tag_140:\n      pop\n        /* \"@openzeppelin/contracts/access/AccessControl.sol\":4202:4338  function grantRole(bytes32 role, address account) public virtual onlyRole(getRoleAdmin(role)) {... */\n      pop\n      pop\n      pop\n      jump\t// out\n        /* \"contracts/game.sol\":4323:4575  function updateTokenMultiplier(uint256 newMultiplier) external onlyRole(ADMIN_ROLE) {... */\n    tag_54:\n        /* \"contracts/game.sol\":609:632  keccak256(\"ADMIN_ROLE\") */\n      0xa49807205ce4d355092ef5a8a18f56e8913cf4a201fbe287825b095693c21775\n        /* \"@openzeppelin/contracts/access/AccessControl.sol\":2473:2489  _checkRole(role) */\n      tag_143\n        /* \"@openzeppelin/contracts/access/AccessControl.sol\":2484:2488  role */\n      dup2\n        /* \"@openzeppelin/contracts/access/AccessControl.sol\":2473:2483  _checkRole */\n      tag_116\n        /* \"@openzeppelin/contracts/access/AccessControl.sol\":2473:2489  _checkRole(role) */\n      jump\t// in\n    tag_143:\n        /* \"contracts/game.sol\":4441:4442  0 */\n      0x00\n        /* \"contracts/game.sol\":4425:4438  newMultiplier */\n      dup3\n        /* \"contracts/game.sol\":4425:4442  newMultiplier > 0 */\n      gt\n        /* \"contracts/game.sol\":4417:4483  require(newMultiplier > 0, \"Multiplier must be greater than zero\") */\n      tag_145\n      jumpi\n      mload(0x40)\n      0x08c379a000000000000000000000000000000000000000000000000000000000\n      dup2\n      mstore\n      0x04\n      add\n      tag_146\n      swap1\n      tag_147\n      jump\t// in\n    tag_146:\n      mload(0x40)\n      dup1\n      swap2\n      sub\n      swap1\n      revert\n    tag_145:\n        /* \"contracts/game.sol\":4511:4524  newMultiplier */\n      dup2\n        /* \"contracts/game.sol\":4493:4508  tokenMultiplier */\n      0x02\n        /* \"contracts/game.sol\":4493:4524  tokenMultiplier = newMultiplier */\n      dup2\n      swap1\n      sstore\n      pop\n        /* \"contracts/game.sol\":4539:4568  FormulaUpdated(newMultiplier) */\n      0xe6b19b2c6617851a0f4c49df91138e172046ffa3fc94114d4a7294d0e4362dd6\n        /* \"contracts/game.sol\":4554:4567  newMultiplier */\n      dup3\n        /* \"contracts/game.sol\":4539:4568  FormulaUpdated(newMultiplier) */\n      mload(0x40)\n      tag_148\n      swap2\n      swap1\n      tag_81\n      jump\t// in\n    tag_148:\n      mload(0x40)\n      dup1\n      swap2\n      sub\n      swap1\n      log1\n        /* \"contracts/game.sol\":4323:4575  function updateTokenMultiplier(uint256 newMultiplier) external onlyRole(ADMIN_ROLE) {... */\n      pop\n      pop\n      jump\t// out\n        /* \"@openzeppelin/contracts/access/AccessControl.sol\":5304:5549  function renounceRole(bytes32 role, address callerConfirmation) public virtual {... */\n    tag_57:\n        /* \"@openzeppelin/contracts/access/AccessControl.sol\":5419:5431  _msgSender() */\n      tag_150\n        /* \"@openzeppelin/contracts/access/AccessControl.sol\":5419:5429  _msgSender */\n      tag_151\n        /* \"@openzeppelin/contracts/access/AccessControl.sol\":5419:5431  _msgSender() */\n      jump\t// in\n    tag_150:\n        /* \"@openzeppelin/contracts/access/AccessControl.sol\":5397:5431  callerConfirmation != _msgSender() */\n      0xffffffffffffffffffffffffffffffffffffffff\n      and\n        /* \"@openzeppelin/contracts/access/AccessControl.sol\":5397:5415  callerConfirmation */\n      dup2\n        /* \"@openzeppelin/contracts/access/AccessControl.sol\":5397:5431  callerConfirmation != _msgSender() */\n      0xffffffffffffffffffffffffffffffffffffffff\n      and\n      eq\n        /* \"@openzeppelin/contracts/access/AccessControl.sol\":5393:5495  if (callerConfirmation != _msgSender()) {... */\n      tag_152\n      jumpi\n        /* \"@openzeppelin/contracts/access/AccessControl.sol\":5454:5484  AccessControlBadConfirmation() */\n      mload(0x40)\n      0x6697b23200000000000000000000000000000000000000000000000000000000\n      dup2\n      mstore\n      0x04\n      add\n      mload(0x40)\n      dup1\n      swap2\n      sub\n      swap1\n      revert\n        /* \"@openzeppelin/contracts/access/AccessControl.sol\":5393:5495  if (callerConfirmation != _msgSender()) {... */\n    tag_152:\n        /* \"@openzeppelin/contracts/access/AccessControl.sol\":5505:5542  _revokeRole(role, callerConfirmation) */\n      tag_153\n        /* \"@openzeppelin/contracts/access/AccessControl.sol\":5517:5521  role */\n      dup3\n        /* \"@openzeppelin/contracts/access/AccessControl.sol\":5523:5541  callerConfirmation */\n      dup3\n        /* \"@openzeppelin/contracts/access/AccessControl.sol\":5505:5516  _revokeRole */\n      tag_154\n        /* \"@openzeppelin/contracts/access/AccessControl.sol\":5505:5542  _revokeRole(role, callerConfirmation) */\n      jump\t// in\n    tag_153:\n      pop\n        /* \"@openzeppelin/contracts/access/AccessControl.sol\":5304:5549  function renounceRole(bytes32 role, address callerConfirmation) public virtual {... */\n      pop\n      pop\n      jump\t// out\n        /* \"contracts/game.sol\":2521:3918  function getLeaderboard(uint256 offset, uint256 limit) external view returns (LeaderboardEntry[] memory) {... */\n    tag_61:\n        /* \"contracts/game.sol\":2599:2624  LeaderboardEntry[] memory */\n      0x60\n        /* \"contracts/game.sol\":2653:2668  playerAddresses */\n      0x04\n        /* \"contracts/game.sol\":2653:2675  playerAddresses.length */\n      dup1\n      sload\n      swap1\n      pop\n        /* \"contracts/game.sol\":2644:2650  offset */\n      dup4\n        /* \"contracts/game.sol\":2644:2675  offset < playerAddresses.length */\n      lt\n        /* \"contracts/game.sol\":2636:2700  require(offset < playerAddresses.length, \"Offset out of bounds\") */\n      tag_156\n      jumpi\n      mload(0x40)\n      0x08c379a000000000000000000000000000000000000000000000000000000000\n      dup2\n      mstore\n      0x04\n      add\n      tag_157\n      swap1\n      tag_158\n      jump\t// in\n    tag_157:\n      mload(0x40)\n      dup1\n      swap2\n      sub\n      swap1\n      revert\n    tag_156:\n        /* \"contracts/game.sol\":2710:2727  uint256 maxLength */\n      0x00\n        /* \"contracts/game.sol\":2755:2761  offset */\n      dup4\n        /* \"contracts/game.sol\":2730:2745  playerAddresses */\n      0x04\n        /* \"contracts/game.sol\":2730:2752  playerAddresses.length */\n      dup1\n      sload\n      swap1\n      pop\n        /* \"contracts/game.sol\":2730:2761  playerAddresses.length - offset */\n      tag_159\n      swap2\n      swap1\n      tag_160\n      jump\t// in\n    tag_159:\n        /* \"contracts/game.sol\":2710:2761  uint256 maxLength = playerAddresses.length - offset */\n      swap1\n      pop\n        /* \"contracts/game.sol\":2771:2791  uint256 actualLength */\n      0x00\n        /* \"contracts/game.sol\":2802:2811  maxLength */\n      dup2\n        /* \"contracts/game.sol\":2794:2799  limit */\n      dup5\n        /* \"contracts/game.sol\":2794:2811  limit > maxLength */\n      gt\n        /* \"contracts/game.sol\":2794:2831  limit > maxLength ? maxLength : limit */\n      tag_161\n      jumpi\n        /* \"contracts/game.sol\":2826:2831  limit */\n      dup4\n        /* \"contracts/game.sol\":2794:2831  limit > maxLength ? maxLength : limit */\n      jump(tag_162)\n    tag_161:\n        /* \"contracts/game.sol\":2814:2823  maxLength */\n      dup2\n        /* \"contracts/game.sol\":2794:2831  limit > maxLength ? maxLength : limit */\n    tag_162:\n        /* \"contracts/game.sol\":2771:2831  uint256 actualLength = limit > maxLength ? maxLength : limit */\n      swap1\n      pop\n        /* \"contracts/game.sol\":2841:2878  LeaderboardEntry[] memory leaderboard */\n      0x00\n        /* \"contracts/game.sol\":2904:2916  actualLength */\n      dup2\n        /* \"contracts/game.sol\":2881:2917  new LeaderboardEntry[](actualLength) */\n      0xffffffffffffffff\n      dup2\n      gt\n      iszero\n      tag_163\n      jumpi\n      tag_164\n      tag_165\n      jump\t// in\n    tag_164:\n    tag_163:\n      mload(0x40)\n      swap1\n      dup1\n      dup3\n      mstore\n      dup1\n      0x20\n      mul\n      0x20\n      add\n      dup3\n      add\n      0x40\n      mstore\n      dup1\n      iszero\n      tag_166\n      jumpi\n      dup2\n      0x20\n      add\n    tag_167:\n      tag_168\n      tag_169\n      jump\t// in\n    tag_168:\n      dup2\n      mstore\n      0x20\n      add\n      swap1\n      0x01\n      swap1\n      sub\n      swap1\n      dup2\n      tag_167\n      jumpi\n      swap1\n      pop\n    tag_166:\n      pop\n        /* \"contracts/game.sol\":2841:2917  LeaderboardEntry[] memory leaderboard = new LeaderboardEntry[](actualLength) */\n      swap1\n      pop\n        /* \"contracts/game.sol\":2976:3009  LeaderboardEntry[] memory entries */\n      0x00\n        /* \"contracts/game.sol\":3035:3050  playerAddresses */\n      0x04\n        /* \"contracts/game.sol\":3035:3057  playerAddresses.length */\n      dup1\n      sload\n      swap1\n      pop\n        /* \"contracts/game.sol\":3012:3058  new LeaderboardEntry[](playerAddresses.length) */\n      0xffffffffffffffff\n      dup2\n      gt\n      iszero\n      tag_170\n      jumpi\n      tag_171\n      tag_165\n      jump\t// in\n    tag_171:\n    tag_170:\n      mload(0x40)\n      swap1\n      dup1\n      dup3\n      mstore\n      dup1\n      0x20\n      mul\n      0x20\n      add\n      dup3\n      add\n      0x40\n      mstore\n      dup1\n      iszero\n      tag_172\n      jumpi\n      dup2\n      0x20\n      add\n    tag_173:\n      tag_174\n      tag_169\n      jump\t// in\n    tag_174:\n      dup2\n      mstore\n      0x20\n      add\n      swap1\n      0x01\n      swap1\n      sub\n      swap1\n      dup2\n      tag_173\n      jumpi\n      swap1\n      pop\n    tag_172:\n      pop\n        /* \"contracts/game.sol\":2976:3058  LeaderboardEntry[] memory entries = new LeaderboardEntry[](playerAddresses.length) */\n      swap1\n      pop\n        /* \"contracts/game.sol\":3073:3082  uint256 i */\n      0x00\n        /* \"contracts/game.sol\":3085:3086  0 */\n      0x00\n        /* \"contracts/game.sol\":3073:3086  uint256 i = 0 */\n      swap1\n      pop\n        /* \"contracts/game.sol\":3068:3230  for (uint256 i = 0; i < playerAddresses.length; i++) {... */\n    tag_175:\n        /* \"contracts/game.sol\":3092:3107  playerAddresses */\n      0x04\n        /* \"contracts/game.sol\":3092:3114  playerAddresses.length */\n      dup1\n      sload\n      swap1\n      pop\n        /* \"contracts/game.sol\":3088:3089  i */\n      dup2\n        /* \"contracts/game.sol\":3088:3114  i < playerAddresses.length */\n      lt\n        /* \"contracts/game.sol\":3068:3230  for (uint256 i = 0; i < playerAddresses.length; i++) {... */\n      iszero\n      tag_176\n      jumpi\n        /* \"contracts/game.sol\":3148:3219  LeaderboardEntry(playerAddresses[i], players[playerAddresses[i]].score) */\n      mload(0x40)\n      dup1\n      0x40\n      add\n      0x40\n      mstore\n      dup1\n        /* \"contracts/game.sol\":3165:3180  playerAddresses */\n      0x04\n        /* \"contracts/game.sol\":3181:3182  i */\n      dup4\n        /* \"contracts/game.sol\":3165:3183  playerAddresses[i] */\n      dup2\n      sload\n      dup2\n      lt\n      tag_178\n      jumpi\n      tag_179\n      tag_180\n      jump\t// in\n    tag_179:\n    tag_178:\n      swap1\n      0x00\n      mstore\n      keccak256(0x00, 0x20)\n      add\n      0x00\n      swap1\n      sload\n      swap1\n      0x0100\n      exp\n      swap1\n      div\n      0xffffffffffffffffffffffffffffffffffffffff\n      and\n        /* \"contracts/game.sol\":3148:3219  LeaderboardEntry(playerAddresses[i], players[playerAddresses[i]].score) */\n      0xffffffffffffffffffffffffffffffffffffffff\n      and\n      dup2\n      mstore\n      0x20\n      add\n        /* \"contracts/game.sol\":3185:3192  players */\n      0x03\n        /* \"contracts/game.sol\":3185:3212  players[playerAddresses[i]] */\n      0x00\n        /* \"contracts/game.sol\":3193:3208  playerAddresses */\n      0x04\n        /* \"contracts/game.sol\":3209:3210  i */\n      dup6\n        /* \"contracts/game.sol\":3193:3211  playerAddresses[i] */\n      dup2\n      sload\n      dup2\n      lt\n      tag_182\n      jumpi\n      tag_183\n      tag_180\n      jump\t// in\n    tag_183:\n    tag_182:\n      swap1\n      0x00\n      mstore\n      keccak256(0x00, 0x20)\n      add\n      0x00\n      swap1\n      sload\n      swap1\n      0x0100\n      exp\n      swap1\n      div\n      0xffffffffffffffffffffffffffffffffffffffff\n      and\n        /* \"contracts/game.sol\":3185:3212  players[playerAddresses[i]] */\n      0xffffffffffffffffffffffffffffffffffffffff\n      and\n      0xffffffffffffffffffffffffffffffffffffffff\n      and\n      dup2\n      mstore\n      0x20\n      add\n      swap1\n      dup2\n      mstore\n      0x20\n      add\n      0x00\n      keccak256\n        /* \"contracts/game.sol\":3185:3218  players[playerAddresses[i]].score */\n      0x00\n      add\n      sload\n        /* \"contracts/game.sol\":3148:3219  LeaderboardEntry(playerAddresses[i], players[playerAddresses[i]].score) */\n      dup2\n      mstore\n      pop\n        /* \"contracts/game.sol\":3135:3142  entries */\n      dup3\n        /* \"contracts/game.sol\":3143:3144  i */\n      dup3\n        /* \"contracts/game.sol\":3135:3145  entries[i] */\n      dup2\n      mload\n      dup2\n      lt\n      tag_185\n      jumpi\n      tag_186\n      tag_180\n      jump\t// in\n    tag_186:\n    tag_185:\n      0x20\n      mul\n      0x20\n      add\n      add\n        /* \"contracts/game.sol\":3135:3219  entries[i] = LeaderboardEntry(playerAddresses[i], players[playerAddresses[i]].score) */\n      dup2\n      swap1\n      mstore\n      pop\n        /* \"contracts/game.sol\":3116:3119  i++ */\n      dup1\n      dup1\n      0x01\n      add\n      swap2\n      pop\n      pop\n        /* \"contracts/game.sol\":3068:3230  for (uint256 i = 0; i < playerAddresses.length; i++) {... */\n      jump(tag_175)\n    tag_176:\n      pop\n        /* \"contracts/game.sol\":3286:3295  uint256 i */\n      0x00\n        /* \"contracts/game.sol\":3298:3299  0 */\n      0x00\n        /* \"contracts/game.sol\":3286:3299  uint256 i = 0 */\n      swap1\n      pop\n        /* \"contracts/game.sol\":3281:3725  for (uint256 i = 0; i < entries.length && i < offset + actualLength; i++) {... */\n    tag_187:\n        /* \"contracts/game.sol\":3305:3312  entries */\n      dup2\n        /* \"contracts/game.sol\":3305:3319  entries.length */\n      mload\n        /* \"contracts/game.sol\":3301:3302  i */\n      dup2\n        /* \"contracts/game.sol\":3301:3319  i < entries.length */\n      lt\n        /* \"contracts/game.sol\":3301:3348  i < entries.length && i < offset + actualLength */\n      dup1\n      iszero\n      tag_190\n      jumpi\n      pop\n        /* \"contracts/game.sol\":3336:3348  actualLength */\n      dup4\n        /* \"contracts/game.sol\":3327:3333  offset */\n      dup9\n        /* \"contracts/game.sol\":3327:3348  offset + actualLength */\n      tag_191\n      swap2\n      swap1\n      tag_128\n      jump\t// in\n    tag_191:\n        /* \"contracts/game.sol\":3323:3324  i */\n      dup2\n        /* \"contracts/game.sol\":3323:3348  i < offset + actualLength */\n      lt\n        /* \"contracts/game.sol\":3301:3348  i < entries.length && i < offset + actualLength */\n    tag_190:\n        /* \"contracts/game.sol\":3281:3725  for (uint256 i = 0; i < entries.length && i < offset + actualLength; i++) {... */\n      iszero\n      tag_188\n      jumpi\n        /* \"contracts/game.sol\":3369:3385  uint256 maxIndex */\n      0x00\n        /* \"contracts/game.sol\":3388:3389  i */\n      dup2\n        /* \"contracts/game.sol\":3369:3389  uint256 maxIndex = i */\n      swap1\n      pop\n        /* \"contracts/game.sol\":3408:3417  uint256 j */\n      0x00\n        /* \"contracts/game.sol\":3424:3425  1 */\n      0x01\n        /* \"contracts/game.sol\":3420:3421  i */\n      dup4\n        /* \"contracts/game.sol\":3420:3425  i + 1 */\n      tag_195\n      swap2\n      swap1\n      tag_128\n      jump\t// in\n    tag_195:\n        /* \"contracts/game.sol\":3408:3425  uint256 j = i + 1 */\n      swap1\n      pop\n        /* \"contracts/game.sol\":3403:3585  for (uint256 j = i + 1; j < entries.length; j++) {... */\n    tag_192:\n        /* \"contracts/game.sol\":3431:3438  entries */\n      dup4\n        /* \"contracts/game.sol\":3431:3445  entries.length */\n      mload\n        /* \"contracts/game.sol\":3427:3428  j */\n      dup2\n        /* \"contracts/game.sol\":3427:3445  j < entries.length */\n      lt\n        /* \"contracts/game.sol\":3403:3585  for (uint256 j = i + 1; j < entries.length; j++) {... */\n      iszero\n      tag_193\n      jumpi\n        /* \"contracts/game.sol\":3493:3500  entries */\n      dup4\n        /* \"contracts/game.sol\":3501:3509  maxIndex */\n      dup3\n        /* \"contracts/game.sol\":3493:3510  entries[maxIndex] */\n      dup2\n      mload\n      dup2\n      lt\n      tag_196\n      jumpi\n      tag_197\n      tag_180\n      jump\t// in\n    tag_197:\n    tag_196:\n      0x20\n      mul\n      0x20\n      add\n      add\n      mload\n        /* \"contracts/game.sol\":3493:3516  entries[maxIndex].score */\n      0x20\n      add\n      mload\n        /* \"contracts/game.sol\":3474:3481  entries */\n      dup5\n        /* \"contracts/game.sol\":3482:3483  j */\n      dup3\n        /* \"contracts/game.sol\":3474:3484  entries[j] */\n      dup2\n      mload\n      dup2\n      lt\n      tag_198\n      jumpi\n      tag_199\n      tag_180\n      jump\t// in\n    tag_199:\n    tag_198:\n      0x20\n      mul\n      0x20\n      add\n      add\n      mload\n        /* \"contracts/game.sol\":3474:3490  entries[j].score */\n      0x20\n      add\n      mload\n        /* \"contracts/game.sol\":3474:3516  entries[j].score > entries[maxIndex].score */\n      gt\n        /* \"contracts/game.sol\":3470:3571  if (entries[j].score > entries[maxIndex].score) {... */\n      iszero\n      tag_200\n      jumpi\n        /* \"contracts/game.sol\":3551:3552  j */\n      dup1\n        /* \"contracts/game.sol\":3540:3552  maxIndex = j */\n      swap2\n      pop\n        /* \"contracts/game.sol\":3470:3571  if (entries[j].score > entries[maxIndex].score) {... */\n    tag_200:\n        /* \"contracts/game.sol\":3447:3450  j++ */\n      dup1\n      dup1\n      0x01\n      add\n      swap2\n      pop\n      pop\n        /* \"contracts/game.sol\":3403:3585  for (uint256 j = i + 1; j < entries.length; j++) {... */\n      jump(tag_192)\n    tag_193:\n      pop\n        /* \"contracts/game.sol\":3614:3615  i */\n      dup2\n        /* \"contracts/game.sol\":3602:3610  maxIndex */\n      dup2\n        /* \"contracts/game.sol\":3602:3615  maxIndex != i */\n      eq\n        /* \"contracts/game.sol\":3598:3715  if (maxIndex != i) {... */\n      tag_201\n      jumpi\n        /* \"contracts/game.sol\":3670:3677  entries */\n      dup3\n        /* \"contracts/game.sol\":3678:3686  maxIndex */\n      dup2\n        /* \"contracts/game.sol\":3670:3687  entries[maxIndex] */\n      dup2\n      mload\n      dup2\n      lt\n      tag_202\n      jumpi\n      tag_203\n      tag_180\n      jump\t// in\n    tag_203:\n    tag_202:\n      0x20\n      mul\n      0x20\n      add\n      add\n      mload\n        /* \"contracts/game.sol\":3689:3696  entries */\n      dup4\n        /* \"contracts/game.sol\":3697:3698  i */\n      dup4\n        /* \"contracts/game.sol\":3689:3699  entries[i] */\n      dup2\n      mload\n      dup2\n      lt\n      tag_204\n      jumpi\n      tag_205\n      tag_180\n      jump\t// in\n    tag_205:\n    tag_204:\n      0x20\n      mul\n      0x20\n      add\n      add\n      mload\n        /* \"contracts/game.sol\":3636:3643  entries */\n      dup5\n        /* \"contracts/game.sol\":3644:3645  i */\n      dup5\n        /* \"contracts/game.sol\":3636:3646  entries[i] */\n      dup2\n      mload\n      dup2\n      lt\n      tag_206\n      jumpi\n      tag_207\n      tag_180\n      jump\t// in\n    tag_207:\n    tag_206:\n      0x20\n      mul\n      0x20\n      add\n      add\n        /* \"contracts/game.sol\":3648:3655  entries */\n      dup6\n        /* \"contracts/game.sol\":3656:3664  maxIndex */\n      dup5\n        /* \"contracts/game.sol\":3648:3665  entries[maxIndex] */\n      dup2\n      mload\n      dup2\n      lt\n      tag_208\n      jumpi\n      tag_209\n      tag_180\n      jump\t// in\n    tag_209:\n    tag_208:\n      0x20\n      mul\n      0x20\n      add\n      add\n        /* \"contracts/game.sol\":3635:3700  (entries[i], entries[maxIndex]) = (entries[maxIndex], entries[i]) */\n      dup3\n      swap1\n      mstore\n      dup3\n      swap1\n      mstore\n      pop\n      pop\n        /* \"contracts/game.sol\":3598:3715  if (maxIndex != i) {... */\n    tag_201:\n        /* \"contracts/game.sol\":3355:3725  {... */\n      pop\n        /* \"contracts/game.sol\":3350:3353  i++ */\n      dup1\n      dup1\n      tag_210\n      swap1\n      tag_211\n      jump\t// in\n    tag_210:\n      swap2\n      pop\n      pop\n        /* \"contracts/game.sol\":3281:3725  for (uint256 i = 0; i < entries.length && i < offset + actualLength; i++) {... */\n      jump(tag_187)\n    tag_188:\n      pop\n        /* \"contracts/game.sol\":3784:3793  uint256 i */\n      0x00\n        /* \"contracts/game.sol\":3796:3797  0 */\n      0x00\n        /* \"contracts/game.sol\":3784:3797  uint256 i = 0 */\n      swap1\n      pop\n        /* \"contracts/game.sol\":3779:3883  for (uint256 i = 0; i < actualLength; i++) {... */\n    tag_212:\n        /* \"contracts/game.sol\":3803:3815  actualLength */\n      dup4\n        /* \"contracts/game.sol\":3799:3800  i */\n      dup2\n        /* \"contracts/game.sol\":3799:3815  i < actualLength */\n      lt\n        /* \"contracts/game.sol\":3779:3883  for (uint256 i = 0; i < actualLength; i++) {... */\n      iszero\n      tag_213\n      jumpi\n        /* \"contracts/game.sol\":3853:3860  entries */\n      dup2\n        /* \"contracts/game.sol\":3870:3871  i */\n      dup2\n        /* \"contracts/game.sol\":3861:3867  offset */\n      dup10\n        /* \"contracts/game.sol\":3861:3871  offset + i */\n      tag_215\n      swap2\n      swap1\n      tag_128\n      jump\t// in\n    tag_215:\n        /* \"contracts/game.sol\":3853:3872  entries[offset + i] */\n      dup2\n      mload\n      dup2\n      lt\n      tag_216\n      jumpi\n      tag_217\n      tag_180\n      jump\t// in\n    tag_217:\n    tag_216:\n      0x20\n      mul\n      0x20\n      add\n      add\n      mload\n        /* \"contracts/game.sol\":3836:3847  leaderboard */\n      dup4\n        /* \"contracts/game.sol\":3848:3849  i */\n      dup3\n        /* \"contracts/game.sol\":3836:3850  leaderboard[i] */\n      dup2\n      mload\n      dup2\n      lt\n      tag_218\n      jumpi\n      tag_219\n      tag_180\n      jump\t// in\n    tag_219:\n    tag_218:\n      0x20\n      mul\n      0x20\n      add\n      add\n        /* \"contracts/game.sol\":3836:3872  leaderboard[i] = entries[offset + i] */\n      dup2\n      swap1\n      mstore\n      pop\n        /* \"contracts/game.sol\":3817:3820  i++ */\n      dup1\n      dup1\n      0x01\n      add\n      swap2\n      pop\n      pop\n        /* \"contracts/game.sol\":3779:3883  for (uint256 i = 0; i < actualLength; i++) {... */\n      jump(tag_212)\n    tag_213:\n      pop\n        /* \"contracts/game.sol\":3900:3911  leaderboard */\n      dup2\n        /* \"contracts/game.sol\":3893:3911  return leaderboard */\n      swap5\n      pop\n      pop\n      pop\n      pop\n      pop\n        /* \"contracts/game.sol\":2521:3918  function getLeaderboard(uint256 offset, uint256 limit) external view returns (LeaderboardEntry[] memory) {... */\n      swap3\n      swap2\n      pop\n      pop\n      jump\t// out\n        /* \"contracts/game.sol\":572:632  bytes32 public constant ADMIN_ROLE = keccak256(\"ADMIN_ROLE\") */\n    tag_65:\n        /* \"contracts/game.sol\":609:632  keccak256(\"ADMIN_ROLE\") */\n      0xa49807205ce4d355092ef5a8a18f56e8913cf4a201fbe287825b095693c21775\n        /* \"contracts/game.sol\":572:632  bytes32 public constant ADMIN_ROLE = keccak256(\"ADMIN_ROLE\") */\n      dup2\n      jump\t// out\n        /* \"@openzeppelin/contracts/access/AccessControl.sol\":2830:2966  function hasRole(bytes32 role, address account) public view virtual returns (bool) {... */\n    tag_69:\n        /* \"@openzeppelin/contracts/access/AccessControl.sol\":2907:2911  bool */\n      0x00\n        /* \"@openzeppelin/contracts/access/AccessControl.sol\":2930:2936  _roles */\n      0x00\n        /* \"@openzeppelin/contracts/access/AccessControl.sol\":2930:2942  _roles[role] */\n      0x00\n        /* \"@openzeppelin/contracts/access/AccessControl.sol\":2937:2941  role */\n      dup5\n        /* \"@openzeppelin/contracts/access/AccessControl.sol\":2930:2942  _roles[role] */\n      dup2\n      mstore\n      0x20\n      add\n      swap1\n      dup2\n      mstore\n      0x20\n      add\n      0x00\n      keccak256\n        /* \"@openzeppelin/contracts/access/AccessControl.sol\":2930:2950  _roles[role].hasRole */\n      0x00\n      add\n        /* \"@openzeppelin/contracts/access/AccessControl.sol\":2930:2959  _roles[role].hasRole[account] */\n      0x00\n        /* \"@openzeppelin/contracts/access/AccessControl.sol\":2951:2958  account */\n      dup4\n        /* \"@openzeppelin/contracts/access/AccessControl.sol\":2930:2959  _roles[role].hasRole[account] */\n      0xffffffffffffffffffffffffffffffffffffffff\n      and\n      0xffffffffffffffffffffffffffffffffffffffff\n      and\n      dup2\n      mstore\n      0x20\n      add\n      swap1\n      dup2\n      mstore\n      0x20\n      add\n      0x00\n      keccak256\n      0x00\n      swap1\n      sload\n      swap1\n      0x0100\n      exp\n      swap1\n      div\n      0xff\n      and\n        /* \"@openzeppelin/contracts/access/AccessControl.sol\":2923:2959  return _roles[role].hasRole[account] */\n      swap1\n      pop\n        /* \"@openzeppelin/contracts/access/AccessControl.sol\":2830:2966  function hasRole(bytes32 role, address account) public view virtual returns (bool) {... */\n      swap3\n      swap2\n      pop\n      pop\n      jump\t// out\n        /* \"contracts/game.sol\":4747:4875  function revokeAdminRole(address account) external onlyRole(DEFAULT_ADMIN_ROLE) {... */\n    tag_74:\n        /* \"@openzeppelin/contracts/access/AccessControl.sol\":2241:2245  0x00 */\n      0x00\n        /* \"contracts/game.sol\":4807:4825  DEFAULT_ADMIN_ROLE */\n      0x00\n      shl\n        /* \"@openzeppelin/contracts/access/AccessControl.sol\":2473:2489  _checkRole(role) */\n      tag_222\n        /* \"@openzeppelin/contracts/access/AccessControl.sol\":2484:2488  role */\n      dup2\n        /* \"@openzeppelin/contracts/access/AccessControl.sol\":2473:2483  _checkRole */\n      tag_116\n        /* \"@openzeppelin/contracts/access/AccessControl.sol\":2473:2489  _checkRole(role) */\n      jump\t// in\n    tag_222:\n        /* \"contracts/game.sol\":4837:4868  revokeRole(ADMIN_ROLE, account) */\n      tag_224\n        /* \"contracts/game.sol\":609:632  keccak256(\"ADMIN_ROLE\") */\n      0xa49807205ce4d355092ef5a8a18f56e8913cf4a201fbe287825b095693c21775\n        /* \"contracts/game.sol\":4860:4867  account */\n      dup4\n        /* \"contracts/game.sol\":4837:4847  revokeRole */\n      tag_98\n        /* \"contracts/game.sol\":4837:4868  revokeRole(ADMIN_ROLE, account) */\n      jump\t// in\n    tag_224:\n        /* \"contracts/game.sol\":4747:4875  function revokeAdminRole(address account) external onlyRole(DEFAULT_ADMIN_ROLE) {... */\n      pop\n      pop\n      jump\t// out\n        /* \"@openzeppelin/contracts/access/AccessControl.sol\":2196:2245  bytes32 public constant DEFAULT_ADMIN_ROLE = 0x00 */\n    tag_76:\n        /* \"@openzeppelin/contracts/access/AccessControl.sol\":2241:2245  0x00 */\n      0x00\n        /* \"@openzeppelin/contracts/access/AccessControl.sol\":2196:2245  bytes32 public constant DEFAULT_ADMIN_ROLE = 0x00 */\n      0x00\n      shl\n      dup2\n      jump\t// out\n        /* \"contracts/game.sol\":386:420  uint256 public tokenMultiplier = 1 */\n    tag_79:\n      sload(0x02)\n      dup2\n      jump\t// out\n        /* \"contracts/game.sol\":316:339  IERC20 public gameToken */\n    tag_83:\n      0x01\n      0x00\n      swap1\n      sload\n      swap1\n      0x0100\n      exp\n      swap1\n      div\n      0xffffffffffffffffffffffffffffffffffffffff\n      and\n      dup2\n      jump\t// out\n        /* \"contracts/game.sol\":4615:4741  function grantAdminRole(address account) external onlyRole(DEFAULT_ADMIN_ROLE) {... */\n    tag_88:\n        /* \"@openzeppelin/contracts/access/AccessControl.sol\":2241:2245  0x00 */\n      0x00\n        /* \"contracts/game.sol\":4674:4692  DEFAULT_ADMIN_ROLE */\n      0x00\n      shl\n        /* \"@openzeppelin/contracts/access/AccessControl.sol\":2473:2489  _checkRole(role) */\n      tag_226\n        /* \"@openzeppelin/contracts/access/AccessControl.sol\":2484:2488  role */\n      dup2\n        /* \"@openzeppelin/contracts/access/AccessControl.sol\":2473:2483  _checkRole */\n      tag_116\n        /* \"@openzeppelin/contracts/access/AccessControl.sol\":2473:2489  _checkRole(role) */\n      jump\t// in\n    tag_226:\n        /* \"contracts/game.sol\":4704:4734  grantRole(ADMIN_ROLE, account) */\n      tag_228\n        /* \"contracts/game.sol\":609:632  keccak256(\"ADMIN_ROLE\") */\n      0xa49807205ce4d355092ef5a8a18f56e8913cf4a201fbe287825b095693c21775\n        /* \"contracts/game.sol\":4726:4733  account */\n      dup4\n        /* \"contracts/game.sol\":4704:4713  grantRole */\n      tag_51\n        /* \"contracts/game.sol\":4704:4734  grantRole(ADMIN_ROLE, account) */\n      jump\t// in\n    tag_228:\n        /* \"contracts/game.sol\":4615:4741  function grantAdminRole(address account) external onlyRole(DEFAULT_ADMIN_ROLE) {... */\n      pop\n      pop\n      jump\t// out\n        /* \"contracts/game.sol\":466:518  uint256 public constant REPAIR_COST = 100 * 10 ** 18 */\n    tag_90:\n        /* \"contracts/game.sol\":504:518  100 * 10 ** 18 */\n      0x056bc75e2d63100000\n        /* \"contracts/game.sol\":466:518  uint256 public constant REPAIR_COST = 100 * 10 ** 18 */\n      dup2\n      jump\t// out\n        /* \"contracts/game.sol\":2371:2482  function getScore(address wallet) external view returns (uint256) {... */\n    tag_94:\n        /* \"contracts/game.sol\":2428:2435  uint256 */\n      0x00\n        /* \"contracts/game.sol\":2454:2461  players */\n      0x03\n        /* \"contracts/game.sol\":2454:2469  players[wallet] */\n      0x00\n        /* \"contracts/game.sol\":2462:2468  wallet */\n      dup4\n        /* \"contracts/game.sol\":2454:2469  players[wallet] */\n      0xffffffffffffffffffffffffffffffffffffffff\n      and\n      0xffffffffffffffffffffffffffffffffffffffff\n      and\n      dup2\n      mstore\n      0x20\n      add\n      swap1\n      dup2\n      mstore\n      0x20\n      add\n      0x00\n      keccak256\n        /* \"contracts/game.sol\":2454:2475  players[wallet].score */\n      0x00\n      add\n      sload\n        /* \"contracts/game.sol\":2447:2475  return players[wallet].score */\n      swap1\n      pop\n        /* \"contracts/game.sol\":2371:2482  function getScore(address wallet) external view returns (uint256) {... */\n      swap2\n      swap1\n      pop\n      jump\t// out\n        /* \"@openzeppelin/contracts/access/AccessControl.sol\":4618:4756  function revokeRole(bytes32 role, address account) public virtual onlyRole(getRoleAdmin(role)) {... */\n    tag_98:\n        /* \"@openzeppelin/contracts/access/AccessControl.sol\":4693:4711  getRoleAdmin(role) */\n      tag_230\n        /* \"@openzeppelin/contracts/access/AccessControl.sol\":4706:4710  role */\n      dup3\n        /* \"@openzeppelin/contracts/access/AccessControl.sol\":4693:4705  getRoleAdmin */\n      tag_45\n        /* \"@openzeppelin/contracts/access/AccessControl.sol\":4693:4711  getRoleAdmin(role) */\n      jump\t// in\n    tag_230:\n        /* \"@openzeppelin/contracts/access/AccessControl.sol\":2473:2489  _checkRole(role) */\n      tag_232\n        /* \"@openzeppelin/contracts/access/AccessControl.sol\":2484:2488  role */\n      dup2\n        /* \"@openzeppelin/contracts/access/AccessControl.sol\":2473:2483  _checkRole */\n      tag_116\n        /* \"@openzeppelin/contracts/access/AccessControl.sol\":2473:2489  _checkRole(role) */\n      jump\t// in\n    tag_232:\n        /* \"@openzeppelin/contracts/access/AccessControl.sol\":4723:4749  _revokeRole(role, account) */\n      tag_234\n        /* \"@openzeppelin/contracts/access/AccessControl.sol\":4735:4739  role */\n      dup4\n        /* \"@openzeppelin/contracts/access/AccessControl.sol\":4741:4748  account */\n      dup4\n        /* \"@openzeppelin/contracts/access/AccessControl.sol\":4723:4734  _revokeRole */\n      tag_154\n        /* \"@openzeppelin/contracts/access/AccessControl.sol\":4723:4749  _revokeRole(role, account) */\n      jump\t// in\n    tag_234:\n      pop\n        /* \"@openzeppelin/contracts/access/AccessControl.sol\":4618:4756  function revokeRole(bytes32 role, address account) public virtual onlyRole(getRoleAdmin(role)) {... */\n      pop\n      pop\n      pop\n      jump\t// out\n        /* \"contracts/game.sol\":814:855  mapping(address => Player) public players */\n    tag_101:\n      mstore(0x20, 0x03)\n      dup1\n      0x00\n      mstore\n      keccak256(0x00, 0x40)\n      0x00\n      swap2\n      pop\n      swap1\n      pop\n      dup1\n      0x00\n      add\n      sload\n      swap1\n      dup1\n      0x01\n      add\n      sload\n      swap1\n      pop\n      dup3\n      jump\t// out\n        /* \"contracts/game.sol\":3956:4257  function repairVehicle(string calldata component) external {... */\n    tag_107:\n        /* \"contracts/game.sol\":504:518  100 * 10 ** 18 */\n      0x056bc75e2d63100000\n        /* \"contracts/game.sol\":4033:4042  gameToken */\n      0x01\n      0x00\n      swap1\n      sload\n      swap1\n      0x0100\n      exp\n      swap1\n      div\n      0xffffffffffffffffffffffffffffffffffffffff\n      and\n        /* \"contracts/game.sol\":4033:4052  gameToken.allowance */\n      0xffffffffffffffffffffffffffffffffffffffff\n      and\n      0xdd62ed3e\n        /* \"contracts/game.sol\":4053:4063  msg.sender */\n      caller\n        /* \"contracts/game.sol\":4073:4077  this */\n      address\n        /* \"contracts/game.sol\":4033:4079  gameToken.allowance(msg.sender, address(this)) */\n      mload(0x40)\n      dup4\n      0xffffffff\n      and\n      0xe0\n      shl\n      dup2\n      mstore\n      0x04\n      add\n      tag_236\n      swap3\n      swap2\n      swap1\n      tag_237\n      jump\t// in\n    tag_236:\n      0x20\n      mload(0x40)\n      dup1\n      dup4\n      sub\n      dup2\n      dup7\n      gas\n      staticcall\n      iszero\n      dup1\n      iszero\n      tag_239\n      jumpi\n      returndatacopy(0x00, 0x00, returndatasize)\n      revert(0x00, returndatasize)\n    tag_239:\n      pop\n      pop\n      pop\n      pop\n      mload(0x40)\n      returndatasize\n      not(0x1f)\n      0x1f\n      dup3\n      add\n      and\n      dup3\n      add\n      dup1\n      0x40\n      mstore\n      pop\n      dup2\n      add\n      swap1\n      tag_240\n      swap2\n      swap1\n      tag_241\n      jump\t// in\n    tag_240:\n        /* \"contracts/game.sol\":4033:4094  gameToken.allowance(msg.sender, address(this)) >= REPAIR_COST */\n      lt\n      iszero\n        /* \"contracts/game.sol\":4025:4121  require(gameToken.allowance(msg.sender, address(this)) >= REPAIR_COST, \"Insufficient allowance\") */\n      tag_242\n      jumpi\n      mload(0x40)\n      0x08c379a000000000000000000000000000000000000000000000000000000000\n      dup2\n      mstore\n      0x04\n      add\n      tag_243\n      swap1\n      tag_244\n      jump\t// in\n    tag_243:\n      mload(0x40)\n      dup1\n      swap2\n      sub\n      swap1\n      revert\n    tag_242:\n        /* \"contracts/game.sol\":4131:4197  gameToken.safeTransferFrom(msg.sender, address(this), REPAIR_COST) */\n      tag_245\n        /* \"contracts/game.sol\":4158:4168  msg.sender */\n      caller\n        /* \"contracts/game.sol\":4178:4182  this */\n      address\n        /* \"contracts/game.sol\":504:518  100 * 10 ** 18 */\n      0x056bc75e2d63100000\n        /* \"contracts/game.sol\":4131:4140  gameToken */\n      0x01\n      0x00\n      swap1\n      sload\n      swap1\n      0x0100\n      exp\n      swap1\n      div\n      0xffffffffffffffffffffffffffffffffffffffff\n      and\n        /* \"contracts/game.sol\":4131:4157  gameToken.safeTransferFrom */\n      0xffffffffffffffffffffffffffffffffffffffff\n      and\n      tag_246\n      swap1\n        /* \"contracts/game.sol\":4131:4197  gameToken.safeTransferFrom(msg.sender, address(this), REPAIR_COST) */\n      swap4\n      swap3\n      swap2\n      swap1\n      0xffffffff\n      and\n      jump\t// in\n    tag_245:\n        /* \"contracts/game.sol\":4228:4238  msg.sender */\n      caller\n        /* \"contracts/game.sol\":4212:4250  VehicleRepaired(msg.sender, component) */\n      0xffffffffffffffffffffffffffffffffffffffff\n      and\n      0x769873612369de25d7a32b1071976767e3071b8182b9353e1cd5d6cf25b33dca\n        /* \"contracts/game.sol\":4240:4249  component */\n      dup4\n      dup4\n        /* \"contracts/game.sol\":4212:4250  VehicleRepaired(msg.sender, component) */\n      mload(0x40)\n      tag_247\n      swap3\n      swap2\n      swap1\n      tag_248\n      jump\t// in\n    tag_247:\n      mload(0x40)\n      dup1\n      swap2\n      sub\n      swap1\n      log2\n        /* \"contracts/game.sol\":3956:4257  function repairVehicle(string calldata component) external {... */\n      pop\n      pop\n      jump\t// out\n        /* \"@openzeppelin/contracts/utils/introspection/ERC165.sol\":730:876  function supportsInterface(bytes4 interfaceId) public view virtual returns (bool) {... */\n    tag_111:\n        /* \"@openzeppelin/contracts/utils/introspection/ERC165.sol\":806:810  bool */\n      0x00\n        /* \"@openzeppelin/contracts/utils/introspection/ERC165.sol\":844:869  type(IERC165).interfaceId */\n      0x01ffc9a700000000000000000000000000000000000000000000000000000000\n        /* \"@openzeppelin/contracts/utils/introspection/ERC165.sol\":829:869  interfaceId == type(IERC165).interfaceId */\n      not(0xffffffffffffffffffffffffffffffffffffffffffffffffffffffff)\n      and\n        /* \"@openzeppelin/contracts/utils/introspection/ERC165.sol\":829:840  interfaceId */\n      dup3\n        /* \"@openzeppelin/contracts/utils/introspection/ERC165.sol\":829:869  interfaceId == type(IERC165).interfaceId */\n      not(0xffffffffffffffffffffffffffffffffffffffffffffffffffffffff)\n      and\n      eq\n        /* \"@openzeppelin/contracts/utils/introspection/ERC165.sol\":822:869  return interfaceId == type(IERC165).interfaceId */\n      swap1\n      pop\n        /* \"@openzeppelin/contracts/utils/introspection/ERC165.sol\":730:876  function supportsInterface(bytes4 interfaceId) public view virtual returns (bool) {... */\n      swap2\n      swap1\n      pop\n      jump\t// out\n        /* \"@openzeppelin/contracts/access/AccessControl.sol\":3175:3278  function _checkRole(bytes32 role) internal view virtual {... */\n    tag_116:\n        /* \"@openzeppelin/contracts/access/AccessControl.sol\":3241:3271  _checkRole(role, _msgSender()) */\n      tag_251\n        /* \"@openzeppelin/contracts/access/AccessControl.sol\":3252:3256  role */\n      dup2\n        /* \"@openzeppelin/contracts/access/AccessControl.sol\":3258:3270  _msgSender() */\n      tag_252\n        /* \"@openzeppelin/contracts/access/AccessControl.sol\":3258:3268  _msgSender */\n      tag_151\n        /* \"@openzeppelin/contracts/access/AccessControl.sol\":3258:3270  _msgSender() */\n      jump\t// in\n    tag_252:\n        /* \"@openzeppelin/contracts/access/AccessControl.sol\":3241:3251  _checkRole */\n      tag_253\n        /* \"@openzeppelin/contracts/access/AccessControl.sol\":3241:3271  _checkRole(role, _msgSender()) */\n      jump\t// in\n    tag_251:\n        /* \"@openzeppelin/contracts/access/AccessControl.sol\":3175:3278  function _checkRole(bytes32 role) internal view virtual {... */\n      pop\n      jump\t// out\n        /* \"@openzeppelin/contracts/token/ERC20/utils/SafeERC20.sol\":1219:1379  function safeTransfer(IERC20 token, address to, uint256 value) internal {... */\n    tag_133:\n        /* \"@openzeppelin/contracts/token/ERC20/utils/SafeERC20.sol\":1301:1372  _callOptionalReturn(token, abi.encodeCall(token.transfer, (to, value))) */\n      tag_255\n        /* \"@openzeppelin/contracts/token/ERC20/utils/SafeERC20.sol\":1321:1326  token */\n      dup4\n        /* \"@openzeppelin/contracts/token/ERC20/utils/SafeERC20.sol\":1343:1348  token */\n      dup5\n        /* \"@openzeppelin/contracts/token/ERC20/utils/SafeERC20.sol\":1343:1357  token.transfer */\n      0xffffffffffffffffffffffffffffffffffffffff\n      and\n      0xa9059cbb\n        /* \"@openzeppelin/contracts/token/ERC20/utils/SafeERC20.sol\":1360:1362  to */\n      dup6\n        /* \"@openzeppelin/contracts/token/ERC20/utils/SafeERC20.sol\":1364:1369  value */\n      dup6\n        /* \"@openzeppelin/contracts/token/ERC20/utils/SafeERC20.sol\":1328:1371  abi.encodeCall(token.transfer, (to, value)) */\n      add(0x24, mload(0x40))\n      tag_256\n      swap3\n      swap2\n      swap1\n      tag_257\n      jump\t// in\n    tag_256:\n      mload(0x40)\n      0x20\n      dup2\n      dup4\n      sub\n      sub\n      dup2\n      mstore\n      swap1\n      0x40\n      mstore\n      swap2\n      pop\n      0xe0\n      shl\n      0x20\n      dup3\n      add\n      dup1\n      mload\n      0xffffffffffffffffffffffffffffffffffffffffffffffffffffffff\n      dup4\n      dup2\n      dup4\n      and\n      or\n      dup4\n      mstore\n      pop\n      pop\n      pop\n      pop\n        /* \"@openzeppelin/contracts/token/ERC20/utils/SafeERC20.sol\":1301:1320  _callOptionalReturn */\n      tag_258\n        /* \"@openzeppelin/contracts/token/ERC20/utils/SafeERC20.sol\":1301:1372  _callOptionalReturn(token, abi.encodeCall(token.transfer, (to, value))) */\n      jump\t// in\n    tag_255:\n        /* \"@openzeppelin/contracts/token/ERC20/utils/SafeERC20.sol\":1219:1379  function safeTransfer(IERC20 token, address to, uint256 value) internal {... */\n      pop\n      pop\n      pop\n      jump\t// out\n        /* \"@openzeppelin/contracts/access/AccessControl.sol\":6155:6471  function _grantRole(bytes32 role, address account) internal virtual returns (bool) {... */\n    tag_141:\n        /* \"@openzeppelin/contracts/access/AccessControl.sol\":6232:6236  bool */\n      0x00\n        /* \"@openzeppelin/contracts/access/AccessControl.sol\":6253:6275  hasRole(role, account) */\n      tag_260\n        /* \"@openzeppelin/contracts/access/AccessControl.sol\":6261:6265  role */\n      dup4\n        /* \"@openzeppelin/contracts/access/AccessControl.sol\":6267:6274  account */\n      dup4\n        /* \"@openzeppelin/contracts/access/AccessControl.sol\":6253:6260  hasRole */\n      tag_69\n        /* \"@openzeppelin/contracts/access/AccessControl.sol\":6253:6275  hasRole(role, account) */\n      jump\t// in\n    tag_260:\n        /* \"@openzeppelin/contracts/access/AccessControl.sol\":6248:6465  if (!hasRole(role, account)) {... */\n      tag_261\n      jumpi\n        /* \"@openzeppelin/contracts/access/AccessControl.sol\":6323:6327  true */\n      0x01\n        /* \"@openzeppelin/contracts/access/AccessControl.sol\":6291:6297  _roles */\n      0x00\n        /* \"@openzeppelin/contracts/access/AccessControl.sol\":6291:6303  _roles[role] */\n      0x00\n        /* \"@openzeppelin/contracts/access/AccessControl.sol\":6298:6302  role */\n      dup6\n        /* \"@openzeppelin/contracts/access/AccessControl.sol\":6291:6303  _roles[role] */\n      dup2\n      mstore\n      0x20\n      add\n      swap1\n      dup2\n      mstore\n      0x20\n      add\n      0x00\n      keccak256\n        /* \"@openzeppelin/contracts/access/AccessControl.sol\":6291:6311  _roles[role].hasRole */\n      0x00\n      add\n        /* \"@openzeppelin/contracts/access/AccessControl.sol\":6291:6320  _roles[role].hasRole[account] */\n      0x00\n        /* \"@openzeppelin/contracts/access/AccessControl.sol\":6312:6319  account */\n      dup5\n        /* \"@openzeppelin/contracts/access/AccessControl.sol\":6291:6320  _roles[role].hasRole[account] */\n      0xffffffffffffffffffffffffffffffffffffffff\n      and\n      0xffffffffffffffffffffffffffffffffffffffff\n      and\n      dup2\n      mstore\n      0x20\n      add\n      swap1\n      dup2\n      mstore\n      0x20\n      add\n      0x00\n      keccak256\n      0x00\n        /* \"@openzeppelin/contracts/access/AccessControl.sol\":6291:6327  _roles[role].hasRole[account] = true */\n      0x0100\n      exp\n      dup2\n      sload\n      dup2\n      0xff\n      mul\n      not\n      and\n      swap1\n      dup4\n      iszero\n      iszero\n      mul\n      or\n      swap1\n      sstore\n      pop\n        /* \"@openzeppelin/contracts/access/AccessControl.sol\":6373:6385  _msgSender() */\n      tag_262\n        /* \"@openzeppelin/contracts/access/AccessControl.sol\":6373:6383  _msgSender */\n      tag_151\n        /* \"@openzeppelin/contracts/access/AccessControl.sol\":6373:6385  _msgSender() */\n      jump\t// in\n    tag_262:\n        /* \"@openzeppelin/contracts/access/AccessControl.sol\":6346:6386  RoleGranted(role, account, _msgSender()) */\n      0xffffffffffffffffffffffffffffffffffffffff\n      and\n        /* \"@openzeppelin/contracts/access/AccessControl.sol\":6364:6371  account */\n      dup3\n        /* \"@openzeppelin/contracts/access/AccessControl.sol\":6346:6386  RoleGranted(role, account, _msgSender()) */\n      0xffffffffffffffffffffffffffffffffffffffff\n      and\n        /* \"@openzeppelin/contracts/access/AccessControl.sol\":6358:6362  role */\n      dup5\n        /* \"@openzeppelin/contracts/access/AccessControl.sol\":6346:6386  RoleGranted(role, account, _msgSender()) */\n      0x2f8788117e7eff1d82e926ec794901d17c78024a50270940304540a733656f0d\n      mload(0x40)\n      mload(0x40)\n      dup1\n      swap2\n      sub\n      swap1\n      log4\n        /* \"@openzeppelin/contracts/access/AccessControl.sol\":6407:6411  true */\n      0x01\n        /* \"@openzeppelin/contracts/access/AccessControl.sol\":6400:6411  return true */\n      swap1\n      pop\n      jump(tag_259)\n        /* \"@openzeppelin/contracts/access/AccessControl.sol\":6248:6465  if (!hasRole(role, account)) {... */\n    tag_261:\n        /* \"@openzeppelin/contracts/access/AccessControl.sol\":6449:6454  false */\n      0x00\n        /* \"@openzeppelin/contracts/access/AccessControl.sol\":6442:6454  return false */\n      swap1\n      pop\n        /* \"@openzeppelin/contracts/access/AccessControl.sol\":6155:6471  function _grantRole(bytes32 role, address account) internal virtual returns (bool) {... */\n    tag_259:\n      swap3\n      swap2\n      pop\n      pop\n      jump\t// out\n        /* \"@openzeppelin/contracts/utils/Context.sol\":656:752  function _msgSender() internal view virtual returns (address) {... */\n    tag_151:\n        /* \"@openzeppelin/contracts/utils/Context.sol\":709:716  address */\n      0x00\n        /* \"@openzeppelin/contracts/utils/Context.sol\":735:745  msg.sender */\n      caller\n        /* \"@openzeppelin/contracts/utils/Context.sol\":728:745  return msg.sender */\n      swap1\n      pop\n        /* \"@openzeppelin/contracts/utils/Context.sol\":656:752  function _msgSender() internal view virtual returns (address) {... */\n      swap1\n      jump\t// out\n        /* \"@openzeppelin/contracts/access/AccessControl.sol\":6708:7025  function _revokeRole(bytes32 role, address account) internal virtual returns (bool) {... */\n    tag_154:\n        /* \"@openzeppelin/contracts/access/AccessControl.sol\":6786:6790  bool */\n      0x00\n        /* \"@openzeppelin/contracts/access/AccessControl.sol\":6806:6828  hasRole(role, account) */\n      tag_266\n        /* \"@openzeppelin/contracts/access/AccessControl.sol\":6814:6818  role */\n      dup4\n        /* \"@openzeppelin/contracts/access/AccessControl.sol\":6820:6827  account */\n      dup4\n        /* \"@openzeppelin/contracts/access/AccessControl.sol\":6806:6813  hasRole */\n      tag_69\n        /* \"@openzeppelin/contracts/access/AccessControl.sol\":6806:6828  hasRole(role, account) */\n      jump\t// in\n    tag_266:\n        /* \"@openzeppelin/contracts/access/AccessControl.sol\":6802:7019  if (hasRole(role, account)) {... */\n      iszero\n      tag_267\n      jumpi\n        /* \"@openzeppelin/contracts/access/AccessControl.sol\":6876:6881  false */\n      0x00\n        /* \"@openzeppelin/contracts/access/AccessControl.sol\":6844:6850  _roles */\n      0x00\n        /* \"@openzeppelin/contracts/access/AccessControl.sol\":6844:6856  _roles[role] */\n      0x00\n        /* \"@openzeppelin/contracts/access/AccessControl.sol\":6851:6855  role */\n      dup6\n        /* \"@openzeppelin/contracts/access/AccessControl.sol\":6844:6856  _roles[role] */\n      dup2\n      mstore\n      0x20\n      add\n      swap1\n      dup2\n      mstore\n      0x20\n      add\n      0x00\n      keccak256\n        /* \"@openzeppelin/contracts/access/AccessControl.sol\":6844:6864  _roles[role].hasRole */\n      0x00\n      add\n        /* \"@openzeppelin/contracts/access/AccessControl.sol\":6844:6873  _roles[role].hasRole[account] */\n      0x00\n        /* \"@openzeppelin/contracts/access/AccessControl.sol\":6865:6872  account */\n      dup5\n        /* \"@openzeppelin/contracts/access/AccessControl.sol\":6844:6873  _roles[role].hasRole[account] */\n      0xffffffffffffffffffffffffffffffffffffffff\n      and\n      0xffffffffffffffffffffffffffffffffffffffff\n      and\n      dup2\n      mstore\n      0x20\n      add\n      swap1\n      dup2\n      mstore\n      0x20\n      add\n      0x00\n      keccak256\n      0x00\n        /* \"@openzeppelin/contracts/access/AccessControl.sol\":6844:6881  _roles[role].hasRole[account] = false */\n      0x0100\n      exp\n      dup2\n      sload\n      dup2\n      0xff\n      mul\n      not\n      and\n      swap1\n      dup4\n      iszero\n      iszero\n      mul\n      or\n      swap1\n      sstore\n      pop\n        /* \"@openzeppelin/contracts/access/AccessControl.sol\":6927:6939  _msgSender() */\n      tag_268\n        /* \"@openzeppelin/contracts/access/AccessControl.sol\":6927:6937  _msgSender */\n      tag_151\n        /* \"@openzeppelin/contracts/access/AccessControl.sol\":6927:6939  _msgSender() */\n      jump\t// in\n    tag_268:\n        /* \"@openzeppelin/contracts/access/AccessControl.sol\":6900:6940  RoleRevoked(role, account, _msgSender()) */\n      0xffffffffffffffffffffffffffffffffffffffff\n      and\n        /* \"@openzeppelin/contracts/access/AccessControl.sol\":6918:6925  account */\n      dup3\n        /* \"@openzeppelin/contracts/access/AccessControl.sol\":6900:6940  RoleRevoked(role, account, _msgSender()) */\n      0xffffffffffffffffffffffffffffffffffffffff\n      and\n        /* \"@openzeppelin/contracts/access/AccessControl.sol\":6912:6916  role */\n      dup5\n        /* \"@openzeppelin/contracts/access/AccessControl.sol\":6900:6940  RoleRevoked(role, account, _msgSender()) */\n      0xf6391f5c32d9c69d2a47ea670b442974b53935d1edc7fd64eb21e047a839171b\n      mload(0x40)\n      mload(0x40)\n      dup1\n      swap2\n      sub\n      swap1\n      log4\n        /* \"@openzeppelin/contracts/access/AccessControl.sol\":6961:6965  true */\n      0x01\n        /* \"@openzeppelin/contracts/access/AccessControl.sol\":6954:6965  return true */\n      swap1\n      pop\n      jump(tag_265)\n        /* \"@openzeppelin/contracts/access/AccessControl.sol\":6802:7019  if (hasRole(role, account)) {... */\n    tag_267:\n        /* \"@openzeppelin/contracts/access/AccessControl.sol\":7003:7008  false */\n      0x00\n        /* \"@openzeppelin/contracts/access/AccessControl.sol\":6996:7008  return false */\n      swap1\n      pop\n        /* \"@openzeppelin/contracts/access/AccessControl.sol\":6708:7025  function _revokeRole(bytes32 role, address account) internal virtual returns (bool) {... */\n    tag_265:\n      swap3\n      swap2\n      pop\n      pop\n      jump\t// out\n        /* \"@openzeppelin/contracts/token/ERC20/utils/SafeERC20.sol\":1618:1806  function safeTransferFrom(IERC20 token, address from, address to, uint256 value) internal {... */\n    tag_246:\n        /* \"@openzeppelin/contracts/token/ERC20/utils/SafeERC20.sol\":1718:1799  _callOptionalReturn(token, abi.encodeCall(token.transferFrom, (from, to, value))) */\n      tag_271\n        /* \"@openzeppelin/contracts/token/ERC20/utils/SafeERC20.sol\":1738:1743  token */\n      dup5\n        /* \"@openzeppelin/contracts/token/ERC20/utils/SafeERC20.sol\":1760:1765  token */\n      dup6\n        /* \"@openzeppelin/contracts/token/ERC20/utils/SafeERC20.sol\":1760:1778  token.transferFrom */\n      0xffffffffffffffffffffffffffffffffffffffff\n      and\n      0x23b872dd\n        /* \"@openzeppelin/contracts/token/ERC20/utils/SafeERC20.sol\":1781:1785  from */\n      dup7\n        /* \"@openzeppelin/contracts/token/ERC20/utils/SafeERC20.sol\":1787:1789  to */\n      dup7\n        /* \"@openzeppelin/contracts/token/ERC20/utils/SafeERC20.sol\":1791:1796  value */\n      dup7\n        /* \"@openzeppelin/contracts/token/ERC20/utils/SafeERC20.sol\":1745:1798  abi.encodeCall(token.transferFrom, (from, to, value)) */\n      add(0x24, mload(0x40))\n      tag_272\n      swap4\n      swap3\n      swap2\n      swap1\n      tag_273\n      jump\t// in\n    tag_272:\n      mload(0x40)\n      0x20\n      dup2\n      dup4\n      sub\n      sub\n      dup2\n      mstore\n      swap1\n      0x40\n      mstore\n      swap2\n      pop\n      0xe0\n      shl\n      0x20\n      dup3\n      add\n      dup1\n      mload\n      0xffffffffffffffffffffffffffffffffffffffffffffffffffffffff\n      dup4\n      dup2\n      dup4\n      and\n      or\n      dup4\n      mstore\n      pop\n      pop\n      pop\n      pop\n        /* \"@openzeppelin/contracts/token/ERC20/utils/SafeERC20.sol\":1718:1737  _callOptionalReturn */\n      tag_258\n        /* \"@openzeppelin/contracts/token/ERC20/utils/SafeERC20.sol\":1718:1799  _callOptionalReturn(token, abi.encodeCall(token.transferFrom, (from, to, value))) */\n      jump\t// in\n    tag_271:\n        /* \"@openzeppelin/contracts/token/ERC20/utils/SafeERC20.sol\":1618:1806  function safeTransferFrom(IERC20 token, address from, address to, uint256 value) internal {... */\n      pop\n      pop\n      pop\n      pop\n      jump\t// out\n        /* \"@openzeppelin/contracts/access/AccessControl.sol\":3408:3605  function _checkRole(bytes32 role, address account) internal view virtual {... */\n    tag_253:\n        /* \"@openzeppelin/contracts/access/AccessControl.sol\":3496:3518  hasRole(role, account) */\n      tag_275\n        /* \"@openzeppelin/contracts/access/AccessControl.sol\":3504:3508  role */\n      dup3\n        /* \"@openzeppelin/contracts/access/AccessControl.sol\":3510:3517  account */\n      dup3\n        /* \"@openzeppelin/contracts/access/AccessControl.sol\":3496:3503  hasRole */\n      tag_69\n        /* \"@openzeppelin/contracts/access/AccessControl.sol\":3496:3518  hasRole(role, account) */\n      jump\t// in\n    tag_275:\n        /* \"@openzeppelin/contracts/access/AccessControl.sol\":3491:3599  if (!hasRole(role, account)) {... */\n      tag_276\n      jumpi\n        /* \"@openzeppelin/contracts/access/AccessControl.sol\":3574:3581  account */\n      dup1\n        /* \"@openzeppelin/contracts/access/AccessControl.sol\":3583:3587  role */\n      dup3\n        /* \"@openzeppelin/contracts/access/AccessControl.sol\":3541:3588  AccessControlUnauthorizedAccount(account, role) */\n      mload(0x40)\n      0xe2517d3f00000000000000000000000000000000000000000000000000000000\n      dup2\n      mstore\n      0x04\n      add\n      tag_277\n      swap3\n      swap2\n      swap1\n      tag_278\n      jump\t// in\n    tag_277:\n      mload(0x40)\n      dup1\n      swap2\n      sub\n      swap1\n      revert\n        /* \"@openzeppelin/contracts/access/AccessControl.sol\":3491:3599  if (!hasRole(role, account)) {... */\n    tag_276:\n        /* \"@openzeppelin/contracts/access/AccessControl.sol\":3408:3605  function _checkRole(bytes32 role, address account) internal view virtual {... */\n      pop\n      pop\n      jump\t// out\n        /* \"@openzeppelin/contracts/token/ERC20/utils/SafeERC20.sol\":8370:9090  function _callOptionalReturn(IERC20 token, bytes memory data) private {... */\n    tag_258:\n        /* \"@openzeppelin/contracts/token/ERC20/utils/SafeERC20.sol\":8450:8468  uint256 returnSize */\n      0x00\n        /* \"@openzeppelin/contracts/token/ERC20/utils/SafeERC20.sol\":8478:8497  uint256 returnValue */\n      0x00\n        /* \"@openzeppelin/contracts/token/ERC20/utils/SafeERC20.sol\":8616:8620  0x20 */\n      0x20\n        /* \"@openzeppelin/contracts/token/ERC20/utils/SafeERC20.sol\":8613:8614  0 */\n      0x00\n        /* \"@openzeppelin/contracts/token/ERC20/utils/SafeERC20.sol\":8606:8610  data */\n      dup5\n        /* \"@openzeppelin/contracts/token/ERC20/utils/SafeERC20.sol\":8600:8611  mload(data) */\n      mload\n        /* \"@openzeppelin/contracts/token/ERC20/utils/SafeERC20.sol\":8593:8597  0x20 */\n      0x20\n        /* \"@openzeppelin/contracts/token/ERC20/utils/SafeERC20.sol\":8587:8591  data */\n      dup7\n        /* \"@openzeppelin/contracts/token/ERC20/utils/SafeERC20.sol\":8583:8598  add(data, 0x20) */\n      add\n        /* \"@openzeppelin/contracts/token/ERC20/utils/SafeERC20.sol\":8580:8581  0 */\n      0x00\n        /* \"@openzeppelin/contracts/token/ERC20/utils/SafeERC20.sol\":8573:8578  token */\n      dup9\n        /* \"@openzeppelin/contracts/token/ERC20/utils/SafeERC20.sol\":8566:8571  gas() */\n      gas\n        /* \"@openzeppelin/contracts/token/ERC20/utils/SafeERC20.sol\":8561:8621  call(gas(), token, 0, add(data, 0x20), mload(data), 0, 0x20) */\n      call\n        /* \"@openzeppelin/contracts/token/ERC20/utils/SafeERC20.sol\":8673:8680  success */\n      dup1\n        /* \"@openzeppelin/contracts/token/ERC20/utils/SafeERC20.sol\":8663:8839  if iszero(success) {... */\n      tag_280\n      jumpi\n        /* \"@openzeppelin/contracts/token/ERC20/utils/SafeERC20.sol\":8717:8721  0x40 */\n      0x40\n        /* \"@openzeppelin/contracts/token/ERC20/utils/SafeERC20.sol\":8711:8722  mload(0x40) */\n      mload\n        /* \"@openzeppelin/contracts/token/ERC20/utils/SafeERC20.sol\":8762:8778  returndatasize() */\n      returndatasize\n        /* \"@openzeppelin/contracts/token/ERC20/utils/SafeERC20.sol\":8759:8760  0 */\n      0x00\n        /* \"@openzeppelin/contracts/token/ERC20/utils/SafeERC20.sol\":8754:8757  ptr */\n      dup3\n        /* \"@openzeppelin/contracts/token/ERC20/utils/SafeERC20.sol\":8739:8779  returndatacopy(ptr, 0, returndatasize()) */\n      returndatacopy\n        /* \"@openzeppelin/contracts/token/ERC20/utils/SafeERC20.sol\":8808:8824  returndatasize() */\n      returndatasize\n        /* \"@openzeppelin/contracts/token/ERC20/utils/SafeERC20.sol\":8803:8806  ptr */\n      dup2\n        /* \"@openzeppelin/contracts/token/ERC20/utils/SafeERC20.sol\":8796:8825  revert(ptr, returndatasize()) */\n      revert\n        /* \"@openzeppelin/contracts/token/ERC20/utils/SafeERC20.sol\":8663:8839  if iszero(success) {... */\n    tag_280:\n        /* \"@openzeppelin/contracts/token/ERC20/utils/SafeERC20.sol\":8866:8882  returndatasize() */\n      returndatasize\n        /* \"@openzeppelin/contracts/token/ERC20/utils/SafeERC20.sol\":8852:8882  returnSize := returndatasize() */\n      swap3\n      pop\n        /* \"@openzeppelin/contracts/token/ERC20/utils/SafeERC20.sol\":8916:8917  0 */\n      0x00\n        /* \"@openzeppelin/contracts/token/ERC20/utils/SafeERC20.sol\":8910:8918  mload(0) */\n      mload\n        /* \"@openzeppelin/contracts/token/ERC20/utils/SafeERC20.sol\":8895:8918  returnValue := mload(0) */\n      swap2\n      pop\n        /* \"@openzeppelin/contracts/token/ERC20/utils/SafeERC20.sol\":8532:8928  {... */\n      pop\n        /* \"@openzeppelin/contracts/token/ERC20/utils/SafeERC20.sol\":8956:8957  0 */\n      0x00\n        /* \"@openzeppelin/contracts/token/ERC20/utils/SafeERC20.sol\":8942:8952  returnSize */\n      dup3\n        /* \"@openzeppelin/contracts/token/ERC20/utils/SafeERC20.sol\":8942:8957  returnSize == 0 */\n      eq\n        /* \"@openzeppelin/contracts/token/ERC20/utils/SafeERC20.sol\":8942:9010  returnSize == 0 ? address(token).code.length == 0 : returnValue != 1 */\n      tag_281\n      jumpi\n        /* \"@openzeppelin/contracts/token/ERC20/utils/SafeERC20.sol\":9009:9010  1 */\n      0x01\n        /* \"@openzeppelin/contracts/token/ERC20/utils/SafeERC20.sol\":8994:9005  returnValue */\n      dup2\n        /* \"@openzeppelin/contracts/token/ERC20/utils/SafeERC20.sol\":8994:9010  returnValue != 1 */\n      eq\n      iszero\n        /* \"@openzeppelin/contracts/token/ERC20/utils/SafeERC20.sol\":8942:9010  returnSize == 0 ? address(token).code.length == 0 : returnValue != 1 */\n      jump(tag_282)\n    tag_281:\n        /* \"@openzeppelin/contracts/token/ERC20/utils/SafeERC20.sol\":8990:8991  0 */\n      0x00\n        /* \"@openzeppelin/contracts/token/ERC20/utils/SafeERC20.sol\":8968:8973  token */\n      dup5\n        /* \"@openzeppelin/contracts/token/ERC20/utils/SafeERC20.sol\":8960:8986  address(token).code.length */\n      0xffffffffffffffffffffffffffffffffffffffff\n      and\n      extcodesize\n        /* \"@openzeppelin/contracts/token/ERC20/utils/SafeERC20.sol\":8960:8991  address(token).code.length == 0 */\n      eq\n        /* \"@openzeppelin/contracts/token/ERC20/utils/SafeERC20.sol\":8942:9010  returnSize == 0 ? address(token).code.length == 0 : returnValue != 1 */\n    tag_282:\n        /* \"@openzeppelin/contracts/token/ERC20/utils/SafeERC20.sol\":8938:9084  if (returnSize == 0 ? address(token).code.length == 0 : returnValue != 1) {... */\n      iszero\n      tag_283\n      jumpi\n        /* \"@openzeppelin/contracts/token/ERC20/utils/SafeERC20.sol\":9066:9071  token */\n      dup4\n        /* \"@openzeppelin/contracts/token/ERC20/utils/SafeERC20.sol\":9033:9073  SafeERC20FailedOperation(address(token)) */\n      mload(0x40)\n      0x5274afe700000000000000000000000000000000000000000000000000000000\n      dup2\n      mstore\n      0x04\n      add\n      tag_284\n      swap2\n      swap1\n      tag_37\n      jump\t// in\n    tag_284:\n      mload(0x40)\n      dup1\n      swap2\n      sub\n      swap1\n      revert\n        /* \"@openzeppelin/contracts/token/ERC20/utils/SafeERC20.sol\":8938:9084  if (returnSize == 0 ? address(token).code.length == 0 : returnValue != 1) {... */\n    tag_283:\n        /* \"@openzeppelin/contracts/token/ERC20/utils/SafeERC20.sol\":8440:9090  {... */\n      pop\n      pop\n        /* \"@openzeppelin/contracts/token/ERC20/utils/SafeERC20.sol\":8370:9090  function _callOptionalReturn(IERC20 token, bytes memory data) private {... */\n      pop\n      pop\n      jump\t// out\n    tag_169:\n      mload(0x40)\n      dup1\n      0x40\n      add\n      0x40\n      mstore\n      dup1\n      and(0xffffffffffffffffffffffffffffffffffffffff, 0x00)\n      dup2\n      mstore\n      0x20\n      add\n      0x00\n      dup2\n      mstore\n      pop\n      swap1\n      jump\t// out\n        /* \"#utility.yul\":88:205   */\n    tag_286:\n        /* \"#utility.yul\":197:198   */\n      0x00\n        /* \"#utility.yul\":194:195   */\n      0x00\n        /* \"#utility.yul\":187:199   */\n      revert\n        /* \"#utility.yul\":211:328   */\n    tag_287:\n        /* \"#utility.yul\":320:321   */\n      0x00\n        /* \"#utility.yul\":317:318   */\n      0x00\n        /* \"#utility.yul\":310:322   */\n      revert\n        /* \"#utility.yul\":334:483   */\n    tag_288:\n        /* \"#utility.yul\":370:377   */\n      0x00\n        /* \"#utility.yul\":410:476   */\n      0xffffffff00000000000000000000000000000000000000000000000000000000\n        /* \"#utility.yul\":403:408   */\n      dup3\n        /* \"#utility.yul\":399:477   */\n      and\n        /* \"#utility.yul\":388:477   */\n      swap1\n      pop\n        /* \"#utility.yul\":334:483   */\n      swap2\n      swap1\n      pop\n      jump\t// out\n        /* \"#utility.yul\":489:609   */\n    tag_289:\n        /* \"#utility.yul\":561:584   */\n      tag_346\n        /* \"#utility.yul\":578:583   */\n      dup2\n        /* \"#utility.yul\":561:584   */\n      tag_288\n      jump\t// in\n    tag_346:\n        /* \"#utility.yul\":554:559   */\n      dup2\n        /* \"#utility.yul\":551:585   */\n      eq\n        /* \"#utility.yul\":541:603   */\n      tag_347\n      jumpi\n        /* \"#utility.yul\":599:600   */\n      0x00\n        /* \"#utility.yul\":596:597   */\n      0x00\n        /* \"#utility.yul\":589:601   */\n      revert\n        /* \"#utility.yul\":541:603   */\n    tag_347:\n        /* \"#utility.yul\":489:609   */\n      pop\n      jump\t// out\n        /* \"#utility.yul\":615:752   */\n    tag_290:\n        /* \"#utility.yul\":660:665   */\n      0x00\n        /* \"#utility.yul\":698:704   */\n      dup2\n        /* \"#utility.yul\":685:705   */\n      calldataload\n        /* \"#utility.yul\":676:705   */\n      swap1\n      pop\n        /* \"#utility.yul\":714:746   */\n      tag_349\n        /* \"#utility.yul\":740:745   */\n      dup2\n        /* \"#utility.yul\":714:746   */\n      tag_289\n      jump\t// in\n    tag_349:\n        /* \"#utility.yul\":615:752   */\n      swap3\n      swap2\n      pop\n      pop\n      jump\t// out\n        /* \"#utility.yul\":758:1085   */\n    tag_28:\n        /* \"#utility.yul\":816:822   */\n      0x00\n        /* \"#utility.yul\":865:867   */\n      0x20\n        /* \"#utility.yul\":853:862   */\n      dup3\n        /* \"#utility.yul\":844:851   */\n      dup5\n        /* \"#utility.yul\":840:863   */\n      sub\n        /* \"#utility.yul\":836:868   */\n      slt\n        /* \"#utility.yul\":833:952   */\n      iszero\n      tag_351\n      jumpi\n        /* \"#utility.yul\":871:950   */\n      tag_352\n      tag_286\n      jump\t// in\n    tag_352:\n        /* \"#utility.yul\":833:952   */\n    tag_351:\n        /* \"#utility.yul\":991:992   */\n      0x00\n        /* \"#utility.yul\":1016:1068   */\n      tag_353\n        /* \"#utility.yul\":1060:1067   */\n      dup5\n        /* \"#utility.yul\":1051:1057   */\n      dup3\n        /* \"#utility.yul\":1040:1049   */\n      dup6\n        /* \"#utility.yul\":1036:1058   */\n      add\n        /* \"#utility.yul\":1016:1068   */\n      tag_290\n      jump\t// in\n    tag_353:\n        /* \"#utility.yul\":1006:1068   */\n      swap2\n      pop\n        /* \"#utility.yul\":962:1078   */\n      pop\n        /* \"#utility.yul\":758:1085   */\n      swap3\n      swap2\n      pop\n      pop\n      jump\t// out\n        /* \"#utility.yul\":1091:1181   */\n    tag_291:\n        /* \"#utility.yul\":1125:1132   */\n      0x00\n        /* \"#utility.yul\":1168:1173   */\n      dup2\n        /* \"#utility.yul\":1161:1174   */\n      iszero\n        /* \"#utility.yul\":1154:1175   */\n      iszero\n        /* \"#utility.yul\":1143:1175   */\n      swap1\n      pop\n        /* \"#utility.yul\":1091:1181   */\n      swap2\n      swap1\n      pop\n      jump\t// out\n        /* \"#utility.yul\":1187:1296   */\n    tag_292:\n        /* \"#utility.yul\":1268:1289   */\n      tag_356\n        /* \"#utility.yul\":1283:1288   */\n      dup2\n        /* \"#utility.yul\":1268:1289   */\n      tag_291\n      jump\t// in\n    tag_356:\n        /* \"#utility.yul\":1263:1266   */\n      dup3\n        /* \"#utility.yul\":1256:1290   */\n      mstore\n        /* \"#utility.yul\":1187:1296   */\n      pop\n      pop\n      jump\t// out\n        /* \"#utility.yul\":1302:1512   */\n    tag_31:\n        /* \"#utility.yul\":1389:1393   */\n      0x00\n        /* \"#utility.yul\":1427:1429   */\n      0x20\n        /* \"#utility.yul\":1416:1425   */\n      dup3\n        /* \"#utility.yul\":1412:1430   */\n      add\n        /* \"#utility.yul\":1404:1430   */\n      swap1\n      pop\n        /* \"#utility.yul\":1440:1505   */\n      tag_358\n        /* \"#utility.yul\":1502:1503   */\n      0x00\n        /* \"#utility.yul\":1491:1500   */\n      dup4\n        /* \"#utility.yul\":1487:1504   */\n      add\n        /* \"#utility.yul\":1478:1484   */\n      dup5\n        /* \"#utility.yul\":1440:1505   */\n      tag_292\n      jump\t// in\n    tag_358:\n        /* \"#utility.yul\":1302:1512   */\n      swap3\n      swap2\n      pop\n      pop\n      jump\t// out\n        /* \"#utility.yul\":1518:1595   */\n    tag_293:\n        /* \"#utility.yul\":1555:1562   */\n      0x00\n        /* \"#utility.yul\":1584:1589   */\n      dup2\n        /* \"#utility.yul\":1573:1589   */\n      swap1\n      pop\n        /* \"#utility.yul\":1518:1595   */\n      swap2\n      swap1\n      pop\n      jump\t// out\n        /* \"#utility.yul\":1601:1723   */\n    tag_294:\n        /* \"#utility.yul\":1674:1698   */\n      tag_361\n        /* \"#utility.yul\":1692:1697   */\n      dup2\n        /* \"#utility.yul\":1674:1698   */\n      tag_293\n      jump\t// in\n    tag_361:\n        /* \"#utility.yul\":1667:1672   */\n      dup2\n        /* \"#utility.yul\":1664:1699   */\n      eq\n        /* \"#utility.yul\":1654:1717   */\n      tag_362\n      jumpi\n        /* \"#utility.yul\":1713:1714   */\n      0x00\n        /* \"#utility.yul\":1710:1711   */\n      0x00\n        /* \"#utility.yul\":1703:1715   */\n      revert\n        /* \"#utility.yul\":1654:1717   */\n    tag_362:\n        /* \"#utility.yul\":1601:1723   */\n      pop\n      jump\t// out\n        /* \"#utility.yul\":1729:1868   */\n    tag_295:\n        /* \"#utility.yul\":1775:1780   */\n      0x00\n        /* \"#utility.yul\":1813:1819   */\n      dup2\n        /* \"#utility.yul\":1800:1820   */\n      calldataload\n        /* \"#utility.yul\":1791:1820   */\n      swap1\n      pop\n        /* \"#utility.yul\":1829:1862   */\n      tag_364\n        /* \"#utility.yul\":1856:1861   */\n      dup2\n        /* \"#utility.yul\":1829:1862   */\n      tag_294\n      jump\t// in\n    tag_364:\n        /* \"#utility.yul\":1729:1868   */\n      swap3\n      swap2\n      pop\n      pop\n      jump\t// out\n        /* \"#utility.yul\":1874:2203   */\n    tag_34:\n        /* \"#utility.yul\":1933:1939   */\n      0x00\n        /* \"#utility.yul\":1982:1984   */\n      0x20\n        /* \"#utility.yul\":1970:1979   */\n      dup3\n        /* \"#utility.yul\":1961:1968   */\n      dup5\n        /* \"#utility.yul\":1957:1980   */\n      sub\n        /* \"#utility.yul\":1953:1985   */\n      slt\n        /* \"#utility.yul\":1950:2069   */\n      iszero\n      tag_366\n      jumpi\n        /* \"#utility.yul\":1988:2067   */\n      tag_367\n      tag_286\n      jump\t// in\n    tag_367:\n        /* \"#utility.yul\":1950:2069   */\n    tag_366:\n        /* \"#utility.yul\":2108:2109   */\n      0x00\n        /* \"#utility.yul\":2133:2186   */\n      tag_368\n        /* \"#utility.yul\":2178:2185   */\n      dup5\n        /* \"#utility.yul\":2169:2175   */\n      dup3\n        /* \"#utility.yul\":2158:2167   */\n      dup6\n        /* \"#utility.yul\":2154:2176   */\n      add\n        /* \"#utility.yul\":2133:2186   */\n      tag_295\n      jump\t// in\n    tag_368:\n        /* \"#utility.yul\":2123:2186   */\n      swap2\n      pop\n        /* \"#utility.yul\":2079:2196   */\n      pop\n        /* \"#utility.yul\":1874:2203   */\n      swap3\n      swap2\n      pop\n      pop\n      jump\t// out\n        /* \"#utility.yul\":2209:2335   */\n    tag_296:\n        /* \"#utility.yul\":2246:2253   */\n      0x00\n        /* \"#utility.yul\":2286:2328   */\n      0xffffffffffffffffffffffffffffffffffffffff\n        /* \"#utility.yul\":2279:2284   */\n      dup3\n        /* \"#utility.yul\":2275:2329   */\n      and\n        /* \"#utility.yul\":2264:2329   */\n      swap1\n      pop\n        /* \"#utility.yul\":2209:2335   */\n      swap2\n      swap1\n      pop\n      jump\t// out\n        /* \"#utility.yul\":2341:2437   */\n    tag_297:\n        /* \"#utility.yul\":2378:2385   */\n      0x00\n        /* \"#utility.yul\":2407:2431   */\n      tag_371\n        /* \"#utility.yul\":2425:2430   */\n      dup3\n        /* \"#utility.yul\":2407:2431   */\n      tag_296\n      jump\t// in\n    tag_371:\n        /* \"#utility.yul\":2396:2431   */\n      swap1\n      pop\n        /* \"#utility.yul\":2341:2437   */\n      swap2\n      swap1\n      pop\n      jump\t// out\n        /* \"#utility.yul\":2443:2561   */\n    tag_298:\n        /* \"#utility.yul\":2530:2554   */\n      tag_373\n        /* \"#utility.yul\":2548:2553   */\n      dup2\n        /* \"#utility.yul\":2530:2554   */\n      tag_297\n      jump\t// in\n    tag_373:\n        /* \"#utility.yul\":2525:2528   */\n      dup3\n        /* \"#utility.yul\":2518:2555   */\n      mstore\n        /* \"#utility.yul\":2443:2561   */\n      pop\n      pop\n      jump\t// out\n        /* \"#utility.yul\":2567:2789   */\n    tag_37:\n        /* \"#utility.yul\":2660:2664   */\n      0x00\n        /* \"#utility.yul\":2698:2700   */\n      0x20\n        /* \"#utility.yul\":2687:2696   */\n      dup3\n        /* \"#utility.yul\":2683:2701   */\n      add\n        /* \"#utility.yul\":2675:2701   */\n      swap1\n      pop\n        /* \"#utility.yul\":2711:2782   */\n      tag_375\n        /* \"#utility.yul\":2779:2780   */\n      0x00\n        /* \"#utility.yul\":2768:2777   */\n      dup4\n        /* \"#utility.yul\":2764:2781   */\n      add\n        /* \"#utility.yul\":2755:2761   */\n      dup5\n        /* \"#utility.yul\":2711:2782   */\n      tag_298\n      jump\t// in\n    tag_375:\n        /* \"#utility.yul\":2567:2789   */\n      swap3\n      swap2\n      pop\n      pop\n      jump\t// out\n        /* \"#utility.yul\":2795:2917   */\n    tag_299:\n        /* \"#utility.yul\":2868:2892   */\n      tag_377\n        /* \"#utility.yul\":2886:2891   */\n      dup2\n        /* \"#utility.yul\":2868:2892   */\n      tag_297\n      jump\t// in\n    tag_377:\n        /* \"#utility.yul\":2861:2866   */\n      dup2\n        /* \"#utility.yul\":2858:2893   */\n      eq\n        /* \"#utility.yul\":2848:2911   */\n      tag_378\n      jumpi\n        /* \"#utility.yul\":2907:2908   */\n      0x00\n        /* \"#utility.yul\":2904:2905   */\n      0x00\n        /* \"#utility.yul\":2897:2909   */\n      revert\n        /* \"#utility.yul\":2848:2911   */\n    tag_378:\n        /* \"#utility.yul\":2795:2917   */\n      pop\n      jump\t// out\n        /* \"#utility.yul\":2923:3062   */\n    tag_300:\n        /* \"#utility.yul\":2969:2974   */\n      0x00\n        /* \"#utility.yul\":3007:3013   */\n      dup2\n        /* \"#utility.yul\":2994:3014   */\n      calldataload\n        /* \"#utility.yul\":2985:3014   */\n      swap1\n      pop\n        /* \"#utility.yul\":3023:3056   */\n      tag_380\n        /* \"#utility.yul\":3050:3055   */\n      dup2\n        /* \"#utility.yul\":3023:3056   */\n      tag_299\n      jump\t// in\n    tag_380:\n        /* \"#utility.yul\":2923:3062   */\n      swap3\n      swap2\n      pop\n      pop\n      jump\t// out\n        /* \"#utility.yul\":3068:3542   */\n    tag_40:\n        /* \"#utility.yul\":3136:3142   */\n      0x00\n        /* \"#utility.yul\":3144:3150   */\n      0x00\n        /* \"#utility.yul\":3193:3195   */\n      0x40\n        /* \"#utility.yul\":3181:3190   */\n      dup4\n        /* \"#utility.yul\":3172:3179   */\n      dup6\n        /* \"#utility.yul\":3168:3191   */\n      sub\n        /* \"#utility.yul\":3164:3196   */\n      slt\n        /* \"#utility.yul\":3161:3280   */\n      iszero\n      tag_382\n      jumpi\n        /* \"#utility.yul\":3199:3278   */\n      tag_383\n      tag_286\n      jump\t// in\n    tag_383:\n        /* \"#utility.yul\":3161:3280   */\n    tag_382:\n        /* \"#utility.yul\":3319:3320   */\n      0x00\n        /* \"#utility.yul\":3344:3397   */\n      tag_384\n        /* \"#utility.yul\":3389:3396   */\n      dup6\n        /* \"#utility.yul\":3380:3386   */\n      dup3\n        /* \"#utility.yul\":3369:3378   */\n      dup7\n        /* \"#utility.yul\":3365:3387   */\n      add\n        /* \"#utility.yul\":3344:3397   */\n      tag_300\n      jump\t// in\n    tag_384:\n        /* \"#utility.yul\":3334:3397   */\n      swap3\n      pop\n        /* \"#utility.yul\":3290:3407   */\n      pop\n        /* \"#utility.yul\":3446:3448   */\n      0x20\n        /* \"#utility.yul\":3472:3525   */\n      tag_385\n        /* \"#utility.yul\":3517:3524   */\n      dup6\n        /* \"#utility.yul\":3508:3514   */\n      dup3\n        /* \"#utility.yul\":3497:3506   */\n      dup7\n        /* \"#utility.yul\":3493:3515   */\n      add\n        /* \"#utility.yul\":3472:3525   */\n      tag_295\n      jump\t// in\n    tag_385:\n        /* \"#utility.yul\":3462:3525   */\n      swap2\n      pop\n        /* \"#utility.yul\":3417:3535   */\n      pop\n        /* \"#utility.yul\":3068:3542   */\n      swap3\n      pop\n      swap3\n      swap1\n      pop\n      jump\t// out\n        /* \"#utility.yul\":3548:3625   */\n    tag_301:\n        /* \"#utility.yul\":3585:3592   */\n      0x00\n        /* \"#utility.yul\":3614:3619   */\n      dup2\n        /* \"#utility.yul\":3603:3619   */\n      swap1\n      pop\n        /* \"#utility.yul\":3548:3625   */\n      swap2\n      swap1\n      pop\n      jump\t// out\n        /* \"#utility.yul\":3631:3753   */\n    tag_302:\n        /* \"#utility.yul\":3704:3728   */\n      tag_388\n        /* \"#utility.yul\":3722:3727   */\n      dup2\n        /* \"#utility.yul\":3704:3728   */\n      tag_301\n      jump\t// in\n    tag_388:\n        /* \"#utility.yul\":3697:3702   */\n      dup2\n        /* \"#utility.yul\":3694:3729   */\n      eq\n        /* \"#utility.yul\":3684:3747   */\n      tag_389\n      jumpi\n        /* \"#utility.yul\":3743:3744   */\n      0x00\n        /* \"#utility.yul\":3740:3741   */\n      0x00\n        /* \"#utility.yul\":3733:3745   */\n      revert\n        /* \"#utility.yul\":3684:3747   */\n    tag_389:\n        /* \"#utility.yul\":3631:3753   */\n      pop\n      jump\t// out\n        /* \"#utility.yul\":3759:3898   */\n    tag_303:\n        /* \"#utility.yul\":3805:3810   */\n      0x00\n        /* \"#utility.yul\":3843:3849   */\n      dup2\n        /* \"#utility.yul\":3830:3850   */\n      calldataload\n        /* \"#utility.yul\":3821:3850   */\n      swap1\n      pop\n        /* \"#utility.yul\":3859:3892   */\n      tag_391\n        /* \"#utility.yul\":3886:3891   */\n      dup2\n        /* \"#utility.yul\":3859:3892   */\n      tag_302\n      jump\t// in\n    tag_391:\n        /* \"#utility.yul\":3759:3898   */\n      swap3\n      swap2\n      pop\n      pop\n      jump\t// out\n        /* \"#utility.yul\":3904:4233   */\n    tag_44:\n        /* \"#utility.yul\":3963:3969   */\n      0x00\n        /* \"#utility.yul\":4012:4014   */\n      0x20\n        /* \"#utility.yul\":4000:4009   */\n      dup3\n        /* \"#utility.yul\":3991:3998   */\n      dup5\n        /* \"#utility.yul\":3987:4010   */\n      sub\n        /* \"#utility.yul\":3983:4015   */\n      slt\n        /* \"#utility.yul\":3980:4099   */\n      iszero\n      tag_393\n      jumpi\n        /* \"#utility.yul\":4018:4097   */\n      tag_394\n      tag_286\n      jump\t// in\n    tag_394:\n        /* \"#utility.yul\":3980:4099   */\n    tag_393:\n        /* \"#utility.yul\":4138:4139   */\n      0x00\n        /* \"#utility.yul\":4163:4216   */\n      tag_395\n        /* \"#utility.yul\":4208:4215   */\n      dup5\n        /* \"#utility.yul\":4199:4205   */\n      dup3\n        /* \"#utility.yul\":4188:4197   */\n      dup6\n        /* \"#utility.yul\":4184:4206   */\n      add\n        /* \"#utility.yul\":4163:4216   */\n      tag_303\n      jump\t// in\n    tag_395:\n        /* \"#utility.yul\":4153:4216   */\n      swap2\n      pop\n        /* \"#utility.yul\":4109:4226   */\n      pop\n        /* \"#utility.yul\":3904:4233   */\n      swap3\n      swap2\n      pop\n      pop\n      jump\t// out\n        /* \"#utility.yul\":4239:4357   */\n    tag_304:\n        /* \"#utility.yul\":4326:4350   */\n      tag_397\n        /* \"#utility.yul\":4344:4349   */\n      dup2\n        /* \"#utility.yul\":4326:4350   */\n      tag_301\n      jump\t// in\n    tag_397:\n        /* \"#utility.yul\":4321:4324   */\n      dup3\n        /* \"#utility.yul\":4314:4351   */\n      mstore\n        /* \"#utility.yul\":4239:4357   */\n      pop\n      pop\n      jump\t// out\n        /* \"#utility.yul\":4363:4585   */\n    tag_47:\n        /* \"#utility.yul\":4456:4460   */\n      0x00\n        /* \"#utility.yul\":4494:4496   */\n      0x20\n        /* \"#utility.yul\":4483:4492   */\n      dup3\n        /* \"#utility.yul\":4479:4497   */\n      add\n        /* \"#utility.yul\":4471:4497   */\n      swap1\n      pop\n        /* \"#utility.yul\":4507:4578   */\n      tag_399\n        /* \"#utility.yul\":4575:4576   */\n      0x00\n        /* \"#utility.yul\":4564:4573   */\n      dup4\n        /* \"#utility.yul\":4560:4577   */\n      add\n        /* \"#utility.yul\":4551:4557   */\n      dup5\n        /* \"#utility.yul\":4507:4578   */\n      tag_304\n      jump\t// in\n    tag_399:\n        /* \"#utility.yul\":4363:4585   */\n      swap3\n      swap2\n      pop\n      pop\n      jump\t// out\n        /* \"#utility.yul\":4591:5065   */\n    tag_50:\n        /* \"#utility.yul\":4659:4665   */\n      0x00\n        /* \"#utility.yul\":4667:4673   */\n      0x00\n        /* \"#utility.yul\":4716:4718   */\n      0x40\n        /* \"#utility.yul\":4704:4713   */\n      dup4\n        /* \"#utility.yul\":4695:4702   */\n      dup6\n        /* \"#utility.yul\":4691:4714   */\n      sub\n        /* \"#utility.yul\":4687:4719   */\n      slt\n        /* \"#utility.yul\":4684:4803   */\n      iszero\n      tag_401\n      jumpi\n        /* \"#utility.yul\":4722:4801   */\n      tag_402\n      tag_286\n      jump\t// in\n    tag_402:\n        /* \"#utility.yul\":4684:4803   */\n    tag_401:\n        /* \"#utility.yul\":4842:4843   */\n      0x00\n        /* \"#utility.yul\":4867:4920   */\n      tag_403\n        /* \"#utility.yul\":4912:4919   */\n      dup6\n        /* \"#utility.yul\":4903:4909   */\n      dup3\n        /* \"#utility.yul\":4892:4901   */\n      dup7\n        /* \"#utility.yul\":4888:4910   */\n      add\n        /* \"#utility.yul\":4867:4920   */\n      tag_303\n      jump\t// in\n    tag_403:\n        /* \"#utility.yul\":4857:4920   */\n      swap3\n      pop\n        /* \"#utility.yul\":4813:4930   */\n      pop\n        /* \"#utility.yul\":4969:4971   */\n      0x20\n        /* \"#utility.yul\":4995:5048   */\n      tag_404\n        /* \"#utility.yul\":5040:5047   */\n      dup6\n        /* \"#utility.yul\":5031:5037   */\n      dup3\n        /* \"#utility.yul\":5020:5029   */\n      dup7\n        /* \"#utility.yul\":5016:5038   */\n      add\n        /* \"#utility.yul\":4995:5048   */\n      tag_300\n      jump\t// in\n    tag_404:\n        /* \"#utility.yul\":4985:5048   */\n      swap2\n      pop\n        /* \"#utility.yul\":4940:5058   */\n      pop\n        /* \"#utility.yul\":4591:5065   */\n      swap3\n      pop\n      swap3\n      swap1\n      pop\n      jump\t// out\n        /* \"#utility.yul\":5071:5545   */\n    tag_60:\n        /* \"#utility.yul\":5139:5145   */\n      0x00\n        /* \"#utility.yul\":5147:5153   */\n      0x00\n        /* \"#utility.yul\":5196:5198   */\n      0x40\n        /* \"#utility.yul\":5184:5193   */\n      dup4\n        /* \"#utility.yul\":5175:5182   */\n      dup6\n        /* \"#utility.yul\":5171:5194   */\n      sub\n        /* \"#utility.yul\":5167:5199   */\n      slt\n        /* \"#utility.yul\":5164:5283   */\n      iszero\n      tag_406\n      jumpi\n        /* \"#utility.yul\":5202:5281   */\n      tag_407\n      tag_286\n      jump\t// in\n    tag_407:\n        /* \"#utility.yul\":5164:5283   */\n    tag_406:\n        /* \"#utility.yul\":5322:5323   */\n      0x00\n        /* \"#utility.yul\":5347:5400   */\n      tag_408\n        /* \"#utility.yul\":5392:5399   */\n      dup6\n        /* \"#utility.yul\":5383:5389   */\n      dup3\n        /* \"#utility.yul\":5372:5381   */\n      dup7\n        /* \"#utility.yul\":5368:5390   */\n      add\n        /* \"#utility.yul\":5347:5400   */\n      tag_295\n      jump\t// in\n    tag_408:\n        /* \"#utility.yul\":5337:5400   */\n      swap3\n      pop\n        /* \"#utility.yul\":5293:5410   */\n      pop\n        /* \"#utility.yul\":5449:5451   */\n      0x20\n        /* \"#utility.yul\":5475:5528   */\n      tag_409\n        /* \"#utility.yul\":5520:5527   */\n      dup6\n        /* \"#utility.yul\":5511:5517   */\n      dup3\n        /* \"#utility.yul\":5500:5509   */\n      dup7\n        /* \"#utility.yul\":5496:5518   */\n      add\n        /* \"#utility.yul\":5475:5528   */\n      tag_295\n      jump\t// in\n    tag_409:\n        /* \"#utility.yul\":5465:5528   */\n      swap2\n      pop\n        /* \"#utility.yul\":5420:5538   */\n      pop\n        /* \"#utility.yul\":5071:5545   */\n      swap3\n      pop\n      swap3\n      swap1\n      pop\n      jump\t// out\n        /* \"#utility.yul\":5551:5699   */\n    tag_305:\n        /* \"#utility.yul\":5652:5658   */\n      0x00\n        /* \"#utility.yul\":5686:5691   */\n      dup2\n        /* \"#utility.yul\":5680:5692   */\n      mload\n        /* \"#utility.yul\":5670:5692   */\n      swap1\n      pop\n        /* \"#utility.yul\":5551:5699   */\n      swap2\n      swap1\n      pop\n      jump\t// out\n        /* \"#utility.yul\":5705:5923   */\n    tag_306:\n        /* \"#utility.yul\":5838:5849   */\n      0x00\n        /* \"#utility.yul\":5872:5878   */\n      dup3\n        /* \"#utility.yul\":5867:5870   */\n      dup3\n        /* \"#utility.yul\":5860:5879   */\n      mstore\n        /* \"#utility.yul\":5912:5916   */\n      0x20\n        /* \"#utility.yul\":5907:5910   */\n      dup3\n        /* \"#utility.yul\":5903:5917   */\n      add\n        /* \"#utility.yul\":5888:5917   */\n      swap1\n      pop\n        /* \"#utility.yul\":5705:5923   */\n      swap3\n      swap2\n      pop\n      pop\n      jump\t// out\n        /* \"#utility.yul\":5929:6095   */\n    tag_307:\n        /* \"#utility.yul\":6030:6034   */\n      0x00\n        /* \"#utility.yul\":6053:6056   */\n      dup2\n        /* \"#utility.yul\":6045:6056   */\n      swap1\n      pop\n        /* \"#utility.yul\":6083:6087   */\n      0x20\n        /* \"#utility.yul\":6078:6081   */\n      dup3\n        /* \"#utility.yul\":6074:6088   */\n      add\n        /* \"#utility.yul\":6066:6088   */\n      swap1\n      pop\n        /* \"#utility.yul\":5929:6095   */\n      swap2\n      swap1\n      pop\n      jump\t// out\n        /* \"#utility.yul\":6101:6209   */\n    tag_308:\n        /* \"#utility.yul\":6178:6202   */\n      tag_414\n        /* \"#utility.yul\":6196:6201   */\n      dup2\n        /* \"#utility.yul\":6178:6202   */\n      tag_297\n      jump\t// in\n    tag_414:\n        /* \"#utility.yul\":6173:6176   */\n      dup3\n        /* \"#utility.yul\":6166:6203   */\n      mstore\n        /* \"#utility.yul\":6101:6209   */\n      pop\n      pop\n      jump\t// out\n        /* \"#utility.yul\":6215:6323   */\n    tag_309:\n        /* \"#utility.yul\":6292:6316   */\n      tag_416\n        /* \"#utility.yul\":6310:6315   */\n      dup2\n        /* \"#utility.yul\":6292:6316   */\n      tag_293\n      jump\t// in\n    tag_416:\n        /* \"#utility.yul\":6287:6290   */\n      dup3\n        /* \"#utility.yul\":6280:6317   */\n      mstore\n        /* \"#utility.yul\":6215:6323   */\n      pop\n      pop\n      jump\t// out\n        /* \"#utility.yul\":6407:6925   */\n    tag_310:\n        /* \"#utility.yul\":6562:6566   */\n      0x40\n        /* \"#utility.yul\":6557:6560   */\n      dup3\n        /* \"#utility.yul\":6553:6567   */\n      add\n        /* \"#utility.yul\":6651:6655   */\n      0x00\n        /* \"#utility.yul\":6644:6649   */\n      dup3\n        /* \"#utility.yul\":6640:6656   */\n      add\n        /* \"#utility.yul\":6634:6657   */\n      mload\n        /* \"#utility.yul\":6670:6733   */\n      tag_418\n        /* \"#utility.yul\":6727:6731   */\n      0x00\n        /* \"#utility.yul\":6722:6725   */\n      dup6\n        /* \"#utility.yul\":6718:6732   */\n      add\n        /* \"#utility.yul\":6704:6716   */\n      dup3\n        /* \"#utility.yul\":6670:6733   */\n      tag_308\n      jump\t// in\n    tag_418:\n        /* \"#utility.yul\":6577:6743   */\n      pop\n        /* \"#utility.yul\":6826:6830   */\n      0x20\n        /* \"#utility.yul\":6819:6824   */\n      dup3\n        /* \"#utility.yul\":6815:6831   */\n      add\n        /* \"#utility.yul\":6809:6832   */\n      mload\n        /* \"#utility.yul\":6845:6908   */\n      tag_419\n        /* \"#utility.yul\":6902:6906   */\n      0x20\n        /* \"#utility.yul\":6897:6900   */\n      dup6\n        /* \"#utility.yul\":6893:6907   */\n      add\n        /* \"#utility.yul\":6879:6891   */\n      dup3\n        /* \"#utility.yul\":6845:6908   */\n      tag_309\n      jump\t// in\n    tag_419:\n        /* \"#utility.yul\":6753:6918   */\n      pop\n        /* \"#utility.yul\":6531:6925   */\n      pop\n        /* \"#utility.yul\":6407:6925   */\n      pop\n      pop\n      jump\t// out\n        /* \"#utility.yul\":6931:7246   */\n    tag_311:\n        /* \"#utility.yul\":7068:7078   */\n      0x00\n        /* \"#utility.yul\":7089:7203   */\n      tag_421\n        /* \"#utility.yul\":7199:7202   */\n      dup4\n        /* \"#utility.yul\":7191:7197   */\n      dup4\n        /* \"#utility.yul\":7089:7203   */\n      tag_310\n      jump\t// in\n    tag_421:\n        /* \"#utility.yul\":7235:7239   */\n      0x40\n        /* \"#utility.yul\":7230:7233   */\n      dup4\n        /* \"#utility.yul\":7226:7240   */\n      add\n        /* \"#utility.yul\":7212:7240   */\n      swap1\n      pop\n        /* \"#utility.yul\":6931:7246   */\n      swap3\n      swap2\n      pop\n      pop\n      jump\t// out\n        /* \"#utility.yul\":7252:7399   */\n    tag_312:\n        /* \"#utility.yul\":7356:7360   */\n      0x00\n        /* \"#utility.yul\":7388:7392   */\n      0x20\n        /* \"#utility.yul\":7383:7386   */\n      dup3\n        /* \"#utility.yul\":7379:7393   */\n      add\n        /* \"#utility.yul\":7371:7393   */\n      swap1\n      pop\n        /* \"#utility.yul\":7252:7399   */\n      swap2\n      swap1\n      pop\n      jump\t// out\n        /* \"#utility.yul\":7487:8491   */\n    tag_313:\n        /* \"#utility.yul\":7674:7677   */\n      0x00\n        /* \"#utility.yul\":7703:7791   */\n      tag_424\n        /* \"#utility.yul\":7785:7790   */\n      dup3\n        /* \"#utility.yul\":7703:7791   */\n      tag_305\n      jump\t// in\n    tag_424:\n        /* \"#utility.yul\":7807:7927   */\n      tag_425\n        /* \"#utility.yul\":7920:7926   */\n      dup2\n        /* \"#utility.yul\":7915:7918   */\n      dup6\n        /* \"#utility.yul\":7807:7927   */\n      tag_306\n      jump\t// in\n    tag_425:\n        /* \"#utility.yul\":7800:7927   */\n      swap4\n      pop\n        /* \"#utility.yul\":7951:8041   */\n      tag_426\n        /* \"#utility.yul\":8035:8040   */\n      dup4\n        /* \"#utility.yul\":7951:8041   */\n      tag_307\n      jump\t// in\n    tag_426:\n        /* \"#utility.yul\":8064:8071   */\n      dup1\n        /* \"#utility.yul\":8095:8096   */\n      0x00\n        /* \"#utility.yul\":8080:8466   */\n    tag_427:\n        /* \"#utility.yul\":8105:8111   */\n      dup4\n        /* \"#utility.yul\":8102:8103   */\n      dup2\n        /* \"#utility.yul\":8099:8112   */\n      lt\n        /* \"#utility.yul\":8080:8466   */\n      iszero\n      tag_429\n      jumpi\n        /* \"#utility.yul\":8181:8187   */\n      dup2\n        /* \"#utility.yul\":8175:8188   */\n      mload\n        /* \"#utility.yul\":8208:8339   */\n      tag_430\n        /* \"#utility.yul\":8335:8338   */\n      dup9\n        /* \"#utility.yul\":8320:8333   */\n      dup3\n        /* \"#utility.yul\":8208:8339   */\n      tag_311\n      jump\t// in\n    tag_430:\n        /* \"#utility.yul\":8201:8339   */\n      swap8\n      pop\n        /* \"#utility.yul\":8362:8456   */\n      tag_431\n        /* \"#utility.yul\":8449:8455   */\n      dup4\n        /* \"#utility.yul\":8362:8456   */\n      tag_312\n      jump\t// in\n    tag_431:\n        /* \"#utility.yul\":8352:8456   */\n      swap3\n      pop\n        /* \"#utility.yul\":8140:8466   */\n      pop\n        /* \"#utility.yul\":8127:8128   */\n      0x01\n        /* \"#utility.yul\":8124:8125   */\n      dup2\n        /* \"#utility.yul\":8120:8129   */\n      add\n        /* \"#utility.yul\":8115:8129   */\n      swap1\n      pop\n        /* \"#utility.yul\":8080:8466   */\n      jump(tag_427)\n    tag_429:\n        /* \"#utility.yul\":8084:8098   */\n      pop\n        /* \"#utility.yul\":8482:8485   */\n      dup6\n        /* \"#utility.yul\":8475:8485   */\n      swap4\n      pop\n        /* \"#utility.yul\":7679:8491   */\n      pop\n      pop\n      pop\n        /* \"#utility.yul\":7487:8491   */\n      swap3\n      swap2\n      pop\n      pop\n      jump\t// out\n        /* \"#utility.yul\":8497:9006   */\n    tag_63:\n        /* \"#utility.yul\":8708:8712   */\n      0x00\n        /* \"#utility.yul\":8746:8748   */\n      0x20\n        /* \"#utility.yul\":8735:8744   */\n      dup3\n        /* \"#utility.yul\":8731:8749   */\n      add\n        /* \"#utility.yul\":8723:8749   */\n      swap1\n      pop\n        /* \"#utility.yul\":8795:8804   */\n      dup2\n        /* \"#utility.yul\":8789:8793   */\n      dup2\n        /* \"#utility.yul\":8785:8805   */\n      sub\n        /* \"#utility.yul\":8781:8782   */\n      0x00\n        /* \"#utility.yul\":8770:8779   */\n      dup4\n        /* \"#utility.yul\":8766:8783   */\n      add\n        /* \"#utility.yul\":8759:8806   */\n      mstore\n        /* \"#utility.yul\":8823:8999   */\n      tag_433\n        /* \"#utility.yul\":8994:8998   */\n      dup2\n        /* \"#utility.yul\":8985:8991   */\n      dup5\n        /* \"#utility.yul\":8823:8999   */\n      tag_313\n      jump\t// in\n    tag_433:\n        /* \"#utility.yul\":8815:8999   */\n      swap1\n      pop\n        /* \"#utility.yul\":8497:9006   */\n      swap3\n      swap2\n      pop\n      pop\n      jump\t// out\n        /* \"#utility.yul\":9012:9341   */\n    tag_73:\n        /* \"#utility.yul\":9071:9077   */\n      0x00\n        /* \"#utility.yul\":9120:9122   */\n      0x20\n        /* \"#utility.yul\":9108:9117   */\n      dup3\n        /* \"#utility.yul\":9099:9106   */\n      dup5\n        /* \"#utility.yul\":9095:9118   */\n      sub\n        /* \"#utility.yul\":9091:9123   */\n      slt\n        /* \"#utility.yul\":9088:9207   */\n      iszero\n      tag_435\n      jumpi\n        /* \"#utility.yul\":9126:9205   */\n      tag_436\n      tag_286\n      jump\t// in\n    tag_436:\n        /* \"#utility.yul\":9088:9207   */\n    tag_435:\n        /* \"#utility.yul\":9246:9247   */\n      0x00\n        /* \"#utility.yul\":9271:9324   */\n      tag_437\n        /* \"#utility.yul\":9316:9323   */\n      dup5\n        /* \"#utility.yul\":9307:9313   */\n      dup3\n        /* \"#utility.yul\":9296:9305   */\n      dup6\n        /* \"#utility.yul\":9292:9314   */\n      add\n        /* \"#utility.yul\":9271:9324   */\n      tag_300\n      jump\t// in\n    tag_437:\n        /* \"#utility.yul\":9261:9324   */\n      swap2\n      pop\n        /* \"#utility.yul\":9217:9334   */\n      pop\n        /* \"#utility.yul\":9012:9341   */\n      swap3\n      swap2\n      pop\n      pop\n      jump\t// out\n        /* \"#utility.yul\":9347:9465   */\n    tag_314:\n        /* \"#utility.yul\":9434:9458   */\n      tag_439\n        /* \"#utility.yul\":9452:9457   */\n      dup2\n        /* \"#utility.yul\":9434:9458   */\n      tag_293\n      jump\t// in\n    tag_439:\n        /* \"#utility.yul\":9429:9432   */\n      dup3\n        /* \"#utility.yul\":9422:9459   */\n      mstore\n        /* \"#utility.yul\":9347:9465   */\n      pop\n      pop\n      jump\t// out\n        /* \"#utility.yul\":9471:9693   */\n    tag_81:\n        /* \"#utility.yul\":9564:9568   */\n      0x00\n        /* \"#utility.yul\":9602:9604   */\n      0x20\n        /* \"#utility.yul\":9591:9600   */\n      dup3\n        /* \"#utility.yul\":9587:9605   */\n      add\n        /* \"#utility.yul\":9579:9605   */\n      swap1\n      pop\n        /* \"#utility.yul\":9615:9686   */\n      tag_441\n        /* \"#utility.yul\":9683:9684   */\n      0x00\n        /* \"#utility.yul\":9672:9681   */\n      dup4\n        /* \"#utility.yul\":9668:9685   */\n      add\n        /* \"#utility.yul\":9659:9665   */\n      dup5\n        /* \"#utility.yul\":9615:9686   */\n      tag_314\n      jump\t// in\n    tag_441:\n        /* \"#utility.yul\":9471:9693   */\n      swap3\n      swap2\n      pop\n      pop\n      jump\t// out\n        /* \"#utility.yul\":9699:9759   */\n    tag_315:\n        /* \"#utility.yul\":9727:9730   */\n      0x00\n        /* \"#utility.yul\":9748:9753   */\n      dup2\n        /* \"#utility.yul\":9741:9753   */\n      swap1\n      pop\n        /* \"#utility.yul\":9699:9759   */\n      swap2\n      swap1\n      pop\n      jump\t// out\n        /* \"#utility.yul\":9765:9907   */\n    tag_316:\n        /* \"#utility.yul\":9815:9824   */\n      0x00\n        /* \"#utility.yul\":9848:9901   */\n      tag_444\n        /* \"#utility.yul\":9866:9900   */\n      tag_445\n        /* \"#utility.yul\":9875:9899   */\n      tag_446\n        /* \"#utility.yul\":9893:9898   */\n      dup5\n        /* \"#utility.yul\":9875:9899   */\n      tag_296\n      jump\t// in\n    tag_446:\n        /* \"#utility.yul\":9866:9900   */\n      tag_315\n      jump\t// in\n    tag_445:\n        /* \"#utility.yul\":9848:9901   */\n      tag_296\n      jump\t// in\n    tag_444:\n        /* \"#utility.yul\":9835:9901   */\n      swap1\n      pop\n        /* \"#utility.yul\":9765:9907   */\n      swap2\n      swap1\n      pop\n      jump\t// out\n        /* \"#utility.yul\":9913:10039   */\n    tag_317:\n        /* \"#utility.yul\":9963:9972   */\n      0x00\n        /* \"#utility.yul\":9996:10033   */\n      tag_448\n        /* \"#utility.yul\":10027:10032   */\n      dup3\n        /* \"#utility.yul\":9996:10033   */\n      tag_316\n      jump\t// in\n    tag_448:\n        /* \"#utility.yul\":9983:10033   */\n      swap1\n      pop\n        /* \"#utility.yul\":9913:10039   */\n      swap2\n      swap1\n      pop\n      jump\t// out\n        /* \"#utility.yul\":10045:10185   */\n    tag_318:\n        /* \"#utility.yul\":10109:10118   */\n      0x00\n        /* \"#utility.yul\":10142:10179   */\n      tag_450\n        /* \"#utility.yul\":10173:10178   */\n      dup3\n        /* \"#utility.yul\":10142:10179   */\n      tag_317\n      jump\t// in\n    tag_450:\n        /* \"#utility.yul\":10129:10179   */\n      swap1\n      pop\n        /* \"#utility.yul\":10045:10185   */\n      swap2\n      swap1\n      pop\n      jump\t// out\n        /* \"#utility.yul\":10191:10350   */\n    tag_319:\n        /* \"#utility.yul\":10292:10343   */\n      tag_452\n        /* \"#utility.yul\":10337:10342   */\n      dup2\n        /* \"#utility.yul\":10292:10343   */\n      tag_318\n      jump\t// in\n    tag_452:\n        /* \"#utility.yul\":10287:10290   */\n      dup3\n        /* \"#utility.yul\":10280:10344   */\n      mstore\n        /* \"#utility.yul\":10191:10350   */\n      pop\n      pop\n      jump\t// out\n        /* \"#utility.yul\":10356:10606   */\n    tag_85:\n        /* \"#utility.yul\":10463:10467   */\n      0x00\n        /* \"#utility.yul\":10501:10503   */\n      0x20\n        /* \"#utility.yul\":10490:10499   */\n      dup3\n        /* \"#utility.yul\":10486:10504   */\n      add\n        /* \"#utility.yul\":10478:10504   */\n      swap1\n      pop\n        /* \"#utility.yul\":10514:10599   */\n      tag_454\n        /* \"#utility.yul\":10596:10597   */\n      0x00\n        /* \"#utility.yul\":10585:10594   */\n      dup4\n        /* \"#utility.yul\":10581:10598   */\n      add\n        /* \"#utility.yul\":10572:10578   */\n      dup5\n        /* \"#utility.yul\":10514:10599   */\n      tag_319\n      jump\t// in\n    tag_454:\n        /* \"#utility.yul\":10356:10606   */\n      swap3\n      swap2\n      pop\n      pop\n      jump\t// out\n        /* \"#utility.yul\":10612:10944   */\n    tag_103:\n        /* \"#utility.yul\":10733:10737   */\n      0x00\n        /* \"#utility.yul\":10771:10773   */\n      0x40\n        /* \"#utility.yul\":10760:10769   */\n      dup3\n        /* \"#utility.yul\":10756:10774   */\n      add\n        /* \"#utility.yul\":10748:10774   */\n      swap1\n      pop\n        /* \"#utility.yul\":10784:10855   */\n      tag_456\n        /* \"#utility.yul\":10852:10853   */\n      0x00\n        /* \"#utility.yul\":10841:10850   */\n      dup4\n        /* \"#utility.yul\":10837:10854   */\n      add\n        /* \"#utility.yul\":10828:10834   */\n      dup6\n        /* \"#utility.yul\":10784:10855   */\n      tag_314\n      jump\t// in\n    tag_456:\n        /* \"#utility.yul\":10865:10937   */\n      tag_457\n        /* \"#utility.yul\":10933:10935   */\n      0x20\n        /* \"#utility.yul\":10922:10931   */\n      dup4\n        /* \"#utility.yul\":10918:10936   */\n      add\n        /* \"#utility.yul\":10909:10915   */\n      dup5\n        /* \"#utility.yul\":10865:10937   */\n      tag_314\n      jump\t// in\n    tag_457:\n        /* \"#utility.yul\":10612:10944   */\n      swap4\n      swap3\n      pop\n      pop\n      pop\n      jump\t// out\n        /* \"#utility.yul\":10950:11067   */\n    tag_320:\n        /* \"#utility.yul\":11059:11060   */\n      0x00\n        /* \"#utility.yul\":11056:11057   */\n      0x00\n        /* \"#utility.yul\":11049:11061   */\n      revert\n        /* \"#utility.yul\":11073:11190   */\n    tag_321:\n        /* \"#utility.yul\":11182:11183   */\n      0x00\n        /* \"#utility.yul\":11179:11180   */\n      0x00\n        /* \"#utility.yul\":11172:11184   */\n      revert\n        /* \"#utility.yul\":11196:11313   */\n    tag_322:\n        /* \"#utility.yul\":11305:11306   */\n      0x00\n        /* \"#utility.yul\":11302:11303   */\n      0x00\n        /* \"#utility.yul\":11295:11307   */\n      revert\n        /* \"#utility.yul\":11333:11886   */\n    tag_323:\n        /* \"#utility.yul\":11391:11399   */\n      0x00\n        /* \"#utility.yul\":11401:11407   */\n      0x00\n        /* \"#utility.yul\":11451:11454   */\n      dup4\n        /* \"#utility.yul\":11444:11448   */\n      0x1f\n        /* \"#utility.yul\":11436:11442   */\n      dup5\n        /* \"#utility.yul\":11432:11449   */\n      add\n        /* \"#utility.yul\":11428:11455   */\n      slt\n        /* \"#utility.yul\":11418:11540   */\n      tag_462\n      jumpi\n        /* \"#utility.yul\":11459:11538   */\n      tag_463\n      tag_320\n      jump\t// in\n    tag_463:\n        /* \"#utility.yul\":11418:11540   */\n    tag_462:\n        /* \"#utility.yul\":11572:11578   */\n      dup3\n        /* \"#utility.yul\":11559:11579   */\n      calldataload\n        /* \"#utility.yul\":11549:11579   */\n      swap1\n      pop\n        /* \"#utility.yul\":11602:11620   */\n      0xffffffffffffffff\n        /* \"#utility.yul\":11594:11600   */\n      dup2\n        /* \"#utility.yul\":11591:11621   */\n      gt\n        /* \"#utility.yul\":11588:11705   */\n      iszero\n      tag_464\n      jumpi\n        /* \"#utility.yul\":11624:11703   */\n      tag_465\n      tag_321\n      jump\t// in\n    tag_465:\n        /* \"#utility.yul\":11588:11705   */\n    tag_464:\n        /* \"#utility.yul\":11738:11742   */\n      0x20\n        /* \"#utility.yul\":11730:11736   */\n      dup4\n        /* \"#utility.yul\":11726:11743   */\n      add\n        /* \"#utility.yul\":11714:11743   */\n      swap2\n      pop\n        /* \"#utility.yul\":11792:11795   */\n      dup4\n        /* \"#utility.yul\":11784:11788   */\n      0x01\n        /* \"#utility.yul\":11776:11782   */\n      dup3\n        /* \"#utility.yul\":11772:11789   */\n      mul\n        /* \"#utility.yul\":11762:11770   */\n      dup4\n        /* \"#utility.yul\":11758:11790   */\n      add\n        /* \"#utility.yul\":11755:11796   */\n      gt\n        /* \"#utility.yul\":11752:11880   */\n      iszero\n      tag_466\n      jumpi\n        /* \"#utility.yul\":11799:11878   */\n      tag_467\n      tag_322\n      jump\t// in\n    tag_467:\n        /* \"#utility.yul\":11752:11880   */\n    tag_466:\n        /* \"#utility.yul\":11333:11886   */\n      swap3\n      pop\n      swap3\n      swap1\n      pop\n      jump\t// out\n        /* \"#utility.yul\":11892:12421   */\n    tag_106:\n        /* \"#utility.yul\":11963:11969   */\n      0x00\n        /* \"#utility.yul\":11971:11977   */\n      0x00\n        /* \"#utility.yul\":12020:12022   */\n      0x20\n        /* \"#utility.yul\":12008:12017   */\n      dup4\n        /* \"#utility.yul\":11999:12006   */\n      dup6\n        /* \"#utility.yul\":11995:12018   */\n      sub\n        /* \"#utility.yul\":11991:12023   */\n      slt\n        /* \"#utility.yul\":11988:12107   */\n      iszero\n      tag_469\n      jumpi\n        /* \"#utility.yul\":12026:12105   */\n      tag_470\n      tag_286\n      jump\t// in\n    tag_470:\n        /* \"#utility.yul\":11988:12107   */\n    tag_469:\n        /* \"#utility.yul\":12174:12175   */\n      0x00\n        /* \"#utility.yul\":12163:12172   */\n      dup4\n        /* \"#utility.yul\":12159:12176   */\n      add\n        /* \"#utility.yul\":12146:12177   */\n      calldataload\n        /* \"#utility.yul\":12204:12222   */\n      0xffffffffffffffff\n        /* \"#utility.yul\":12196:12202   */\n      dup2\n        /* \"#utility.yul\":12193:12223   */\n      gt\n        /* \"#utility.yul\":12190:12307   */\n      iszero\n      tag_471\n      jumpi\n        /* \"#utility.yul\":12226:12305   */\n      tag_472\n      tag_287\n      jump\t// in\n    tag_472:\n        /* \"#utility.yul\":12190:12307   */\n    tag_471:\n        /* \"#utility.yul\":12339:12404   */\n      tag_473\n        /* \"#utility.yul\":12396:12403   */\n      dup6\n        /* \"#utility.yul\":12387:12393   */\n      dup3\n        /* \"#utility.yul\":12376:12385   */\n      dup7\n        /* \"#utility.yul\":12372:12394   */\n      add\n        /* \"#utility.yul\":12339:12404   */\n      tag_323\n      jump\t// in\n    tag_473:\n        /* \"#utility.yul\":12321:12404   */\n      swap3\n      pop\n      swap3\n      pop\n        /* \"#utility.yul\":12117:12414   */\n      pop\n        /* \"#utility.yul\":11892:12421   */\n      swap3\n      pop\n      swap3\n      swap1\n      pop\n      jump\t// out\n        /* \"#utility.yul\":12427:12596   */\n    tag_324:\n        /* \"#utility.yul\":12511:12522   */\n      0x00\n        /* \"#utility.yul\":12545:12551   */\n      dup3\n        /* \"#utility.yul\":12540:12543   */\n      dup3\n        /* \"#utility.yul\":12533:12552   */\n      mstore\n        /* \"#utility.yul\":12585:12589   */\n      0x20\n        /* \"#utility.yul\":12580:12583   */\n      dup3\n        /* \"#utility.yul\":12576:12590   */\n      add\n        /* \"#utility.yul\":12561:12590   */\n      swap1\n      pop\n        /* \"#utility.yul\":12427:12596   */\n      swap3\n      swap2\n      pop\n      pop\n      jump\t// out\n        /* \"#utility.yul\":12602:12774   */\n    tag_325:\n        /* \"#utility.yul\":12742:12766   */\n      0x496e76616c696420706c61796572206164647265737300000000000000000000\n        /* \"#utility.yul\":12738:12739   */\n      0x00\n        /* \"#utility.yul\":12730:12736   */\n      dup3\n        /* \"#utility.yul\":12726:12740   */\n      add\n        /* \"#utility.yul\":12719:12767   */\n      mstore\n        /* \"#utility.yul\":12602:12774   */\n      pop\n      jump\t// out\n        /* \"#utility.yul\":12780:13146   */\n    tag_326:\n        /* \"#utility.yul\":12922:12925   */\n      0x00\n        /* \"#utility.yul\":12943:13010   */\n      tag_477\n        /* \"#utility.yul\":13007:13009   */\n      0x16\n        /* \"#utility.yul\":13002:13005   */\n      dup4\n        /* \"#utility.yul\":12943:13010   */\n      tag_324\n      jump\t// in\n    tag_477:\n        /* \"#utility.yul\":12936:13010   */\n      swap2\n      pop\n        /* \"#utility.yul\":13019:13112   */\n      tag_478\n        /* \"#utility.yul\":13108:13111   */\n      dup3\n        /* \"#utility.yul\":13019:13112   */\n      tag_325\n      jump\t// in\n    tag_478:\n        /* \"#utility.yul\":13137:13139   */\n      0x20\n        /* \"#utility.yul\":13132:13135   */\n      dup3\n        /* \"#utility.yul\":13128:13140   */\n      add\n        /* \"#utility.yul\":13121:13140   */\n      swap1\n      pop\n        /* \"#utility.yul\":12780:13146   */\n      swap2\n      swap1\n      pop\n      jump\t// out\n        /* \"#utility.yul\":13152:13571   */\n    tag_120:\n        /* \"#utility.yul\":13318:13322   */\n      0x00\n        /* \"#utility.yul\":13356:13358   */\n      0x20\n        /* \"#utility.yul\":13345:13354   */\n      dup3\n        /* \"#utility.yul\":13341:13359   */\n      add\n        /* \"#utility.yul\":13333:13359   */\n      swap1\n      pop\n        /* \"#utility.yul\":13405:13414   */\n      dup2\n        /* \"#utility.yul\":13399:13403   */\n      dup2\n        /* \"#utility.yul\":13395:13415   */\n      sub\n        /* \"#utility.yul\":13391:13392   */\n      0x00\n        /* \"#utility.yul\":13380:13389   */\n      dup4\n        /* \"#utility.yul\":13376:13393   */\n      add\n        /* \"#utility.yul\":13369:13416   */\n      mstore\n        /* \"#utility.yul\":13433:13564   */\n      tag_480\n        /* \"#utility.yul\":13559:13563   */\n      dup2\n        /* \"#utility.yul\":13433:13564   */\n      tag_326\n      jump\t// in\n    tag_480:\n        /* \"#utility.yul\":13425:13564   */\n      swap1\n      pop\n        /* \"#utility.yul\":13152:13571   */\n      swap2\n      swap1\n      pop\n      jump\t// out\n        /* \"#utility.yul\":13577:13758   */\n    tag_327:\n        /* \"#utility.yul\":13717:13750   */\n      0x53636f7265206d7573742062652067726561746572207468616e207a65726f00\n        /* \"#utility.yul\":13713:13714   */\n      0x00\n        /* \"#utility.yul\":13705:13711   */\n      dup3\n        /* \"#utility.yul\":13701:13715   */\n      add\n        /* \"#utility.yul\":13694:13751   */\n      mstore\n        /* \"#utility.yul\":13577:13758   */\n      pop\n      jump\t// out\n        /* \"#utility.yul\":13764:14130   */\n    tag_328:\n        /* \"#utility.yul\":13906:13909   */\n      0x00\n        /* \"#utility.yul\":13927:13994   */\n      tag_483\n        /* \"#utility.yul\":13991:13993   */\n      0x1f\n        /* \"#utility.yul\":13986:13989   */\n      dup4\n        /* \"#utility.yul\":13927:13994   */\n      tag_324\n      jump\t// in\n    tag_483:\n        /* \"#utility.yul\":13920:13994   */\n      swap2\n      pop\n        /* \"#utility.yul\":14003:14096   */\n      tag_484\n        /* \"#utility.yul\":14092:14095   */\n      dup3\n        /* \"#utility.yul\":14003:14096   */\n      tag_327\n      jump\t// in\n    tag_484:\n        /* \"#utility.yul\":14121:14123   */\n      0x20\n        /* \"#utility.yul\":14116:14119   */\n      dup3\n        /* \"#utility.yul\":14112:14124   */\n      add\n        /* \"#utility.yul\":14105:14124   */\n      swap1\n      pop\n        /* \"#utility.yul\":13764:14130   */\n      swap2\n      swap1\n      pop\n      jump\t// out\n        /* \"#utility.yul\":14136:14555   */\n    tag_123:\n        /* \"#utility.yul\":14302:14306   */\n      0x00\n        /* \"#utility.yul\":14340:14342   */\n      0x20\n        /* \"#utility.yul\":14329:14338   */\n      dup3\n        /* \"#utility.yul\":14325:14343   */\n      add\n        /* \"#utility.yul\":14317:14343   */\n      swap1\n      pop\n        /* \"#utility.yul\":14389:14398   */\n      dup2\n        /* \"#utility.yul\":14383:14387   */\n      dup2\n        /* \"#utility.yul\":14379:14399   */\n      sub\n        /* \"#utility.yul\":14375:14376   */\n      0x00\n        /* \"#utility.yul\":14364:14373   */\n      dup4\n        /* \"#utility.yul\":14360:14377   */\n      add\n        /* \"#utility.yul\":14353:14400   */\n      mstore\n        /* \"#utility.yul\":14417:14548   */\n      tag_486\n        /* \"#utility.yul\":14543:14547   */\n      dup2\n        /* \"#utility.yul\":14417:14548   */\n      tag_328\n      jump\t// in\n    tag_486:\n        /* \"#utility.yul\":14409:14548   */\n      swap1\n      pop\n        /* \"#utility.yul\":14136:14555   */\n      swap2\n      swap1\n      pop\n      jump\t// out\n        /* \"#utility.yul\":14561:14741   */\n    tag_329:\n        /* \"#utility.yul\":14609:14686   */\n      0x4e487b7100000000000000000000000000000000000000000000000000000000\n        /* \"#utility.yul\":14606:14607   */\n      0x00\n        /* \"#utility.yul\":14599:14687   */\n      mstore\n        /* \"#utility.yul\":14706:14710   */\n      0x11\n        /* \"#utility.yul\":14703:14704   */\n      0x04\n        /* \"#utility.yul\":14696:14711   */\n      mstore\n        /* \"#utility.yul\":14730:14734   */\n      0x24\n        /* \"#utility.yul\":14727:14728   */\n      0x00\n        /* \"#utility.yul\":14720:14735   */\n      revert\n        /* \"#utility.yul\":14747:14938   */\n    tag_128:\n        /* \"#utility.yul\":14787:14790   */\n      0x00\n        /* \"#utility.yul\":14806:14826   */\n      tag_489\n        /* \"#utility.yul\":14824:14825   */\n      dup3\n        /* \"#utility.yul\":14806:14826   */\n      tag_293\n      jump\t// in\n    tag_489:\n        /* \"#utility.yul\":14801:14826   */\n      swap2\n      pop\n        /* \"#utility.yul\":14840:14860   */\n      tag_490\n        /* \"#utility.yul\":14858:14859   */\n      dup4\n        /* \"#utility.yul\":14840:14860   */\n      tag_293\n      jump\t// in\n    tag_490:\n        /* \"#utility.yul\":14835:14860   */\n      swap3\n      pop\n        /* \"#utility.yul\":14883:14884   */\n      dup3\n        /* \"#utility.yul\":14880:14881   */\n      dup3\n        /* \"#utility.yul\":14876:14885   */\n      add\n        /* \"#utility.yul\":14869:14885   */\n      swap1\n      pop\n        /* \"#utility.yul\":14904:14907   */\n      dup1\n        /* \"#utility.yul\":14901:14902   */\n      dup3\n        /* \"#utility.yul\":14898:14908   */\n      gt\n        /* \"#utility.yul\":14895:14931   */\n      iszero\n      tag_491\n      jumpi\n        /* \"#utility.yul\":14911:14929   */\n      tag_492\n      tag_329\n      jump\t// in\n    tag_492:\n        /* \"#utility.yul\":14895:14931   */\n    tag_491:\n        /* \"#utility.yul\":14747:14938   */\n      swap3\n      swap2\n      pop\n      pop\n      jump\t// out\n        /* \"#utility.yul\":14944:15354   */\n    tag_130:\n        /* \"#utility.yul\":14984:14991   */\n      0x00\n        /* \"#utility.yul\":15007:15027   */\n      tag_494\n        /* \"#utility.yul\":15025:15026   */\n      dup3\n        /* \"#utility.yul\":15007:15027   */\n      tag_293\n      jump\t// in\n    tag_494:\n        /* \"#utility.yul\":15002:15027   */\n      swap2\n      pop\n        /* \"#utility.yul\":15041:15061   */\n      tag_495\n        /* \"#utility.yul\":15059:15060   */\n      dup4\n        /* \"#utility.yul\":15041:15061   */\n      tag_293\n      jump\t// in\n    tag_495:\n        /* \"#utility.yul\":15036:15061   */\n      swap3\n      pop\n        /* \"#utility.yul\":15096:15097   */\n      dup3\n        /* \"#utility.yul\":15093:15094   */\n      dup3\n        /* \"#utility.yul\":15089:15098   */\n      mul\n        /* \"#utility.yul\":15118:15148   */\n      tag_496\n        /* \"#utility.yul\":15136:15147   */\n      dup2\n        /* \"#utility.yul\":15118:15148   */\n      tag_293\n      jump\t// in\n    tag_496:\n        /* \"#utility.yul\":15107:15148   */\n      swap2\n      pop\n        /* \"#utility.yul\":15297:15298   */\n      dup3\n        /* \"#utility.yul\":15288:15295   */\n      dup3\n        /* \"#utility.yul\":15284:15299   */\n      div\n        /* \"#utility.yul\":15281:15282   */\n      dup5\n        /* \"#utility.yul\":15278:15300   */\n      eq\n        /* \"#utility.yul\":15258:15259   */\n      dup4\n        /* \"#utility.yul\":15251:15260   */\n      iszero\n        /* \"#utility.yul\":15231:15314   */\n      or\n        /* \"#utility.yul\":15208:15347   */\n      tag_497\n      jumpi\n        /* \"#utility.yul\":15327:15345   */\n      tag_498\n      tag_329\n      jump\t// in\n    tag_498:\n        /* \"#utility.yul\":15208:15347   */\n    tag_497:\n        /* \"#utility.yul\":14992:15354   */\n      pop\n        /* \"#utility.yul\":14944:15354   */\n      swap3\n      swap2\n      pop\n      pop\n      jump\t// out\n        /* \"#utility.yul\":15360:15583   */\n    tag_330:\n        /* \"#utility.yul\":15500:15534   */\n      0x4d756c7469706c696572206d7573742062652067726561746572207468616e20\n        /* \"#utility.yul\":15496:15497   */\n      0x00\n        /* \"#utility.yul\":15488:15494   */\n      dup3\n        /* \"#utility.yul\":15484:15498   */\n      add\n        /* \"#utility.yul\":15477:15535   */\n      mstore\n        /* \"#utility.yul\":15569:15575   */\n      0x7a65726f00000000000000000000000000000000000000000000000000000000\n        /* \"#utility.yul\":15564:15566   */\n      0x20\n        /* \"#utility.yul\":15556:15562   */\n      dup3\n        /* \"#utility.yul\":15552:15567   */\n      add\n        /* \"#utility.yul\":15545:15576   */\n      mstore\n        /* \"#utility.yul\":15360:15583   */\n      pop\n      jump\t// out\n        /* \"#utility.yul\":15589:15955   */\n    tag_331:\n        /* \"#utility.yul\":15731:15734   */\n      0x00\n        /* \"#utility.yul\":15752:15819   */\n      tag_501\n        /* \"#utility.yul\":15816:15818   */\n      0x24\n        /* \"#utility.yul\":15811:15814   */\n      dup4\n        /* \"#utility.yul\":15752:15819   */\n      tag_324\n      jump\t// in\n    tag_501:\n        /* \"#utility.yul\":15745:15819   */\n      swap2\n      pop\n        /* \"#utility.yul\":15828:15921   */\n      tag_502\n        /* \"#utility.yul\":15917:15920   */\n      dup3\n        /* \"#utility.yul\":15828:15921   */\n      tag_330\n      jump\t// in\n    tag_502:\n        /* \"#utility.yul\":15946:15948   */\n      0x40\n        /* \"#utility.yul\":15941:15944   */\n      dup3\n        /* \"#utility.yul\":15937:15949   */\n      add\n        /* \"#utility.yul\":15930:15949   */\n      swap1\n      pop\n        /* \"#utility.yul\":15589:15955   */\n      swap2\n      swap1\n      pop\n      jump\t// out\n        /* \"#utility.yul\":15961:16380   */\n    tag_147:\n        /* \"#utility.yul\":16127:16131   */\n      0x00\n        /* \"#utility.yul\":16165:16167   */\n      0x20\n        /* \"#utility.yul\":16154:16163   */\n      dup3\n        /* \"#utility.yul\":16150:16168   */\n      add\n        /* \"#utility.yul\":16142:16168   */\n      swap1\n      pop\n        /* \"#utility.yul\":16214:16223   */\n      dup2\n        /* \"#utility.yul\":16208:16212   */\n      dup2\n        /* \"#utility.yul\":16204:16224   */\n      sub\n        /* \"#utility.yul\":16200:16201   */\n      0x00\n        /* \"#utility.yul\":16189:16198   */\n      dup4\n        /* \"#utility.yul\":16185:16202   */\n      add\n        /* \"#utility.yul\":16178:16225   */\n      mstore\n        /* \"#utility.yul\":16242:16373   */\n      tag_504\n        /* \"#utility.yul\":16368:16372   */\n      dup2\n        /* \"#utility.yul\":16242:16373   */\n      tag_331\n      jump\t// in\n    tag_504:\n        /* \"#utility.yul\":16234:16373   */\n      swap1\n      pop\n        /* \"#utility.yul\":15961:16380   */\n      swap2\n      swap1\n      pop\n      jump\t// out\n        /* \"#utility.yul\":16386:16556   */\n    tag_332:\n        /* \"#utility.yul\":16526:16548   */\n      0x4f6666736574206f7574206f6620626f756e6473000000000000000000000000\n        /* \"#utility.yul\":16522:16523   */\n      0x00\n        /* \"#utility.yul\":16514:16520   */\n      dup3\n        /* \"#utility.yul\":16510:16524   */\n      add\n        /* \"#utility.yul\":16503:16549   */\n      mstore\n        /* \"#utility.yul\":16386:16556   */\n      pop\n      jump\t// out\n        /* \"#utility.yul\":16562:16928   */\n    tag_333:\n        /* \"#utility.yul\":16704:16707   */\n      0x00\n        /* \"#utility.yul\":16725:16792   */\n      tag_507\n        /* \"#utility.yul\":16789:16791   */\n      0x14\n        /* \"#utility.yul\":16784:16787   */\n      dup4\n        /* \"#utility.yul\":16725:16792   */\n      tag_324\n      jump\t// in\n    tag_507:\n        /* \"#utility.yul\":16718:16792   */\n      swap2\n      pop\n        /* \"#utility.yul\":16801:16894   */\n      tag_508\n        /* \"#utility.yul\":16890:16893   */\n      dup3\n        /* \"#utility.yul\":16801:16894   */\n      tag_332\n      jump\t// in\n    tag_508:\n        /* \"#utility.yul\":16919:16921   */\n      0x20\n        /* \"#utility.yul\":16914:16917   */\n      dup3\n        /* \"#utility.yul\":16910:16922   */\n      add\n        /* \"#utility.yul\":16903:16922   */\n      swap1\n      pop\n        /* \"#utility.yul\":16562:16928   */\n      swap2\n      swap1\n      pop\n      jump\t// out\n        /* \"#utility.yul\":16934:17353   */\n    tag_158:\n        /* \"#utility.yul\":17100:17104   */\n      0x00\n        /* \"#utility.yul\":17138:17140   */\n      0x20\n        /* \"#utility.yul\":17127:17136   */\n      dup3\n        /* \"#utility.yul\":17123:17141   */\n      add\n        /* \"#utility.yul\":17115:17141   */\n      swap1\n      pop\n        /* \"#utility.yul\":17187:17196   */\n      dup2\n        /* \"#utility.yul\":17181:17185   */\n      dup2\n        /* \"#utility.yul\":17177:17197   */\n      sub\n        /* \"#utility.yul\":17173:17174   */\n      0x00\n        /* \"#utility.yul\":17162:17171   */\n      dup4\n        /* \"#utility.yul\":17158:17175   */\n      add\n        /* \"#utility.yul\":17151:17198   */\n      mstore\n        /* \"#utility.yul\":17215:17346   */\n      tag_510\n        /* \"#utility.yul\":17341:17345   */\n      dup2\n        /* \"#utility.yul\":17215:17346   */\n      tag_333\n      jump\t// in\n    tag_510:\n        /* \"#utility.yul\":17207:17346   */\n      swap1\n      pop\n        /* \"#utility.yul\":16934:17353   */\n      swap2\n      swap1\n      pop\n      jump\t// out\n        /* \"#utility.yul\":17359:17553   */\n    tag_160:\n        /* \"#utility.yul\":17399:17403   */\n      0x00\n        /* \"#utility.yul\":17419:17439   */\n      tag_512\n        /* \"#utility.yul\":17437:17438   */\n      dup3\n        /* \"#utility.yul\":17419:17439   */\n      tag_293\n      jump\t// in\n    tag_512:\n        /* \"#utility.yul\":17414:17439   */\n      swap2\n      pop\n        /* \"#utility.yul\":17453:17473   */\n      tag_513\n        /* \"#utility.yul\":17471:17472   */\n      dup4\n        /* \"#utility.yul\":17453:17473   */\n      tag_293\n      jump\t// in\n    tag_513:\n        /* \"#utility.yul\":17448:17473   */\n      swap3\n      pop\n        /* \"#utility.yul\":17497:17498   */\n      dup3\n        /* \"#utility.yul\":17494:17495   */\n      dup3\n        /* \"#utility.yul\":17490:17499   */\n      sub\n        /* \"#utility.yul\":17482:17499   */\n      swap1\n      pop\n        /* \"#utility.yul\":17521:17522   */\n      dup2\n        /* \"#utility.yul\":17515:17519   */\n      dup2\n        /* \"#utility.yul\":17512:17523   */\n      gt\n        /* \"#utility.yul\":17509:17546   */\n      iszero\n      tag_514\n      jumpi\n        /* \"#utility.yul\":17526:17544   */\n      tag_515\n      tag_329\n      jump\t// in\n    tag_515:\n        /* \"#utility.yul\":17509:17546   */\n    tag_514:\n        /* \"#utility.yul\":17359:17553   */\n      swap3\n      swap2\n      pop\n      pop\n      jump\t// out\n        /* \"#utility.yul\":17559:17739   */\n    tag_165:\n        /* \"#utility.yul\":17607:17684   */\n      0x4e487b7100000000000000000000000000000000000000000000000000000000\n        /* \"#utility.yul\":17604:17605   */\n      0x00\n        /* \"#utility.yul\":17597:17685   */\n      mstore\n        /* \"#utility.yul\":17704:17708   */\n      0x41\n        /* \"#utility.yul\":17701:17702   */\n      0x04\n        /* \"#utility.yul\":17694:17709   */\n      mstore\n        /* \"#utility.yul\":17728:17732   */\n      0x24\n        /* \"#utility.yul\":17725:17726   */\n      0x00\n        /* \"#utility.yul\":17718:17733   */\n      revert\n        /* \"#utility.yul\":17745:17925   */\n    tag_180:\n        /* \"#utility.yul\":17793:17870   */\n      0x4e487b7100000000000000000000000000000000000000000000000000000000\n        /* \"#utility.yul\":17790:17791   */\n      0x00\n        /* \"#utility.yul\":17783:17871   */\n      mstore\n        /* \"#utility.yul\":17890:17894   */\n      0x32\n        /* \"#utility.yul\":17887:17888   */\n      0x04\n        /* \"#utility.yul\":17880:17895   */\n      mstore\n        /* \"#utility.yul\":17914:17918   */\n      0x24\n        /* \"#utility.yul\":17911:17912   */\n      0x00\n        /* \"#utility.yul\":17904:17919   */\n      revert\n        /* \"#utility.yul\":17931:18164   */\n    tag_211:\n        /* \"#utility.yul\":17970:17973   */\n      0x00\n        /* \"#utility.yul\":17993:18017   */\n      tag_519\n        /* \"#utility.yul\":18011:18016   */\n      dup3\n        /* \"#utility.yul\":17993:18017   */\n      tag_293\n      jump\t// in\n    tag_519:\n        /* \"#utility.yul\":17984:18017   */\n      swap2\n      pop\n        /* \"#utility.yul\":18039:18105   */\n      0xffffffffffffffffffffffffffffffffffffffffffffffffffffffffffffffff\n        /* \"#utility.yul\":18032:18037   */\n      dup3\n        /* \"#utility.yul\":18029:18106   */\n      sub\n        /* \"#utility.yul\":18026:18129   */\n      tag_520\n      jumpi\n        /* \"#utility.yul\":18109:18127   */\n      tag_521\n      tag_329\n      jump\t// in\n    tag_521:\n        /* \"#utility.yul\":18026:18129   */\n    tag_520:\n        /* \"#utility.yul\":18156:18157   */\n      0x01\n        /* \"#utility.yul\":18149:18154   */\n      dup3\n        /* \"#utility.yul\":18145:18158   */\n      add\n        /* \"#utility.yul\":18138:18158   */\n      swap1\n      pop\n        /* \"#utility.yul\":17931:18164   */\n      swap2\n      swap1\n      pop\n      jump\t// out\n        /* \"#utility.yul\":18170:18502   */\n    tag_237:\n        /* \"#utility.yul\":18291:18295   */\n      0x00\n        /* \"#utility.yul\":18329:18331   */\n      0x40\n        /* \"#utility.yul\":18318:18327   */\n      dup3\n        /* \"#utility.yul\":18314:18332   */\n      add\n        /* \"#utility.yul\":18306:18332   */\n      swap1\n      pop\n        /* \"#utility.yul\":18342:18413   */\n      tag_523\n        /* \"#utility.yul\":18410:18411   */\n      0x00\n        /* \"#utility.yul\":18399:18408   */\n      dup4\n        /* \"#utility.yul\":18395:18412   */\n      add\n        /* \"#utility.yul\":18386:18392   */\n      dup6\n        /* \"#utility.yul\":18342:18413   */\n      tag_298\n      jump\t// in\n    tag_523:\n        /* \"#utility.yul\":18423:18495   */\n      tag_524\n        /* \"#utility.yul\":18491:18493   */\n      0x20\n        /* \"#utility.yul\":18480:18489   */\n      dup4\n        /* \"#utility.yul\":18476:18494   */\n      add\n        /* \"#utility.yul\":18467:18473   */\n      dup5\n        /* \"#utility.yul\":18423:18495   */\n      tag_298\n      jump\t// in\n    tag_524:\n        /* \"#utility.yul\":18170:18502   */\n      swap4\n      swap3\n      pop\n      pop\n      pop\n      jump\t// out\n        /* \"#utility.yul\":18508:18651   */\n    tag_334:\n        /* \"#utility.yul\":18565:18570   */\n      0x00\n        /* \"#utility.yul\":18596:18602   */\n      dup2\n        /* \"#utility.yul\":18590:18603   */\n      mload\n        /* \"#utility.yul\":18581:18603   */\n      swap1\n      pop\n        /* \"#utility.yul\":18612:18645   */\n      tag_526\n        /* \"#utility.yul\":18639:18644   */\n      dup2\n        /* \"#utility.yul\":18612:18645   */\n      tag_294\n      jump\t// in\n    tag_526:\n        /* \"#utility.yul\":18508:18651   */\n      swap3\n      swap2\n      pop\n      pop\n      jump\t// out\n        /* \"#utility.yul\":18657:19008   */\n    tag_241:\n        /* \"#utility.yul\":18727:18733   */\n      0x00\n        /* \"#utility.yul\":18776:18778   */\n      0x20\n        /* \"#utility.yul\":18764:18773   */\n      dup3\n        /* \"#utility.yul\":18755:18762   */\n      dup5\n        /* \"#utility.yul\":18751:18774   */\n      sub\n        /* \"#utility.yul\":18747:18779   */\n      slt\n        /* \"#utility.yul\":18744:18863   */\n      iszero\n      tag_528\n      jumpi\n        /* \"#utility.yul\":18782:18861   */\n      tag_529\n      tag_286\n      jump\t// in\n    tag_529:\n        /* \"#utility.yul\":18744:18863   */\n    tag_528:\n        /* \"#utility.yul\":18902:18903   */\n      0x00\n        /* \"#utility.yul\":18927:18991   */\n      tag_530\n        /* \"#utility.yul\":18983:18990   */\n      dup5\n        /* \"#utility.yul\":18974:18980   */\n      dup3\n        /* \"#utility.yul\":18963:18972   */\n      dup6\n        /* \"#utility.yul\":18959:18981   */\n      add\n        /* \"#utility.yul\":18927:18991   */\n      tag_334\n      jump\t// in\n    tag_530:\n        /* \"#utility.yul\":18917:18991   */\n      swap2\n      pop\n        /* \"#utility.yul\":18873:19001   */\n      pop\n        /* \"#utility.yul\":18657:19008   */\n      swap3\n      swap2\n      pop\n      pop\n      jump\t// out\n        /* \"#utility.yul\":19014:19186   */\n    tag_335:\n        /* \"#utility.yul\":19154:19178   */\n      0x496e73756666696369656e7420616c6c6f77616e636500000000000000000000\n        /* \"#utility.yul\":19150:19151   */\n      0x00\n        /* \"#utility.yul\":19142:19148   */\n      dup3\n        /* \"#utility.yul\":19138:19152   */\n      add\n        /* \"#utility.yul\":19131:19179   */\n      mstore\n        /* \"#utility.yul\":19014:19186   */\n      pop\n      jump\t// out\n        /* \"#utility.yul\":19192:19558   */\n    tag_336:\n        /* \"#utility.yul\":19334:19337   */\n      0x00\n        /* \"#utility.yul\":19355:19422   */\n      tag_533\n        /* \"#utility.yul\":19419:19421   */\n      0x16\n        /* \"#utility.yul\":19414:19417   */\n      dup4\n        /* \"#utility.yul\":19355:19422   */\n      tag_324\n      jump\t// in\n    tag_533:\n        /* \"#utility.yul\":19348:19422   */\n      swap2\n      pop\n        /* \"#utility.yul\":19431:19524   */\n      tag_534\n        /* \"#utility.yul\":19520:19523   */\n      dup3\n        /* \"#utility.yul\":19431:19524   */\n      tag_335\n      jump\t// in\n    tag_534:\n        /* \"#utility.yul\":19549:19551   */\n      0x20\n        /* \"#utility.yul\":19544:19547   */\n      dup3\n        /* \"#utility.yul\":19540:19552   */\n      add\n        /* \"#utility.yul\":19533:19552   */\n      swap1\n      pop\n        /* \"#utility.yul\":19192:19558   */\n      swap2\n      swap1\n      pop\n      jump\t// out\n        /* \"#utility.yul\":19564:19983   */\n    tag_244:\n        /* \"#utility.yul\":19730:19734   */\n      0x00\n        /* \"#utility.yul\":19768:19770   */\n      0x20\n        /* \"#utility.yul\":19757:19766   */\n      dup3\n        /* \"#utility.yul\":19753:19771   */\n      add\n        /* \"#utility.yul\":19745:19771   */\n      swap1\n      pop\n        /* \"#utility.yul\":19817:19826   */\n      dup2\n        /* \"#utility.yul\":19811:19815   */\n      dup2\n        /* \"#utility.yul\":19807:19827   */\n      sub\n        /* \"#utility.yul\":19803:19804   */\n      0x00\n        /* \"#utility.yul\":19792:19801   */\n      dup4\n        /* \"#utility.yul\":19788:19805   */\n      add\n        /* \"#utility.yul\":19781:19828   */\n      mstore\n        /* \"#utility.yul\":19845:19976   */\n      tag_536\n        /* \"#utility.yul\":19971:19975   */\n      dup2\n        /* \"#utility.yul\":19845:19976   */\n      tag_336\n      jump\t// in\n    tag_536:\n        /* \"#utility.yul\":19837:19976   */\n      swap1\n      pop\n        /* \"#utility.yul\":19564:19983   */\n      swap2\n      swap1\n      pop\n      jump\t// out\n        /* \"#utility.yul\":19989:20137   */\n    tag_337:\n        /* \"#utility.yul\":20087:20093   */\n      dup3\n        /* \"#utility.yul\":20082:20085   */\n      dup2\n        /* \"#utility.yul\":20077:20080   */\n      dup4\n        /* \"#utility.yul\":20064:20094   */\n      calldatacopy\n        /* \"#utility.yul\":20128:20129   */\n      0x00\n        /* \"#utility.yul\":20119:20125   */\n      dup4\n        /* \"#utility.yul\":20114:20117   */\n      dup4\n        /* \"#utility.yul\":20110:20126   */\n      add\n        /* \"#utility.yul\":20103:20130   */\n      mstore\n        /* \"#utility.yul\":19989:20137   */\n      pop\n      pop\n      pop\n      jump\t// out\n        /* \"#utility.yul\":20143:20245   */\n    tag_338:\n        /* \"#utility.yul\":20184:20190   */\n      0x00\n        /* \"#utility.yul\":20235:20237   */\n      0x1f\n        /* \"#utility.yul\":20231:20238   */\n      not\n        /* \"#utility.yul\":20226:20228   */\n      0x1f\n        /* \"#utility.yul\":20219:20224   */\n      dup4\n        /* \"#utility.yul\":20215:20229   */\n      add\n        /* \"#utility.yul\":20211:20239   */\n      and\n        /* \"#utility.yul\":20201:20239   */\n      swap1\n      pop\n        /* \"#utility.yul\":20143:20245   */\n      swap2\n      swap1\n      pop\n      jump\t// out\n        /* \"#utility.yul\":20275:20592   */\n    tag_339:\n        /* \"#utility.yul\":20373:20376   */\n      0x00\n        /* \"#utility.yul\":20394:20465   */\n      tag_540\n        /* \"#utility.yul\":20458:20464   */\n      dup4\n        /* \"#utility.yul\":20453:20456   */\n      dup6\n        /* \"#utility.yul\":20394:20465   */\n      tag_324\n      jump\t// in\n    tag_540:\n        /* \"#utility.yul\":20387:20465   */\n      swap4\n      pop\n        /* \"#utility.yul\":20475:20531   */\n      tag_541\n        /* \"#utility.yul\":20524:20530   */\n      dup4\n        /* \"#utility.yul\":20519:20522   */\n      dup6\n        /* \"#utility.yul\":20512:20517   */\n      dup5\n        /* \"#utility.yul\":20475:20531   */\n      tag_337\n      jump\t// in\n    tag_541:\n        /* \"#utility.yul\":20556:20585   */\n      tag_542\n        /* \"#utility.yul\":20578:20584   */\n      dup4\n        /* \"#utility.yul\":20556:20585   */\n      tag_338\n      jump\t// in\n    tag_542:\n        /* \"#utility.yul\":20551:20554   */\n      dup5\n        /* \"#utility.yul\":20547:20586   */\n      add\n        /* \"#utility.yul\":20540:20586   */\n      swap1\n      pop\n        /* \"#utility.yul\":20275:20592   */\n      swap4\n      swap3\n      pop\n      pop\n      pop\n      jump\t// out\n        /* \"#utility.yul\":20598:20931   */\n    tag_248:\n        /* \"#utility.yul\":20721:20725   */\n      0x00\n        /* \"#utility.yul\":20759:20761   */\n      0x20\n        /* \"#utility.yul\":20748:20757   */\n      dup3\n        /* \"#utility.yul\":20744:20762   */\n      add\n        /* \"#utility.yul\":20736:20762   */\n      swap1\n      pop\n        /* \"#utility.yul\":20808:20817   */\n      dup2\n        /* \"#utility.yul\":20802:20806   */\n      dup2\n        /* \"#utility.yul\":20798:20818   */\n      sub\n        /* \"#utility.yul\":20794:20795   */\n      0x00\n        /* \"#utility.yul\":20783:20792   */\n      dup4\n        /* \"#utility.yul\":20779:20796   */\n      add\n        /* \"#utility.yul\":20772:20819   */\n      mstore\n        /* \"#utility.yul\":20836:20924   */\n      tag_544\n        /* \"#utility.yul\":20919:20923   */\n      dup2\n        /* \"#utility.yul\":20910:20916   */\n      dup5\n        /* \"#utility.yul\":20902:20908   */\n      dup7\n        /* \"#utility.yul\":20836:20924   */\n      tag_339\n      jump\t// in\n    tag_544:\n        /* \"#utility.yul\":20828:20924   */\n      swap1\n      pop\n        /* \"#utility.yul\":20598:20931   */\n      swap4\n      swap3\n      pop\n      pop\n      pop\n      jump\t// out\n        /* \"#utility.yul\":20937:21269   */\n    tag_257:\n        /* \"#utility.yul\":21058:21062   */\n      0x00\n        /* \"#utility.yul\":21096:21098   */\n      0x40\n        /* \"#utility.yul\":21085:21094   */\n      dup3\n        /* \"#utility.yul\":21081:21099   */\n      add\n        /* \"#utility.yul\":21073:21099   */\n      swap1\n      pop\n        /* \"#utility.yul\":21109:21180   */\n      tag_546\n        /* \"#utility.yul\":21177:21178   */\n      0x00\n        /* \"#utility.yul\":21166:21175   */\n      dup4\n        /* \"#utility.yul\":21162:21179   */\n      add\n        /* \"#utility.yul\":21153:21159   */\n      dup6\n        /* \"#utility.yul\":21109:21180   */\n      tag_298\n      jump\t// in\n    tag_546:\n        /* \"#utility.yul\":21190:21262   */\n      tag_547\n        /* \"#utility.yul\":21258:21260   */\n      0x20\n        /* \"#utility.yul\":21247:21256   */\n      dup4\n        /* \"#utility.yul\":21243:21261   */\n      add\n        /* \"#utility.yul\":21234:21240   */\n      dup5\n        /* \"#utility.yul\":21190:21262   */\n      tag_314\n      jump\t// in\n    tag_547:\n        /* \"#utility.yul\":20937:21269   */\n      swap4\n      swap3\n      pop\n      pop\n      pop\n      jump\t// out\n        /* \"#utility.yul\":21275:21717   */\n    tag_273:\n        /* \"#utility.yul\":21424:21428   */\n      0x00\n        /* \"#utility.yul\":21462:21464   */\n      0x60\n        /* \"#utility.yul\":21451:21460   */\n      dup3\n        /* \"#utility.yul\":21447:21465   */\n      add\n        /* \"#utility.yul\":21439:21465   */\n      swap1\n      pop\n        /* \"#utility.yul\":21475:21546   */\n      tag_549\n        /* \"#utility.yul\":21543:21544   */\n      0x00\n        /* \"#utility.yul\":21532:21541   */\n      dup4\n        /* \"#utility.yul\":21528:21545   */\n      add\n        /* \"#utility.yul\":21519:21525   */\n      dup7\n        /* \"#utility.yul\":21475:21546   */\n      tag_298\n      jump\t// in\n    tag_549:\n        /* \"#utility.yul\":21556:21628   */\n      tag_550\n        /* \"#utility.yul\":21624:21626   */\n      0x20\n        /* \"#utility.yul\":21613:21622   */\n      dup4\n        /* \"#utility.yul\":21609:21627   */\n      add\n        /* \"#utility.yul\":21600:21606   */\n      dup6\n        /* \"#utility.yul\":21556:21628   */\n      tag_298\n      jump\t// in\n    tag_550:\n        /* \"#utility.yul\":21638:21710   */\n      tag_551\n        /* \"#utility.yul\":21706:21708   */\n      0x40\n        /* \"#utility.yul\":21695:21704   */\n      dup4\n        /* \"#utility.yul\":21691:21709   */\n      add\n        /* \"#utility.yul\":21682:21688   */\n      dup5\n        /* \"#utility.yul\":21638:21710   */\n      tag_314\n      jump\t// in\n    tag_551:\n        /* \"#utility.yul\":21275:21717   */\n      swap5\n      swap4\n      pop\n      pop\n      pop\n      pop\n      jump\t// out\n        /* \"#utility.yul\":21723:22055   */\n    tag_278:\n        /* \"#utility.yul\":21844:21848   */\n      0x00\n        /* \"#utility.yul\":21882:21884   */\n      0x40\n        /* \"#utility.yul\":21871:21880   */\n      dup3\n        /* \"#utility.yul\":21867:21885   */\n      add\n        /* \"#utility.yul\":21859:21885   */\n      swap1\n      pop\n        /* \"#utility.yul\":21895:21966   */\n      tag_553\n        /* \"#utility.yul\":21963:21964   */\n      0x00\n        /* \"#utility.yul\":21952:21961   */\n      dup4\n        /* \"#utility.yul\":21948:21965   */\n      add\n        /* \"#utility.yul\":21939:21945   */\n      dup6\n        /* \"#utility.yul\":21895:21966   */\n      tag_298\n      jump\t// in\n    tag_553:\n        /* \"#utility.yul\":21976:22048   */\n      tag_554\n        /* \"#utility.yul\":22044:22046   */\n      0x20\n        /* \"#utility.yul\":22033:22042   */\n      dup4\n        /* \"#utility.yul\":22029:22047   */\n      add\n        /* \"#utility.yul\":22020:22026   */\n      dup5\n        /* \"#utility.yul\":21976:22048   */\n      tag_304\n      jump\t// in\n    tag_554:\n        /* \"#utility.yul\":21723:22055   */\n      swap4\n      swap3\n      pop\n      pop\n      pop\n      jump\t// out\n\n    auxdata: 0xa2646970667358221220aff86586eed2327a3fe5c5a9fa48719d66c53f90dcbda49ad893d0d52f5e7ac364736f6c634300081e0033\n}\n",
				"bytecode": {
					"linkReferences": {},
					"object": "60806040526001600255348015610014575f5ffd5b506040516122933803806122938339818101604052810190610036919061027d565b8060015f6101000a81548173ffffffffffffffffffffffffffffffffffffffff021916908373ffffffffffffffffffffffffffffffffffffffff1602179055506100885f5f1b336100c060201b60201c565b506100b97fa49807205ce4d355092ef5a8a18f56e8913cf4a201fbe287825b095693c21775336100c060201b60201c565b50506102a8565b5f6100d183836101b560201b60201c565b6101ab5760015f5f8581526020019081526020015f205f015f8473ffffffffffffffffffffffffffffffffffffffff1673ffffffffffffffffffffffffffffffffffffffff1681526020019081526020015f205f6101000a81548160ff02191690831515021790555061014861021860201b60201c565b73ffffffffffffffffffffffffffffffffffffffff168273ffffffffffffffffffffffffffffffffffffffff16847f2f8788117e7eff1d82e926ec794901d17c78024a50270940304540a733656f0d60405160405180910390a4600190506101af565b5f90505b92915050565b5f5f5f8481526020019081526020015f205f015f8373ffffffffffffffffffffffffffffffffffffffff1673ffffffffffffffffffffffffffffffffffffffff1681526020019081526020015f205f9054906101000a900460ff16905092915050565b5f33905090565b5f5ffd5b5f73ffffffffffffffffffffffffffffffffffffffff82169050919050565b5f61024c82610223565b9050919050565b61025c81610242565b8114610266575f5ffd5b50565b5f8151905061027781610253565b92915050565b5f602082840312156102925761029161021f565b5b5f61029f84828501610269565b91505092915050565b611fde806102b55f395ff3fe608060405234801561000f575f5ffd5b506004361061012a575f3560e01c80639a19c7b0116100ab578063d12af19a1161006f578063d12af19a1461033e578063d47875d01461035c578063d547741f1461038c578063e2eb41ff146103a8578063ed4b7eaa146103d95761012a565b80639a19c7b0146102ac578063a217fddf146102c8578063ba3f5a12146102e6578063c3dfdae614610304578063c634b78e146103225761012a565b80633596362b116100f25780633596362b146101f657806336568abe1461021257806373af16fc1461022e57806375b238fc1461025e57806391d148541461027c5761012a565b806301ffc9a71461012e57806315c6aee21461015e5780631db544c01461018e578063248a9ca3146101aa5780632f2ff15d146101da575b5f5ffd5b61014860048036038101906101439190611575565b6103f5565b60405161015591906115ba565b60405180910390f35b61017860048036038101906101739190611606565b61046e565b6040516101859190611670565b60405180910390f35b6101a860048036038101906101a391906116b3565b6104a9565b005b6101c460048036038101906101bf9190611724565b610819565b6040516101d1919061175e565b60405180910390f35b6101f460048036038101906101ef9190611777565b610835565b005b610210600480360381019061020b9190611606565b610857565b005b61022c60048036038101906102279190611777565b610905565b005b610248600480360381019061024391906117b5565b610980565b60405161025591906118e6565b60405180910390f35b610266610d53565b604051610273919061175e565b60405180910390f35b61029660048036038101906102919190611777565b610d77565b6040516102a391906115ba565b60405180910390f35b6102c660048036038101906102c19190611906565b610dda565b005b6102d0610e14565b6040516102dd919061175e565b60405180910390f35b6102ee610e1a565b6040516102fb9190611940565b60405180910390f35b61030c610e20565b60405161031991906119b4565b60405180910390f35b61033c60048036038101906103379190611906565b610e45565b005b610346610e7f565b6040516103539190611940565b60405180910390f35b61037660048036038101906103719190611906565b610e8c565b6040516103839190611940565b60405180910390f35b6103a660048036038101906103a19190611777565b610ed4565b005b6103c260048036038101906103bd9190611906565b610ef6565b6040516103d09291906119cd565b60405180910390f35b6103f360048036038101906103ee9190611a55565b610f16565b005b5f7f7965db0b000000000000000000000000000000000000000000000000000000007bffffffffffffffffffffffffffffffffffffffffffffffffffffffff1916827bffffffffffffffffffffffffffffffffffffffffffffffffffffffff191614806104675750610466826110a7565b5b9050919050565b6004818154811061047d575f80fd5b905f5260205f20015f915054906101000a900473ffffffffffffffffffffffffffffffffffffffff1681565b7fa49807205ce4d355092ef5a8a18f56e8913cf4a201fbe287825b095693c217756104d381611110565b5f73ffffffffffffffffffffffffffffffffffffffff168373ffffffffffffffffffffffffffffffffffffffff1603610541576040517f08c379a000000000000000000000000000000000000000000000000000000000815260040161053890611afa565b60405180910390fd5b5f8211610583576040517f08c379a000000000000000000000000000000000000000000000000000000000815260040161057a90611b62565b60405180910390fd5b5f60035f8573ffffffffffffffffffffffffffffffffffffffff1673ffffffffffffffffffffffffffffffffffffffff1681526020019081526020015f205f015414801561061057505f60035f8573ffffffffffffffffffffffffffffffffffffffff1673ffffffffffffffffffffffffffffffffffffffff1681526020019081526020015f2060010154145b156106b957600483908060018154018082558091505060019003905f5260205f20015f9091909190916101000a81548173ffffffffffffffffffffffffffffffffffffffff021916908373ffffffffffffffffffffffffffffffffffffffff1602179055508273ffffffffffffffffffffffffffffffffffffffff167ff2ae205522024c14e5a7a26ba6d1fb1252dc8e161b5abc79ed5795fd3c5b926160405160405180910390a25b8160035f8573ffffffffffffffffffffffffffffffffffffffff1673ffffffffffffffffffffffffffffffffffffffff1681526020019081526020015f205f015f8282546107079190611bad565b925050819055504260035f8573ffffffffffffffffffffffffffffffffffffffff1673ffffffffffffffffffffffffffffffffffffffff1681526020019081526020015f20600101819055505f670de0b6b3a76400006002548461076b9190611be0565b6107759190611be0565b90506107c3848260015f9054906101000a900473ffffffffffffffffffffffffffffffffffffffff1673ffffffffffffffffffffffffffffffffffffffff166111249092919063ffffffff16565b8373ffffffffffffffffffffffffffffffffffffffff167fb7f20d0949b6a8bc59d005af4a52f7ff5d0cfcde9056fa556adb0e4b24dcb6d2848360405161080b9291906119cd565b60405180910390a250505050565b5f5f5f8381526020019081526020015f20600101549050919050565b61083e82610819565b61084781611110565b61085183836111a3565b50505050565b7fa49807205ce4d355092ef5a8a18f56e8913cf4a201fbe287825b095693c2177561088181611110565b5f82116108c3576040517f08c379a00000000000000000000000000000000000000000000000000000000081526004016108ba90611c91565b60405180910390fd5b816002819055507fe6b19b2c6617851a0f4c49df91138e172046ffa3fc94114d4a7294d0e4362dd6826040516108f99190611940565b60405180910390a15050565b61090d61128c565b73ffffffffffffffffffffffffffffffffffffffff168173ffffffffffffffffffffffffffffffffffffffff1614610971576040517f6697b23200000000000000000000000000000000000000000000000000000000815260040160405180910390fd5b61097b8282611293565b505050565b606060048054905083106109c9576040517f08c379a00000000000000000000000000000000000000000000000000000000081526004016109c090611cf9565b60405180910390fd5b5f836004805490506109db9190611d17565b90505f8184116109eb57836109ed565b815b90505f8167ffffffffffffffff811115610a0a57610a09611d4a565b5b604051908082528060200260200182016040528015610a4357816020015b610a306114ea565b815260200190600190039081610a285790505b5090505f60048054905067ffffffffffffffff811115610a6657610a65611d4a565b5b604051908082528060200260200182016040528015610a9f57816020015b610a8c6114ea565b815260200190600190039081610a845790505b5090505f5f90505b600480549050811015610bbf57604051806040016040528060048381548110610ad357610ad2611d77565b5b905f5260205f20015f9054906101000a900473ffffffffffffffffffffffffffffffffffffffff1673ffffffffffffffffffffffffffffffffffffffff16815260200160035f60048581548110610b2d57610b2c611d77565b5b905f5260205f20015f9054906101000a900473ffffffffffffffffffffffffffffffffffffffff1673ffffffffffffffffffffffffffffffffffffffff1673ffffffffffffffffffffffffffffffffffffffff1681526020019081526020015f205f0154815250828281518110610ba757610ba6611d77565b5b60200260200101819052508080600101915050610aa7565b505f5f90505b815181108015610bdf57508388610bdc9190611bad565b81105b15610ce6575f8190505f600183610bf69190611bad565b90505b8351811015610c5757838281518110610c1557610c14611d77565b5b602002602001015160200151848281518110610c3457610c33611d77565b5b6020026020010151602001511115610c4a578091505b8080600101915050610bf9565b50818114610cd257828181518110610c7257610c71611d77565b5b6020026020010151838381518110610c8d57610c8c611d77565b5b6020026020010151848481518110610ca857610ca7611d77565b5b60200260200101858481518110610cc257610cc1611d77565b5b6020026020010182905282905250505b508080610cde90611da4565b915050610bc5565b505f5f90505b83811015610d4557818189610d019190611bad565b81518110610d1257610d11611d77565b5b6020026020010151838281518110610d2d57610d2c611d77565b5b60200260200101819052508080600101915050610cec565b508194505050505092915050565b7fa49807205ce4d355092ef5a8a18f56e8913cf4a201fbe287825b095693c2177581565b5f5f5f8481526020019081526020015f205f015f8373ffffffffffffffffffffffffffffffffffffffff1673ffffffffffffffffffffffffffffffffffffffff1681526020019081526020015f205f9054906101000a900460ff16905092915050565b5f5f1b610de681611110565b610e107fa49807205ce4d355092ef5a8a18f56e8913cf4a201fbe287825b095693c2177583610ed4565b5050565b5f5f1b81565b60025481565b60015f9054906101000a900473ffffffffffffffffffffffffffffffffffffffff1681565b5f5f1b610e5181611110565b610e7b7fa49807205ce4d355092ef5a8a18f56e8913cf4a201fbe287825b095693c2177583610835565b5050565b68056bc75e2d6310000081565b5f60035f8373ffffffffffffffffffffffffffffffffffffffff1673ffffffffffffffffffffffffffffffffffffffff1681526020019081526020015f205f01549050919050565b610edd82610819565b610ee681611110565b610ef08383611293565b50505050565b6003602052805f5260405f205f91509050805f0154908060010154905082565b68056bc75e2d6310000060015f9054906101000a900473ffffffffffffffffffffffffffffffffffffffff1673ffffffffffffffffffffffffffffffffffffffff1663dd62ed3e33306040518363ffffffff1660e01b8152600401610f7c929190611deb565b602060405180830381865afa158015610f97573d5f5f3e3d5ffd5b505050506040513d601f19601f82011682018060405250810190610fbb9190611e26565b1015610ffc576040517f08c379a0000000000000000000000000000000000000000000000000000000008152600401610ff390611e9b565b60405180910390fd5b611053333068056bc75e2d6310000060015f9054906101000a900473ffffffffffffffffffffffffffffffffffffffff1673ffffffffffffffffffffffffffffffffffffffff1661137c909392919063ffffffff16565b3373ffffffffffffffffffffffffffffffffffffffff167f769873612369de25d7a32b1071976767e3071b8182b9353e1cd5d6cf25b33dca838360405161109b929190611f03565b60405180910390a25050565b5f7f01ffc9a7000000000000000000000000000000000000000000000000000000007bffffffffffffffffffffffffffffffffffffffffffffffffffffffff1916827bffffffffffffffffffffffffffffffffffffffffffffffffffffffff1916149050919050565b6111218161111c61128c565b6113fe565b50565b61119e838473ffffffffffffffffffffffffffffffffffffffff1663a9059cbb8585604051602401611157929190611f25565b604051602081830303815290604052915060e01b6020820180517bffffffffffffffffffffffffffffffffffffffffffffffffffffffff838183161783525050505061144f565b505050565b5f6111ae8383610d77565b6112825760015f5f8581526020019081526020015f205f015f8473ffffffffffffffffffffffffffffffffffffffff1673ffffffffffffffffffffffffffffffffffffffff1681526020019081526020015f205f6101000a81548160ff02191690831515021790555061121f61128c565b73ffffffffffffffffffffffffffffffffffffffff168273ffffffffffffffffffffffffffffffffffffffff16847f2f8788117e7eff1d82e926ec794901d17c78024a50270940304540a733656f0d60405160405180910390a460019050611286565b5f90505b92915050565b5f33905090565b5f61129e8383610d77565b15611372575f5f5f8581526020019081526020015f205f015f8473ffffffffffffffffffffffffffffffffffffffff1673ffffffffffffffffffffffffffffffffffffffff1681526020019081526020015f205f6101000a81548160ff02191690831515021790555061130f61128c565b73ffffffffffffffffffffffffffffffffffffffff168273ffffffffffffffffffffffffffffffffffffffff16847ff6391f5c32d9c69d2a47ea670b442974b53935d1edc7fd64eb21e047a839171b60405160405180910390a460019050611376565b5f90505b92915050565b6113f8848573ffffffffffffffffffffffffffffffffffffffff166323b872dd8686866040516024016113b193929190611f4c565b604051602081830303815290604052915060e01b6020820180517bffffffffffffffffffffffffffffffffffffffffffffffffffffffff838183161783525050505061144f565b50505050565b6114088282610d77565b61144b5780826040517fe2517d3f000000000000000000000000000000000000000000000000000000008152600401611442929190611f81565b60405180910390fd5b5050565b5f5f60205f8451602086015f885af18061146e576040513d5f823e3d81fd5b3d92505f519150505f82146114875760018114156114a2565b5f8473ffffffffffffffffffffffffffffffffffffffff163b145b156114e457836040517f5274afe70000000000000000000000000000000000000000000000000000000081526004016114db9190611670565b60405180910390fd5b50505050565b60405180604001604052805f73ffffffffffffffffffffffffffffffffffffffff1681526020015f81525090565b5f5ffd5b5f5ffd5b5f7fffffffff0000000000000000000000000000000000000000000000000000000082169050919050565b61155481611520565b811461155e575f5ffd5b50565b5f8135905061156f8161154b565b92915050565b5f6020828403121561158a57611589611518565b5b5f61159784828501611561565b91505092915050565b5f8115159050919050565b6115b4816115a0565b82525050565b5f6020820190506115cd5f8301846115ab565b92915050565b5f819050919050565b6115e5816115d3565b81146115ef575f5ffd5b50565b5f81359050611600816115dc565b92915050565b5f6020828403121561161b5761161a611518565b5b5f611628848285016115f2565b91505092915050565b5f73ffffffffffffffffffffffffffffffffffffffff82169050919050565b5f61165a82611631565b9050919050565b61166a81611650565b82525050565b5f6020820190506116835f830184611661565b92915050565b61169281611650565b811461169c575f5ffd5b50565b5f813590506116ad81611689565b92915050565b5f5f604083850312156116c9576116c8611518565b5b5f6116d68582860161169f565b92505060206116e7858286016115f2565b9150509250929050565b5f819050919050565b611703816116f1565b811461170d575f5ffd5b50565b5f8135905061171e816116fa565b92915050565b5f6020828403121561173957611738611518565b5b5f61174684828501611710565b91505092915050565b611758816116f1565b82525050565b5f6020820190506117715f83018461174f565b92915050565b5f5f6040838503121561178d5761178c611518565b5b5f61179a85828601611710565b92505060206117ab8582860161169f565b9150509250929050565b5f5f604083850312156117cb576117ca611518565b5b5f6117d8858286016115f2565b92505060206117e9858286016115f2565b9150509250929050565b5f81519050919050565b5f82825260208201905092915050565b5f819050602082019050919050565b61182581611650565b82525050565b611834816115d3565b82525050565b604082015f82015161184e5f85018261181c565b506020820151611861602085018261182b565b50505050565b5f611872838361183a565b60408301905092915050565b5f602082019050919050565b5f611894826117f3565b61189e81856117fd565b93506118a98361180d565b805f5b838110156118d95781516118c08882611867565b97506118cb8361187e565b9250506001810190506118ac565b5085935050505092915050565b5f6020820190508181035f8301526118fe818461188a565b905092915050565b5f6020828403121561191b5761191a611518565b5b5f6119288482850161169f565b91505092915050565b61193a816115d3565b82525050565b5f6020820190506119535f830184611931565b92915050565b5f819050919050565b5f61197c61197761197284611631565b611959565b611631565b9050919050565b5f61198d82611962565b9050919050565b5f61199e82611983565b9050919050565b6119ae81611994565b82525050565b5f6020820190506119c75f8301846119a5565b92915050565b5f6040820190506119e05f830185611931565b6119ed6020830184611931565b9392505050565b5f5ffd5b5f5ffd5b5f5ffd5b5f5f83601f840112611a1557611a146119f4565b5b8235905067ffffffffffffffff811115611a3257611a316119f8565b5b602083019150836001820283011115611a4e57611a4d6119fc565b5b9250929050565b5f5f60208385031215611a6b57611a6a611518565b5b5f83013567ffffffffffffffff811115611a8857611a8761151c565b5b611a9485828601611a00565b92509250509250929050565b5f82825260208201905092915050565b7f496e76616c696420706c617965722061646472657373000000000000000000005f82015250565b5f611ae4601683611aa0565b9150611aef82611ab0565b602082019050919050565b5f6020820190508181035f830152611b1181611ad8565b9050919050565b7f53636f7265206d7573742062652067726561746572207468616e207a65726f005f82015250565b5f611b4c601f83611aa0565b9150611b5782611b18565b602082019050919050565b5f6020820190508181035f830152611b7981611b40565b9050919050565b7f4e487b71000000000000000000000000000000000000000000000000000000005f52601160045260245ffd5b5f611bb7826115d3565b9150611bc2836115d3565b9250828201905080821115611bda57611bd9611b80565b5b92915050565b5f611bea826115d3565b9150611bf5836115d3565b9250828202611c03816115d3565b91508282048414831517611c1a57611c19611b80565b5b5092915050565b7f4d756c7469706c696572206d7573742062652067726561746572207468616e205f8201527f7a65726f00000000000000000000000000000000000000000000000000000000602082015250565b5f611c7b602483611aa0565b9150611c8682611c21565b604082019050919050565b5f6020820190508181035f830152611ca881611c6f565b9050919050565b7f4f6666736574206f7574206f6620626f756e64730000000000000000000000005f82015250565b5f611ce3601483611aa0565b9150611cee82611caf565b602082019050919050565b5f6020820190508181035f830152611d1081611cd7565b9050919050565b5f611d21826115d3565b9150611d2c836115d3565b9250828203905081811115611d4457611d43611b80565b5b92915050565b7f4e487b71000000000000000000000000000000000000000000000000000000005f52604160045260245ffd5b7f4e487b71000000000000000000000000000000000000000000000000000000005f52603260045260245ffd5b5f611dae826115d3565b91507fffffffffffffffffffffffffffffffffffffffffffffffffffffffffffffffff8203611de057611ddf611b80565b5b600182019050919050565b5f604082019050611dfe5f830185611661565b611e0b6020830184611661565b9392505050565b5f81519050611e20816115dc565b92915050565b5f60208284031215611e3b57611e3a611518565b5b5f611e4884828501611e12565b91505092915050565b7f496e73756666696369656e7420616c6c6f77616e6365000000000000000000005f82015250565b5f611e85601683611aa0565b9150611e9082611e51565b602082019050919050565b5f6020820190508181035f830152611eb281611e79565b9050919050565b828183375f83830152505050565b5f601f19601f8301169050919050565b5f611ee28385611aa0565b9350611eef838584611eb9565b611ef883611ec7565b840190509392505050565b5f6020820190508181035f830152611f1c818486611ed7565b90509392505050565b5f604082019050611f385f830185611661565b611f456020830184611931565b9392505050565b5f606082019050611f5f5f830186611661565b611f6c6020830185611661565b611f796040830184611931565b949350505050565b5f604082019050611f945f830185611661565b611fa1602083018461174f565b939250505056fea2646970667358221220aff86586eed2327a3fe5c5a9fa48719d66c53f90dcbda49ad893d0d52f5e7ac364736f6c634300081e0033",
					"opcodes": "PUSH1 0x80 PUSH1 0x40 MSTORE PUSH1 0x1 PUSH1 0x2 SSTORE CALLVALUE DUP1 ISZERO PUSH2 0x14 JUMPI PUSH0 PUSH0 REVERT JUMPDEST POP PUSH1 0x40 MLOAD PUSH2 0x2293 CODESIZE SUB DUP1 PUSH2 0x2293 DUP4 CODECOPY DUP2 DUP2 ADD PUSH1 0x40 MSTORE DUP2 ADD SWAP1 PUSH2 0x36 SWAP2 SWAP1 PUSH2 0x27D JUMP JUMPDEST DUP1 PUSH1 0x1 PUSH0 PUSH2 0x100 EXP DUP2 SLOAD DUP2 PUSH20 0xFFFFFFFFFFFFFFFFFFFFFFFFFFFFFFFFFFFFFFFF MUL NOT AND SWAP1 DUP4 PUSH20 0xFFFFFFFFFFFFFFFFFFFFFFFFFFFFFFFFFFFFFFFF AND MUL OR SWAP1 SSTORE POP PUSH2 0x88 PUSH0 PUSH0 SHL CALLER PUSH2 0xC0 PUSH1 0x20 SHL PUSH1 0x20 SHR JUMP JUMPDEST POP PUSH2 0xB9 PUSH32 0xA49807205CE4D355092EF5A8A18F56E8913CF4A201FBE287825B095693C21775 CALLER PUSH2 0xC0 PUSH1 0x20 SHL PUSH1 0x20 SHR JUMP JUMPDEST POP POP PUSH2 0x2A8 JUMP JUMPDEST PUSH0 PUSH2 0xD1 DUP4 DUP4 PUSH2 0x1B5 PUSH1 0x20 SHL PUSH1 0x20 SHR JUMP JUMPDEST PUSH2 0x1AB JUMPI PUSH1 0x1 PUSH0 PUSH0 DUP6 DUP2 MSTORE PUSH1 0x20 ADD SWAP1 DUP2 MSTORE PUSH1 0x20 ADD PUSH0 KECCAK256 PUSH0 ADD PUSH0 DUP5 PUSH20 0xFFFFFFFFFFFFFFFFFFFFFFFFFFFFFFFFFFFFFFFF AND PUSH20 0xFFFFFFFFFFFFFFFFFFFFFFFFFFFFFFFFFFFFFFFF AND DUP2 MSTORE PUSH1 0x20 ADD SWAP1 DUP2 MSTORE PUSH1 0x20 ADD PUSH0 KECCAK256 PUSH0 PUSH2 0x100 EXP DUP2 SLOAD DUP2 PUSH1 0xFF MUL NOT AND SWAP1 DUP4 ISZERO ISZERO MUL OR SWAP1 SSTORE POP PUSH2 0x148 PUSH2 0x218 PUSH1 0x20 SHL PUSH1 0x20 SHR JUMP JUMPDEST PUSH20 0xFFFFFFFFFFFFFFFFFFFFFFFFFFFFFFFFFFFFFFFF AND DUP3 PUSH20 0xFFFFFFFFFFFFFFFFFFFFFFFFFFFFFFFFFFFFFFFF AND DUP5 PUSH32 0x2F8788117E7EFF1D82E926EC794901D17C78024A50270940304540A733656F0D PUSH1 0x40 MLOAD PUSH1 0x40 MLOAD DUP1 SWAP2 SUB SWAP1 LOG4 PUSH1 0x1 SWAP1 POP PUSH2 0x1AF JUMP JUMPDEST PUSH0 SWAP1 POP JUMPDEST SWAP3 SWAP2 POP POP JUMP JUMPDEST PUSH0 PUSH0 PUSH0 DUP5 DUP2 MSTORE PUSH1 0x20 ADD SWAP1 DUP2 MSTORE PUSH1 0x20 ADD PUSH0 KECCAK256 PUSH0 ADD PUSH0 DUP4 PUSH20 0xFFFFFFFFFFFFFFFFFFFFFFFFFFFFFFFFFFFFFFFF AND PUSH20 0xFFFFFFFFFFFFFFFFFFFFFFFFFFFFFFFFFFFFFFFF AND DUP2 MSTORE PUSH1 0x20 ADD SWAP1 DUP2 MSTORE PUSH1 0x20 ADD PUSH0 KECCAK256 PUSH0 SWAP1 SLOAD SWAP1 PUSH2 0x100 EXP SWAP1 DIV PUSH1 0xFF AND SWAP1 POP SWAP3 SWAP2 POP POP JUMP JUMPDEST PUSH0 CALLER SWAP1 POP SWAP1 JUMP JUMPDEST PUSH0 PUSH0 REVERT JUMPDEST PUSH0 PUSH20 0xFFFFFFFFFFFFFFFFFFFFFFFFFFFFFFFFFFFFFFFF DUP3 AND SWAP1 POP SWAP2 SWAP1 POP JUMP JUMPDEST PUSH0 PUSH2 0x24C DUP3 PUSH2 0x223 JUMP JUMPDEST SWAP1 POP SWAP2 SWAP1 POP JUMP JUMPDEST PUSH2 0x25C DUP2 PUSH2 0x242 JUMP JUMPDEST DUP2 EQ PUSH2 0x266 JUMPI PUSH0 PUSH0 REVERT JUMPDEST POP JUMP JUMPDEST PUSH0 DUP2 MLOAD SWAP1 POP PUSH2 0x277 DUP2 PUSH2 0x253 JUMP JUMPDEST SWAP3 SWAP2 POP POP JUMP JUMPDEST PUSH0 PUSH1 0x20 DUP3 DUP5 SUB SLT ISZERO PUSH2 0x292 JUMPI PUSH2 0x291 PUSH2 0x21F JUMP JUMPDEST JUMPDEST PUSH0 PUSH2 0x29F DUP5 DUP3 DUP6 ADD PUSH2 0x269 JUMP JUMPDEST SWAP2 POP POP SWAP3 SWAP2 POP POP JUMP JUMPDEST PUSH2 0x1FDE DUP1 PUSH2 0x2B5 PUSH0 CODECOPY PUSH0 RETURN INVALID PUSH1 0x80 PUSH1 0x40 MSTORE CALLVALUE DUP1 ISZERO PUSH2 0xF JUMPI PUSH0 PUSH0 REVERT JUMPDEST POP PUSH1 0x4 CALLDATASIZE LT PUSH2 0x12A JUMPI PUSH0 CALLDATALOAD PUSH1 0xE0 SHR DUP1 PUSH4 0x9A19C7B0 GT PUSH2 0xAB JUMPI DUP1 PUSH4 0xD12AF19A GT PUSH2 0x6F JUMPI DUP1 PUSH4 0xD12AF19A EQ PUSH2 0x33E JUMPI DUP1 PUSH4 0xD47875D0 EQ PUSH2 0x35C JUMPI DUP1 PUSH4 0xD547741F EQ PUSH2 0x38C JUMPI DUP1 PUSH4 0xE2EB41FF EQ PUSH2 0x3A8 JUMPI DUP1 PUSH4 0xED4B7EAA EQ PUSH2 0x3D9 JUMPI PUSH2 0x12A JUMP JUMPDEST DUP1 PUSH4 0x9A19C7B0 EQ PUSH2 0x2AC JUMPI DUP1 PUSH4 0xA217FDDF EQ PUSH2 0x2C8 JUMPI DUP1 PUSH4 0xBA3F5A12 EQ PUSH2 0x2E6 JUMPI DUP1 PUSH4 0xC3DFDAE6 EQ PUSH2 0x304 JUMPI DUP1 PUSH4 0xC634B78E EQ PUSH2 0x322 JUMPI PUSH2 0x12A JUMP JUMPDEST DUP1 PUSH4 0x3596362B GT PUSH2 0xF2 JUMPI DUP1 PUSH4 0x3596362B EQ PUSH2 0x1F6 JUMPI DUP1 PUSH4 0x36568ABE EQ PUSH2 0x212 JUMPI DUP1 PUSH4 0x73AF16FC EQ PUSH2 0x22E JUMPI DUP1 PUSH4 0x75B238FC EQ PUSH2 0x25E JUMPI DUP1 PUSH4 0x91D14854 EQ PUSH2 0x27C JUMPI PUSH2 0x12A JUMP JUMPDEST DUP1 PUSH4 0x1FFC9A7 EQ PUSH2 0x12E JUMPI DUP1 PUSH4 0x15C6AEE2 EQ PUSH2 0x15E JUMPI DUP1 PUSH4 0x1DB544C0 EQ PUSH2 0x18E JUMPI DUP1 PUSH4 0x248A9CA3 EQ PUSH2 0x1AA JUMPI DUP1 PUSH4 0x2F2FF15D EQ PUSH2 0x1DA JUMPI JUMPDEST PUSH0 PUSH0 REVERT JUMPDEST PUSH2 0x148 PUSH1 0x4 DUP1 CALLDATASIZE SUB DUP2 ADD SWAP1 PUSH2 0x143 SWAP2 SWAP1 PUSH2 0x1575 JUMP JUMPDEST PUSH2 0x3F5 JUMP JUMPDEST PUSH1 0x40 MLOAD PUSH2 0x155 SWAP2 SWAP1 PUSH2 0x15BA JUMP JUMPDEST PUSH1 0x40 MLOAD DUP1 SWAP2 SUB SWAP1 RETURN JUMPDEST PUSH2 0x178 PUSH1 0x4 DUP1 CALLDATASIZE SUB DUP2 ADD SWAP1 PUSH2 0x173 SWAP2 SWAP1 PUSH2 0x1606 JUMP JUMPDEST PUSH2 0x46E JUMP JUMPDEST PUSH1 0x40 MLOAD PUSH2 0x185 SWAP2 SWAP1 PUSH2 0x1670 JUMP JUMPDEST PUSH1 0x40 MLOAD DUP1 SWAP2 SUB SWAP1 RETURN JUMPDEST PUSH2 0x1A8 PUSH1 0x4 DUP1 CALLDATASIZE SUB DUP2 ADD SWAP1 PUSH2 0x1A3 SWAP2 SWAP1 PUSH2 0x16B3 JUMP JUMPDEST PUSH2 0x4A9 JUMP JUMPDEST STOP JUMPDEST PUSH2 0x1C4 PUSH1 0x4 DUP1 CALLDATASIZE SUB DUP2 ADD SWAP1 PUSH2 0x1BF SWAP2 SWAP1 PUSH2 0x1724 JUMP JUMPDEST PUSH2 0x819 JUMP JUMPDEST PUSH1 0x40 MLOAD PUSH2 0x1D1 SWAP2 SWAP1 PUSH2 0x175E JUMP JUMPDEST PUSH1 0x40 MLOAD DUP1 SWAP2 SUB SWAP1 RETURN JUMPDEST PUSH2 0x1F4 PUSH1 0x4 DUP1 CALLDATASIZE SUB DUP2 ADD SWAP1 PUSH2 0x1EF SWAP2 SWAP1 PUSH2 0x1777 JUMP JUMPDEST PUSH2 0x835 JUMP JUMPDEST STOP JUMPDEST PUSH2 0x210 PUSH1 0x4 DUP1 CALLDATASIZE SUB DUP2 ADD SWAP1 PUSH2 0x20B SWAP2 SWAP1 PUSH2 0x1606 JUMP JUMPDEST PUSH2 0x857 JUMP JUMPDEST STOP JUMPDEST PUSH2 0x22C PUSH1 0x4 DUP1 CALLDATASIZE SUB DUP2 ADD SWAP1 PUSH2 0x227 SWAP2 SWAP1 PUSH2 0x1777 JUMP JUMPDEST PUSH2 0x905 JUMP JUMPDEST STOP JUMPDEST PUSH2 0x248 PUSH1 0x4 DUP1 CALLDATASIZE SUB DUP2 ADD SWAP1 PUSH2 0x243 SWAP2 SWAP1 PUSH2 0x17B5 JUMP JUMPDEST PUSH2 0x980 JUMP JUMPDEST PUSH1 0x40 MLOAD PUSH2 0x255 SWAP2 SWAP1 PUSH2 0x18E6 JUMP JUMPDEST PUSH1 0x40 MLOAD DUP1 SWAP2 SUB SWAP1 RETURN JUMPDEST PUSH2 0x266 PUSH2 0xD53 JUMP JUMPDEST PUSH1 0x40 MLOAD PUSH2 0x273 SWAP2 SWAP1 PUSH2 0x175E JUMP JUMPDEST PUSH1 0x40 MLOAD DUP1 SWAP2 SUB SWAP1 RETURN JUMPDEST PUSH2 0x296 PUSH1 0x4 DUP1 CALLDATASIZE SUB DUP2 ADD SWAP1 PUSH2 0x291 SWAP2 SWAP1 PUSH2 0x1777 JUMP JUMPDEST PUSH2 0xD77 JUMP JUMPDEST PUSH1 0x40 MLOAD PUSH2 0x2A3 SWAP2 SWAP1 PUSH2 0x15BA JUMP JUMPDEST PUSH1 0x40 MLOAD DUP1 SWAP2 SUB SWAP1 RETURN JUMPDEST PUSH2 0x2C6 PUSH1 0x4 DUP1 CALLDATASIZE SUB DUP2 ADD SWAP1 PUSH2 0x2C1 SWAP2 SWAP1 PUSH2 0x1906 JUMP JUMPDEST PUSH2 0xDDA JUMP JUMPDEST STOP JUMPDEST PUSH2 0x2D0 PUSH2 0xE14 JUMP JUMPDEST PUSH1 0x40 MLOAD PUSH2 0x2DD SWAP2 SWAP1 PUSH2 0x175E JUMP JUMPDEST PUSH1 0x40 MLOAD DUP1 SWAP2 SUB SWAP1 RETURN JUMPDEST PUSH2 0x2EE PUSH2 0xE1A JUMP JUMPDEST PUSH1 0x40 MLOAD PUSH2 0x2FB SWAP2 SWAP1 PUSH2 0x1940 JUMP JUMPDEST PUSH1 0x40 MLOAD DUP1 SWAP2 SUB SWAP1 RETURN JUMPDEST PUSH2 0x30C PUSH2 0xE20 JUMP JUMPDEST PUSH1 0x40 MLOAD PUSH2 0x319 SWAP2 SWAP1 PUSH2 0x19B4 JUMP JUMPDEST PUSH1 0x40 MLOAD DUP1 SWAP2 SUB SWAP1 RETURN JUMPDEST PUSH2 0x33C PUSH1 0x4 DUP1 CALLDATASIZE SUB DUP2 ADD SWAP1 PUSH2 0x337 SWAP2 SWAP1 PUSH2 0x1906 JUMP JUMPDEST PUSH2 0xE45 JUMP JUMPDEST STOP JUMPDEST PUSH2 0x346 PUSH2 0xE7F JUMP JUMPDEST PUSH1 0x40 MLOAD PUSH2 0x353 SWAP2 SWAP1 PUSH2 0x1940 JUMP JUMPDEST PUSH1 0x40 MLOAD DUP1 SWAP2 SUB SWAP1 RETURN JUMPDEST PUSH2 0x376 PUSH1 0x4 DUP1 CALLDATASIZE SUB DUP2 ADD SWAP1 PUSH2 0x371 SWAP2 SWAP1 PUSH2 0x1906 JUMP JUMPDEST PUSH2 0xE8C JUMP JUMPDEST PUSH1 0x40 MLOAD PUSH2 0x383 SWAP2 SWAP1 PUSH2 0x1940 JUMP JUMPDEST PUSH1 0x40 MLOAD DUP1 SWAP2 SUB SWAP1 RETURN JUMPDEST PUSH2 0x3A6 PUSH1 0x4 DUP1 CALLDATASIZE SUB DUP2 ADD SWAP1 PUSH2 0x3A1 SWAP2 SWAP1 PUSH2 0x1777 JUMP JUMPDEST PUSH2 0xED4 JUMP JUMPDEST STOP JUMPDEST PUSH2 0x3C2 PUSH1 0x4 DUP1 CALLDATASIZE SUB DUP2 ADD SWAP1 PUSH2 0x3BD SWAP2 SWAP1 PUSH2 0x1906 JUMP JUMPDEST PUSH2 0xEF6 JUMP JUMPDEST PUSH1 0x40 MLOAD PUSH2 0x3D0 SWAP3 SWAP2 SWAP1 PUSH2 0x19CD JUMP JUMPDEST PUSH1 0x40 MLOAD DUP1 SWAP2 SUB SWAP1 RETURN JUMPDEST PUSH2 0x3F3 PUSH1 0x4 DUP1 CALLDATASIZE SUB DUP2 ADD SWAP1 PUSH2 0x3EE SWAP2 SWAP1 PUSH2 0x1A55 JUMP JUMPDEST PUSH2 0xF16 JUMP JUMPDEST STOP JUMPDEST PUSH0 PUSH32 0x7965DB0B00000000000000000000000000000000000000000000000000000000 PUSH28 0xFFFFFFFFFFFFFFFFFFFFFFFFFFFFFFFFFFFFFFFFFFFFFFFFFFFFFFFF NOT AND DUP3 PUSH28 0xFFFFFFFFFFFFFFFFFFFFFFFFFFFFFFFFFFFFFFFFFFFFFFFFFFFFFFFF NOT AND EQ DUP1 PUSH2 0x467 JUMPI POP PUSH2 0x466 DUP3 PUSH2 0x10A7 JUMP JUMPDEST JUMPDEST SWAP1 POP SWAP2 SWAP1 POP JUMP JUMPDEST PUSH1 0x4 DUP2 DUP2 SLOAD DUP2 LT PUSH2 0x47D JUMPI PUSH0 DUP1 REVERT JUMPDEST SWAP1 PUSH0 MSTORE PUSH1 0x20 PUSH0 KECCAK256 ADD PUSH0 SWAP2 POP SLOAD SWAP1 PUSH2 0x100 EXP SWAP1 DIV PUSH20 0xFFFFFFFFFFFFFFFFFFFFFFFFFFFFFFFFFFFFFFFF AND DUP2 JUMP JUMPDEST PUSH32 0xA49807205CE4D355092EF5A8A18F56E8913CF4A201FBE287825B095693C21775 PUSH2 0x4D3 DUP2 PUSH2 0x1110 JUMP JUMPDEST PUSH0 PUSH20 0xFFFFFFFFFFFFFFFFFFFFFFFFFFFFFFFFFFFFFFFF AND DUP4 PUSH20 0xFFFFFFFFFFFFFFFFFFFFFFFFFFFFFFFFFFFFFFFF AND SUB PUSH2 0x541 JUMPI PUSH1 0x40 MLOAD PUSH32 0x8C379A000000000000000000000000000000000000000000000000000000000 DUP2 MSTORE PUSH1 0x4 ADD PUSH2 0x538 SWAP1 PUSH2 0x1AFA JUMP JUMPDEST PUSH1 0x40 MLOAD DUP1 SWAP2 SUB SWAP1 REVERT JUMPDEST PUSH0 DUP3 GT PUSH2 0x583 JUMPI PUSH1 0x40 MLOAD PUSH32 0x8C379A000000000000000000000000000000000000000000000000000000000 DUP2 MSTORE PUSH1 0x4 ADD PUSH2 0x57A SWAP1 PUSH2 0x1B62 JUMP JUMPDEST PUSH1 0x40 MLOAD DUP1 SWAP2 SUB SWAP1 REVERT JUMPDEST PUSH0 PUSH1 0x3 PUSH0 DUP6 PUSH20 0xFFFFFFFFFFFFFFFFFFFFFFFFFFFFFFFFFFFFFFFF AND PUSH20 0xFFFFFFFFFFFFFFFFFFFFFFFFFFFFFFFFFFFFFFFF AND DUP2 MSTORE PUSH1 0x20 ADD SWAP1 DUP2 MSTORE PUSH1 0x20 ADD PUSH0 KECCAK256 PUSH0 ADD SLOAD EQ DUP1 ISZERO PUSH2 0x610 JUMPI POP PUSH0 PUSH1 0x3 PUSH0 DUP6 PUSH20 0xFFFFFFFFFFFFFFFFFFFFFFFFFFFFFFFFFFFFFFFF AND PUSH20 0xFFFFFFFFFFFFFFFFFFFFFFFFFFFFFFFFFFFFFFFF AND DUP2 MSTORE PUSH1 0x20 ADD SWAP1 DUP2 MSTORE PUSH1 0x20 ADD PUSH0 KECCAK256 PUSH1 0x1 ADD SLOAD EQ JUMPDEST ISZERO PUSH2 0x6B9 JUMPI PUSH1 0x4 DUP4 SWAP1 DUP1 PUSH1 0x1 DUP2 SLOAD ADD DUP1 DUP3 SSTORE DUP1 SWAP2 POP POP PUSH1 0x1 SWAP1 SUB SWAP1 PUSH0 MSTORE PUSH1 0x20 PUSH0 KECCAK256 ADD PUSH0 SWAP1 SWAP2 SWAP1 SWAP2 SWAP1 SWAP2 PUSH2 0x100 EXP DUP2 SLOAD DUP2 PUSH20 0xFFFFFFFFFFFFFFFFFFFFFFFFFFFFFFFFFFFFFFFF MUL NOT AND SWAP1 DUP4 PUSH20 0xFFFFFFFFFFFFFFFFFFFFFFFFFFFFFFFFFFFFFFFF AND MUL OR SWAP1 SSTORE POP DUP3 PUSH20 0xFFFFFFFFFFFFFFFFFFFFFFFFFFFFFFFFFFFFFFFF AND PUSH32 0xF2AE205522024C14E5A7A26BA6D1FB1252DC8E161B5ABC79ED5795FD3C5B9261 PUSH1 0x40 MLOAD PUSH1 0x40 MLOAD DUP1 SWAP2 SUB SWAP1 LOG2 JUMPDEST DUP2 PUSH1 0x3 PUSH0 DUP6 PUSH20 0xFFFFFFFFFFFFFFFFFFFFFFFFFFFFFFFFFFFFFFFF AND PUSH20 0xFFFFFFFFFFFFFFFFFFFFFFFFFFFFFFFFFFFFFFFF AND DUP2 MSTORE PUSH1 0x20 ADD SWAP1 DUP2 MSTORE PUSH1 0x20 ADD PUSH0 KECCAK256 PUSH0 ADD PUSH0 DUP3 DUP3 SLOAD PUSH2 0x707 SWAP2 SWAP1 PUSH2 0x1BAD JUMP JUMPDEST SWAP3 POP POP DUP2 SWAP1 SSTORE POP TIMESTAMP PUSH1 0x3 PUSH0 DUP6 PUSH20 0xFFFFFFFFFFFFFFFFFFFFFFFFFFFFFFFFFFFFFFFF AND PUSH20 0xFFFFFFFFFFFFFFFFFFFFFFFFFFFFFFFFFFFFFFFF AND DUP2 MSTORE PUSH1 0x20 ADD SWAP1 DUP2 MSTORE PUSH1 0x20 ADD PUSH0 KECCAK256 PUSH1 0x1 ADD DUP2 SWAP1 SSTORE POP PUSH0 PUSH8 0xDE0B6B3A7640000 PUSH1 0x2 SLOAD DUP5 PUSH2 0x76B SWAP2 SWAP1 PUSH2 0x1BE0 JUMP JUMPDEST PUSH2 0x775 SWAP2 SWAP1 PUSH2 0x1BE0 JUMP JUMPDEST SWAP1 POP PUSH2 0x7C3 DUP5 DUP3 PUSH1 0x1 PUSH0 SWAP1 SLOAD SWAP1 PUSH2 0x100 EXP SWAP1 DIV PUSH20 0xFFFFFFFFFFFFFFFFFFFFFFFFFFFFFFFFFFFFFFFF AND PUSH20 0xFFFFFFFFFFFFFFFFFFFFFFFFFFFFFFFFFFFFFFFF AND PUSH2 0x1124 SWAP1 SWAP3 SWAP2 SWAP1 PUSH4 0xFFFFFFFF AND JUMP JUMPDEST DUP4 PUSH20 0xFFFFFFFFFFFFFFFFFFFFFFFFFFFFFFFFFFFFFFFF AND PUSH32 0xB7F20D0949B6A8BC59D005AF4A52F7FF5D0CFCDE9056FA556ADB0E4B24DCB6D2 DUP5 DUP4 PUSH1 0x40 MLOAD PUSH2 0x80B SWAP3 SWAP2 SWAP1 PUSH2 0x19CD JUMP JUMPDEST PUSH1 0x40 MLOAD DUP1 SWAP2 SUB SWAP1 LOG2 POP POP POP POP JUMP JUMPDEST PUSH0 PUSH0 PUSH0 DUP4 DUP2 MSTORE PUSH1 0x20 ADD SWAP1 DUP2 MSTORE PUSH1 0x20 ADD PUSH0 KECCAK256 PUSH1 0x1 ADD SLOAD SWAP1 POP SWAP2 SWAP1 POP JUMP JUMPDEST PUSH2 0x83E DUP3 PUSH2 0x819 JUMP JUMPDEST PUSH2 0x847 DUP2 PUSH2 0x1110 JUMP JUMPDEST PUSH2 0x851 DUP4 DUP4 PUSH2 0x11A3 JUMP JUMPDEST POP POP POP POP JUMP JUMPDEST PUSH32 0xA49807205CE4D355092EF5A8A18F56E8913CF4A201FBE287825B095693C21775 PUSH2 0x881 DUP2 PUSH2 0x1110 JUMP JUMPDEST PUSH0 DUP3 GT PUSH2 0x8C3 JUMPI PUSH1 0x40 MLOAD PUSH32 0x8C379A000000000000000000000000000000000000000000000000000000000 DUP2 MSTORE PUSH1 0x4 ADD PUSH2 0x8BA SWAP1 PUSH2 0x1C91 JUMP JUMPDEST PUSH1 0x40 MLOAD DUP1 SWAP2 SUB SWAP1 REVERT JUMPDEST DUP2 PUSH1 0x2 DUP2 SWAP1 SSTORE POP PUSH32 0xE6B19B2C6617851A0F4C49DF91138E172046FFA3FC94114D4A7294D0E4362DD6 DUP3 PUSH1 0x40 MLOAD PUSH2 0x8F9 SWAP2 SWAP1 PUSH2 0x1940 JUMP JUMPDEST PUSH1 0x40 MLOAD DUP1 SWAP2 SUB SWAP1 LOG1 POP POP JUMP JUMPDEST PUSH2 0x90D PUSH2 0x128C JUMP JUMPDEST PUSH20 0xFFFFFFFFFFFFFFFFFFFFFFFFFFFFFFFFFFFFFFFF AND DUP2 PUSH20 0xFFFFFFFFFFFFFFFFFFFFFFFFFFFFFFFFFFFFFFFF AND EQ PUSH2 0x971 JUMPI PUSH1 0x40 MLOAD PUSH32 0x6697B23200000000000000000000000000000000000000000000000000000000 DUP2 MSTORE PUSH1 0x4 ADD PUSH1 0x40 MLOAD DUP1 SWAP2 SUB SWAP1 REVERT JUMPDEST PUSH2 0x97B DUP3 DUP3 PUSH2 0x1293 JUMP JUMPDEST POP POP POP JUMP JUMPDEST PUSH1 0x60 PUSH1 0x4 DUP1 SLOAD SWAP1 POP DUP4 LT PUSH2 0x9C9 JUMPI PUSH1 0x40 MLOAD PUSH32 0x8C379A000000000000000000000000000000000000000000000000000000000 DUP2 MSTORE PUSH1 0x4 ADD PUSH2 0x9C0 SWAP1 PUSH2 0x1CF9 JUMP JUMPDEST PUSH1 0x40 MLOAD DUP1 SWAP2 SUB SWAP1 REVERT JUMPDEST PUSH0 DUP4 PUSH1 0x4 DUP1 SLOAD SWAP1 POP PUSH2 0x9DB SWAP2 SWAP1 PUSH2 0x1D17 JUMP JUMPDEST SWAP1 POP PUSH0 DUP2 DUP5 GT PUSH2 0x9EB JUMPI DUP4 PUSH2 0x9ED JUMP JUMPDEST DUP2 JUMPDEST SWAP1 POP PUSH0 DUP2 PUSH8 0xFFFFFFFFFFFFFFFF DUP2 GT ISZERO PUSH2 0xA0A JUMPI PUSH2 0xA09 PUSH2 0x1D4A JUMP JUMPDEST JUMPDEST PUSH1 0x40 MLOAD SWAP1 DUP1 DUP3 MSTORE DUP1 PUSH1 0x20 MUL PUSH1 0x20 ADD DUP3 ADD PUSH1 0x40 MSTORE DUP1 ISZERO PUSH2 0xA43 JUMPI DUP2 PUSH1 0x20 ADD JUMPDEST PUSH2 0xA30 PUSH2 0x14EA JUMP JUMPDEST DUP2 MSTORE PUSH1 0x20 ADD SWAP1 PUSH1 0x1 SWAP1 SUB SWAP1 DUP2 PUSH2 0xA28 JUMPI SWAP1 POP JUMPDEST POP SWAP1 POP PUSH0 PUSH1 0x4 DUP1 SLOAD SWAP1 POP PUSH8 0xFFFFFFFFFFFFFFFF DUP2 GT ISZERO PUSH2 0xA66 JUMPI PUSH2 0xA65 PUSH2 0x1D4A JUMP JUMPDEST JUMPDEST PUSH1 0x40 MLOAD SWAP1 DUP1 DUP3 MSTORE DUP1 PUSH1 0x20 MUL PUSH1 0x20 ADD DUP3 ADD PUSH1 0x40 MSTORE DUP1 ISZERO PUSH2 0xA9F JUMPI DUP2 PUSH1 0x20 ADD JUMPDEST PUSH2 0xA8C PUSH2 0x14EA JUMP JUMPDEST DUP2 MSTORE PUSH1 0x20 ADD SWAP1 PUSH1 0x1 SWAP1 SUB SWAP1 DUP2 PUSH2 0xA84 JUMPI SWAP1 POP JUMPDEST POP SWAP1 POP PUSH0 PUSH0 SWAP1 POP JUMPDEST PUSH1 0x4 DUP1 SLOAD SWAP1 POP DUP2 LT ISZERO PUSH2 0xBBF JUMPI PUSH1 0x40 MLOAD DUP1 PUSH1 0x40 ADD PUSH1 0x40 MSTORE DUP1 PUSH1 0x4 DUP4 DUP2 SLOAD DUP2 LT PUSH2 0xAD3 JUMPI PUSH2 0xAD2 PUSH2 0x1D77 JUMP JUMPDEST JUMPDEST SWAP1 PUSH0 MSTORE PUSH1 0x20 PUSH0 KECCAK256 ADD PUSH0 SWAP1 SLOAD SWAP1 PUSH2 0x100 EXP SWAP1 DIV PUSH20 0xFFFFFFFFFFFFFFFFFFFFFFFFFFFFFFFFFFFFFFFF AND PUSH20 0xFFFFFFFFFFFFFFFFFFFFFFFFFFFFFFFFFFFFFFFF AND DUP2 MSTORE PUSH1 0x20 ADD PUSH1 0x3 PUSH0 PUSH1 0x4 DUP6 DUP2 SLOAD DUP2 LT PUSH2 0xB2D JUMPI PUSH2 0xB2C PUSH2 0x1D77 JUMP JUMPDEST JUMPDEST SWAP1 PUSH0 MSTORE PUSH1 0x20 PUSH0 KECCAK256 ADD PUSH0 SWAP1 SLOAD SWAP1 PUSH2 0x100 EXP SWAP1 DIV PUSH20 0xFFFFFFFFFFFFFFFFFFFFFFFFFFFFFFFFFFFFFFFF AND PUSH20 0xFFFFFFFFFFFFFFFFFFFFFFFFFFFFFFFFFFFFFFFF AND PUSH20 0xFFFFFFFFFFFFFFFFFFFFFFFFFFFFFFFFFFFFFFFF AND DUP2 MSTORE PUSH1 0x20 ADD SWAP1 DUP2 MSTORE PUSH1 0x20 ADD PUSH0 KECCAK256 PUSH0 ADD SLOAD DUP2 MSTORE POP DUP3 DUP3 DUP2 MLOAD DUP2 LT PUSH2 0xBA7 JUMPI PUSH2 0xBA6 PUSH2 0x1D77 JUMP JUMPDEST JUMPDEST PUSH1 0x20 MUL PUSH1 0x20 ADD ADD DUP2 SWAP1 MSTORE POP DUP1 DUP1 PUSH1 0x1 ADD SWAP2 POP POP PUSH2 0xAA7 JUMP JUMPDEST POP PUSH0 PUSH0 SWAP1 POP JUMPDEST DUP2 MLOAD DUP2 LT DUP1 ISZERO PUSH2 0xBDF JUMPI POP DUP4 DUP9 PUSH2 0xBDC SWAP2 SWAP1 PUSH2 0x1BAD JUMP JUMPDEST DUP2 LT JUMPDEST ISZERO PUSH2 0xCE6 JUMPI PUSH0 DUP2 SWAP1 POP PUSH0 PUSH1 0x1 DUP4 PUSH2 0xBF6 SWAP2 SWAP1 PUSH2 0x1BAD JUMP JUMPDEST SWAP1 POP JUMPDEST DUP4 MLOAD DUP2 LT ISZERO PUSH2 0xC57 JUMPI DUP4 DUP3 DUP2 MLOAD DUP2 LT PUSH2 0xC15 JUMPI PUSH2 0xC14 PUSH2 0x1D77 JUMP JUMPDEST JUMPDEST PUSH1 0x20 MUL PUSH1 0x20 ADD ADD MLOAD PUSH1 0x20 ADD MLOAD DUP5 DUP3 DUP2 MLOAD DUP2 LT PUSH2 0xC34 JUMPI PUSH2 0xC33 PUSH2 0x1D77 JUMP JUMPDEST JUMPDEST PUSH1 0x20 MUL PUSH1 0x20 ADD ADD MLOAD PUSH1 0x20 ADD MLOAD GT ISZERO PUSH2 0xC4A JUMPI DUP1 SWAP2 POP JUMPDEST DUP1 DUP1 PUSH1 0x1 ADD SWAP2 POP POP PUSH2 0xBF9 JUMP JUMPDEST POP DUP2 DUP2 EQ PUSH2 0xCD2 JUMPI DUP3 DUP2 DUP2 MLOAD DUP2 LT PUSH2 0xC72 JUMPI PUSH2 0xC71 PUSH2 0x1D77 JUMP JUMPDEST JUMPDEST PUSH1 0x20 MUL PUSH1 0x20 ADD ADD MLOAD DUP4 DUP4 DUP2 MLOAD DUP2 LT PUSH2 0xC8D JUMPI PUSH2 0xC8C PUSH2 0x1D77 JUMP JUMPDEST JUMPDEST PUSH1 0x20 MUL PUSH1 0x20 ADD ADD MLOAD DUP5 DUP5 DUP2 MLOAD DUP2 LT PUSH2 0xCA8 JUMPI PUSH2 0xCA7 PUSH2 0x1D77 JUMP JUMPDEST JUMPDEST PUSH1 0x20 MUL PUSH1 0x20 ADD ADD DUP6 DUP5 DUP2 MLOAD DUP2 LT PUSH2 0xCC2 JUMPI PUSH2 0xCC1 PUSH2 0x1D77 JUMP JUMPDEST JUMPDEST PUSH1 0x20 MUL PUSH1 0x20 ADD ADD DUP3 SWAP1 MSTORE DUP3 SWAP1 MSTORE POP POP JUMPDEST POP DUP1 DUP1 PUSH2 0xCDE SWAP1 PUSH2 0x1DA4 JUMP JUMPDEST SWAP2 POP POP PUSH2 0xBC5 JUMP JUMPDEST POP PUSH0 PUSH0 SWAP1 POP JUMPDEST DUP4 DUP2 LT ISZERO PUSH2 0xD45 JUMPI DUP2 DUP2 DUP10 PUSH2 0xD01 SWAP2 SWAP1 PUSH2 0x1BAD JUMP JUMPDEST DUP2 MLOAD DUP2 LT PUSH2 0xD12 JUMPI PUSH2 0xD11 PUSH2 0x1D77 JUMP JUMPDEST JUMPDEST PUSH1 0x20 MUL PUSH1 0x20 ADD ADD MLOAD DUP4 DUP3 DUP2 MLOAD DUP2 LT PUSH2 0xD2D JUMPI PUSH2 0xD2C PUSH2 0x1D77 JUMP JUMPDEST JUMPDEST PUSH1 0x20 MUL PUSH1 0x20 ADD ADD DUP2 SWAP1 MSTORE POP DUP1 DUP1 PUSH1 0x1 ADD SWAP2 POP POP PUSH2 0xCEC JUMP JUMPDEST POP DUP2 SWAP5 POP POP POP POP POP SWAP3 SWAP2 POP POP JUMP JUMPDEST PUSH32 0xA49807205CE4D355092EF5A8A18F56E8913CF4A201FBE287825B095693C21775 DUP2 JUMP JUMPDEST PUSH0 PUSH0 PUSH0 DUP5 DUP2 MSTORE PUSH1 0x20 ADD SWAP1 DUP2 MSTORE PUSH1 0x20 ADD PUSH0 KECCAK256 PUSH0 ADD PUSH0 DUP4 PUSH20 0xFFFFFFFFFFFFFFFFFFFFFFFFFFFFFFFFFFFFFFFF AND PUSH20 0xFFFFFFFFFFFFFFFFFFFFFFFFFFFFFFFFFFFFFFFF AND DUP2 MSTORE PUSH1 0x20 ADD SWAP1 DUP2 MSTORE PUSH1 0x20 ADD PUSH0 KECCAK256 PUSH0 SWAP1 SLOAD SWAP1 PUSH2 0x100 EXP SWAP1 DIV PUSH1 0xFF AND SWAP1 POP SWAP3 SWAP2 POP POP JUMP JUMPDEST PUSH0 PUSH0 SHL PUSH2 0xDE6 DUP2 PUSH2 0x1110 JUMP JUMPDEST PUSH2 0xE10 PUSH32 0xA49807205CE4D355092EF5A8A18F56E8913CF4A201FBE287825B095693C21775 DUP4 PUSH2 0xED4 JUMP JUMPDEST POP POP JUMP JUMPDEST PUSH0 PUSH0 SHL DUP2 JUMP JUMPDEST PUSH1 0x2 SLOAD DUP2 JUMP JUMPDEST PUSH1 0x1 PUSH0 SWAP1 SLOAD SWAP1 PUSH2 0x100 EXP SWAP1 DIV PUSH20 0xFFFFFFFFFFFFFFFFFFFFFFFFFFFFFFFFFFFFFFFF AND DUP2 JUMP JUMPDEST PUSH0 PUSH0 SHL PUSH2 0xE51 DUP2 PUSH2 0x1110 JUMP JUMPDEST PUSH2 0xE7B PUSH32 0xA49807205CE4D355092EF5A8A18F56E8913CF4A201FBE287825B095693C21775 DUP4 PUSH2 0x835 JUMP JUMPDEST POP POP JUMP JUMPDEST PUSH9 0x56BC75E2D63100000 DUP2 JUMP JUMPDEST PUSH0 PUSH1 0x3 PUSH0 DUP4 PUSH20 0xFFFFFFFFFFFFFFFFFFFFFFFFFFFFFFFFFFFFFFFF AND PUSH20 0xFFFFFFFFFFFFFFFFFFFFFFFFFFFFFFFFFFFFFFFF AND DUP2 MSTORE PUSH1 0x20 ADD SWAP1 DUP2 MSTORE PUSH1 0x20 ADD PUSH0 KECCAK256 PUSH0 ADD SLOAD SWAP1 POP SWAP2 SWAP1 POP JUMP JUMPDEST PUSH2 0xEDD DUP3 PUSH2 0x819 JUMP JUMPDEST PUSH2 0xEE6 DUP2 PUSH2 0x1110 JUMP JUMPDEST PUSH2 0xEF0 DUP4 DUP4 PUSH2 0x1293 JUMP JUMPDEST POP POP POP POP JUMP JUMPDEST PUSH1 0x3 PUSH1 0x20 MSTORE DUP1 PUSH0 MSTORE PUSH1 0x40 PUSH0 KECCAK256 PUSH0 SWAP2 POP SWAP1 POP DUP1 PUSH0 ADD SLOAD SWAP1 DUP1 PUSH1 0x1 ADD SLOAD SWAP1 POP DUP3 JUMP JUMPDEST PUSH9 0x56BC75E2D63100000 PUSH1 0x1 PUSH0 SWAP1 SLOAD SWAP1 PUSH2 0x100 EXP SWAP1 DIV PUSH20 0xFFFFFFFFFFFFFFFFFFFFFFFFFFFFFFFFFFFFFFFF AND PUSH20 0xFFFFFFFFFFFFFFFFFFFFFFFFFFFFFFFFFFFFFFFF AND PUSH4 0xDD62ED3E CALLER ADDRESS PUSH1 0x40 MLOAD DUP4 PUSH4 0xFFFFFFFF AND PUSH1 0xE0 SHL DUP2 MSTORE PUSH1 0x4 ADD PUSH2 0xF7C SWAP3 SWAP2 SWAP1 PUSH2 0x1DEB JUMP JUMPDEST PUSH1 0x20 PUSH1 0x40 MLOAD DUP1 DUP4 SUB DUP2 DUP7 GAS STATICCALL ISZERO DUP1 ISZERO PUSH2 0xF97 JUMPI RETURNDATASIZE PUSH0 PUSH0 RETURNDATACOPY RETURNDATASIZE PUSH0 REVERT JUMPDEST POP POP POP POP PUSH1 0x40 MLOAD RETURNDATASIZE PUSH1 0x1F NOT PUSH1 0x1F DUP3 ADD AND DUP3 ADD DUP1 PUSH1 0x40 MSTORE POP DUP2 ADD SWAP1 PUSH2 0xFBB SWAP2 SWAP1 PUSH2 0x1E26 JUMP JUMPDEST LT ISZERO PUSH2 0xFFC JUMPI PUSH1 0x40 MLOAD PUSH32 0x8C379A000000000000000000000000000000000000000000000000000000000 DUP2 MSTORE PUSH1 0x4 ADD PUSH2 0xFF3 SWAP1 PUSH2 0x1E9B JUMP JUMPDEST PUSH1 0x40 MLOAD DUP1 SWAP2 SUB SWAP1 REVERT JUMPDEST PUSH2 0x1053 CALLER ADDRESS PUSH9 0x56BC75E2D63100000 PUSH1 0x1 PUSH0 SWAP1 SLOAD SWAP1 PUSH2 0x100 EXP SWAP1 DIV PUSH20 0xFFFFFFFFFFFFFFFFFFFFFFFFFFFFFFFFFFFFFFFF AND PUSH20 0xFFFFFFFFFFFFFFFFFFFFFFFFFFFFFFFFFFFFFFFF AND PUSH2 0x137C SWAP1 SWAP4 SWAP3 SWAP2 SWAP1 PUSH4 0xFFFFFFFF AND JUMP JUMPDEST CALLER PUSH20 0xFFFFFFFFFFFFFFFFFFFFFFFFFFFFFFFFFFFFFFFF AND PUSH32 0x769873612369DE25D7A32B1071976767E3071B8182B9353E1CD5D6CF25B33DCA DUP4 DUP4 PUSH1 0x40 MLOAD PUSH2 0x109B SWAP3 SWAP2 SWAP1 PUSH2 0x1F03 JUMP JUMPDEST PUSH1 0x40 MLOAD DUP1 SWAP2 SUB SWAP1 LOG2 POP POP JUMP JUMPDEST PUSH0 PUSH32 0x1FFC9A700000000000000000000000000000000000000000000000000000000 PUSH28 0xFFFFFFFFFFFFFFFFFFFFFFFFFFFFFFFFFFFFFFFFFFFFFFFFFFFFFFFF NOT AND DUP3 PUSH28 0xFFFFFFFFFFFFFFFFFFFFFFFFFFFFFFFFFFFFFFFFFFFFFFFFFFFFFFFF NOT AND EQ SWAP1 POP SWAP2 SWAP1 POP JUMP JUMPDEST PUSH2 0x1121 DUP2 PUSH2 0x111C PUSH2 0x128C JUMP JUMPDEST PUSH2 0x13FE JUMP JUMPDEST POP JUMP JUMPDEST PUSH2 0x119E DUP4 DUP5 PUSH20 0xFFFFFFFFFFFFFFFFFFFFFFFFFFFFFFFFFFFFFFFF AND PUSH4 0xA9059CBB DUP6 DUP6 PUSH1 0x40 MLOAD PUSH1 0x24 ADD PUSH2 0x1157 SWAP3 SWAP2 SWAP1 PUSH2 0x1F25 JUMP JUMPDEST PUSH1 0x40 MLOAD PUSH1 0x20 DUP2 DUP4 SUB SUB DUP2 MSTORE SWAP1 PUSH1 0x40 MSTORE SWAP2 POP PUSH1 0xE0 SHL PUSH1 0x20 DUP3 ADD DUP1 MLOAD PUSH28 0xFFFFFFFFFFFFFFFFFFFFFFFFFFFFFFFFFFFFFFFFFFFFFFFFFFFFFFFF DUP4 DUP2 DUP4 AND OR DUP4 MSTORE POP POP POP POP PUSH2 0x144F JUMP JUMPDEST POP POP POP JUMP JUMPDEST PUSH0 PUSH2 0x11AE DUP4 DUP4 PUSH2 0xD77 JUMP JUMPDEST PUSH2 0x1282 JUMPI PUSH1 0x1 PUSH0 PUSH0 DUP6 DUP2 MSTORE PUSH1 0x20 ADD SWAP1 DUP2 MSTORE PUSH1 0x20 ADD PUSH0 KECCAK256 PUSH0 ADD PUSH0 DUP5 PUSH20 0xFFFFFFFFFFFFFFFFFFFFFFFFFFFFFFFFFFFFFFFF AND PUSH20 0xFFFFFFFFFFFFFFFFFFFFFFFFFFFFFFFFFFFFFFFF AND DUP2 MSTORE PUSH1 0x20 ADD SWAP1 DUP2 MSTORE PUSH1 0x20 ADD PUSH0 KECCAK256 PUSH0 PUSH2 0x100 EXP DUP2 SLOAD DUP2 PUSH1 0xFF MUL NOT AND SWAP1 DUP4 ISZERO ISZERO MUL OR SWAP1 SSTORE POP PUSH2 0x121F PUSH2 0x128C JUMP JUMPDEST PUSH20 0xFFFFFFFFFFFFFFFFFFFFFFFFFFFFFFFFFFFFFFFF AND DUP3 PUSH20 0xFFFFFFFFFFFFFFFFFFFFFFFFFFFFFFFFFFFFFFFF AND DUP5 PUSH32 0x2F8788117E7EFF1D82E926EC794901D17C78024A50270940304540A733656F0D PUSH1 0x40 MLOAD PUSH1 0x40 MLOAD DUP1 SWAP2 SUB SWAP1 LOG4 PUSH1 0x1 SWAP1 POP PUSH2 0x1286 JUMP JUMPDEST PUSH0 SWAP1 POP JUMPDEST SWAP3 SWAP2 POP POP JUMP JUMPDEST PUSH0 CALLER SWAP1 POP SWAP1 JUMP JUMPDEST PUSH0 PUSH2 0x129E DUP4 DUP4 PUSH2 0xD77 JUMP JUMPDEST ISZERO PUSH2 0x1372 JUMPI PUSH0 PUSH0 PUSH0 DUP6 DUP2 MSTORE PUSH1 0x20 ADD SWAP1 DUP2 MSTORE PUSH1 0x20 ADD PUSH0 KECCAK256 PUSH0 ADD PUSH0 DUP5 PUSH20 0xFFFFFFFFFFFFFFFFFFFFFFFFFFFFFFFFFFFFFFFF AND PUSH20 0xFFFFFFFFFFFFFFFFFFFFFFFFFFFFFFFFFFFFFFFF AND DUP2 MSTORE PUSH1 0x20 ADD SWAP1 DUP2 MSTORE PUSH1 0x20 ADD PUSH0 KECCAK256 PUSH0 PUSH2 0x100 EXP DUP2 SLOAD DUP2 PUSH1 0xFF MUL NOT AND SWAP1 DUP4 ISZERO ISZERO MUL OR SWAP1 SSTORE POP PUSH2 0x130F PUSH2 0x128C JUMP JUMPDEST PUSH20 0xFFFFFFFFFFFFFFFFFFFFFFFFFFFFFFFFFFFFFFFF AND DUP3 PUSH20 0xFFFFFFFFFFFFFFFFFFFFFFFFFFFFFFFFFFFFFFFF AND DUP5 PUSH32 0xF6391F5C32D9C69D2A47EA670B442974B53935D1EDC7FD64EB21E047A839171B PUSH1 0x40 MLOAD PUSH1 0x40 MLOAD DUP1 SWAP2 SUB SWAP1 LOG4 PUSH1 0x1 SWAP1 POP PUSH2 0x1376 JUMP JUMPDEST PUSH0 SWAP1 POP JUMPDEST SWAP3 SWAP2 POP POP JUMP JUMPDEST PUSH2 0x13F8 DUP5 DUP6 PUSH20 0xFFFFFFFFFFFFFFFFFFFFFFFFFFFFFFFFFFFFFFFF AND PUSH4 0x23B872DD DUP7 DUP7 DUP7 PUSH1 0x40 MLOAD PUSH1 0x24 ADD PUSH2 0x13B1 SWAP4 SWAP3 SWAP2 SWAP1 PUSH2 0x1F4C JUMP JUMPDEST PUSH1 0x40 MLOAD PUSH1 0x20 DUP2 DUP4 SUB SUB DUP2 MSTORE SWAP1 PUSH1 0x40 MSTORE SWAP2 POP PUSH1 0xE0 SHL PUSH1 0x20 DUP3 ADD DUP1 MLOAD PUSH28 0xFFFFFFFFFFFFFFFFFFFFFFFFFFFFFFFFFFFFFFFFFFFFFFFFFFFFFFFF DUP4 DUP2 DUP4 AND OR DUP4 MSTORE POP POP POP POP PUSH2 0x144F JUMP JUMPDEST POP POP POP POP JUMP JUMPDEST PUSH2 0x1408 DUP3 DUP3 PUSH2 0xD77 JUMP JUMPDEST PUSH2 0x144B JUMPI DUP1 DUP3 PUSH1 0x40 MLOAD PUSH32 0xE2517D3F00000000000000000000000000000000000000000000000000000000 DUP2 MSTORE PUSH1 0x4 ADD PUSH2 0x1442 SWAP3 SWAP2 SWAP1 PUSH2 0x1F81 JUMP JUMPDEST PUSH1 0x40 MLOAD DUP1 SWAP2 SUB SWAP1 REVERT JUMPDEST POP POP JUMP JUMPDEST PUSH0 PUSH0 PUSH1 0x20 PUSH0 DUP5 MLOAD PUSH1 0x20 DUP7 ADD PUSH0 DUP9 GAS CALL DUP1 PUSH2 0x146E JUMPI PUSH1 0x40 MLOAD RETURNDATASIZE PUSH0 DUP3 RETURNDATACOPY RETURNDATASIZE DUP2 REVERT JUMPDEST RETURNDATASIZE SWAP3 POP PUSH0 MLOAD SWAP2 POP POP PUSH0 DUP3 EQ PUSH2 0x1487 JUMPI PUSH1 0x1 DUP2 EQ ISZERO PUSH2 0x14A2 JUMP JUMPDEST PUSH0 DUP5 PUSH20 0xFFFFFFFFFFFFFFFFFFFFFFFFFFFFFFFFFFFFFFFF AND EXTCODESIZE EQ JUMPDEST ISZERO PUSH2 0x14E4 JUMPI DUP4 PUSH1 0x40 MLOAD PUSH32 0x5274AFE700000000000000000000000000000000000000000000000000000000 DUP2 MSTORE PUSH1 0x4 ADD PUSH2 0x14DB SWAP2 SWAP1 PUSH2 0x1670 JUMP JUMPDEST PUSH1 0x40 MLOAD DUP1 SWAP2 SUB SWAP1 REVERT JUMPDEST POP POP POP POP JUMP JUMPDEST PUSH1 0x40 MLOAD DUP1 PUSH1 0x40 ADD PUSH1 0x40 MSTORE DUP1 PUSH0 PUSH20 0xFFFFFFFFFFFFFFFFFFFFFFFFFFFFFFFFFFFFFFFF AND DUP2 MSTORE PUSH1 0x20 ADD PUSH0 DUP2 MSTORE POP SWAP1 JUMP JUMPDEST PUSH0 PUSH0 REVERT JUMPDEST PUSH0 PUSH0 REVERT JUMPDEST PUSH0 PUSH32 0xFFFFFFFF00000000000000000000000000000000000000000000000000000000 DUP3 AND SWAP1 POP SWAP2 SWAP1 POP JUMP JUMPDEST PUSH2 0x1554 DUP2 PUSH2 0x1520 JUMP JUMPDEST DUP2 EQ PUSH2 0x155E JUMPI PUSH0 PUSH0 REVERT JUMPDEST POP JUMP JUMPDEST PUSH0 DUP2 CALLDATALOAD SWAP1 POP PUSH2 0x156F DUP2 PUSH2 0x154B JUMP JUMPDEST SWAP3 SWAP2 POP POP JUMP JUMPDEST PUSH0 PUSH1 0x20 DUP3 DUP5 SUB SLT ISZERO PUSH2 0x158A JUMPI PUSH2 0x1589 PUSH2 0x1518 JUMP JUMPDEST JUMPDEST PUSH0 PUSH2 0x1597 DUP5 DUP3 DUP6 ADD PUSH2 0x1561 JUMP JUMPDEST SWAP2 POP POP SWAP3 SWAP2 POP POP JUMP JUMPDEST PUSH0 DUP2 ISZERO ISZERO SWAP1 POP SWAP2 SWAP1 POP JUMP JUMPDEST PUSH2 0x15B4 DUP2 PUSH2 0x15A0 JUMP JUMPDEST DUP3 MSTORE POP POP JUMP JUMPDEST PUSH0 PUSH1 0x20 DUP3 ADD SWAP1 POP PUSH2 0x15CD PUSH0 DUP4 ADD DUP5 PUSH2 0x15AB JUMP JUMPDEST SWAP3 SWAP2 POP POP JUMP JUMPDEST PUSH0 DUP2 SWAP1 POP SWAP2 SWAP1 POP JUMP JUMPDEST PUSH2 0x15E5 DUP2 PUSH2 0x15D3 JUMP JUMPDEST DUP2 EQ PUSH2 0x15EF JUMPI PUSH0 PUSH0 REVERT JUMPDEST POP JUMP JUMPDEST PUSH0 DUP2 CALLDATALOAD SWAP1 POP PUSH2 0x1600 DUP2 PUSH2 0x15DC JUMP JUMPDEST SWAP3 SWAP2 POP POP JUMP JUMPDEST PUSH0 PUSH1 0x20 DUP3 DUP5 SUB SLT ISZERO PUSH2 0x161B JUMPI PUSH2 0x161A PUSH2 0x1518 JUMP JUMPDEST JUMPDEST PUSH0 PUSH2 0x1628 DUP5 DUP3 DUP6 ADD PUSH2 0x15F2 JUMP JUMPDEST SWAP2 POP POP SWAP3 SWAP2 POP POP JUMP JUMPDEST PUSH0 PUSH20 0xFFFFFFFFFFFFFFFFFFFFFFFFFFFFFFFFFFFFFFFF DUP3 AND SWAP1 POP SWAP2 SWAP1 POP JUMP JUMPDEST PUSH0 PUSH2 0x165A DUP3 PUSH2 0x1631 JUMP JUMPDEST SWAP1 POP SWAP2 SWAP1 POP JUMP JUMPDEST PUSH2 0x166A DUP2 PUSH2 0x1650 JUMP JUMPDEST DUP3 MSTORE POP POP JUMP JUMPDEST PUSH0 PUSH1 0x20 DUP3 ADD SWAP1 POP PUSH2 0x1683 PUSH0 DUP4 ADD DUP5 PUSH2 0x1661 JUMP JUMPDEST SWAP3 SWAP2 POP POP JUMP JUMPDEST PUSH2 0x1692 DUP2 PUSH2 0x1650 JUMP JUMPDEST DUP2 EQ PUSH2 0x169C JUMPI PUSH0 PUSH0 REVERT JUMPDEST POP JUMP JUMPDEST PUSH0 DUP2 CALLDATALOAD SWAP1 POP PUSH2 0x16AD DUP2 PUSH2 0x1689 JUMP JUMPDEST SWAP3 SWAP2 POP POP JUMP JUMPDEST PUSH0 PUSH0 PUSH1 0x40 DUP4 DUP6 SUB SLT ISZERO PUSH2 0x16C9 JUMPI PUSH2 0x16C8 PUSH2 0x1518 JUMP JUMPDEST JUMPDEST PUSH0 PUSH2 0x16D6 DUP6 DUP3 DUP7 ADD PUSH2 0x169F JUMP JUMPDEST SWAP3 POP POP PUSH1 0x20 PUSH2 0x16E7 DUP6 DUP3 DUP7 ADD PUSH2 0x15F2 JUMP JUMPDEST SWAP2 POP POP SWAP3 POP SWAP3 SWAP1 POP JUMP JUMPDEST PUSH0 DUP2 SWAP1 POP SWAP2 SWAP1 POP JUMP JUMPDEST PUSH2 0x1703 DUP2 PUSH2 0x16F1 JUMP JUMPDEST DUP2 EQ PUSH2 0x170D JUMPI PUSH0 PUSH0 REVERT JUMPDEST POP JUMP JUMPDEST PUSH0 DUP2 CALLDATALOAD SWAP1 POP PUSH2 0x171E DUP2 PUSH2 0x16FA JUMP JUMPDEST SWAP3 SWAP2 POP POP JUMP JUMPDEST PUSH0 PUSH1 0x20 DUP3 DUP5 SUB SLT ISZERO PUSH2 0x1739 JUMPI PUSH2 0x1738 PUSH2 0x1518 JUMP JUMPDEST JUMPDEST PUSH0 PUSH2 0x1746 DUP5 DUP3 DUP6 ADD PUSH2 0x1710 JUMP JUMPDEST SWAP2 POP POP SWAP3 SWAP2 POP POP JUMP JUMPDEST PUSH2 0x1758 DUP2 PUSH2 0x16F1 JUMP JUMPDEST DUP3 MSTORE POP POP JUMP JUMPDEST PUSH0 PUSH1 0x20 DUP3 ADD SWAP1 POP PUSH2 0x1771 PUSH0 DUP4 ADD DUP5 PUSH2 0x174F JUMP JUMPDEST SWAP3 SWAP2 POP POP JUMP JUMPDEST PUSH0 PUSH0 PUSH1 0x40 DUP4 DUP6 SUB SLT ISZERO PUSH2 0x178D JUMPI PUSH2 0x178C PUSH2 0x1518 JUMP JUMPDEST JUMPDEST PUSH0 PUSH2 0x179A DUP6 DUP3 DUP7 ADD PUSH2 0x1710 JUMP JUMPDEST SWAP3 POP POP PUSH1 0x20 PUSH2 0x17AB DUP6 DUP3 DUP7 ADD PUSH2 0x169F JUMP JUMPDEST SWAP2 POP POP SWAP3 POP SWAP3 SWAP1 POP JUMP JUMPDEST PUSH0 PUSH0 PUSH1 0x40 DUP4 DUP6 SUB SLT ISZERO PUSH2 0x17CB JUMPI PUSH2 0x17CA PUSH2 0x1518 JUMP JUMPDEST JUMPDEST PUSH0 PUSH2 0x17D8 DUP6 DUP3 DUP7 ADD PUSH2 0x15F2 JUMP JUMPDEST SWAP3 POP POP PUSH1 0x20 PUSH2 0x17E9 DUP6 DUP3 DUP7 ADD PUSH2 0x15F2 JUMP JUMPDEST SWAP2 POP POP SWAP3 POP SWAP3 SWAP1 POP JUMP JUMPDEST PUSH0 DUP2 MLOAD SWAP1 POP SWAP2 SWAP1 POP JUMP JUMPDEST PUSH0 DUP3 DUP3 MSTORE PUSH1 0x20 DUP3 ADD SWAP1 POP SWAP3 SWAP2 POP POP JUMP JUMPDEST PUSH0 DUP2 SWAP1 POP PUSH1 0x20 DUP3 ADD SWAP1 POP SWAP2 SWAP1 POP JUMP JUMPDEST PUSH2 0x1825 DUP2 PUSH2 0x1650 JUMP JUMPDEST DUP3 MSTORE POP POP JUMP JUMPDEST PUSH2 0x1834 DUP2 PUSH2 0x15D3 JUMP JUMPDEST DUP3 MSTORE POP POP JUMP JUMPDEST PUSH1 0x40 DUP3 ADD PUSH0 DUP3 ADD MLOAD PUSH2 0x184E PUSH0 DUP6 ADD DUP3 PUSH2 0x181C JUMP JUMPDEST POP PUSH1 0x20 DUP3 ADD MLOAD PUSH2 0x1861 PUSH1 0x20 DUP6 ADD DUP3 PUSH2 0x182B JUMP JUMPDEST POP POP POP POP JUMP JUMPDEST PUSH0 PUSH2 0x1872 DUP4 DUP4 PUSH2 0x183A JUMP JUMPDEST PUSH1 0x40 DUP4 ADD SWAP1 POP SWAP3 SWAP2 POP POP JUMP JUMPDEST PUSH0 PUSH1 0x20 DUP3 ADD SWAP1 POP SWAP2 SWAP1 POP JUMP JUMPDEST PUSH0 PUSH2 0x1894 DUP3 PUSH2 0x17F3 JUMP JUMPDEST PUSH2 0x189E DUP2 DUP6 PUSH2 0x17FD JUMP JUMPDEST SWAP4 POP PUSH2 0x18A9 DUP4 PUSH2 0x180D JUMP JUMPDEST DUP1 PUSH0 JUMPDEST DUP4 DUP2 LT ISZERO PUSH2 0x18D9 JUMPI DUP2 MLOAD PUSH2 0x18C0 DUP9 DUP3 PUSH2 0x1867 JUMP JUMPDEST SWAP8 POP PUSH2 0x18CB DUP4 PUSH2 0x187E JUMP JUMPDEST SWAP3 POP POP PUSH1 0x1 DUP2 ADD SWAP1 POP PUSH2 0x18AC JUMP JUMPDEST POP DUP6 SWAP4 POP POP POP POP SWAP3 SWAP2 POP POP JUMP JUMPDEST PUSH0 PUSH1 0x20 DUP3 ADD SWAP1 POP DUP2 DUP2 SUB PUSH0 DUP4 ADD MSTORE PUSH2 0x18FE DUP2 DUP5 PUSH2 0x188A JUMP JUMPDEST SWAP1 POP SWAP3 SWAP2 POP POP JUMP JUMPDEST PUSH0 PUSH1 0x20 DUP3 DUP5 SUB SLT ISZERO PUSH2 0x191B JUMPI PUSH2 0x191A PUSH2 0x1518 JUMP JUMPDEST JUMPDEST PUSH0 PUSH2 0x1928 DUP5 DUP3 DUP6 ADD PUSH2 0x169F JUMP JUMPDEST SWAP2 POP POP SWAP3 SWAP2 POP POP JUMP JUMPDEST PUSH2 0x193A DUP2 PUSH2 0x15D3 JUMP JUMPDEST DUP3 MSTORE POP POP JUMP JUMPDEST PUSH0 PUSH1 0x20 DUP3 ADD SWAP1 POP PUSH2 0x1953 PUSH0 DUP4 ADD DUP5 PUSH2 0x1931 JUMP JUMPDEST SWAP3 SWAP2 POP POP JUMP JUMPDEST PUSH0 DUP2 SWAP1 POP SWAP2 SWAP1 POP JUMP JUMPDEST PUSH0 PUSH2 0x197C PUSH2 0x1977 PUSH2 0x1972 DUP5 PUSH2 0x1631 JUMP JUMPDEST PUSH2 0x1959 JUMP JUMPDEST PUSH2 0x1631 JUMP JUMPDEST SWAP1 POP SWAP2 SWAP1 POP JUMP JUMPDEST PUSH0 PUSH2 0x198D DUP3 PUSH2 0x1962 JUMP JUMPDEST SWAP1 POP SWAP2 SWAP1 POP JUMP JUMPDEST PUSH0 PUSH2 0x199E DUP3 PUSH2 0x1983 JUMP JUMPDEST SWAP1 POP SWAP2 SWAP1 POP JUMP JUMPDEST PUSH2 0x19AE DUP2 PUSH2 0x1994 JUMP JUMPDEST DUP3 MSTORE POP POP JUMP JUMPDEST PUSH0 PUSH1 0x20 DUP3 ADD SWAP1 POP PUSH2 0x19C7 PUSH0 DUP4 ADD DUP5 PUSH2 0x19A5 JUMP JUMPDEST SWAP3 SWAP2 POP POP JUMP JUMPDEST PUSH0 PUSH1 0x40 DUP3 ADD SWAP1 POP PUSH2 0x19E0 PUSH0 DUP4 ADD DUP6 PUSH2 0x1931 JUMP JUMPDEST PUSH2 0x19ED PUSH1 0x20 DUP4 ADD DUP5 PUSH2 0x1931 JUMP JUMPDEST SWAP4 SWAP3 POP POP POP JUMP JUMPDEST PUSH0 PUSH0 REVERT JUMPDEST PUSH0 PUSH0 REVERT JUMPDEST PUSH0 PUSH0 REVERT JUMPDEST PUSH0 PUSH0 DUP4 PUSH1 0x1F DUP5 ADD SLT PUSH2 0x1A15 JUMPI PUSH2 0x1A14 PUSH2 0x19F4 JUMP JUMPDEST JUMPDEST DUP3 CALLDATALOAD SWAP1 POP PUSH8 0xFFFFFFFFFFFFFFFF DUP2 GT ISZERO PUSH2 0x1A32 JUMPI PUSH2 0x1A31 PUSH2 0x19F8 JUMP JUMPDEST JUMPDEST PUSH1 0x20 DUP4 ADD SWAP2 POP DUP4 PUSH1 0x1 DUP3 MUL DUP4 ADD GT ISZERO PUSH2 0x1A4E JUMPI PUSH2 0x1A4D PUSH2 0x19FC JUMP JUMPDEST JUMPDEST SWAP3 POP SWAP3 SWAP1 POP JUMP JUMPDEST PUSH0 PUSH0 PUSH1 0x20 DUP4 DUP6 SUB SLT ISZERO PUSH2 0x1A6B JUMPI PUSH2 0x1A6A PUSH2 0x1518 JUMP JUMPDEST JUMPDEST PUSH0 DUP4 ADD CALLDATALOAD PUSH8 0xFFFFFFFFFFFFFFFF DUP2 GT ISZERO PUSH2 0x1A88 JUMPI PUSH2 0x1A87 PUSH2 0x151C JUMP JUMPDEST JUMPDEST PUSH2 0x1A94 DUP6 DUP3 DUP7 ADD PUSH2 0x1A00 JUMP JUMPDEST SWAP3 POP SWAP3 POP POP SWAP3 POP SWAP3 SWAP1 POP JUMP JUMPDEST PUSH0 DUP3 DUP3 MSTORE PUSH1 0x20 DUP3 ADD SWAP1 POP SWAP3 SWAP2 POP POP JUMP JUMPDEST PUSH32 0x496E76616C696420706C61796572206164647265737300000000000000000000 PUSH0 DUP3 ADD MSTORE POP JUMP JUMPDEST PUSH0 PUSH2 0x1AE4 PUSH1 0x16 DUP4 PUSH2 0x1AA0 JUMP JUMPDEST SWAP2 POP PUSH2 0x1AEF DUP3 PUSH2 0x1AB0 JUMP JUMPDEST PUSH1 0x20 DUP3 ADD SWAP1 POP SWAP2 SWAP1 POP JUMP JUMPDEST PUSH0 PUSH1 0x20 DUP3 ADD SWAP1 POP DUP2 DUP2 SUB PUSH0 DUP4 ADD MSTORE PUSH2 0x1B11 DUP2 PUSH2 0x1AD8 JUMP JUMPDEST SWAP1 POP SWAP2 SWAP1 POP JUMP JUMPDEST PUSH32 0x53636F7265206D7573742062652067726561746572207468616E207A65726F00 PUSH0 DUP3 ADD MSTORE POP JUMP JUMPDEST PUSH0 PUSH2 0x1B4C PUSH1 0x1F DUP4 PUSH2 0x1AA0 JUMP JUMPDEST SWAP2 POP PUSH2 0x1B57 DUP3 PUSH2 0x1B18 JUMP JUMPDEST PUSH1 0x20 DUP3 ADD SWAP1 POP SWAP2 SWAP1 POP JUMP JUMPDEST PUSH0 PUSH1 0x20 DUP3 ADD SWAP1 POP DUP2 DUP2 SUB PUSH0 DUP4 ADD MSTORE PUSH2 0x1B79 DUP2 PUSH2 0x1B40 JUMP JUMPDEST SWAP1 POP SWAP2 SWAP1 POP JUMP JUMPDEST PUSH32 0x4E487B7100000000000000000000000000000000000000000000000000000000 PUSH0 MSTORE PUSH1 0x11 PUSH1 0x4 MSTORE PUSH1 0x24 PUSH0 REVERT JUMPDEST PUSH0 PUSH2 0x1BB7 DUP3 PUSH2 0x15D3 JUMP JUMPDEST SWAP2 POP PUSH2 0x1BC2 DUP4 PUSH2 0x15D3 JUMP JUMPDEST SWAP3 POP DUP3 DUP3 ADD SWAP1 POP DUP1 DUP3 GT ISZERO PUSH2 0x1BDA JUMPI PUSH2 0x1BD9 PUSH2 0x1B80 JUMP JUMPDEST JUMPDEST SWAP3 SWAP2 POP POP JUMP JUMPDEST PUSH0 PUSH2 0x1BEA DUP3 PUSH2 0x15D3 JUMP JUMPDEST SWAP2 POP PUSH2 0x1BF5 DUP4 PUSH2 0x15D3 JUMP JUMPDEST SWAP3 POP DUP3 DUP3 MUL PUSH2 0x1C03 DUP2 PUSH2 0x15D3 JUMP JUMPDEST SWAP2 POP DUP3 DUP3 DIV DUP5 EQ DUP4 ISZERO OR PUSH2 0x1C1A JUMPI PUSH2 0x1C19 PUSH2 0x1B80 JUMP JUMPDEST JUMPDEST POP SWAP3 SWAP2 POP POP JUMP JUMPDEST PUSH32 0x4D756C7469706C696572206D7573742062652067726561746572207468616E20 PUSH0 DUP3 ADD MSTORE PUSH32 0x7A65726F00000000000000000000000000000000000000000000000000000000 PUSH1 0x20 DUP3 ADD MSTORE POP JUMP JUMPDEST PUSH0 PUSH2 0x1C7B PUSH1 0x24 DUP4 PUSH2 0x1AA0 JUMP JUMPDEST SWAP2 POP PUSH2 0x1C86 DUP3 PUSH2 0x1C21 JUMP JUMPDEST PUSH1 0x40 DUP3 ADD SWAP1 POP SWAP2 SWAP1 POP JUMP JUMPDEST PUSH0 PUSH1 0x20 DUP3 ADD SWAP1 POP DUP2 DUP2 SUB PUSH0 DUP4 ADD MSTORE PUSH2 0x1CA8 DUP2 PUSH2 0x1C6F JUMP JUMPDEST SWAP1 POP SWAP2 SWAP1 POP JUMP JUMPDEST PUSH32 0x4F6666736574206F7574206F6620626F756E6473000000000000000000000000 PUSH0 DUP3 ADD MSTORE POP JUMP JUMPDEST PUSH0 PUSH2 0x1CE3 PUSH1 0x14 DUP4 PUSH2 0x1AA0 JUMP JUMPDEST SWAP2 POP PUSH2 0x1CEE DUP3 PUSH2 0x1CAF JUMP JUMPDEST PUSH1 0x20 DUP3 ADD SWAP1 POP SWAP2 SWAP1 POP JUMP JUMPDEST PUSH0 PUSH1 0x20 DUP3 ADD SWAP1 POP DUP2 DUP2 SUB PUSH0 DUP4 ADD MSTORE PUSH2 0x1D10 DUP2 PUSH2 0x1CD7 JUMP JUMPDEST SWAP1 POP SWAP2 SWAP1 POP JUMP JUMPDEST PUSH0 PUSH2 0x1D21 DUP3 PUSH2 0x15D3 JUMP JUMPDEST SWAP2 POP PUSH2 0x1D2C DUP4 PUSH2 0x15D3 JUMP JUMPDEST SWAP3 POP DUP3 DUP3 SUB SWAP1 POP DUP2 DUP2 GT ISZERO PUSH2 0x1D44 JUMPI PUSH2 0x1D43 PUSH2 0x1B80 JUMP JUMPDEST JUMPDEST SWAP3 SWAP2 POP POP JUMP JUMPDEST PUSH32 0x4E487B7100000000000000000000000000000000000000000000000000000000 PUSH0 MSTORE PUSH1 0x41 PUSH1 0x4 MSTORE PUSH1 0x24 PUSH0 REVERT JUMPDEST PUSH32 0x4E487B7100000000000000000000000000000000000000000000000000000000 PUSH0 MSTORE PUSH1 0x32 PUSH1 0x4 MSTORE PUSH1 0x24 PUSH0 REVERT JUMPDEST PUSH0 PUSH2 0x1DAE DUP3 PUSH2 0x15D3 JUMP JUMPDEST SWAP2 POP PUSH32 0xFFFFFFFFFFFFFFFFFFFFFFFFFFFFFFFFFFFFFFFFFFFFFFFFFFFFFFFFFFFFFFFF DUP3 SUB PUSH2 0x1DE0 JUMPI PUSH2 0x1DDF PUSH2 0x1B80 JUMP JUMPDEST JUMPDEST PUSH1 0x1 DUP3 ADD SWAP1 POP SWAP2 SWAP1 POP JUMP JUMPDEST PUSH0 PUSH1 0x40 DUP3 ADD SWAP1 POP PUSH2 0x1DFE PUSH0 DUP4 ADD DUP6 PUSH2 0x1661 JUMP JUMPDEST PUSH2 0x1E0B PUSH1 0x20 DUP4 ADD DUP5 PUSH2 0x1661 JUMP JUMPDEST SWAP4 SWAP3 POP POP POP JUMP JUMPDEST PUSH0 DUP2 MLOAD SWAP1 POP PUSH2 0x1E20 DUP2 PUSH2 0x15DC JUMP JUMPDEST SWAP3 SWAP2 POP POP JUMP JUMPDEST PUSH0 PUSH1 0x20 DUP3 DUP5 SUB SLT ISZERO PUSH2 0x1E3B JUMPI PUSH2 0x1E3A PUSH2 0x1518 JUMP JUMPDEST JUMPDEST PUSH0 PUSH2 0x1E48 DUP5 DUP3 DUP6 ADD PUSH2 0x1E12 JUMP JUMPDEST SWAP2 POP POP SWAP3 SWAP2 POP POP JUMP JUMPDEST PUSH32 0x496E73756666696369656E7420616C6C6F77616E636500000000000000000000 PUSH0 DUP3 ADD MSTORE POP JUMP JUMPDEST PUSH0 PUSH2 0x1E85 PUSH1 0x16 DUP4 PUSH2 0x1AA0 JUMP JUMPDEST SWAP2 POP PUSH2 0x1E90 DUP3 PUSH2 0x1E51 JUMP JUMPDEST PUSH1 0x20 DUP3 ADD SWAP1 POP SWAP2 SWAP1 POP JUMP JUMPDEST PUSH0 PUSH1 0x20 DUP3 ADD SWAP1 POP DUP2 DUP2 SUB PUSH0 DUP4 ADD MSTORE PUSH2 0x1EB2 DUP2 PUSH2 0x1E79 JUMP JUMPDEST SWAP1 POP SWAP2 SWAP1 POP JUMP JUMPDEST DUP3 DUP2 DUP4 CALLDATACOPY PUSH0 DUP4 DUP4 ADD MSTORE POP POP POP JUMP JUMPDEST PUSH0 PUSH1 0x1F NOT PUSH1 0x1F DUP4 ADD AND SWAP1 POP SWAP2 SWAP1 POP JUMP JUMPDEST PUSH0 PUSH2 0x1EE2 DUP4 DUP6 PUSH2 0x1AA0 JUMP JUMPDEST SWAP4 POP PUSH2 0x1EEF DUP4 DUP6 DUP5 PUSH2 0x1EB9 JUMP JUMPDEST PUSH2 0x1EF8 DUP4 PUSH2 0x1EC7 JUMP JUMPDEST DUP5 ADD SWAP1 POP SWAP4 SWAP3 POP POP POP JUMP JUMPDEST PUSH0 PUSH1 0x20 DUP3 ADD SWAP1 POP DUP2 DUP2 SUB PUSH0 DUP4 ADD MSTORE PUSH2 0x1F1C DUP2 DUP5 DUP7 PUSH2 0x1ED7 JUMP JUMPDEST SWAP1 POP SWAP4 SWAP3 POP POP POP JUMP JUMPDEST PUSH0 PUSH1 0x40 DUP3 ADD SWAP1 POP PUSH2 0x1F38 PUSH0 DUP4 ADD DUP6 PUSH2 0x1661 JUMP JUMPDEST PUSH2 0x1F45 PUSH1 0x20 DUP4 ADD DUP5 PUSH2 0x1931 JUMP JUMPDEST SWAP4 SWAP3 POP POP POP JUMP JUMPDEST PUSH0 PUSH1 0x60 DUP3 ADD SWAP1 POP PUSH2 0x1F5F PUSH0 DUP4 ADD DUP7 PUSH2 0x1661 JUMP JUMPDEST PUSH2 0x1F6C PUSH1 0x20 DUP4 ADD DUP6 PUSH2 0x1661 JUMP JUMPDEST PUSH2 0x1F79 PUSH1 0x40 DUP4 ADD DUP5 PUSH2 0x1931 JUMP JUMPDEST SWAP5 SWAP4 POP POP POP POP JUMP JUMPDEST PUSH0 PUSH1 0x40 DUP3 ADD SWAP1 POP PUSH2 0x1F94 PUSH0 DUP4 ADD DUP6 PUSH2 0x1661 JUMP JUMPDEST PUSH2 0x1FA1 PUSH1 0x20 DUP4 ADD DUP5 PUSH2 0x174F JUMP JUMPDEST SWAP4 SWAP3 POP POP POP JUMP INVALID LOG2 PUSH5 0x6970667358 0x22 SLT KECCAK256 0xAF EXTCALL PUSH6 0x86EED2327A3F JUMPF 0xC5A9 STATICCALL BASEFEE PUSH18 0x9D66C53F90DCBDA49AD893D0D52F5E7AC364 PUSH20 0x6F6C634300081E00330000000000000000000000 "
				},
				"gasEstimates": {
					"creation": {
						"codeDepositCost": "1631600",
						"executionCost": "infinite",
						"totalCost": "infinite"
					},
					"external": {
						"ADMIN_ROLE()": "414",
						"DEFAULT_ADMIN_ROLE()": "374",
						"REPAIR_COST()": "347",
						"gameToken()": "infinite",
						"getLeaderboard(uint256,uint256)": "infinite",
						"getRoleAdmin(bytes32)": "infinite",
						"getScore(address)": "2878",
						"grantAdminRole(address)": "infinite",
						"grantRole(bytes32,address)": "infinite",
						"hasRole(bytes32,address)": "3231",
						"playerAddresses(uint256)": "4990",
						"players(address)": "infinite",
						"renounceRole(bytes32,address)": "infinite",
						"repairVehicle(string)": "infinite",
						"revokeAdminRole(address)": "infinite",
						"revokeRole(bytes32,address)": "infinite",
						"submitScore(address,uint256)": "infinite",
						"supportsInterface(bytes4)": "741",
						"tokenMultiplier()": "2492",
						"updateTokenMultiplier(uint256)": "infinite"
					}
				},
				"methodIdentifiers": {
					"ADMIN_ROLE()": "75b238fc",
					"DEFAULT_ADMIN_ROLE()": "a217fddf",
					"REPAIR_COST()": "d12af19a",
					"gameToken()": "c3dfdae6",
					"getLeaderboard(uint256,uint256)": "73af16fc",
					"getRoleAdmin(bytes32)": "248a9ca3",
					"getScore(address)": "d47875d0",
					"grantAdminRole(address)": "c634b78e",
					"grantRole(bytes32,address)": "2f2ff15d",
					"hasRole(bytes32,address)": "91d14854",
					"playerAddresses(uint256)": "15c6aee2",
					"players(address)": "e2eb41ff",
					"renounceRole(bytes32,address)": "36568abe",
					"repairVehicle(string)": "ed4b7eaa",
					"revokeAdminRole(address)": "9a19c7b0",
					"revokeRole(bytes32,address)": "d547741f",
					"submitScore(address,uint256)": "1db544c0",
					"supportsInterface(bytes4)": "01ffc9a7",
					"tokenMultiplier()": "ba3f5a12",
					"updateTokenMultiplier(uint256)": "3596362b"
				}
			},
			"storageLayout": {
				"storage": [
					{
						"astId": 27,
						"contract": "contracts/game.sol:GameLogic",
						"label": "_roles",
						"offset": 0,
						"slot": "0",
						"type": "t_mapping(t_bytes32,t_struct(RoleData)22_storage)"
					},
					{
						"astId": 1091,
						"contract": "contracts/game.sol:GameLogic",
						"label": "gameToken",
						"offset": 0,
						"slot": "1",
						"type": "t_contract(IERC20)547"
					},
					{
						"astId": 1094,
						"contract": "contracts/game.sol:GameLogic",
						"label": "tokenMultiplier",
						"offset": 0,
						"slot": "2",
						"type": "t_uint256"
					},
					{
						"astId": 1121,
						"contract": "contracts/game.sol:GameLogic",
						"label": "players",
						"offset": 0,
						"slot": "3",
						"type": "t_mapping(t_address,t_struct(Player)1111_storage)"
					},
					{
						"astId": 1124,
						"contract": "contracts/game.sol:GameLogic",
						"label": "playerAddresses",
						"offset": 0,
						"slot": "4",
						"type": "t_array(t_address)dyn_storage"
					}
				],
				"types": {
					"t_address": {
						"encoding": "inplace",
						"label": "address",
						"numberOfBytes": "20"
					},
					"t_array(t_address)dyn_storage": {
						"base": "t_address",
						"encoding": "dynamic_array",
						"label": "address[]",
						"numberOfBytes": "32"
					},
					"t_bool": {
						"encoding": "inplace",
						"label": "bool",
						"numberOfBytes": "1"
					},
					"t_bytes32": {
						"encoding": "inplace",
						"label": "bytes32",
						"numberOfBytes": "32"
					},
					"t_contract(IERC20)547": {
						"encoding": "inplace",
						"label": "contract IERC20",
						"numberOfBytes": "20"
					},
					"t_mapping(t_address,t_bool)": {
						"encoding": "mapping",
						"key": "t_address",
						"label": "mapping(address => bool)",
						"numberOfBytes": "32",
						"value": "t_bool"
					},
					"t_mapping(t_address,t_struct(Player)1111_storage)": {
						"encoding": "mapping",
						"key": "t_address",
						"label": "mapping(address => struct GameLogic.Player)",
						"numberOfBytes": "32",
						"value": "t_struct(Player)1111_storage"
					},
					"t_mapping(t_bytes32,t_struct(RoleData)22_storage)": {
						"encoding": "mapping",
						"key": "t_bytes32",
						"label": "mapping(bytes32 => struct AccessControl.RoleData)",
						"numberOfBytes": "32",
						"value": "t_struct(RoleData)22_storage"
					},
					"t_struct(Player)1111_storage": {
						"encoding": "inplace",
						"label": "struct GameLogic.Player",
						"members": [
							{
								"astId": 1108,
								"contract": "contracts/game.sol:GameLogic",
								"label": "score",
								"offset": 0,
								"slot": "0",
								"type": "t_uint256"
							},
							{
								"astId": 1110,
								"contract": "contracts/game.sol:GameLogic",
								"label": "lastSubmissionTimestamp",
								"offset": 0,
								"slot": "1",
								"type": "t_uint256"
							}
						],
						"numberOfBytes": "64"
					},
					"t_struct(RoleData)22_storage": {
						"encoding": "inplace",
						"label": "struct AccessControl.RoleData",
						"members": [
							{
								"astId": 19,
								"contract": "contracts/game.sol:GameLogic",
								"label": "hasRole",
								"offset": 0,
								"slot": "0",
								"type": "t_mapping(t_address,t_bool)"
							},
							{
								"astId": 21,
								"contract": "contracts/game.sol:GameLogic",
								"label": "adminRole",
								"offset": 0,
								"slot": "1",
								"type": "t_bytes32"
							}
						],
						"numberOfBytes": "64"
					},
					"t_uint256": {
						"encoding": "inplace",
						"label": "uint256",
						"numberOfBytes": "32"
					}
				}
			},
			"userdoc": {
				"kind": "user",
				"methods": {},
				"version": 1
			}
		}
	}
}