{
	"main.sol": {
		"GameLeaderboardTopN": {
			"abi": [
				{
					"anonymous": false,
					"inputs": [
						{
							"indexed": true,
							"internalType": "address",
							"name": "player",
							"type": "address"
						},
						{
							"indexed": false,
							"internalType": "uint256",
							"name": "achievementId",
							"type": "uint256"
						}
					],
					"name": "AchievementUnlocked",
					"type": "event"
				},
				{
					"anonymous": false,
					"inputs": [
						{
							"indexed": false,
							"internalType": "address[10]",
							"name": "topPlayers",
							"type": "address[10]"
						},
						{
							"indexed": false,
							"internalType": "uint256[10]",
							"name": "topScores",
							"type": "uint256[10]"
						}
					],
					"name": "LeaderboardUpdated",
					"type": "event"
				},
				{
					"anonymous": false,
					"inputs": [
						{
							"indexed": true,
							"internalType": "address",
							"name": "player",
							"type": "address"
						},
						{
							"indexed": false,
							"internalType": "uint256",
							"name": "score",
							"type": "uint256"
						}
					],
					"name": "ScoreSubmitted",
					"type": "event"
				},
				{
					"inputs": [],
					"name": "TOP_N",
					"outputs": [
						{
							"internalType": "uint256",
							"name": "",
							"type": "uint256"
						}
					],
					"stateMutability": "view",
					"type": "function"
				},
				{
					"inputs": [
						{
							"internalType": "address",
							"name": "addr",
							"type": "address"
						}
					],
					"name": "getPlayer",
					"outputs": [
						{
							"internalType": "uint256",
							"name": "highScore",
							"type": "uint256"
						},
						{
							"internalType": "uint256",
							"name": "achievements",
							"type": "uint256"
						}
					],
					"stateMutability": "view",
					"type": "function"
				},
				{
					"inputs": [],
					"name": "getTopPlayers",
					"outputs": [
						{
							"internalType": "address[10]",
							"name": "",
							"type": "address[10]"
						},
						{
							"internalType": "uint256[10]",
							"name": "",
							"type": "uint256[10]"
						}
					],
					"stateMutability": "view",
					"type": "function"
				},
				{
					"inputs": [
						{
							"internalType": "address",
							"name": "",
							"type": "address"
						}
					],
					"name": "players",
					"outputs": [
						{
							"internalType": "uint256",
							"name": "highScore",
							"type": "uint256"
						},
						{
							"internalType": "uint256",
							"name": "achievements",
							"type": "uint256"
						}
					],
					"stateMutability": "view",
					"type": "function"
				},
				{
					"inputs": [
						{
							"internalType": "uint256",
							"name": "score",
							"type": "uint256"
						}
					],
					"name": "submitScore",
					"outputs": [],
					"stateMutability": "nonpayable",
					"type": "function"
				},
				{
					"inputs": [
						{
							"internalType": "uint256",
							"name": "",
							"type": "uint256"
						}
					],
					"name": "topPlayers",
					"outputs": [
						{
							"internalType": "address",
							"name": "",
							"type": "address"
						}
					],
					"stateMutability": "view",
					"type": "function"
				},
				{
					"inputs": [
						{
							"internalType": "uint256",
							"name": "",
							"type": "uint256"
						}
					],
					"name": "topScores",
					"outputs": [
						{
							"internalType": "uint256",
							"name": "",
							"type": "uint256"
						}
					],
					"stateMutability": "view",
					"type": "function"
				},
				{
					"inputs": [
						{
							"internalType": "uint256",
							"name": "achievementId",
							"type": "uint256"
						}
					],
					"name": "unlockAchievement",
					"outputs": [],
					"stateMutability": "nonpayable",
					"type": "function"
				}
			],
			"devdoc": {
				"kind": "dev",
				"methods": {},
				"version": 1
			},
			"evm": {
				"assembly": "    /* \"main.sol\":58:2714  contract GameLeaderboardTopN {... */\n  mstore(0x40, 0x80)\n  callvalue\n  dup1\n  iszero\n  tag_1\n  jumpi\n  revert(0x00, 0x00)\ntag_1:\n  pop\n  dataSize(sub_0)\n  dup1\n  dataOffset(sub_0)\n  0x00\n  codecopy\n  0x00\n  return\nstop\n\nsub_0: assembly {\n        /* \"main.sol\":58:2714  contract GameLeaderboardTopN {... */\n      mstore(0x40, 0x80)\n      callvalue\n      dup1\n      iszero\n      tag_1\n      jumpi\n      revert(0x00, 0x00)\n    tag_1:\n      pop\n      jumpi(tag_2, lt(calldatasize, 0x04))\n      shr(0xe0, calldataload(0x00))\n      dup1\n      0xaff0b297\n      gt\n      tag_11\n      jumpi\n      dup1\n      0xaff0b297\n      eq\n      tag_7\n      jumpi\n      dup1\n      0xdfc22a6b\n      eq\n      tag_8\n      jumpi\n      dup1\n      0xe2eb41ff\n      eq\n      tag_9\n      jumpi\n      dup1\n      0xf5556c44\n      eq\n      tag_10\n      jumpi\n      jump(tag_2)\n    tag_11:\n      dup1\n      0x5112711a\n      eq\n      tag_3\n      jumpi\n      dup1\n      0x5c12cd4b\n      eq\n      tag_4\n      jumpi\n      dup1\n      0x88e814e6\n      eq\n      tag_5\n      jumpi\n      dup1\n      0xaf137ca8\n      eq\n      tag_6\n      jumpi\n    tag_2:\n      revert(0x00, 0x00)\n        /* \"main.sol\":329:360  uint256[TOP_N] public topScores */\n    tag_3:\n      tag_12\n      0x04\n      dup1\n      calldatasize\n      sub\n      dup2\n      add\n      swap1\n      tag_13\n      swap2\n      swap1\n      tag_14\n      jump\t// in\n    tag_13:\n      tag_15\n      jump\t// in\n    tag_12:\n      mload(0x40)\n      tag_16\n      swap2\n      swap1\n      tag_17\n      jump\t// in\n    tag_16:\n      mload(0x40)\n      dup1\n      swap2\n      sub\n      swap1\n      return\n        /* \"main.sol\":2321:2528  function getPlayer(address addr) external view returns (uint256 highScore, uint256 achievements) {... */\n    tag_4:\n      tag_18\n      0x04\n      dup1\n      calldatasize\n      sub\n      dup2\n      add\n      swap1\n      tag_19\n      swap2\n      swap1\n      tag_20\n      jump\t// in\n    tag_19:\n      tag_21\n      jump\t// in\n    tag_18:\n      mload(0x40)\n      tag_22\n      swap3\n      swap2\n      swap1\n      tag_23\n      jump\t// in\n    tag_22:\n      mload(0x40)\n      dup1\n      swap2\n      sub\n      swap1\n      return\n        /* \"main.sol\":2571:2712  function getTopPlayers() external view returns (address[TOP_N] memory, uint256[TOP_N] memory) {... */\n    tag_5:\n      tag_24\n      tag_25\n      jump\t// in\n    tag_24:\n      mload(0x40)\n      tag_26\n      swap3\n      swap2\n      swap1\n      tag_27\n      jump\t// in\n    tag_26:\n      mload(0x40)\n      dup1\n      swap2\n      sub\n      swap1\n      return\n        /* \"main.sol\":291:323  address[TOP_N] public topPlayers */\n    tag_6:\n      tag_28\n      0x04\n      dup1\n      calldatasize\n      sub\n      dup2\n      add\n      swap1\n      tag_29\n      swap2\n      swap1\n      tag_14\n      jump\t// in\n    tag_29:\n      tag_30\n      jump\t// in\n    tag_28:\n      mload(0x40)\n      tag_31\n      swap2\n      swap1\n      tag_32\n      jump\t// in\n    tag_31:\n      mload(0x40)\n      dup1\n      swap2\n      sub\n      swap1\n      return\n        /* \"main.sol\":634:957  function submitScore(uint256 score) external {... */\n    tag_7:\n      tag_33\n      0x04\n      dup1\n      calldatasize\n      sub\n      dup2\n      add\n      swap1\n      tag_34\n      swap2\n      swap1\n      tag_14\n      jump\t// in\n    tag_34:\n      tag_35\n      jump\t// in\n    tag_33:\n      stop\n        /* \"main.sol\":93:127  uint256 public constant TOP_N = 10 */\n    tag_8:\n      tag_36\n      tag_37\n      jump\t// in\n    tag_36:\n      mload(0x40)\n      tag_38\n      swap2\n      swap1\n      tag_17\n      jump\t// in\n    tag_38:\n      mload(0x40)\n      dup1\n      swap2\n      sub\n      swap1\n      return\n        /* \"main.sol\":218:259  mapping(address => Player) public players */\n    tag_9:\n      tag_39\n      0x04\n      dup1\n      calldatasize\n      sub\n      dup2\n      add\n      swap1\n      tag_40\n      swap2\n      swap1\n      tag_20\n      jump\t// in\n    tag_40:\n      tag_41\n      jump\t// in\n    tag_39:\n      mload(0x40)\n      tag_42\n      swap3\n      swap2\n      swap1\n      tag_23\n      jump\t// in\n    tag_42:\n      mload(0x40)\n      dup1\n      swap2\n      sub\n      swap1\n      return\n        /* \"main.sol\":992:1327  function unlockAchievement(uint256 achievementId) external {... */\n    tag_10:\n      tag_43\n      0x04\n      dup1\n      calldatasize\n      sub\n      dup2\n      add\n      swap1\n      tag_44\n      swap2\n      swap1\n      tag_14\n      jump\t// in\n    tag_44:\n      tag_45\n      jump\t// in\n    tag_43:\n      stop\n        /* \"main.sol\":329:360  uint256[TOP_N] public topScores */\n    tag_15:\n      0x0b\n      dup2\n      0x0a\n      dup2\n      lt\n      tag_46\n      jumpi\n      0x00\n      dup1\n      revert\n    tag_46:\n      add\n      0x00\n      swap2\n      pop\n      swap1\n      pop\n      sload\n      dup2\n      jump\t// out\n        /* \"main.sol\":2321:2528  function getPlayer(address addr) external view returns (uint256 highScore, uint256 achievements) {... */\n    tag_21:\n        /* \"main.sol\":2377:2394  uint256 highScore */\n      0x00\n        /* \"main.sol\":2396:2416  uint256 achievements */\n      0x00\n        /* \"main.sol\":2428:2449  Player storage player */\n      0x00\n        /* \"main.sol\":2452:2459  players */\n      0x00\n        /* \"main.sol\":2452:2465  players[addr] */\n      0x00\n        /* \"main.sol\":2460:2464  addr */\n      dup6\n        /* \"main.sol\":2452:2465  players[addr] */\n      0xffffffffffffffffffffffffffffffffffffffff\n      and\n      0xffffffffffffffffffffffffffffffffffffffff\n      and\n      dup2\n      mstore\n      0x20\n      add\n      swap1\n      dup2\n      mstore\n      0x20\n      add\n      0x00\n      keccak256\n        /* \"main.sol\":2428:2465  Player storage player = players[addr] */\n      swap1\n      pop\n        /* \"main.sol\":2483:2489  player */\n      dup1\n        /* \"main.sol\":2483:2499  player.highScore */\n      0x00\n      add\n      sload\n        /* \"main.sol\":2501:2507  player */\n      dup2\n        /* \"main.sol\":2501:2520  player.achievements */\n      0x01\n      add\n      sload\n        /* \"main.sol\":2475:2521  return (player.highScore, player.achievements) */\n      swap3\n      pop\n      swap3\n      pop\n      pop\n        /* \"main.sol\":2321:2528  function getPlayer(address addr) external view returns (uint256 highScore, uint256 achievements) {... */\n      swap2\n      pop\n      swap2\n      jump\t// out\n        /* \"main.sol\":2571:2712  function getTopPlayers() external view returns (address[TOP_N] memory, uint256[TOP_N] memory) {... */\n    tag_25:\n        /* \"main.sol\":2619:2640  address[TOP_N] memory */\n      tag_49\n      tag_50\n      jump\t// in\n    tag_49:\n        /* \"main.sol\":2642:2663  uint256[TOP_N] memory */\n      tag_51\n      tag_52\n      jump\t// in\n    tag_51:\n        /* \"main.sol\":2683:2693  topPlayers */\n      0x01\n        /* \"main.sol\":2695:2704  topScores */\n      0x0b\n        /* \"main.sol\":2675:2705  return (topPlayers, topScores) */\n      dup2\n      0x0a\n      dup1\n      0x20\n      mul\n      mload(0x40)\n      swap1\n      dup2\n      add\n      0x40\n      mstore\n      dup1\n      swap3\n      swap2\n      swap1\n      dup3\n      0x0a\n      dup1\n      iszero\n      tag_54\n      jumpi\n      0x20\n      mul\n      dup3\n      add\n      swap2\n    tag_55:\n      dup2\n      0x00\n      swap1\n      sload\n      swap1\n      0x0100\n      exp\n      swap1\n      div\n      0xffffffffffffffffffffffffffffffffffffffff\n      and\n      0xffffffffffffffffffffffffffffffffffffffff\n      and\n      dup2\n      mstore\n      0x20\n      add\n      swap1\n      0x01\n      add\n      swap1\n      dup1\n      dup4\n      gt\n      tag_55\n      jumpi\n    tag_54:\n      pop\n      pop\n      pop\n      pop\n      pop\n      swap2\n      pop\n      dup1\n      0x0a\n      dup1\n      0x20\n      mul\n      mload(0x40)\n      swap1\n      dup2\n      add\n      0x40\n      mstore\n      dup1\n      swap3\n      swap2\n      swap1\n      dup3\n      0x0a\n      dup1\n      iszero\n      tag_56\n      jumpi\n      0x20\n      mul\n      dup3\n      add\n      swap2\n    tag_57:\n      dup2\n      sload\n      dup2\n      mstore\n      0x20\n      add\n      swap1\n      0x01\n      add\n      swap1\n      dup1\n      dup4\n      gt\n      tag_57\n      jumpi\n    tag_56:\n      pop\n      pop\n      pop\n      pop\n      pop\n      swap1\n      pop\n      swap2\n      pop\n      swap2\n      pop\n        /* \"main.sol\":2571:2712  function getTopPlayers() external view returns (address[TOP_N] memory, uint256[TOP_N] memory) {... */\n      swap1\n      swap2\n      jump\t// out\n        /* \"main.sol\":291:323  address[TOP_N] public topPlayers */\n    tag_30:\n      0x01\n      dup2\n      0x0a\n      dup2\n      lt\n      tag_58\n      jumpi\n      0x00\n      dup1\n      revert\n    tag_58:\n      add\n      0x00\n      swap2\n      pop\n      sload\n      swap1\n      0x0100\n      exp\n      swap1\n      div\n      0xffffffffffffffffffffffffffffffffffffffff\n      and\n      dup2\n      jump\t// out\n        /* \"main.sol\":634:957  function submitScore(uint256 score) external {... */\n    tag_35:\n        /* \"main.sol\":689:710  Player storage player */\n      0x00\n        /* \"main.sol\":713:720  players */\n      0x00\n        /* \"main.sol\":713:732  players[msg.sender] */\n      0x00\n        /* \"main.sol\":721:731  msg.sender */\n      caller\n        /* \"main.sol\":713:732  players[msg.sender] */\n      0xffffffffffffffffffffffffffffffffffffffff\n      and\n      0xffffffffffffffffffffffffffffffffffffffff\n      and\n      dup2\n      mstore\n      0x20\n      add\n      swap1\n      dup2\n      mstore\n      0x20\n      add\n      0x00\n      keccak256\n        /* \"main.sol\":689:732  Player storage player = players[msg.sender] */\n      swap1\n      pop\n        /* \"main.sol\":758:764  player */\n      dup1\n        /* \"main.sol\":758:774  player.highScore */\n      0x00\n      add\n      sload\n        /* \"main.sol\":750:755  score */\n      dup3\n        /* \"main.sol\":750:774  score > player.highScore */\n      gt\n        /* \"main.sol\":742:819  require(score > player.highScore, \"Score not higher than current high score\") */\n      tag_61\n      jumpi\n      mload(0x40)\n      0x08c379a000000000000000000000000000000000000000000000000000000000\n      dup2\n      mstore\n      0x04\n      add\n      tag_62\n      swap1\n      tag_63\n      jump\t// in\n    tag_62:\n      mload(0x40)\n      dup1\n      swap2\n      sub\n      swap1\n      revert\n    tag_61:\n        /* \"main.sol\":849:854  score */\n      dup2\n        /* \"main.sol\":830:836  player */\n      dup2\n        /* \"main.sol\":830:846  player.highScore */\n      0x00\n      add\n        /* \"main.sol\":830:854  player.highScore = score */\n      dup2\n      swap1\n      sstore\n      pop\n        /* \"main.sol\":864:901  _updateLeaderboard(msg.sender, score) */\n      tag_64\n        /* \"main.sol\":883:893  msg.sender */\n      caller\n        /* \"main.sol\":895:900  score */\n      dup4\n        /* \"main.sol\":864:882  _updateLeaderboard */\n      tag_65\n        /* \"main.sol\":864:901  _updateLeaderboard(msg.sender, score) */\n      jump\t// in\n    tag_64:\n        /* \"main.sol\":932:942  msg.sender */\n      caller\n        /* \"main.sol\":917:950  ScoreSubmitted(msg.sender, score) */\n      0xffffffffffffffffffffffffffffffffffffffff\n      and\n      0xa578df9b0453d14d7ed8615ee0e9d58f70e041e91fc5865e3b71f81ea05296c0\n        /* \"main.sol\":944:949  score */\n      dup4\n        /* \"main.sol\":917:950  ScoreSubmitted(msg.sender, score) */\n      mload(0x40)\n      tag_66\n      swap2\n      swap1\n      tag_17\n      jump\t// in\n    tag_66:\n      mload(0x40)\n      dup1\n      swap2\n      sub\n      swap1\n      log2\n        /* \"main.sol\":679:957  {... */\n      pop\n        /* \"main.sol\":634:957  function submitScore(uint256 score) external {... */\n      pop\n      jump\t// out\n        /* \"main.sol\":93:127  uint256 public constant TOP_N = 10 */\n    tag_37:\n        /* \"main.sol\":125:127  10 */\n      0x0a\n        /* \"main.sol\":93:127  uint256 public constant TOP_N = 10 */\n      dup2\n      jump\t// out\n        /* \"main.sol\":218:259  mapping(address => Player) public players */\n    tag_41:\n      mstore(0x20, 0x00)\n      dup1\n      0x00\n      mstore\n      keccak256(0x00, 0x40)\n      0x00\n      swap2\n      pop\n      swap1\n      pop\n      dup1\n      0x00\n      add\n      sload\n      swap1\n      dup1\n      0x01\n      add\n      sload\n      swap1\n      pop\n      dup3\n      jump\t// out\n        /* \"main.sol\":992:1327  function unlockAchievement(uint256 achievementId) external {... */\n    tag_45:\n        /* \"main.sol\":1061:1082  Player storage player */\n      0x00\n        /* \"main.sol\":1085:1092  players */\n      0x00\n        /* \"main.sol\":1085:1104  players[msg.sender] */\n      0x00\n        /* \"main.sol\":1093:1103  msg.sender */\n      caller\n        /* \"main.sol\":1085:1104  players[msg.sender] */\n      0xffffffffffffffffffffffffffffffffffffffff\n      and\n      0xffffffffffffffffffffffffffffffffffffffff\n      and\n      dup2\n      mstore\n      0x20\n      add\n      swap1\n      dup2\n      mstore\n      0x20\n      add\n      0x00\n      keccak256\n        /* \"main.sol\":1061:1104  Player storage player = players[msg.sender] */\n      swap1\n      pop\n        /* \"main.sol\":1170:1171  0 */\n      0x00\n        /* \"main.sol\":1151:1164  achievementId */\n      dup3\n        /* \"main.sol\":1146:1147  1 */\n      0x01\n        /* \"main.sol\":1146:1164  1 << achievementId */\n      swap1\n      shl\n        /* \"main.sol\":1123:1129  player */\n      dup3\n        /* \"main.sol\":1123:1142  player.achievements */\n      0x01\n      add\n      sload\n        /* \"main.sol\":1123:1165  player.achievements & (1 << achievementId) */\n      and\n        /* \"main.sol\":1122:1171  (player.achievements & (1 << achievementId)) == 0 */\n      eq\n        /* \"main.sol\":1114:1204  require((player.achievements & (1 << achievementId)) == 0, \"Achievement already unlocked\") */\n      tag_68\n      jumpi\n      mload(0x40)\n      0x08c379a000000000000000000000000000000000000000000000000000000000\n      dup2\n      mstore\n      0x04\n      add\n      tag_69\n      swap1\n      tag_70\n      jump\t// in\n    tag_69:\n      mload(0x40)\n      dup1\n      swap2\n      sub\n      swap1\n      revert\n    tag_68:\n        /* \"main.sol\":1244:1257  achievementId */\n      dup2\n        /* \"main.sol\":1239:1240  1 */\n      0x01\n        /* \"main.sol\":1239:1257  1 << achievementId */\n      swap1\n      shl\n        /* \"main.sol\":1215:1221  player */\n      dup2\n        /* \"main.sol\":1215:1234  player.achievements */\n      0x01\n      add\n      0x00\n        /* \"main.sol\":1215:1258  player.achievements |= (1 << achievementId) */\n      dup3\n      dup3\n      sload\n      or\n      swap3\n      pop\n      pop\n      dup2\n      swap1\n      sstore\n      pop\n        /* \"main.sol\":1294:1304  msg.sender */\n      caller\n        /* \"main.sol\":1274:1320  AchievementUnlocked(msg.sender, achievementId) */\n      0xffffffffffffffffffffffffffffffffffffffff\n      and\n      0xecfcf3a608fefe3b6ea7d5efc965cfc3ad0043767f8618944c737253329892d7\n        /* \"main.sol\":1306:1319  achievementId */\n      dup4\n        /* \"main.sol\":1274:1320  AchievementUnlocked(msg.sender, achievementId) */\n      mload(0x40)\n      tag_71\n      swap2\n      swap1\n      tag_17\n      jump\t// in\n    tag_71:\n      mload(0x40)\n      dup1\n      swap2\n      sub\n      swap1\n      log2\n        /* \"main.sol\":1051:1327  {... */\n      pop\n        /* \"main.sol\":992:1327  function unlockAchievement(uint256 achievementId) external {... */\n      pop\n      jump\t// out\n        /* \"main.sol\":1386:2292  function _updateLeaderboard(address playerAddr, uint256 score) internal {... */\n    tag_65:\n        /* \"main.sol\":1511:1530  int256 currentIndex */\n      0x00\n        /* \"main.sol\":1533:1535  -1 */\n      0xffffffffffffffffffffffffffffffffffffffffffffffffffffffffffffffff\n        /* \"main.sol\":1511:1535  int256 currentIndex = -1 */\n      swap1\n      pop\n        /* \"main.sol\":1550:1559  uint256 i */\n      0x00\n        /* \"main.sol\":1562:1563  0 */\n      0x00\n        /* \"main.sol\":1550:1563  uint256 i = 0 */\n      swap1\n      pop\n        /* \"main.sol\":1545:1718  for (uint256 i = 0; i < TOP_N; i++) {... */\n    tag_73:\n        /* \"main.sol\":125:127  10 */\n      0x0a\n        /* \"main.sol\":1565:1566  i */\n      dup2\n        /* \"main.sol\":1565:1574  i < TOP_N */\n      lt\n        /* \"main.sol\":1545:1718  for (uint256 i = 0; i < TOP_N; i++) {... */\n      iszero\n      tag_74\n      jumpi\n        /* \"main.sol\":1616:1626  playerAddr */\n      dup4\n        /* \"main.sol\":1599:1626  topPlayers[i] == playerAddr */\n      0xffffffffffffffffffffffffffffffffffffffff\n      and\n        /* \"main.sol\":1599:1609  topPlayers */\n      0x01\n        /* \"main.sol\":1610:1611  i */\n      dup3\n        /* \"main.sol\":1599:1612  topPlayers[i] */\n      0x0a\n      dup2\n      lt\n      tag_76\n      jumpi\n      tag_77\n      tag_78\n      jump\t// in\n    tag_77:\n    tag_76:\n      add\n      0x00\n      swap1\n      sload\n      swap1\n      0x0100\n      exp\n      swap1\n      div\n      0xffffffffffffffffffffffffffffffffffffffff\n      and\n        /* \"main.sol\":1599:1626  topPlayers[i] == playerAddr */\n      0xffffffffffffffffffffffffffffffffffffffff\n      and\n      sub\n        /* \"main.sol\":1595:1708  if (topPlayers[i] == playerAddr) {... */\n      tag_80\n      jumpi\n        /* \"main.sol\":1668:1669  i */\n      dup1\n        /* \"main.sol\":1646:1670  currentIndex = int256(i) */\n      swap2\n      pop\n        /* \"main.sol\":1688:1693  break */\n      jump(tag_74)\n        /* \"main.sol\":1595:1708  if (topPlayers[i] == playerAddr) {... */\n    tag_80:\n        /* \"main.sol\":1576:1579  i++ */\n      dup1\n      dup1\n      0x01\n      add\n      swap2\n      pop\n      pop\n        /* \"main.sol\":1545:1718  for (uint256 i = 0; i < TOP_N; i++) {... */\n      jump(tag_73)\n    tag_74:\n      pop\n        /* \"main.sol\":1761:1770  uint256 i */\n      0x00\n        /* \"main.sol\":1773:1774  0 */\n      0x00\n        /* \"main.sol\":1761:1774  uint256 i = 0 */\n      swap1\n      pop\n        /* \"main.sol\":1756:2229  for (uint256 i = 0; i < TOP_N; i++) {... */\n    tag_81:\n        /* \"main.sol\":125:127  10 */\n      0x0a\n        /* \"main.sol\":1776:1777  i */\n      dup2\n        /* \"main.sol\":1776:1785  i < TOP_N */\n      lt\n        /* \"main.sol\":1756:2229  for (uint256 i = 0; i < TOP_N; i++) {... */\n      iszero\n      tag_82\n      jumpi\n        /* \"main.sol\":1818:1827  topScores */\n      0x0b\n        /* \"main.sol\":1828:1829  i */\n      dup2\n        /* \"main.sol\":1818:1830  topScores[i] */\n      0x0a\n      dup2\n      lt\n      tag_84\n      jumpi\n      tag_85\n      tag_78\n      jump\t// in\n    tag_85:\n    tag_84:\n      add\n      sload\n        /* \"main.sol\":1810:1815  score */\n      dup4\n        /* \"main.sol\":1810:1830  score > topScores[i] */\n      gt\n        /* \"main.sol\":1806:2219  if (score > topScores[i]) {... */\n      iszero\n      tag_87\n      jumpi\n        /* \"main.sol\":1898:1907  uint256 j */\n      0x00\n        /* \"main.sol\":1918:1919  1 */\n      0x01\n        /* \"main.sol\":125:127  10 */\n      0x0a\n        /* \"main.sol\":1910:1919  TOP_N - 1 */\n      tag_91\n      swap2\n      swap1\n      tag_92\n      jump\t// in\n    tag_91:\n        /* \"main.sol\":1898:1919  uint256 j = TOP_N - 1 */\n      swap1\n      pop\n        /* \"main.sol\":1893:2060  for (uint256 j = TOP_N - 1; j > i; j--) {... */\n    tag_88:\n        /* \"main.sol\":1925:1926  i */\n      dup2\n        /* \"main.sol\":1921:1922  j */\n      dup2\n        /* \"main.sol\":1921:1926  j > i */\n      gt\n        /* \"main.sol\":1893:2060  for (uint256 j = TOP_N - 1; j > i; j--) {... */\n      iszero\n      tag_89\n      jumpi\n        /* \"main.sol\":1971:1981  topPlayers */\n      0x01\n        /* \"main.sol\":1986:1987  1 */\n      dup1\n        /* \"main.sol\":1982:1983  j */\n      dup3\n        /* \"main.sol\":1982:1987  j - 1 */\n      tag_93\n      swap2\n      swap1\n      tag_92\n      jump\t// in\n    tag_93:\n        /* \"main.sol\":1971:1988  topPlayers[j - 1] */\n      0x0a\n      dup2\n      lt\n      tag_94\n      jumpi\n      tag_95\n      tag_78\n      jump\t// in\n    tag_95:\n    tag_94:\n      add\n      0x00\n      swap1\n      sload\n      swap1\n      0x0100\n      exp\n      swap1\n      div\n      0xffffffffffffffffffffffffffffffffffffffff\n      and\n        /* \"main.sol\":1955:1965  topPlayers */\n      0x01\n        /* \"main.sol\":1966:1967  j */\n      dup3\n        /* \"main.sol\":1955:1968  topPlayers[j] */\n      0x0a\n      dup2\n      lt\n      tag_97\n      jumpi\n      tag_98\n      tag_78\n      jump\t// in\n    tag_98:\n    tag_97:\n      add\n      0x00\n        /* \"main.sol\":1955:1988  topPlayers[j] = topPlayers[j - 1] */\n      0x0100\n      exp\n      dup2\n      sload\n      dup2\n      0xffffffffffffffffffffffffffffffffffffffff\n      mul\n      not\n      and\n      swap1\n      dup4\n      0xffffffffffffffffffffffffffffffffffffffff\n      and\n      mul\n      or\n      swap1\n      sstore\n      pop\n        /* \"main.sol\":2025:2034  topScores */\n      0x0b\n        /* \"main.sol\":2039:2040  1 */\n      0x01\n        /* \"main.sol\":2035:2036  j */\n      dup3\n        /* \"main.sol\":2035:2040  j - 1 */\n      tag_100\n      swap2\n      swap1\n      tag_92\n      jump\t// in\n    tag_100:\n        /* \"main.sol\":2025:2041  topScores[j - 1] */\n      0x0a\n      dup2\n      lt\n      tag_101\n      jumpi\n      tag_102\n      tag_78\n      jump\t// in\n    tag_102:\n    tag_101:\n      add\n      sload\n        /* \"main.sol\":2010:2019  topScores */\n      0x0b\n        /* \"main.sol\":2020:2021  j */\n      dup3\n        /* \"main.sol\":2010:2022  topScores[j] */\n      0x0a\n      dup2\n      lt\n      tag_104\n      jumpi\n      tag_105\n      tag_78\n      jump\t// in\n    tag_105:\n    tag_104:\n      add\n        /* \"main.sol\":2010:2041  topScores[j] = topScores[j - 1] */\n      dup2\n      swap1\n      sstore\n      pop\n        /* \"main.sol\":1928:1931  j-- */\n      dup1\n      dup1\n      tag_107\n      swap1\n      tag_108\n      jump\t// in\n    tag_107:\n      swap2\n      pop\n      pop\n        /* \"main.sol\":1893:2060  for (uint256 j = TOP_N - 1; j > i; j--) {... */\n      jump(tag_88)\n    tag_89:\n      pop\n        /* \"main.sol\":2133:2143  playerAddr */\n      dup4\n        /* \"main.sol\":2117:2127  topPlayers */\n      0x01\n        /* \"main.sol\":2128:2129  i */\n      dup3\n        /* \"main.sol\":2117:2130  topPlayers[i] */\n      0x0a\n      dup2\n      lt\n      tag_109\n      jumpi\n      tag_110\n      tag_78\n      jump\t// in\n    tag_110:\n    tag_109:\n      add\n      0x00\n        /* \"main.sol\":2117:2143  topPlayers[i] = playerAddr */\n      0x0100\n      exp\n      dup2\n      sload\n      dup2\n      0xffffffffffffffffffffffffffffffffffffffff\n      mul\n      not\n      and\n      swap1\n      dup4\n      0xffffffffffffffffffffffffffffffffffffffff\n      and\n      mul\n      or\n      swap1\n      sstore\n      pop\n        /* \"main.sol\":2176:2181  score */\n      dup3\n        /* \"main.sol\":2161:2170  topScores */\n      0x0b\n        /* \"main.sol\":2171:2172  i */\n      dup3\n        /* \"main.sol\":2161:2173  topScores[i] */\n      0x0a\n      dup2\n      lt\n      tag_112\n      jumpi\n      tag_113\n      tag_78\n      jump\t// in\n    tag_113:\n    tag_112:\n      add\n        /* \"main.sol\":2161:2181  topScores[i] = score */\n      dup2\n      swap1\n      sstore\n      pop\n        /* \"main.sol\":2199:2204  break */\n      jump(tag_82)\n        /* \"main.sol\":1806:2219  if (score > topScores[i]) {... */\n    tag_87:\n        /* \"main.sol\":1787:1790  i++ */\n      dup1\n      dup1\n      0x01\n      add\n      swap2\n      pop\n      pop\n        /* \"main.sol\":1756:2229  for (uint256 i = 0; i < TOP_N; i++) {... */\n      jump(tag_81)\n    tag_82:\n      pop\n        /* \"main.sol\":2244:2285  LeaderboardUpdated(topPlayers, topScores) */\n      0x3ac3291d6b440f4c2faa1d819aeebdaca8f721badda0885fe12114814467d18c\n        /* \"main.sol\":2263:2273  topPlayers */\n      0x01\n        /* \"main.sol\":2275:2284  topScores */\n      0x0b\n        /* \"main.sol\":2244:2285  LeaderboardUpdated(topPlayers, topScores) */\n      mload(0x40)\n      tag_115\n      swap3\n      swap2\n      swap1\n      tag_116\n      jump\t// in\n    tag_115:\n      mload(0x40)\n      dup1\n      swap2\n      sub\n      swap1\n      log1\n        /* \"main.sol\":1458:2292  {... */\n      pop\n        /* \"main.sol\":1386:2292  function _updateLeaderboard(address playerAddr, uint256 score) internal {... */\n      pop\n      pop\n      jump\t// out\n    tag_50:\n      mload(0x40)\n      dup1\n      0x0140\n      add\n      0x40\n      mstore\n      dup1\n      0x0a\n      swap1\n      0x20\n      dup3\n      mul\n      dup1\n      calldatasize\n      dup4\n      calldatacopy\n      dup1\n      dup3\n      add\n      swap2\n      pop\n      pop\n      swap1\n      pop\n      pop\n      swap1\n      jump\t// out\n    tag_52:\n      mload(0x40)\n      dup1\n      0x0140\n      add\n      0x40\n      mstore\n      dup1\n      0x0a\n      swap1\n      0x20\n      dup3\n      mul\n      dup1\n      calldatasize\n      dup4\n      calldatacopy\n      dup1\n      dup3\n      add\n      swap2\n      pop\n      pop\n      swap1\n      pop\n      pop\n      swap1\n      jump\t// out\n        /* \"#utility.yul\":88:205   */\n    tag_118:\n        /* \"#utility.yul\":197:198   */\n      0x00\n        /* \"#utility.yul\":194:195   */\n      0x00\n        /* \"#utility.yul\":187:199   */\n      revert\n        /* \"#utility.yul\":334:411   */\n    tag_120:\n        /* \"#utility.yul\":371:378   */\n      0x00\n        /* \"#utility.yul\":400:405   */\n      dup2\n        /* \"#utility.yul\":389:405   */\n      swap1\n      pop\n        /* \"#utility.yul\":334:411   */\n      swap2\n      swap1\n      pop\n      jump\t// out\n        /* \"#utility.yul\":417:539   */\n    tag_121:\n        /* \"#utility.yul\":490:514   */\n      tag_170\n        /* \"#utility.yul\":508:513   */\n      dup2\n        /* \"#utility.yul\":490:514   */\n      tag_120\n      jump\t// in\n    tag_170:\n        /* \"#utility.yul\":483:488   */\n      dup2\n        /* \"#utility.yul\":480:515   */\n      eq\n        /* \"#utility.yul\":470:533   */\n      tag_171\n      jumpi\n        /* \"#utility.yul\":529:530   */\n      0x00\n        /* \"#utility.yul\":526:527   */\n      0x00\n        /* \"#utility.yul\":519:531   */\n      revert\n        /* \"#utility.yul\":470:533   */\n    tag_171:\n        /* \"#utility.yul\":417:539   */\n      pop\n      jump\t// out\n        /* \"#utility.yul\":545:684   */\n    tag_122:\n        /* \"#utility.yul\":591:596   */\n      0x00\n        /* \"#utility.yul\":629:635   */\n      dup2\n        /* \"#utility.yul\":616:636   */\n      calldataload\n        /* \"#utility.yul\":607:636   */\n      swap1\n      pop\n        /* \"#utility.yul\":645:678   */\n      tag_173\n        /* \"#utility.yul\":672:677   */\n      dup2\n        /* \"#utility.yul\":645:678   */\n      tag_121\n      jump\t// in\n    tag_173:\n        /* \"#utility.yul\":545:684   */\n      swap3\n      swap2\n      pop\n      pop\n      jump\t// out\n        /* \"#utility.yul\":690:1019   */\n    tag_14:\n        /* \"#utility.yul\":749:755   */\n      0x00\n        /* \"#utility.yul\":798:800   */\n      0x20\n        /* \"#utility.yul\":786:795   */\n      dup3\n        /* \"#utility.yul\":777:784   */\n      dup5\n        /* \"#utility.yul\":773:796   */\n      sub\n        /* \"#utility.yul\":769:801   */\n      slt\n        /* \"#utility.yul\":766:885   */\n      iszero\n      tag_175\n      jumpi\n        /* \"#utility.yul\":804:883   */\n      tag_176\n      tag_118\n      jump\t// in\n    tag_176:\n        /* \"#utility.yul\":766:885   */\n    tag_175:\n        /* \"#utility.yul\":924:925   */\n      0x00\n        /* \"#utility.yul\":949:1002   */\n      tag_177\n        /* \"#utility.yul\":994:1001   */\n      dup5\n        /* \"#utility.yul\":985:991   */\n      dup3\n        /* \"#utility.yul\":974:983   */\n      dup6\n        /* \"#utility.yul\":970:992   */\n      add\n        /* \"#utility.yul\":949:1002   */\n      tag_122\n      jump\t// in\n    tag_177:\n        /* \"#utility.yul\":939:1002   */\n      swap2\n      pop\n        /* \"#utility.yul\":895:1012   */\n      pop\n        /* \"#utility.yul\":690:1019   */\n      swap3\n      swap2\n      pop\n      pop\n      jump\t// out\n        /* \"#utility.yul\":1025:1143   */\n    tag_123:\n        /* \"#utility.yul\":1112:1136   */\n      tag_179\n        /* \"#utility.yul\":1130:1135   */\n      dup2\n        /* \"#utility.yul\":1112:1136   */\n      tag_120\n      jump\t// in\n    tag_179:\n        /* \"#utility.yul\":1107:1110   */\n      dup3\n        /* \"#utility.yul\":1100:1137   */\n      mstore\n        /* \"#utility.yul\":1025:1143   */\n      pop\n      pop\n      jump\t// out\n        /* \"#utility.yul\":1149:1371   */\n    tag_17:\n        /* \"#utility.yul\":1242:1246   */\n      0x00\n        /* \"#utility.yul\":1280:1282   */\n      0x20\n        /* \"#utility.yul\":1269:1278   */\n      dup3\n        /* \"#utility.yul\":1265:1283   */\n      add\n        /* \"#utility.yul\":1257:1283   */\n      swap1\n      pop\n        /* \"#utility.yul\":1293:1364   */\n      tag_181\n        /* \"#utility.yul\":1361:1362   */\n      0x00\n        /* \"#utility.yul\":1350:1359   */\n      dup4\n        /* \"#utility.yul\":1346:1363   */\n      add\n        /* \"#utility.yul\":1337:1343   */\n      dup5\n        /* \"#utility.yul\":1293:1364   */\n      tag_123\n      jump\t// in\n    tag_181:\n        /* \"#utility.yul\":1149:1371   */\n      swap3\n      swap2\n      pop\n      pop\n      jump\t// out\n        /* \"#utility.yul\":1377:1503   */\n    tag_124:\n        /* \"#utility.yul\":1414:1421   */\n      0x00\n        /* \"#utility.yul\":1454:1496   */\n      0xffffffffffffffffffffffffffffffffffffffff\n        /* \"#utility.yul\":1447:1452   */\n      dup3\n        /* \"#utility.yul\":1443:1497   */\n      and\n        /* \"#utility.yul\":1432:1497   */\n      swap1\n      pop\n        /* \"#utility.yul\":1377:1503   */\n      swap2\n      swap1\n      pop\n      jump\t// out\n        /* \"#utility.yul\":1509:1605   */\n    tag_125:\n        /* \"#utility.yul\":1546:1553   */\n      0x00\n        /* \"#utility.yul\":1575:1599   */\n      tag_184\n        /* \"#utility.yul\":1593:1598   */\n      dup3\n        /* \"#utility.yul\":1575:1599   */\n      tag_124\n      jump\t// in\n    tag_184:\n        /* \"#utility.yul\":1564:1599   */\n      swap1\n      pop\n        /* \"#utility.yul\":1509:1605   */\n      swap2\n      swap1\n      pop\n      jump\t// out\n        /* \"#utility.yul\":1611:1733   */\n    tag_126:\n        /* \"#utility.yul\":1684:1708   */\n      tag_186\n        /* \"#utility.yul\":1702:1707   */\n      dup2\n        /* \"#utility.yul\":1684:1708   */\n      tag_125\n      jump\t// in\n    tag_186:\n        /* \"#utility.yul\":1677:1682   */\n      dup2\n        /* \"#utility.yul\":1674:1709   */\n      eq\n        /* \"#utility.yul\":1664:1727   */\n      tag_187\n      jumpi\n        /* \"#utility.yul\":1723:1724   */\n      0x00\n        /* \"#utility.yul\":1720:1721   */\n      0x00\n        /* \"#utility.yul\":1713:1725   */\n      revert\n        /* \"#utility.yul\":1664:1727   */\n    tag_187:\n        /* \"#utility.yul\":1611:1733   */\n      pop\n      jump\t// out\n        /* \"#utility.yul\":1739:1878   */\n    tag_127:\n        /* \"#utility.yul\":1785:1790   */\n      0x00\n        /* \"#utility.yul\":1823:1829   */\n      dup2\n        /* \"#utility.yul\":1810:1830   */\n      calldataload\n        /* \"#utility.yul\":1801:1830   */\n      swap1\n      pop\n        /* \"#utility.yul\":1839:1872   */\n      tag_189\n        /* \"#utility.yul\":1866:1871   */\n      dup2\n        /* \"#utility.yul\":1839:1872   */\n      tag_126\n      jump\t// in\n    tag_189:\n        /* \"#utility.yul\":1739:1878   */\n      swap3\n      swap2\n      pop\n      pop\n      jump\t// out\n        /* \"#utility.yul\":1884:2213   */\n    tag_20:\n        /* \"#utility.yul\":1943:1949   */\n      0x00\n        /* \"#utility.yul\":1992:1994   */\n      0x20\n        /* \"#utility.yul\":1980:1989   */\n      dup3\n        /* \"#utility.yul\":1971:1978   */\n      dup5\n        /* \"#utility.yul\":1967:1990   */\n      sub\n        /* \"#utility.yul\":1963:1995   */\n      slt\n        /* \"#utility.yul\":1960:2079   */\n      iszero\n      tag_191\n      jumpi\n        /* \"#utility.yul\":1998:2077   */\n      tag_192\n      tag_118\n      jump\t// in\n    tag_192:\n        /* \"#utility.yul\":1960:2079   */\n    tag_191:\n        /* \"#utility.yul\":2118:2119   */\n      0x00\n        /* \"#utility.yul\":2143:2196   */\n      tag_193\n        /* \"#utility.yul\":2188:2195   */\n      dup5\n        /* \"#utility.yul\":2179:2185   */\n      dup3\n        /* \"#utility.yul\":2168:2177   */\n      dup6\n        /* \"#utility.yul\":2164:2186   */\n      add\n        /* \"#utility.yul\":2143:2196   */\n      tag_127\n      jump\t// in\n    tag_193:\n        /* \"#utility.yul\":2133:2196   */\n      swap2\n      pop\n        /* \"#utility.yul\":2089:2206   */\n      pop\n        /* \"#utility.yul\":1884:2213   */\n      swap3\n      swap2\n      pop\n      pop\n      jump\t// out\n        /* \"#utility.yul\":2219:2551   */\n    tag_23:\n        /* \"#utility.yul\":2340:2344   */\n      0x00\n        /* \"#utility.yul\":2378:2380   */\n      0x40\n        /* \"#utility.yul\":2367:2376   */\n      dup3\n        /* \"#utility.yul\":2363:2381   */\n      add\n        /* \"#utility.yul\":2355:2381   */\n      swap1\n      pop\n        /* \"#utility.yul\":2391:2462   */\n      tag_195\n        /* \"#utility.yul\":2459:2460   */\n      0x00\n        /* \"#utility.yul\":2448:2457   */\n      dup4\n        /* \"#utility.yul\":2444:2461   */\n      add\n        /* \"#utility.yul\":2435:2441   */\n      dup6\n        /* \"#utility.yul\":2391:2462   */\n      tag_123\n      jump\t// in\n    tag_195:\n        /* \"#utility.yul\":2472:2544   */\n      tag_196\n        /* \"#utility.yul\":2540:2542   */\n      0x20\n        /* \"#utility.yul\":2529:2538   */\n      dup4\n        /* \"#utility.yul\":2525:2543   */\n      add\n        /* \"#utility.yul\":2516:2522   */\n      dup5\n        /* \"#utility.yul\":2472:2544   */\n      tag_123\n      jump\t// in\n    tag_196:\n        /* \"#utility.yul\":2219:2551   */\n      swap4\n      swap3\n      pop\n      pop\n      pop\n      jump\t// out\n        /* \"#utility.yul\":2557:2662   */\n    tag_128:\n        /* \"#utility.yul\":2623:2629   */\n      0x00\n        /* \"#utility.yul\":2651:2655   */\n      0x0a\n        /* \"#utility.yul\":2641:2655   */\n      swap1\n      pop\n        /* \"#utility.yul\":2557:2662   */\n      swap2\n      swap1\n      pop\n      jump\t// out\n        /* \"#utility.yul\":2668:2812   */\n    tag_129:\n        /* \"#utility.yul\":2766:2777   */\n      0x00\n        /* \"#utility.yul\":2803:2806   */\n      dup2\n        /* \"#utility.yul\":2788:2806   */\n      swap1\n      pop\n        /* \"#utility.yul\":2668:2812   */\n      swap3\n      swap2\n      pop\n      pop\n      jump\t// out\n        /* \"#utility.yul\":2818:2917   */\n    tag_130:\n        /* \"#utility.yul\":2884:2888   */\n      0x00\n        /* \"#utility.yul\":2907:2910   */\n      dup2\n        /* \"#utility.yul\":2899:2910   */\n      swap1\n      pop\n        /* \"#utility.yul\":2818:2917   */\n      swap2\n      swap1\n      pop\n      jump\t// out\n        /* \"#utility.yul\":2923:3031   */\n    tag_131:\n        /* \"#utility.yul\":3000:3024   */\n      tag_201\n        /* \"#utility.yul\":3018:3023   */\n      dup2\n        /* \"#utility.yul\":3000:3024   */\n      tag_125\n      jump\t// in\n    tag_201:\n        /* \"#utility.yul\":2995:2998   */\n      dup3\n        /* \"#utility.yul\":2988:3025   */\n      mstore\n        /* \"#utility.yul\":2923:3031   */\n      pop\n      pop\n      jump\t// out\n        /* \"#utility.yul\":3037:3216   */\n    tag_132:\n        /* \"#utility.yul\":3106:3116   */\n      0x00\n        /* \"#utility.yul\":3127:3173   */\n      tag_203\n        /* \"#utility.yul\":3169:3172   */\n      dup4\n        /* \"#utility.yul\":3161:3167   */\n      dup4\n        /* \"#utility.yul\":3127:3173   */\n      tag_131\n      jump\t// in\n    tag_203:\n        /* \"#utility.yul\":3205:3209   */\n      0x20\n        /* \"#utility.yul\":3200:3203   */\n      dup4\n        /* \"#utility.yul\":3196:3210   */\n      add\n        /* \"#utility.yul\":3182:3210   */\n      swap1\n      pop\n        /* \"#utility.yul\":3037:3216   */\n      swap3\n      swap2\n      pop\n      pop\n      jump\t// out\n        /* \"#utility.yul\":3222:3334   */\n    tag_133:\n        /* \"#utility.yul\":3291:3295   */\n      0x00\n        /* \"#utility.yul\":3323:3327   */\n      0x20\n        /* \"#utility.yul\":3318:3321   */\n      dup3\n        /* \"#utility.yul\":3314:3328   */\n      add\n        /* \"#utility.yul\":3306:3328   */\n      swap1\n      pop\n        /* \"#utility.yul\":3222:3334   */\n      swap2\n      swap1\n      pop\n      jump\t// out\n        /* \"#utility.yul\":3374:4074   */\n    tag_134:\n        /* \"#utility.yul\":3512:3565   */\n      tag_206\n        /* \"#utility.yul\":3559:3564   */\n      dup2\n        /* \"#utility.yul\":3512:3565   */\n      tag_128\n      jump\t// in\n    tag_206:\n        /* \"#utility.yul\":3581:3666   */\n      tag_207\n        /* \"#utility.yul\":3659:3665   */\n      dup2\n        /* \"#utility.yul\":3654:3657   */\n      dup5\n        /* \"#utility.yul\":3581:3666   */\n      tag_129\n      jump\t// in\n    tag_207:\n        /* \"#utility.yul\":3574:3666   */\n      swap3\n      pop\n        /* \"#utility.yul\":3690:3745   */\n      tag_208\n        /* \"#utility.yul\":3739:3744   */\n      dup3\n        /* \"#utility.yul\":3690:3745   */\n      tag_130\n      jump\t// in\n    tag_208:\n        /* \"#utility.yul\":3768:3775   */\n      dup1\n        /* \"#utility.yul\":3799:3800   */\n      0x00\n        /* \"#utility.yul\":3784:4067   */\n    tag_209:\n        /* \"#utility.yul\":3809:3815   */\n      dup4\n        /* \"#utility.yul\":3806:3807   */\n      dup2\n        /* \"#utility.yul\":3803:3816   */\n      lt\n        /* \"#utility.yul\":3784:4067   */\n      iszero\n      tag_211\n      jumpi\n        /* \"#utility.yul\":3885:3891   */\n      dup2\n        /* \"#utility.yul\":3879:3892   */\n      mload\n        /* \"#utility.yul\":3912:3975   */\n      tag_212\n        /* \"#utility.yul\":3971:3974   */\n      dup8\n        /* \"#utility.yul\":3956:3969   */\n      dup3\n        /* \"#utility.yul\":3912:3975   */\n      tag_132\n      jump\t// in\n    tag_212:\n        /* \"#utility.yul\":3905:3975   */\n      swap7\n      pop\n        /* \"#utility.yul\":3998:4057   */\n      tag_213\n        /* \"#utility.yul\":4050:4056   */\n      dup4\n        /* \"#utility.yul\":3998:4057   */\n      tag_133\n      jump\t// in\n    tag_213:\n        /* \"#utility.yul\":3988:4057   */\n      swap3\n      pop\n        /* \"#utility.yul\":3844:4067   */\n      pop\n        /* \"#utility.yul\":3831:3832   */\n      0x01\n        /* \"#utility.yul\":3828:3829   */\n      dup2\n        /* \"#utility.yul\":3824:3833   */\n      add\n        /* \"#utility.yul\":3819:3833   */\n      swap1\n      pop\n        /* \"#utility.yul\":3784:4067   */\n      jump(tag_209)\n    tag_211:\n        /* \"#utility.yul\":3788:3802   */\n      pop\n        /* \"#utility.yul\":3488:4074   */\n      pop\n      pop\n      pop\n        /* \"#utility.yul\":3374:4074   */\n      pop\n      pop\n      jump\t// out\n        /* \"#utility.yul\":4080:4185   */\n    tag_135:\n        /* \"#utility.yul\":4146:4152   */\n      0x00\n        /* \"#utility.yul\":4174:4178   */\n      0x0a\n        /* \"#utility.yul\":4164:4178   */\n      swap1\n      pop\n        /* \"#utility.yul\":4080:4185   */\n      swap2\n      swap1\n      pop\n      jump\t// out\n        /* \"#utility.yul\":4191:4335   */\n    tag_136:\n        /* \"#utility.yul\":4289:4300   */\n      0x00\n        /* \"#utility.yul\":4326:4329   */\n      dup2\n        /* \"#utility.yul\":4311:4329   */\n      swap1\n      pop\n        /* \"#utility.yul\":4191:4335   */\n      swap3\n      swap2\n      pop\n      pop\n      jump\t// out\n        /* \"#utility.yul\":4341:4440   */\n    tag_137:\n        /* \"#utility.yul\":4407:4411   */\n      0x00\n        /* \"#utility.yul\":4430:4433   */\n      dup2\n        /* \"#utility.yul\":4422:4433   */\n      swap1\n      pop\n        /* \"#utility.yul\":4341:4440   */\n      swap2\n      swap1\n      pop\n      jump\t// out\n        /* \"#utility.yul\":4446:4554   */\n    tag_138:\n        /* \"#utility.yul\":4523:4547   */\n      tag_218\n        /* \"#utility.yul\":4541:4546   */\n      dup2\n        /* \"#utility.yul\":4523:4547   */\n      tag_120\n      jump\t// in\n    tag_218:\n        /* \"#utility.yul\":4518:4521   */\n      dup3\n        /* \"#utility.yul\":4511:4548   */\n      mstore\n        /* \"#utility.yul\":4446:4554   */\n      pop\n      pop\n      jump\t// out\n        /* \"#utility.yul\":4560:4739   */\n    tag_139:\n        /* \"#utility.yul\":4629:4639   */\n      0x00\n        /* \"#utility.yul\":4650:4696   */\n      tag_220\n        /* \"#utility.yul\":4692:4695   */\n      dup4\n        /* \"#utility.yul\":4684:4690   */\n      dup4\n        /* \"#utility.yul\":4650:4696   */\n      tag_138\n      jump\t// in\n    tag_220:\n        /* \"#utility.yul\":4728:4732   */\n      0x20\n        /* \"#utility.yul\":4723:4726   */\n      dup4\n        /* \"#utility.yul\":4719:4733   */\n      add\n        /* \"#utility.yul\":4705:4733   */\n      swap1\n      pop\n        /* \"#utility.yul\":4560:4739   */\n      swap3\n      swap2\n      pop\n      pop\n      jump\t// out\n        /* \"#utility.yul\":4745:4857   */\n    tag_140:\n        /* \"#utility.yul\":4814:4818   */\n      0x00\n        /* \"#utility.yul\":4846:4850   */\n      0x20\n        /* \"#utility.yul\":4841:4844   */\n      dup3\n        /* \"#utility.yul\":4837:4851   */\n      add\n        /* \"#utility.yul\":4829:4851   */\n      swap1\n      pop\n        /* \"#utility.yul\":4745:4857   */\n      swap2\n      swap1\n      pop\n      jump\t// out\n        /* \"#utility.yul\":4897:5597   */\n    tag_141:\n        /* \"#utility.yul\":5035:5088   */\n      tag_223\n        /* \"#utility.yul\":5082:5087   */\n      dup2\n        /* \"#utility.yul\":5035:5088   */\n      tag_135\n      jump\t// in\n    tag_223:\n        /* \"#utility.yul\":5104:5189   */\n      tag_224\n        /* \"#utility.yul\":5182:5188   */\n      dup2\n        /* \"#utility.yul\":5177:5180   */\n      dup5\n        /* \"#utility.yul\":5104:5189   */\n      tag_136\n      jump\t// in\n    tag_224:\n        /* \"#utility.yul\":5097:5189   */\n      swap3\n      pop\n        /* \"#utility.yul\":5213:5268   */\n      tag_225\n        /* \"#utility.yul\":5262:5267   */\n      dup3\n        /* \"#utility.yul\":5213:5268   */\n      tag_137\n      jump\t// in\n    tag_225:\n        /* \"#utility.yul\":5291:5298   */\n      dup1\n        /* \"#utility.yul\":5322:5323   */\n      0x00\n        /* \"#utility.yul\":5307:5590   */\n    tag_226:\n        /* \"#utility.yul\":5332:5338   */\n      dup4\n        /* \"#utility.yul\":5329:5330   */\n      dup2\n        /* \"#utility.yul\":5326:5339   */\n      lt\n        /* \"#utility.yul\":5307:5590   */\n      iszero\n      tag_228\n      jumpi\n        /* \"#utility.yul\":5408:5414   */\n      dup2\n        /* \"#utility.yul\":5402:5415   */\n      mload\n        /* \"#utility.yul\":5435:5498   */\n      tag_229\n        /* \"#utility.yul\":5494:5497   */\n      dup8\n        /* \"#utility.yul\":5479:5492   */\n      dup3\n        /* \"#utility.yul\":5435:5498   */\n      tag_139\n      jump\t// in\n    tag_229:\n        /* \"#utility.yul\":5428:5498   */\n      swap7\n      pop\n        /* \"#utility.yul\":5521:5580   */\n      tag_230\n        /* \"#utility.yul\":5573:5579   */\n      dup4\n        /* \"#utility.yul\":5521:5580   */\n      tag_140\n      jump\t// in\n    tag_230:\n        /* \"#utility.yul\":5511:5580   */\n      swap3\n      pop\n        /* \"#utility.yul\":5367:5590   */\n      pop\n        /* \"#utility.yul\":5354:5355   */\n      0x01\n        /* \"#utility.yul\":5351:5352   */\n      dup2\n        /* \"#utility.yul\":5347:5356   */\n      add\n        /* \"#utility.yul\":5342:5356   */\n      swap1\n      pop\n        /* \"#utility.yul\":5307:5590   */\n      jump(tag_226)\n    tag_228:\n        /* \"#utility.yul\":5311:5325   */\n      pop\n        /* \"#utility.yul\":5011:5597   */\n      pop\n      pop\n      pop\n        /* \"#utility.yul\":4897:5597   */\n      pop\n      pop\n      jump\t// out\n        /* \"#utility.yul\":5603:6129   */\n    tag_27:\n        /* \"#utility.yul\":5820:5824   */\n      0x00\n        /* \"#utility.yul\":5858:5861   */\n      0x0280\n        /* \"#utility.yul\":5847:5856   */\n      dup3\n        /* \"#utility.yul\":5843:5862   */\n      add\n        /* \"#utility.yul\":5835:5862   */\n      swap1\n      pop\n        /* \"#utility.yul\":5872:5991   */\n      tag_232\n        /* \"#utility.yul\":5988:5989   */\n      0x00\n        /* \"#utility.yul\":5977:5986   */\n      dup4\n        /* \"#utility.yul\":5973:5990   */\n      add\n        /* \"#utility.yul\":5964:5970   */\n      dup6\n        /* \"#utility.yul\":5872:5991   */\n      tag_134\n      jump\t// in\n    tag_232:\n        /* \"#utility.yul\":6001:6122   */\n      tag_233\n        /* \"#utility.yul\":6117:6120   */\n      0x0140\n        /* \"#utility.yul\":6106:6115   */\n      dup4\n        /* \"#utility.yul\":6102:6121   */\n      add\n        /* \"#utility.yul\":6093:6099   */\n      dup5\n        /* \"#utility.yul\":6001:6122   */\n      tag_141\n      jump\t// in\n    tag_233:\n        /* \"#utility.yul\":5603:6129   */\n      swap4\n      swap3\n      pop\n      pop\n      pop\n      jump\t// out\n        /* \"#utility.yul\":6135:6253   */\n    tag_142:\n        /* \"#utility.yul\":6222:6246   */\n      tag_235\n        /* \"#utility.yul\":6240:6245   */\n      dup2\n        /* \"#utility.yul\":6222:6246   */\n      tag_125\n      jump\t// in\n    tag_235:\n        /* \"#utility.yul\":6217:6220   */\n      dup3\n        /* \"#utility.yul\":6210:6247   */\n      mstore\n        /* \"#utility.yul\":6135:6253   */\n      pop\n      pop\n      jump\t// out\n        /* \"#utility.yul\":6259:6481   */\n    tag_32:\n        /* \"#utility.yul\":6352:6356   */\n      0x00\n        /* \"#utility.yul\":6390:6392   */\n      0x20\n        /* \"#utility.yul\":6379:6388   */\n      dup3\n        /* \"#utility.yul\":6375:6393   */\n      add\n        /* \"#utility.yul\":6367:6393   */\n      swap1\n      pop\n        /* \"#utility.yul\":6403:6474   */\n      tag_237\n        /* \"#utility.yul\":6471:6472   */\n      0x00\n        /* \"#utility.yul\":6460:6469   */\n      dup4\n        /* \"#utility.yul\":6456:6473   */\n      add\n        /* \"#utility.yul\":6447:6453   */\n      dup5\n        /* \"#utility.yul\":6403:6474   */\n      tag_142\n      jump\t// in\n    tag_237:\n        /* \"#utility.yul\":6259:6481   */\n      swap3\n      swap2\n      pop\n      pop\n      jump\t// out\n        /* \"#utility.yul\":6487:6656   */\n    tag_143:\n        /* \"#utility.yul\":6571:6582   */\n      0x00\n        /* \"#utility.yul\":6605:6611   */\n      dup3\n        /* \"#utility.yul\":6600:6603   */\n      dup3\n        /* \"#utility.yul\":6593:6612   */\n      mstore\n        /* \"#utility.yul\":6645:6649   */\n      0x20\n        /* \"#utility.yul\":6640:6643   */\n      dup3\n        /* \"#utility.yul\":6636:6650   */\n      add\n        /* \"#utility.yul\":6621:6650   */\n      swap1\n      pop\n        /* \"#utility.yul\":6487:6656   */\n      swap3\n      swap2\n      pop\n      pop\n      jump\t// out\n        /* \"#utility.yul\":6662:6889   */\n    tag_144:\n        /* \"#utility.yul\":6802:6836   */\n      0x53636f7265206e6f7420686967686572207468616e2063757272656e74206869\n        /* \"#utility.yul\":6798:6799   */\n      0x00\n        /* \"#utility.yul\":6790:6796   */\n      dup3\n        /* \"#utility.yul\":6786:6800   */\n      add\n        /* \"#utility.yul\":6779:6837   */\n      mstore\n        /* \"#utility.yul\":6871:6881   */\n      0x67682073636f7265000000000000000000000000000000000000000000000000\n        /* \"#utility.yul\":6866:6868   */\n      0x20\n        /* \"#utility.yul\":6858:6864   */\n      dup3\n        /* \"#utility.yul\":6854:6869   */\n      add\n        /* \"#utility.yul\":6847:6882   */\n      mstore\n        /* \"#utility.yul\":6662:6889   */\n      pop\n      jump\t// out\n        /* \"#utility.yul\":6895:7261   */\n    tag_145:\n        /* \"#utility.yul\":7037:7040   */\n      0x00\n        /* \"#utility.yul\":7058:7125   */\n      tag_241\n        /* \"#utility.yul\":7122:7124   */\n      0x28\n        /* \"#utility.yul\":7117:7120   */\n      dup4\n        /* \"#utility.yul\":7058:7125   */\n      tag_143\n      jump\t// in\n    tag_241:\n        /* \"#utility.yul\":7051:7125   */\n      swap2\n      pop\n        /* \"#utility.yul\":7134:7227   */\n      tag_242\n        /* \"#utility.yul\":7223:7226   */\n      dup3\n        /* \"#utility.yul\":7134:7227   */\n      tag_144\n      jump\t// in\n    tag_242:\n        /* \"#utility.yul\":7252:7254   */\n      0x40\n        /* \"#utility.yul\":7247:7250   */\n      dup3\n        /* \"#utility.yul\":7243:7255   */\n      add\n        /* \"#utility.yul\":7236:7255   */\n      swap1\n      pop\n        /* \"#utility.yul\":6895:7261   */\n      swap2\n      swap1\n      pop\n      jump\t// out\n        /* \"#utility.yul\":7267:7686   */\n    tag_63:\n        /* \"#utility.yul\":7433:7437   */\n      0x00\n        /* \"#utility.yul\":7471:7473   */\n      0x20\n        /* \"#utility.yul\":7460:7469   */\n      dup3\n        /* \"#utility.yul\":7456:7474   */\n      add\n        /* \"#utility.yul\":7448:7474   */\n      swap1\n      pop\n        /* \"#utility.yul\":7520:7529   */\n      dup2\n        /* \"#utility.yul\":7514:7518   */\n      dup2\n        /* \"#utility.yul\":7510:7530   */\n      sub\n        /* \"#utility.yul\":7506:7507   */\n      0x00\n        /* \"#utility.yul\":7495:7504   */\n      dup4\n        /* \"#utility.yul\":7491:7508   */\n      add\n        /* \"#utility.yul\":7484:7531   */\n      mstore\n        /* \"#utility.yul\":7548:7679   */\n      tag_244\n        /* \"#utility.yul\":7674:7678   */\n      dup2\n        /* \"#utility.yul\":7548:7679   */\n      tag_145\n      jump\t// in\n    tag_244:\n        /* \"#utility.yul\":7540:7679   */\n      swap1\n      pop\n        /* \"#utility.yul\":7267:7686   */\n      swap2\n      swap1\n      pop\n      jump\t// out\n        /* \"#utility.yul\":7692:7870   */\n    tag_146:\n        /* \"#utility.yul\":7832:7862   */\n      0x416368696576656d656e7420616c726561647920756e6c6f636b656400000000\n        /* \"#utility.yul\":7828:7829   */\n      0x00\n        /* \"#utility.yul\":7820:7826   */\n      dup3\n        /* \"#utility.yul\":7816:7830   */\n      add\n        /* \"#utility.yul\":7809:7863   */\n      mstore\n        /* \"#utility.yul\":7692:7870   */\n      pop\n      jump\t// out\n        /* \"#utility.yul\":7876:8242   */\n    tag_147:\n        /* \"#utility.yul\":8018:8021   */\n      0x00\n        /* \"#utility.yul\":8039:8106   */\n      tag_247\n        /* \"#utility.yul\":8103:8105   */\n      0x1c\n        /* \"#utility.yul\":8098:8101   */\n      dup4\n        /* \"#utility.yul\":8039:8106   */\n      tag_143\n      jump\t// in\n    tag_247:\n        /* \"#utility.yul\":8032:8106   */\n      swap2\n      pop\n        /* \"#utility.yul\":8115:8208   */\n      tag_248\n        /* \"#utility.yul\":8204:8207   */\n      dup3\n        /* \"#utility.yul\":8115:8208   */\n      tag_146\n      jump\t// in\n    tag_248:\n        /* \"#utility.yul\":8233:8235   */\n      0x20\n        /* \"#utility.yul\":8228:8231   */\n      dup3\n        /* \"#utility.yul\":8224:8236   */\n      add\n        /* \"#utility.yul\":8217:8236   */\n      swap1\n      pop\n        /* \"#utility.yul\":7876:8242   */\n      swap2\n      swap1\n      pop\n      jump\t// out\n        /* \"#utility.yul\":8248:8667   */\n    tag_70:\n        /* \"#utility.yul\":8414:8418   */\n      0x00\n        /* \"#utility.yul\":8452:8454   */\n      0x20\n        /* \"#utility.yul\":8441:8450   */\n      dup3\n        /* \"#utility.yul\":8437:8455   */\n      add\n        /* \"#utility.yul\":8429:8455   */\n      swap1\n      pop\n        /* \"#utility.yul\":8501:8510   */\n      dup2\n        /* \"#utility.yul\":8495:8499   */\n      dup2\n        /* \"#utility.yul\":8491:8511   */\n      sub\n        /* \"#utility.yul\":8487:8488   */\n      0x00\n        /* \"#utility.yul\":8476:8485   */\n      dup4\n        /* \"#utility.yul\":8472:8489   */\n      add\n        /* \"#utility.yul\":8465:8512   */\n      mstore\n        /* \"#utility.yul\":8529:8660   */\n      tag_250\n        /* \"#utility.yul\":8655:8659   */\n      dup2\n        /* \"#utility.yul\":8529:8660   */\n      tag_147\n      jump\t// in\n    tag_250:\n        /* \"#utility.yul\":8521:8660   */\n      swap1\n      pop\n        /* \"#utility.yul\":8248:8667   */\n      swap2\n      swap1\n      pop\n      jump\t// out\n        /* \"#utility.yul\":8673:8853   */\n    tag_78:\n        /* \"#utility.yul\":8721:8798   */\n      0x4e487b7100000000000000000000000000000000000000000000000000000000\n        /* \"#utility.yul\":8718:8719   */\n      0x00\n        /* \"#utility.yul\":8711:8799   */\n      mstore\n        /* \"#utility.yul\":8818:8822   */\n      0x32\n        /* \"#utility.yul\":8815:8816   */\n      0x04\n        /* \"#utility.yul\":8808:8823   */\n      mstore\n        /* \"#utility.yul\":8842:8846   */\n      0x24\n        /* \"#utility.yul\":8839:8840   */\n      0x00\n        /* \"#utility.yul\":8832:8847   */\n      revert\n        /* \"#utility.yul\":8859:9039   */\n    tag_148:\n        /* \"#utility.yul\":8907:8984   */\n      0x4e487b7100000000000000000000000000000000000000000000000000000000\n        /* \"#utility.yul\":8904:8905   */\n      0x00\n        /* \"#utility.yul\":8897:8985   */\n      mstore\n        /* \"#utility.yul\":9004:9008   */\n      0x11\n        /* \"#utility.yul\":9001:9002   */\n      0x04\n        /* \"#utility.yul\":8994:9009   */\n      mstore\n        /* \"#utility.yul\":9028:9032   */\n      0x24\n        /* \"#utility.yul\":9025:9026   */\n      0x00\n        /* \"#utility.yul\":9018:9033   */\n      revert\n        /* \"#utility.yul\":9045:9239   */\n    tag_92:\n        /* \"#utility.yul\":9085:9089   */\n      0x00\n        /* \"#utility.yul\":9105:9125   */\n      tag_254\n        /* \"#utility.yul\":9123:9124   */\n      dup3\n        /* \"#utility.yul\":9105:9125   */\n      tag_120\n      jump\t// in\n    tag_254:\n        /* \"#utility.yul\":9100:9125   */\n      swap2\n      pop\n        /* \"#utility.yul\":9139:9159   */\n      tag_255\n        /* \"#utility.yul\":9157:9158   */\n      dup4\n        /* \"#utility.yul\":9139:9159   */\n      tag_120\n      jump\t// in\n    tag_255:\n        /* \"#utility.yul\":9134:9159   */\n      swap3\n      pop\n        /* \"#utility.yul\":9183:9184   */\n      dup3\n        /* \"#utility.yul\":9180:9181   */\n      dup3\n        /* \"#utility.yul\":9176:9185   */\n      sub\n        /* \"#utility.yul\":9168:9185   */\n      swap1\n      pop\n        /* \"#utility.yul\":9207:9208   */\n      dup2\n        /* \"#utility.yul\":9201:9205   */\n      dup2\n        /* \"#utility.yul\":9198:9209   */\n      gt\n        /* \"#utility.yul\":9195:9232   */\n      iszero\n      tag_256\n      jumpi\n        /* \"#utility.yul\":9212:9230   */\n      tag_257\n      tag_148\n      jump\t// in\n    tag_257:\n        /* \"#utility.yul\":9195:9232   */\n    tag_256:\n        /* \"#utility.yul\":9045:9239   */\n      swap3\n      swap2\n      pop\n      pop\n      jump\t// out\n        /* \"#utility.yul\":9245:9416   */\n    tag_108:\n        /* \"#utility.yul\":9284:9287   */\n      0x00\n        /* \"#utility.yul\":9307:9331   */\n      tag_259\n        /* \"#utility.yul\":9325:9330   */\n      dup3\n        /* \"#utility.yul\":9307:9331   */\n      tag_120\n      jump\t// in\n    tag_259:\n        /* \"#utility.yul\":9298:9331   */\n      swap2\n      pop\n        /* \"#utility.yul\":9353:9357   */\n      0x00\n        /* \"#utility.yul\":9346:9351   */\n      dup3\n        /* \"#utility.yul\":9343:9358   */\n      sub\n        /* \"#utility.yul\":9340:9381   */\n      tag_260\n      jumpi\n        /* \"#utility.yul\":9361:9379   */\n      tag_261\n      tag_148\n      jump\t// in\n    tag_261:\n        /* \"#utility.yul\":9340:9381   */\n    tag_260:\n        /* \"#utility.yul\":9408:9409   */\n      0x01\n        /* \"#utility.yul\":9401:9406   */\n      dup3\n        /* \"#utility.yul\":9397:9410   */\n      sub\n        /* \"#utility.yul\":9390:9410   */\n      swap1\n      pop\n        /* \"#utility.yul\":9245:9416   */\n      swap2\n      swap1\n      pop\n      jump\t// out\n        /* \"#utility.yul\":9422:9524   */\n    tag_149:\n        /* \"#utility.yul\":9485:9491   */\n      0x00\n        /* \"#utility.yul\":9513:9517   */\n      0x0a\n        /* \"#utility.yul\":9503:9517   */\n      swap1\n      pop\n        /* \"#utility.yul\":9422:9524   */\n      swap2\n      swap1\n      pop\n      jump\t// out\n        /* \"#utility.yul\":9530:9626   */\n    tag_150:\n        /* \"#utility.yul\":9593:9597   */\n      0x00\n        /* \"#utility.yul\":9616:9619   */\n      dup2\n        /* \"#utility.yul\":9608:9619   */\n      swap1\n      pop\n        /* \"#utility.yul\":9530:9626   */\n      swap2\n      swap1\n      pop\n      jump\t// out\n        /* \"#utility.yul\":9632:9734   */\n    tag_151:\n        /* \"#utility.yul\":9674:9682   */\n      0x00\n        /* \"#utility.yul\":9721:9726   */\n      dup2\n        /* \"#utility.yul\":9718:9719   */\n      0x00\n        /* \"#utility.yul\":9714:9727   */\n      shr\n        /* \"#utility.yul\":9693:9727   */\n      swap1\n      pop\n        /* \"#utility.yul\":9632:9734   */\n      swap2\n      swap1\n      pop\n      jump\t// out\n        /* \"#utility.yul\":9740:9879   */\n    tag_152:\n        /* \"#utility.yul\":9790:9797   */\n      0x00\n        /* \"#utility.yul\":9830:9872   */\n      0xffffffffffffffffffffffffffffffffffffffff\n        /* \"#utility.yul\":9823:9828   */\n      dup3\n        /* \"#utility.yul\":9819:9873   */\n      and\n        /* \"#utility.yul\":9808:9873   */\n      swap1\n      pop\n        /* \"#utility.yul\":9740:9879   */\n      swap2\n      swap1\n      pop\n      jump\t// out\n        /* \"#utility.yul\":9885:10052   */\n    tag_153:\n        /* \"#utility.yul\":9955:9960   */\n      0x00\n        /* \"#utility.yul\":9980:10046   */\n      tag_267\n        /* \"#utility.yul\":10011:10045   */\n      tag_268\n        /* \"#utility.yul\":10034:10044   */\n      dup4\n        /* \"#utility.yul\":10011:10045   */\n      tag_151\n      jump\t// in\n    tag_268:\n        /* \"#utility.yul\":9980:10046   */\n      tag_152\n      jump\t// in\n    tag_267:\n        /* \"#utility.yul\":9971:10046   */\n      swap1\n      pop\n        /* \"#utility.yul\":9885:10052   */\n      swap2\n      swap1\n      pop\n      jump\t// out\n        /* \"#utility.yul\":10058:10203   */\n    tag_154:\n        /* \"#utility.yul\":10113:10118   */\n      0x00\n        /* \"#utility.yul\":10138:10196   */\n      tag_270\n        /* \"#utility.yul\":10190:10194   */\n      dup3\n        /* \"#utility.yul\":10184:10195   */\n      sload\n        /* \"#utility.yul\":10138:10196   */\n      tag_153\n      jump\t// in\n    tag_270:\n        /* \"#utility.yul\":10129:10196   */\n      swap1\n      pop\n        /* \"#utility.yul\":10058:10203   */\n      swap2\n      swap1\n      pop\n      jump\t// out\n        /* \"#utility.yul\":10209:10318   */\n    tag_155:\n        /* \"#utility.yul\":10275:10279   */\n      0x00\n        /* \"#utility.yul\":10307:10311   */\n      0x01\n        /* \"#utility.yul\":10302:10305   */\n      dup3\n        /* \"#utility.yul\":10298:10312   */\n      add\n        /* \"#utility.yul\":10290:10312   */\n      swap1\n      pop\n        /* \"#utility.yul\":10209:10318   */\n      swap2\n      swap1\n      pop\n      jump\t// out\n        /* \"#utility.yul\":10358:11077   */\n    tag_156:\n        /* \"#utility.yul\":10493:10543   */\n      tag_273\n        /* \"#utility.yul\":10537:10542   */\n      dup2\n        /* \"#utility.yul\":10493:10543   */\n      tag_149\n      jump\t// in\n    tag_273:\n        /* \"#utility.yul\":10559:10644   */\n      tag_274\n        /* \"#utility.yul\":10637:10643   */\n      dup2\n        /* \"#utility.yul\":10632:10635   */\n      dup5\n        /* \"#utility.yul\":10559:10644   */\n      tag_129\n      jump\t// in\n    tag_274:\n        /* \"#utility.yul\":10552:10644   */\n      swap3\n      pop\n        /* \"#utility.yul\":10668:10720   */\n      tag_275\n        /* \"#utility.yul\":10714:10719   */\n      dup3\n        /* \"#utility.yul\":10668:10720   */\n      tag_150\n      jump\t// in\n    tag_275:\n        /* \"#utility.yul\":10743:10750   */\n      dup1\n        /* \"#utility.yul\":10774:10775   */\n      0x00\n        /* \"#utility.yul\":10759:11070   */\n    tag_276:\n        /* \"#utility.yul\":10784:10790   */\n      dup4\n        /* \"#utility.yul\":10781:10782   */\n      dup2\n        /* \"#utility.yul\":10778:10791   */\n      lt\n        /* \"#utility.yul\":10759:11070   */\n      iszero\n      tag_278\n      jumpi\n        /* \"#utility.yul\":10854:10898   */\n      tag_279\n        /* \"#utility.yul\":10891:10897   */\n      dup3\n        /* \"#utility.yul\":10854:10898   */\n      tag_154\n      jump\t// in\n    tag_279:\n        /* \"#utility.yul\":10918:10981   */\n      tag_280\n        /* \"#utility.yul\":10977:10980   */\n      dup8\n        /* \"#utility.yul\":10962:10975   */\n      dup3\n        /* \"#utility.yul\":10918:10981   */\n      tag_132\n      jump\t// in\n    tag_280:\n        /* \"#utility.yul\":10911:10981   */\n      swap7\n      pop\n        /* \"#utility.yul\":11004:11060   */\n      tag_281\n        /* \"#utility.yul\":11053:11059   */\n      dup4\n        /* \"#utility.yul\":11004:11060   */\n      tag_155\n      jump\t// in\n    tag_281:\n        /* \"#utility.yul\":10994:11060   */\n      swap3\n      pop\n        /* \"#utility.yul\":10819:11070   */\n      pop\n        /* \"#utility.yul\":10806:10807   */\n      0x01\n        /* \"#utility.yul\":10803:10804   */\n      dup2\n        /* \"#utility.yul\":10799:10808   */\n      add\n        /* \"#utility.yul\":10794:10808   */\n      swap1\n      pop\n        /* \"#utility.yul\":10759:11070   */\n      jump(tag_276)\n    tag_278:\n        /* \"#utility.yul\":10763:10777   */\n      pop\n        /* \"#utility.yul\":10469:11077   */\n      pop\n      pop\n      pop\n        /* \"#utility.yul\":10358:11077   */\n      pop\n      pop\n      jump\t// out\n        /* \"#utility.yul\":11083:11185   */\n    tag_157:\n        /* \"#utility.yul\":11146:11152   */\n      0x00\n        /* \"#utility.yul\":11174:11178   */\n      0x0a\n        /* \"#utility.yul\":11164:11178   */\n      swap1\n      pop\n        /* \"#utility.yul\":11083:11185   */\n      swap2\n      swap1\n      pop\n      jump\t// out\n        /* \"#utility.yul\":11191:11287   */\n    tag_158:\n        /* \"#utility.yul\":11254:11258   */\n      0x00\n        /* \"#utility.yul\":11277:11280   */\n      dup2\n        /* \"#utility.yul\":11269:11280   */\n      swap1\n      pop\n        /* \"#utility.yul\":11191:11287   */\n      swap2\n      swap1\n      pop\n      jump\t// out\n        /* \"#utility.yul\":11293:11383   */\n    tag_159:\n        /* \"#utility.yul\":11343:11350   */\n      0x00\n        /* \"#utility.yul\":11372:11377   */\n      dup2\n        /* \"#utility.yul\":11361:11377   */\n      swap1\n      pop\n        /* \"#utility.yul\":11293:11383   */\n      swap2\n      swap1\n      pop\n      jump\t// out\n        /* \"#utility.yul\":11389:11556   */\n    tag_160:\n        /* \"#utility.yul\":11459:11464   */\n      0x00\n        /* \"#utility.yul\":11484:11550   */\n      tag_286\n        /* \"#utility.yul\":11515:11549   */\n      tag_287\n        /* \"#utility.yul\":11538:11548   */\n      dup4\n        /* \"#utility.yul\":11515:11549   */\n      tag_151\n      jump\t// in\n    tag_287:\n        /* \"#utility.yul\":11484:11550   */\n      tag_159\n      jump\t// in\n    tag_286:\n        /* \"#utility.yul\":11475:11550   */\n      swap1\n      pop\n        /* \"#utility.yul\":11389:11556   */\n      swap2\n      swap1\n      pop\n      jump\t// out\n        /* \"#utility.yul\":11562:11707   */\n    tag_161:\n        /* \"#utility.yul\":11617:11622   */\n      0x00\n        /* \"#utility.yul\":11642:11700   */\n      tag_289\n        /* \"#utility.yul\":11694:11698   */\n      dup3\n        /* \"#utility.yul\":11688:11699   */\n      sload\n        /* \"#utility.yul\":11642:11700   */\n      tag_160\n      jump\t// in\n    tag_289:\n        /* \"#utility.yul\":11633:11700   */\n      swap1\n      pop\n        /* \"#utility.yul\":11562:11707   */\n      swap2\n      swap1\n      pop\n      jump\t// out\n        /* \"#utility.yul\":11713:11822   */\n    tag_162:\n        /* \"#utility.yul\":11779:11783   */\n      0x00\n        /* \"#utility.yul\":11811:11815   */\n      0x01\n        /* \"#utility.yul\":11806:11809   */\n      dup3\n        /* \"#utility.yul\":11802:11816   */\n      add\n        /* \"#utility.yul\":11794:11816   */\n      swap1\n      pop\n        /* \"#utility.yul\":11713:11822   */\n      swap2\n      swap1\n      pop\n      jump\t// out\n        /* \"#utility.yul\":11862:12581   */\n    tag_163:\n        /* \"#utility.yul\":11997:12047   */\n      tag_292\n        /* \"#utility.yul\":12041:12046   */\n      dup2\n        /* \"#utility.yul\":11997:12047   */\n      tag_157\n      jump\t// in\n    tag_292:\n        /* \"#utility.yul\":12063:12148   */\n      tag_293\n        /* \"#utility.yul\":12141:12147   */\n      dup2\n        /* \"#utility.yul\":12136:12139   */\n      dup5\n        /* \"#utility.yul\":12063:12148   */\n      tag_136\n      jump\t// in\n    tag_293:\n        /* \"#utility.yul\":12056:12148   */\n      swap3\n      pop\n        /* \"#utility.yul\":12172:12224   */\n      tag_294\n        /* \"#utility.yul\":12218:12223   */\n      dup3\n        /* \"#utility.yul\":12172:12224   */\n      tag_158\n      jump\t// in\n    tag_294:\n        /* \"#utility.yul\":12247:12254   */\n      dup1\n        /* \"#utility.yul\":12278:12279   */\n      0x00\n        /* \"#utility.yul\":12263:12574   */\n    tag_295:\n        /* \"#utility.yul\":12288:12294   */\n      dup4\n        /* \"#utility.yul\":12285:12286   */\n      dup2\n        /* \"#utility.yul\":12282:12295   */\n      lt\n        /* \"#utility.yul\":12263:12574   */\n      iszero\n      tag_297\n      jumpi\n        /* \"#utility.yul\":12358:12402   */\n      tag_298\n        /* \"#utility.yul\":12395:12401   */\n      dup3\n        /* \"#utility.yul\":12358:12402   */\n      tag_161\n      jump\t// in\n    tag_298:\n        /* \"#utility.yul\":12422:12485   */\n      tag_299\n        /* \"#utility.yul\":12481:12484   */\n      dup8\n        /* \"#utility.yul\":12466:12479   */\n      dup3\n        /* \"#utility.yul\":12422:12485   */\n      tag_139\n      jump\t// in\n    tag_299:\n        /* \"#utility.yul\":12415:12485   */\n      swap7\n      pop\n        /* \"#utility.yul\":12508:12564   */\n      tag_300\n        /* \"#utility.yul\":12557:12563   */\n      dup4\n        /* \"#utility.yul\":12508:12564   */\n      tag_162\n      jump\t// in\n    tag_300:\n        /* \"#utility.yul\":12498:12564   */\n      swap3\n      pop\n        /* \"#utility.yul\":12323:12574   */\n      pop\n        /* \"#utility.yul\":12310:12311   */\n      0x01\n        /* \"#utility.yul\":12307:12308   */\n      dup2\n        /* \"#utility.yul\":12303:12312   */\n      add\n        /* \"#utility.yul\":12298:12312   */\n      swap1\n      pop\n        /* \"#utility.yul\":12263:12574   */\n      jump(tag_295)\n    tag_297:\n        /* \"#utility.yul\":12267:12281   */\n      pop\n        /* \"#utility.yul\":11973:12581   */\n      pop\n      pop\n      pop\n        /* \"#utility.yul\":11862:12581   */\n      pop\n      pop\n      jump\t// out\n        /* \"#utility.yul\":12587:13101   */\n    tag_116:\n        /* \"#utility.yul\":12798:12802   */\n      0x00\n        /* \"#utility.yul\":12836:12839   */\n      0x0280\n        /* \"#utility.yul\":12825:12834   */\n      dup3\n        /* \"#utility.yul\":12821:12840   */\n      add\n        /* \"#utility.yul\":12813:12840   */\n      swap1\n      pop\n        /* \"#utility.yul\":12850:12966   */\n      tag_302\n        /* \"#utility.yul\":12963:12964   */\n      0x00\n        /* \"#utility.yul\":12952:12961   */\n      dup4\n        /* \"#utility.yul\":12948:12965   */\n      add\n        /* \"#utility.yul\":12939:12945   */\n      dup6\n        /* \"#utility.yul\":12850:12966   */\n      tag_156\n      jump\t// in\n    tag_302:\n        /* \"#utility.yul\":12976:13094   */\n      tag_303\n        /* \"#utility.yul\":13089:13092   */\n      0x0140\n        /* \"#utility.yul\":13078:13087   */\n      dup4\n        /* \"#utility.yul\":13074:13093   */\n      add\n        /* \"#utility.yul\":13065:13071   */\n      dup5\n        /* \"#utility.yul\":12976:13094   */\n      tag_163\n      jump\t// in\n    tag_303:\n        /* \"#utility.yul\":12587:13101   */\n      swap4\n      swap3\n      pop\n      pop\n      pop\n      jump\t// out\n\n    auxdata: 0xa2646970667358221220a074c75c9e9271e455bcfa2c31c36c9de2282ed0b1f6ab8129f04c6a309ffa2064736f6c634300081e0033\n}\n",
				"bytecode": {
					"linkReferences": {},
					"object": "6080604052348015600e575f5ffd5b50610e758061001c5f395ff3fe608060405234801561000f575f5ffd5b5060043610610086575f3560e01c8063aff0b29711610059578063aff0b2971461013a578063dfc22a6b14610156578063e2eb41ff14610174578063f5556c44146101a557610086565b80635112711a1461008a5780635c12cd4b146100ba57806388e814e6146100eb578063af137ca81461010a575b5f5ffd5b6100a4600480360381019061009f9190610841565b6101c1565b6040516100b1919061087b565b60405180910390f35b6100d460048036038101906100cf91906108ee565b6101da565b6040516100e2929190610919565b60405180910390f35b6100f361022e565b604051610101929190610a8a565b60405180910390f35b610124600480360381019061011f9190610841565b6102fd565b6040516101319190610ac2565b60405180910390f35b610154600480360381019061014f9190610841565b610331565b005b61015e610419565b60405161016b919061087b565b60405180910390f35b61018e600480360381019061018991906108ee565b61041e565b60405161019c929190610919565b60405180910390f35b6101bf60048036038101906101ba9190610841565b61043d565b005b600b81600a81106101d0575f80fd5b015f915090505481565b5f5f5f5f5f8573ffffffffffffffffffffffffffffffffffffffff1673ffffffffffffffffffffffffffffffffffffffff1681526020019081526020015f209050805f015481600101549250925050915091565b6102366107c4565b61023e6107e7565b6001600b81600a806020026040519081016040528092919082600a80156102af576020028201915b815f9054906101000a900473ffffffffffffffffffffffffffffffffffffffff1673ffffffffffffffffffffffffffffffffffffffff1681526020019060010190808311610266575b5050505050915080600a806020026040519081016040528092919082600a80156102ee576020028201915b8154815260200190600101908083116102da575b50505050509050915091509091565b600181600a811061030c575f80fd5b015f915054906101000a900473ffffffffffffffffffffffffffffffffffffffff1681565b5f5f5f3373ffffffffffffffffffffffffffffffffffffffff1673ffffffffffffffffffffffffffffffffffffffff1681526020019081526020015f209050805f015482116103b5576040517f08c379a00000000000000000000000000000000000000000000000000000000081526004016103ac90610b5b565b60405180910390fd5b81815f01819055506103c7338361052f565b3373ffffffffffffffffffffffffffffffffffffffff167fa578df9b0453d14d7ed8615ee0e9d58f70e041e91fc5865e3b71f81ea05296c08360405161040d919061087b565b60405180910390a25050565b600a81565b5f602052805f5260405f205f91509050805f0154908060010154905082565b5f5f5f3373ffffffffffffffffffffffffffffffffffffffff1673ffffffffffffffffffffffffffffffffffffffff1681526020019081526020015f2090505f826001901b826001015416146104c8576040517f08c379a00000000000000000000000000000000000000000000000000000000081526004016104bf90610bc3565b60405180910390fd5b816001901b816001015f82825417925050819055503373ffffffffffffffffffffffffffffffffffffffff167fecfcf3a608fefe3b6ea7d5efc965cfc3ad0043767f8618944c737253329892d783604051610523919061087b565b60405180910390a25050565b5f7fffffffffffffffffffffffffffffffffffffffffffffffffffffffffffffffff90505f5f90505b600a8110156105dd578373ffffffffffffffffffffffffffffffffffffffff16600182600a811061058c5761058b610be1565b5b015f9054906101000a900473ffffffffffffffffffffffffffffffffffffffff1673ffffffffffffffffffffffffffffffffffffffff16036105d0578091506105dd565b8080600101915050610558565b505f5f90505b600a81101561078357600b81600a8110610600576105ff610be1565b5b0154831115610776575f6001600a6106189190610c3b565b90505b8181111561070357600180826106319190610c3b565b600a811061064257610641610be1565b5b015f9054906101000a900473ffffffffffffffffffffffffffffffffffffffff16600182600a811061067757610676610be1565b5b015f6101000a81548173ffffffffffffffffffffffffffffffffffffffff021916908373ffffffffffffffffffffffffffffffffffffffff160217905550600b6001826106c49190610c3b565b600a81106106d5576106d4610be1565b5b0154600b82600a81106106eb576106ea610be1565b5b018190555080806106fb90610c6e565b91505061061b565b5083600182600a811061071957610718610be1565b5b015f6101000a81548173ffffffffffffffffffffffffffffffffffffffff021916908373ffffffffffffffffffffffffffffffffffffffff16021790555082600b82600a811061076c5761076b610be1565b5b0181905550610783565b80806001019150506105e3565b507f3ac3291d6b440f4c2faa1d819aeebdaca8f721badda0885fe12114814467d18c6001600b6040516107b7929190610e16565b60405180910390a1505050565b604051806101400160405280600a90602082028036833780820191505090505090565b604051806101400160405280600a90602082028036833780820191505090505090565b5f5ffd5b5f819050919050565b6108208161080e565b811461082a575f5ffd5b50565b5f8135905061083b81610817565b92915050565b5f602082840312156108565761085561080a565b5b5f6108638482850161082d565b91505092915050565b6108758161080e565b82525050565b5f60208201905061088e5f83018461086c565b92915050565b5f73ffffffffffffffffffffffffffffffffffffffff82169050919050565b5f6108bd82610894565b9050919050565b6108cd816108b3565b81146108d7575f5ffd5b50565b5f813590506108e8816108c4565b92915050565b5f602082840312156109035761090261080a565b5b5f610910848285016108da565b91505092915050565b5f60408201905061092c5f83018561086c565b610939602083018461086c565b9392505050565b5f600a9050919050565b5f81905092915050565b5f819050919050565b610966816108b3565b82525050565b5f610977838361095d565b60208301905092915050565b5f602082019050919050565b61099881610940565b6109a2818461094a565b92506109ad82610954565b805f5b838110156109dd5781516109c4878261096c565b96506109cf83610983565b9250506001810190506109b0565b505050505050565b5f600a9050919050565b5f81905092915050565b5f819050919050565b610a0b8161080e565b82525050565b5f610a1c8383610a02565b60208301905092915050565b5f602082019050919050565b610a3d816109e5565b610a4781846109ef565b9250610a52826109f9565b805f5b83811015610a82578151610a698782610a11565b9650610a7483610a28565b925050600181019050610a55565b505050505050565b5f61028082019050610a9e5f83018561098f565b610aac610140830184610a34565b9392505050565b610abc816108b3565b82525050565b5f602082019050610ad55f830184610ab3565b92915050565b5f82825260208201905092915050565b7f53636f7265206e6f7420686967686572207468616e2063757272656e742068695f8201527f67682073636f7265000000000000000000000000000000000000000000000000602082015250565b5f610b45602883610adb565b9150610b5082610aeb565b604082019050919050565b5f6020820190508181035f830152610b7281610b39565b9050919050565b7f416368696576656d656e7420616c726561647920756e6c6f636b6564000000005f82015250565b5f610bad601c83610adb565b9150610bb882610b79565b602082019050919050565b5f6020820190508181035f830152610bda81610ba1565b9050919050565b7f4e487b71000000000000000000000000000000000000000000000000000000005f52603260045260245ffd5b7f4e487b71000000000000000000000000000000000000000000000000000000005f52601160045260245ffd5b5f610c458261080e565b9150610c508361080e565b9250828203905081811115610c6857610c67610c0e565b5b92915050565b5f610c788261080e565b91505f8203610c8a57610c89610c0e565b5b600182039050919050565b5f600a9050919050565b5f819050919050565b5f815f1c9050919050565b5f73ffffffffffffffffffffffffffffffffffffffff82169050919050565b5f610ce4610cdf83610ca8565b610cb3565b9050919050565b5f610cf68254610cd2565b9050919050565b5f600182019050919050565b610d1281610c95565b610d1c818461094a565b9250610d2782610c9f565b805f5b83811015610d5e57610d3b82610ceb565b610d45878261096c565b9650610d5083610cfd565b925050600181019050610d2a565b505050505050565b5f600a9050919050565b5f819050919050565b5f819050919050565b5f610d94610d8f83610ca8565b610d79565b9050919050565b5f610da68254610d82565b9050919050565b5f600182019050919050565b610dc281610d66565b610dcc81846109ef565b9250610dd782610d70565b805f5b83811015610e0e57610deb82610d9b565b610df58782610a11565b9650610e0083610dad565b925050600181019050610dda565b505050505050565b5f61028082019050610e2a5f830185610d09565b610e38610140830184610db9565b939250505056fea2646970667358221220a074c75c9e9271e455bcfa2c31c36c9de2282ed0b1f6ab8129f04c6a309ffa2064736f6c634300081e0033",
					"opcodes": "PUSH1 0x80 PUSH1 0x40 MSTORE CALLVALUE DUP1 ISZERO PUSH1 0xE JUMPI PUSH0 PUSH0 REVERT JUMPDEST POP PUSH2 0xE75 DUP1 PUSH2 0x1C PUSH0 CODECOPY PUSH0 RETURN INVALID PUSH1 0x80 PUSH1 0x40 MSTORE CALLVALUE DUP1 ISZERO PUSH2 0xF JUMPI PUSH0 PUSH0 REVERT JUMPDEST POP PUSH1 0x4 CALLDATASIZE LT PUSH2 0x86 JUMPI PUSH0 CALLDATALOAD PUSH1 0xE0 SHR DUP1 PUSH4 0xAFF0B297 GT PUSH2 0x59 JUMPI DUP1 PUSH4 0xAFF0B297 EQ PUSH2 0x13A JUMPI DUP1 PUSH4 0xDFC22A6B EQ PUSH2 0x156 JUMPI DUP1 PUSH4 0xE2EB41FF EQ PUSH2 0x174 JUMPI DUP1 PUSH4 0xF5556C44 EQ PUSH2 0x1A5 JUMPI PUSH2 0x86 JUMP JUMPDEST DUP1 PUSH4 0x5112711A EQ PUSH2 0x8A JUMPI DUP1 PUSH4 0x5C12CD4B EQ PUSH2 0xBA JUMPI DUP1 PUSH4 0x88E814E6 EQ PUSH2 0xEB JUMPI DUP1 PUSH4 0xAF137CA8 EQ PUSH2 0x10A JUMPI JUMPDEST PUSH0 PUSH0 REVERT JUMPDEST PUSH2 0xA4 PUSH1 0x4 DUP1 CALLDATASIZE SUB DUP2 ADD SWAP1 PUSH2 0x9F SWAP2 SWAP1 PUSH2 0x841 JUMP JUMPDEST PUSH2 0x1C1 JUMP JUMPDEST PUSH1 0x40 MLOAD PUSH2 0xB1 SWAP2 SWAP1 PUSH2 0x87B JUMP JUMPDEST PUSH1 0x40 MLOAD DUP1 SWAP2 SUB SWAP1 RETURN JUMPDEST PUSH2 0xD4 PUSH1 0x4 DUP1 CALLDATASIZE SUB DUP2 ADD SWAP1 PUSH2 0xCF SWAP2 SWAP1 PUSH2 0x8EE JUMP JUMPDEST PUSH2 0x1DA JUMP JUMPDEST PUSH1 0x40 MLOAD PUSH2 0xE2 SWAP3 SWAP2 SWAP1 PUSH2 0x919 JUMP JUMPDEST PUSH1 0x40 MLOAD DUP1 SWAP2 SUB SWAP1 RETURN JUMPDEST PUSH2 0xF3 PUSH2 0x22E JUMP JUMPDEST PUSH1 0x40 MLOAD PUSH2 0x101 SWAP3 SWAP2 SWAP1 PUSH2 0xA8A JUMP JUMPDEST PUSH1 0x40 MLOAD DUP1 SWAP2 SUB SWAP1 RETURN JUMPDEST PUSH2 0x124 PUSH1 0x4 DUP1 CALLDATASIZE SUB DUP2 ADD SWAP1 PUSH2 0x11F SWAP2 SWAP1 PUSH2 0x841 JUMP JUMPDEST PUSH2 0x2FD JUMP JUMPDEST PUSH1 0x40 MLOAD PUSH2 0x131 SWAP2 SWAP1 PUSH2 0xAC2 JUMP JUMPDEST PUSH1 0x40 MLOAD DUP1 SWAP2 SUB SWAP1 RETURN JUMPDEST PUSH2 0x154 PUSH1 0x4 DUP1 CALLDATASIZE SUB DUP2 ADD SWAP1 PUSH2 0x14F SWAP2 SWAP1 PUSH2 0x841 JUMP JUMPDEST PUSH2 0x331 JUMP JUMPDEST STOP JUMPDEST PUSH2 0x15E PUSH2 0x419 JUMP JUMPDEST PUSH1 0x40 MLOAD PUSH2 0x16B SWAP2 SWAP1 PUSH2 0x87B JUMP JUMPDEST PUSH1 0x40 MLOAD DUP1 SWAP2 SUB SWAP1 RETURN JUMPDEST PUSH2 0x18E PUSH1 0x4 DUP1 CALLDATASIZE SUB DUP2 ADD SWAP1 PUSH2 0x189 SWAP2 SWAP1 PUSH2 0x8EE JUMP JUMPDEST PUSH2 0x41E JUMP JUMPDEST PUSH1 0x40 MLOAD PUSH2 0x19C SWAP3 SWAP2 SWAP1 PUSH2 0x919 JUMP JUMPDEST PUSH1 0x40 MLOAD DUP1 SWAP2 SUB SWAP1 RETURN JUMPDEST PUSH2 0x1BF PUSH1 0x4 DUP1 CALLDATASIZE SUB DUP2 ADD SWAP1 PUSH2 0x1BA SWAP2 SWAP1 PUSH2 0x841 JUMP JUMPDEST PUSH2 0x43D JUMP JUMPDEST STOP JUMPDEST PUSH1 0xB DUP2 PUSH1 0xA DUP2 LT PUSH2 0x1D0 JUMPI PUSH0 DUP1 REVERT JUMPDEST ADD PUSH0 SWAP2 POP SWAP1 POP SLOAD DUP2 JUMP JUMPDEST PUSH0 PUSH0 PUSH0 PUSH0 PUSH0 DUP6 PUSH20 0xFFFFFFFFFFFFFFFFFFFFFFFFFFFFFFFFFFFFFFFF AND PUSH20 0xFFFFFFFFFFFFFFFFFFFFFFFFFFFFFFFFFFFFFFFF AND DUP2 MSTORE PUSH1 0x20 ADD SWAP1 DUP2 MSTORE PUSH1 0x20 ADD PUSH0 KECCAK256 SWAP1 POP DUP1 PUSH0 ADD SLOAD DUP2 PUSH1 0x1 ADD SLOAD SWAP3 POP SWAP3 POP POP SWAP2 POP SWAP2 JUMP JUMPDEST PUSH2 0x236 PUSH2 0x7C4 JUMP JUMPDEST PUSH2 0x23E PUSH2 0x7E7 JUMP JUMPDEST PUSH1 0x1 PUSH1 0xB DUP2 PUSH1 0xA DUP1 PUSH1 0x20 MUL PUSH1 0x40 MLOAD SWAP1 DUP2 ADD PUSH1 0x40 MSTORE DUP1 SWAP3 SWAP2 SWAP1 DUP3 PUSH1 0xA DUP1 ISZERO PUSH2 0x2AF JUMPI PUSH1 0x20 MUL DUP3 ADD SWAP2 JUMPDEST DUP2 PUSH0 SWAP1 SLOAD SWAP1 PUSH2 0x100 EXP SWAP1 DIV PUSH20 0xFFFFFFFFFFFFFFFFFFFFFFFFFFFFFFFFFFFFFFFF AND PUSH20 0xFFFFFFFFFFFFFFFFFFFFFFFFFFFFFFFFFFFFFFFF AND DUP2 MSTORE PUSH1 0x20 ADD SWAP1 PUSH1 0x1 ADD SWAP1 DUP1 DUP4 GT PUSH2 0x266 JUMPI JUMPDEST POP POP POP POP POP SWAP2 POP DUP1 PUSH1 0xA DUP1 PUSH1 0x20 MUL PUSH1 0x40 MLOAD SWAP1 DUP2 ADD PUSH1 0x40 MSTORE DUP1 SWAP3 SWAP2 SWAP1 DUP3 PUSH1 0xA DUP1 ISZERO PUSH2 0x2EE JUMPI PUSH1 0x20 MUL DUP3 ADD SWAP2 JUMPDEST DUP2 SLOAD DUP2 MSTORE PUSH1 0x20 ADD SWAP1 PUSH1 0x1 ADD SWAP1 DUP1 DUP4 GT PUSH2 0x2DA JUMPI JUMPDEST POP POP POP POP POP SWAP1 POP SWAP2 POP SWAP2 POP SWAP1 SWAP2 JUMP JUMPDEST PUSH1 0x1 DUP2 PUSH1 0xA DUP2 LT PUSH2 0x30C JUMPI PUSH0 DUP1 REVERT JUMPDEST ADD PUSH0 SWAP2 POP SLOAD SWAP1 PUSH2 0x100 EXP SWAP1 DIV PUSH20 0xFFFFFFFFFFFFFFFFFFFFFFFFFFFFFFFFFFFFFFFF AND DUP2 JUMP JUMPDEST PUSH0 PUSH0 PUSH0 CALLER PUSH20 0xFFFFFFFFFFFFFFFFFFFFFFFFFFFFFFFFFFFFFFFF AND PUSH20 0xFFFFFFFFFFFFFFFFFFFFFFFFFFFFFFFFFFFFFFFF AND DUP2 MSTORE PUSH1 0x20 ADD SWAP1 DUP2 MSTORE PUSH1 0x20 ADD PUSH0 KECCAK256 SWAP1 POP DUP1 PUSH0 ADD SLOAD DUP3 GT PUSH2 0x3B5 JUMPI PUSH1 0x40 MLOAD PUSH32 0x8C379A000000000000000000000000000000000000000000000000000000000 DUP2 MSTORE PUSH1 0x4 ADD PUSH2 0x3AC SWAP1 PUSH2 0xB5B JUMP JUMPDEST PUSH1 0x40 MLOAD DUP1 SWAP2 SUB SWAP1 REVERT JUMPDEST DUP2 DUP2 PUSH0 ADD DUP2 SWAP1 SSTORE POP PUSH2 0x3C7 CALLER DUP4 PUSH2 0x52F JUMP JUMPDEST CALLER PUSH20 0xFFFFFFFFFFFFFFFFFFFFFFFFFFFFFFFFFFFFFFFF AND PUSH32 0xA578DF9B0453D14D7ED8615EE0E9D58F70E041E91FC5865E3B71F81EA05296C0 DUP4 PUSH1 0x40 MLOAD PUSH2 0x40D SWAP2 SWAP1 PUSH2 0x87B JUMP JUMPDEST PUSH1 0x40 MLOAD DUP1 SWAP2 SUB SWAP1 LOG2 POP POP JUMP JUMPDEST PUSH1 0xA DUP2 JUMP JUMPDEST PUSH0 PUSH1 0x20 MSTORE DUP1 PUSH0 MSTORE PUSH1 0x40 PUSH0 KECCAK256 PUSH0 SWAP2 POP SWAP1 POP DUP1 PUSH0 ADD SLOAD SWAP1 DUP1 PUSH1 0x1 ADD SLOAD SWAP1 POP DUP3 JUMP JUMPDEST PUSH0 PUSH0 PUSH0 CALLER PUSH20 0xFFFFFFFFFFFFFFFFFFFFFFFFFFFFFFFFFFFFFFFF AND PUSH20 0xFFFFFFFFFFFFFFFFFFFFFFFFFFFFFFFFFFFFFFFF AND DUP2 MSTORE PUSH1 0x20 ADD SWAP1 DUP2 MSTORE PUSH1 0x20 ADD PUSH0 KECCAK256 SWAP1 POP PUSH0 DUP3 PUSH1 0x1 SWAP1 SHL DUP3 PUSH1 0x1 ADD SLOAD AND EQ PUSH2 0x4C8 JUMPI PUSH1 0x40 MLOAD PUSH32 0x8C379A000000000000000000000000000000000000000000000000000000000 DUP2 MSTORE PUSH1 0x4 ADD PUSH2 0x4BF SWAP1 PUSH2 0xBC3 JUMP JUMPDEST PUSH1 0x40 MLOAD DUP1 SWAP2 SUB SWAP1 REVERT JUMPDEST DUP2 PUSH1 0x1 SWAP1 SHL DUP2 PUSH1 0x1 ADD PUSH0 DUP3 DUP3 SLOAD OR SWAP3 POP POP DUP2 SWAP1 SSTORE POP CALLER PUSH20 0xFFFFFFFFFFFFFFFFFFFFFFFFFFFFFFFFFFFFFFFF AND PUSH32 0xECFCF3A608FEFE3B6EA7D5EFC965CFC3AD0043767F8618944C737253329892D7 DUP4 PUSH1 0x40 MLOAD PUSH2 0x523 SWAP2 SWAP1 PUSH2 0x87B JUMP JUMPDEST PUSH1 0x40 MLOAD DUP1 SWAP2 SUB SWAP1 LOG2 POP POP JUMP JUMPDEST PUSH0 PUSH32 0xFFFFFFFFFFFFFFFFFFFFFFFFFFFFFFFFFFFFFFFFFFFFFFFFFFFFFFFFFFFFFFFF SWAP1 POP PUSH0 PUSH0 SWAP1 POP JUMPDEST PUSH1 0xA DUP2 LT ISZERO PUSH2 0x5DD JUMPI DUP4 PUSH20 0xFFFFFFFFFFFFFFFFFFFFFFFFFFFFFFFFFFFFFFFF AND PUSH1 0x1 DUP3 PUSH1 0xA DUP2 LT PUSH2 0x58C JUMPI PUSH2 0x58B PUSH2 0xBE1 JUMP JUMPDEST JUMPDEST ADD PUSH0 SWAP1 SLOAD SWAP1 PUSH2 0x100 EXP SWAP1 DIV PUSH20 0xFFFFFFFFFFFFFFFFFFFFFFFFFFFFFFFFFFFFFFFF AND PUSH20 0xFFFFFFFFFFFFFFFFFFFFFFFFFFFFFFFFFFFFFFFF AND SUB PUSH2 0x5D0 JUMPI DUP1 SWAP2 POP PUSH2 0x5DD JUMP JUMPDEST DUP1 DUP1 PUSH1 0x1 ADD SWAP2 POP POP PUSH2 0x558 JUMP JUMPDEST POP PUSH0 PUSH0 SWAP1 POP JUMPDEST PUSH1 0xA DUP2 LT ISZERO PUSH2 0x783 JUMPI PUSH1 0xB DUP2 PUSH1 0xA DUP2 LT PUSH2 0x600 JUMPI PUSH2 0x5FF PUSH2 0xBE1 JUMP JUMPDEST JUMPDEST ADD SLOAD DUP4 GT ISZERO PUSH2 0x776 JUMPI PUSH0 PUSH1 0x1 PUSH1 0xA PUSH2 0x618 SWAP2 SWAP1 PUSH2 0xC3B JUMP JUMPDEST SWAP1 POP JUMPDEST DUP2 DUP2 GT ISZERO PUSH2 0x703 JUMPI PUSH1 0x1 DUP1 DUP3 PUSH2 0x631 SWAP2 SWAP1 PUSH2 0xC3B JUMP JUMPDEST PUSH1 0xA DUP2 LT PUSH2 0x642 JUMPI PUSH2 0x641 PUSH2 0xBE1 JUMP JUMPDEST JUMPDEST ADD PUSH0 SWAP1 SLOAD SWAP1 PUSH2 0x100 EXP SWAP1 DIV PUSH20 0xFFFFFFFFFFFFFFFFFFFFFFFFFFFFFFFFFFFFFFFF AND PUSH1 0x1 DUP3 PUSH1 0xA DUP2 LT PUSH2 0x677 JUMPI PUSH2 0x676 PUSH2 0xBE1 JUMP JUMPDEST JUMPDEST ADD PUSH0 PUSH2 0x100 EXP DUP2 SLOAD DUP2 PUSH20 0xFFFFFFFFFFFFFFFFFFFFFFFFFFFFFFFFFFFFFFFF MUL NOT AND SWAP1 DUP4 PUSH20 0xFFFFFFFFFFFFFFFFFFFFFFFFFFFFFFFFFFFFFFFF AND MUL OR SWAP1 SSTORE POP PUSH1 0xB PUSH1 0x1 DUP3 PUSH2 0x6C4 SWAP2 SWAP1 PUSH2 0xC3B JUMP JUMPDEST PUSH1 0xA DUP2 LT PUSH2 0x6D5 JUMPI PUSH2 0x6D4 PUSH2 0xBE1 JUMP JUMPDEST JUMPDEST ADD SLOAD PUSH1 0xB DUP3 PUSH1 0xA DUP2 LT PUSH2 0x6EB JUMPI PUSH2 0x6EA PUSH2 0xBE1 JUMP JUMPDEST JUMPDEST ADD DUP2 SWAP1 SSTORE POP DUP1 DUP1 PUSH2 0x6FB SWAP1 PUSH2 0xC6E JUMP JUMPDEST SWAP2 POP POP PUSH2 0x61B JUMP JUMPDEST POP DUP4 PUSH1 0x1 DUP3 PUSH1 0xA DUP2 LT PUSH2 0x719 JUMPI PUSH2 0x718 PUSH2 0xBE1 JUMP JUMPDEST JUMPDEST ADD PUSH0 PUSH2 0x100 EXP DUP2 SLOAD DUP2 PUSH20 0xFFFFFFFFFFFFFFFFFFFFFFFFFFFFFFFFFFFFFFFF MUL NOT AND SWAP1 DUP4 PUSH20 0xFFFFFFFFFFFFFFFFFFFFFFFFFFFFFFFFFFFFFFFF AND MUL OR SWAP1 SSTORE POP DUP3 PUSH1 0xB DUP3 PUSH1 0xA DUP2 LT PUSH2 0x76C JUMPI PUSH2 0x76B PUSH2 0xBE1 JUMP JUMPDEST JUMPDEST ADD DUP2 SWAP1 SSTORE POP PUSH2 0x783 JUMP JUMPDEST DUP1 DUP1 PUSH1 0x1 ADD SWAP2 POP POP PUSH2 0x5E3 JUMP JUMPDEST POP PUSH32 0x3AC3291D6B440F4C2FAA1D819AEEBDACA8F721BADDA0885FE12114814467D18C PUSH1 0x1 PUSH1 0xB PUSH1 0x40 MLOAD PUSH2 0x7B7 SWAP3 SWAP2 SWAP1 PUSH2 0xE16 JUMP JUMPDEST PUSH1 0x40 MLOAD DUP1 SWAP2 SUB SWAP1 LOG1 POP POP POP JUMP JUMPDEST PUSH1 0x40 MLOAD DUP1 PUSH2 0x140 ADD PUSH1 0x40 MSTORE DUP1 PUSH1 0xA SWAP1 PUSH1 0x20 DUP3 MUL DUP1 CALLDATASIZE DUP4 CALLDATACOPY DUP1 DUP3 ADD SWAP2 POP POP SWAP1 POP POP SWAP1 JUMP JUMPDEST PUSH1 0x40 MLOAD DUP1 PUSH2 0x140 ADD PUSH1 0x40 MSTORE DUP1 PUSH1 0xA SWAP1 PUSH1 0x20 DUP3 MUL DUP1 CALLDATASIZE DUP4 CALLDATACOPY DUP1 DUP3 ADD SWAP2 POP POP SWAP1 POP POP SWAP1 JUMP JUMPDEST PUSH0 PUSH0 REVERT JUMPDEST PUSH0 DUP2 SWAP1 POP SWAP2 SWAP1 POP JUMP JUMPDEST PUSH2 0x820 DUP2 PUSH2 0x80E JUMP JUMPDEST DUP2 EQ PUSH2 0x82A JUMPI PUSH0 PUSH0 REVERT JUMPDEST POP JUMP JUMPDEST PUSH0 DUP2 CALLDATALOAD SWAP1 POP PUSH2 0x83B DUP2 PUSH2 0x817 JUMP JUMPDEST SWAP3 SWAP2 POP POP JUMP JUMPDEST PUSH0 PUSH1 0x20 DUP3 DUP5 SUB SLT ISZERO PUSH2 0x856 JUMPI PUSH2 0x855 PUSH2 0x80A JUMP JUMPDEST JUMPDEST PUSH0 PUSH2 0x863 DUP5 DUP3 DUP6 ADD PUSH2 0x82D JUMP JUMPDEST SWAP2 POP POP SWAP3 SWAP2 POP POP JUMP JUMPDEST PUSH2 0x875 DUP2 PUSH2 0x80E JUMP JUMPDEST DUP3 MSTORE POP POP JUMP JUMPDEST PUSH0 PUSH1 0x20 DUP3 ADD SWAP1 POP PUSH2 0x88E PUSH0 DUP4 ADD DUP5 PUSH2 0x86C JUMP JUMPDEST SWAP3 SWAP2 POP POP JUMP JUMPDEST PUSH0 PUSH20 0xFFFFFFFFFFFFFFFFFFFFFFFFFFFFFFFFFFFFFFFF DUP3 AND SWAP1 POP SWAP2 SWAP1 POP JUMP JUMPDEST PUSH0 PUSH2 0x8BD DUP3 PUSH2 0x894 JUMP JUMPDEST SWAP1 POP SWAP2 SWAP1 POP JUMP JUMPDEST PUSH2 0x8CD DUP2 PUSH2 0x8B3 JUMP JUMPDEST DUP2 EQ PUSH2 0x8D7 JUMPI PUSH0 PUSH0 REVERT JUMPDEST POP JUMP JUMPDEST PUSH0 DUP2 CALLDATALOAD SWAP1 POP PUSH2 0x8E8 DUP2 PUSH2 0x8C4 JUMP JUMPDEST SWAP3 SWAP2 POP POP JUMP JUMPDEST PUSH0 PUSH1 0x20 DUP3 DUP5 SUB SLT ISZERO PUSH2 0x903 JUMPI PUSH2 0x902 PUSH2 0x80A JUMP JUMPDEST JUMPDEST PUSH0 PUSH2 0x910 DUP5 DUP3 DUP6 ADD PUSH2 0x8DA JUMP JUMPDEST SWAP2 POP POP SWAP3 SWAP2 POP POP JUMP JUMPDEST PUSH0 PUSH1 0x40 DUP3 ADD SWAP1 POP PUSH2 0x92C PUSH0 DUP4 ADD DUP6 PUSH2 0x86C JUMP JUMPDEST PUSH2 0x939 PUSH1 0x20 DUP4 ADD DUP5 PUSH2 0x86C JUMP JUMPDEST SWAP4 SWAP3 POP POP POP JUMP JUMPDEST PUSH0 PUSH1 0xA SWAP1 POP SWAP2 SWAP1 POP JUMP JUMPDEST PUSH0 DUP2 SWAP1 POP SWAP3 SWAP2 POP POP JUMP JUMPDEST PUSH0 DUP2 SWAP1 POP SWAP2 SWAP1 POP JUMP JUMPDEST PUSH2 0x966 DUP2 PUSH2 0x8B3 JUMP JUMPDEST DUP3 MSTORE POP POP JUMP JUMPDEST PUSH0 PUSH2 0x977 DUP4 DUP4 PUSH2 0x95D JUMP JUMPDEST PUSH1 0x20 DUP4 ADD SWAP1 POP SWAP3 SWAP2 POP POP JUMP JUMPDEST PUSH0 PUSH1 0x20 DUP3 ADD SWAP1 POP SWAP2 SWAP1 POP JUMP JUMPDEST PUSH2 0x998 DUP2 PUSH2 0x940 JUMP JUMPDEST PUSH2 0x9A2 DUP2 DUP5 PUSH2 0x94A JUMP JUMPDEST SWAP3 POP PUSH2 0x9AD DUP3 PUSH2 0x954 JUMP JUMPDEST DUP1 PUSH0 JUMPDEST DUP4 DUP2 LT ISZERO PUSH2 0x9DD JUMPI DUP2 MLOAD PUSH2 0x9C4 DUP8 DUP3 PUSH2 0x96C JUMP JUMPDEST SWAP7 POP PUSH2 0x9CF DUP4 PUSH2 0x983 JUMP JUMPDEST SWAP3 POP POP PUSH1 0x1 DUP2 ADD SWAP1 POP PUSH2 0x9B0 JUMP JUMPDEST POP POP POP POP POP POP JUMP JUMPDEST PUSH0 PUSH1 0xA SWAP1 POP SWAP2 SWAP1 POP JUMP JUMPDEST PUSH0 DUP2 SWAP1 POP SWAP3 SWAP2 POP POP JUMP JUMPDEST PUSH0 DUP2 SWAP1 POP SWAP2 SWAP1 POP JUMP JUMPDEST PUSH2 0xA0B DUP2 PUSH2 0x80E JUMP JUMPDEST DUP3 MSTORE POP POP JUMP JUMPDEST PUSH0 PUSH2 0xA1C DUP4 DUP4 PUSH2 0xA02 JUMP JUMPDEST PUSH1 0x20 DUP4 ADD SWAP1 POP SWAP3 SWAP2 POP POP JUMP JUMPDEST PUSH0 PUSH1 0x20 DUP3 ADD SWAP1 POP SWAP2 SWAP1 POP JUMP JUMPDEST PUSH2 0xA3D DUP2 PUSH2 0x9E5 JUMP JUMPDEST PUSH2 0xA47 DUP2 DUP5 PUSH2 0x9EF JUMP JUMPDEST SWAP3 POP PUSH2 0xA52 DUP3 PUSH2 0x9F9 JUMP JUMPDEST DUP1 PUSH0 JUMPDEST DUP4 DUP2 LT ISZERO PUSH2 0xA82 JUMPI DUP2 MLOAD PUSH2 0xA69 DUP8 DUP3 PUSH2 0xA11 JUMP JUMPDEST SWAP7 POP PUSH2 0xA74 DUP4 PUSH2 0xA28 JUMP JUMPDEST SWAP3 POP POP PUSH1 0x1 DUP2 ADD SWAP1 POP PUSH2 0xA55 JUMP JUMPDEST POP POP POP POP POP POP JUMP JUMPDEST PUSH0 PUSH2 0x280 DUP3 ADD SWAP1 POP PUSH2 0xA9E PUSH0 DUP4 ADD DUP6 PUSH2 0x98F JUMP JUMPDEST PUSH2 0xAAC PUSH2 0x140 DUP4 ADD DUP5 PUSH2 0xA34 JUMP JUMPDEST SWAP4 SWAP3 POP POP POP JUMP JUMPDEST PUSH2 0xABC DUP2 PUSH2 0x8B3 JUMP JUMPDEST DUP3 MSTORE POP POP JUMP JUMPDEST PUSH0 PUSH1 0x20 DUP3 ADD SWAP1 POP PUSH2 0xAD5 PUSH0 DUP4 ADD DUP5 PUSH2 0xAB3 JUMP JUMPDEST SWAP3 SWAP2 POP POP JUMP JUMPDEST PUSH0 DUP3 DUP3 MSTORE PUSH1 0x20 DUP3 ADD SWAP1 POP SWAP3 SWAP2 POP POP JUMP JUMPDEST PUSH32 0x53636F7265206E6F7420686967686572207468616E2063757272656E74206869 PUSH0 DUP3 ADD MSTORE PUSH32 0x67682073636F7265000000000000000000000000000000000000000000000000 PUSH1 0x20 DUP3 ADD MSTORE POP JUMP JUMPDEST PUSH0 PUSH2 0xB45 PUSH1 0x28 DUP4 PUSH2 0xADB JUMP JUMPDEST SWAP2 POP PUSH2 0xB50 DUP3 PUSH2 0xAEB JUMP JUMPDEST PUSH1 0x40 DUP3 ADD SWAP1 POP SWAP2 SWAP1 POP JUMP JUMPDEST PUSH0 PUSH1 0x20 DUP3 ADD SWAP1 POP DUP2 DUP2 SUB PUSH0 DUP4 ADD MSTORE PUSH2 0xB72 DUP2 PUSH2 0xB39 JUMP JUMPDEST SWAP1 POP SWAP2 SWAP1 POP JUMP JUMPDEST PUSH32 0x416368696576656D656E7420616C726561647920756E6C6F636B656400000000 PUSH0 DUP3 ADD MSTORE POP JUMP JUMPDEST PUSH0 PUSH2 0xBAD PUSH1 0x1C DUP4 PUSH2 0xADB JUMP JUMPDEST SWAP2 POP PUSH2 0xBB8 DUP3 PUSH2 0xB79 JUMP JUMPDEST PUSH1 0x20 DUP3 ADD SWAP1 POP SWAP2 SWAP1 POP JUMP JUMPDEST PUSH0 PUSH1 0x20 DUP3 ADD SWAP1 POP DUP2 DUP2 SUB PUSH0 DUP4 ADD MSTORE PUSH2 0xBDA DUP2 PUSH2 0xBA1 JUMP JUMPDEST SWAP1 POP SWAP2 SWAP1 POP JUMP JUMPDEST PUSH32 0x4E487B7100000000000000000000000000000000000000000000000000000000 PUSH0 MSTORE PUSH1 0x32 PUSH1 0x4 MSTORE PUSH1 0x24 PUSH0 REVERT JUMPDEST PUSH32 0x4E487B7100000000000000000000000000000000000000000000000000000000 PUSH0 MSTORE PUSH1 0x11 PUSH1 0x4 MSTORE PUSH1 0x24 PUSH0 REVERT JUMPDEST PUSH0 PUSH2 0xC45 DUP3 PUSH2 0x80E JUMP JUMPDEST SWAP2 POP PUSH2 0xC50 DUP4 PUSH2 0x80E JUMP JUMPDEST SWAP3 POP DUP3 DUP3 SUB SWAP1 POP DUP2 DUP2 GT ISZERO PUSH2 0xC68 JUMPI PUSH2 0xC67 PUSH2 0xC0E JUMP JUMPDEST JUMPDEST SWAP3 SWAP2 POP POP JUMP JUMPDEST PUSH0 PUSH2 0xC78 DUP3 PUSH2 0x80E JUMP JUMPDEST SWAP2 POP PUSH0 DUP3 SUB PUSH2 0xC8A JUMPI PUSH2 0xC89 PUSH2 0xC0E JUMP JUMPDEST JUMPDEST PUSH1 0x1 DUP3 SUB SWAP1 POP SWAP2 SWAP1 POP JUMP JUMPDEST PUSH0 PUSH1 0xA SWAP1 POP SWAP2 SWAP1 POP JUMP JUMPDEST PUSH0 DUP2 SWAP1 POP SWAP2 SWAP1 POP JUMP JUMPDEST PUSH0 DUP2 PUSH0 SHR SWAP1 POP SWAP2 SWAP1 POP JUMP JUMPDEST PUSH0 PUSH20 0xFFFFFFFFFFFFFFFFFFFFFFFFFFFFFFFFFFFFFFFF DUP3 AND SWAP1 POP SWAP2 SWAP1 POP JUMP JUMPDEST PUSH0 PUSH2 0xCE4 PUSH2 0xCDF DUP4 PUSH2 0xCA8 JUMP JUMPDEST PUSH2 0xCB3 JUMP JUMPDEST SWAP1 POP SWAP2 SWAP1 POP JUMP JUMPDEST PUSH0 PUSH2 0xCF6 DUP3 SLOAD PUSH2 0xCD2 JUMP JUMPDEST SWAP1 POP SWAP2 SWAP1 POP JUMP JUMPDEST PUSH0 PUSH1 0x1 DUP3 ADD SWAP1 POP SWAP2 SWAP1 POP JUMP JUMPDEST PUSH2 0xD12 DUP2 PUSH2 0xC95 JUMP JUMPDEST PUSH2 0xD1C DUP2 DUP5 PUSH2 0x94A JUMP JUMPDEST SWAP3 POP PUSH2 0xD27 DUP3 PUSH2 0xC9F JUMP JUMPDEST DUP1 PUSH0 JUMPDEST DUP4 DUP2 LT ISZERO PUSH2 0xD5E JUMPI PUSH2 0xD3B DUP3 PUSH2 0xCEB JUMP JUMPDEST PUSH2 0xD45 DUP8 DUP3 PUSH2 0x96C JUMP JUMPDEST SWAP7 POP PUSH2 0xD50 DUP4 PUSH2 0xCFD JUMP JUMPDEST SWAP3 POP POP PUSH1 0x1 DUP2 ADD SWAP1 POP PUSH2 0xD2A JUMP JUMPDEST POP POP POP POP POP POP JUMP JUMPDEST PUSH0 PUSH1 0xA SWAP1 POP SWAP2 SWAP1 POP JUMP JUMPDEST PUSH0 DUP2 SWAP1 POP SWAP2 SWAP1 POP JUMP JUMPDEST PUSH0 DUP2 SWAP1 POP SWAP2 SWAP1 POP JUMP JUMPDEST PUSH0 PUSH2 0xD94 PUSH2 0xD8F DUP4 PUSH2 0xCA8 JUMP JUMPDEST PUSH2 0xD79 JUMP JUMPDEST SWAP1 POP SWAP2 SWAP1 POP JUMP JUMPDEST PUSH0 PUSH2 0xDA6 DUP3 SLOAD PUSH2 0xD82 JUMP JUMPDEST SWAP1 POP SWAP2 SWAP1 POP JUMP JUMPDEST PUSH0 PUSH1 0x1 DUP3 ADD SWAP1 POP SWAP2 SWAP1 POP JUMP JUMPDEST PUSH2 0xDC2 DUP2 PUSH2 0xD66 JUMP JUMPDEST PUSH2 0xDCC DUP2 DUP5 PUSH2 0x9EF JUMP JUMPDEST SWAP3 POP PUSH2 0xDD7 DUP3 PUSH2 0xD70 JUMP JUMPDEST DUP1 PUSH0 JUMPDEST DUP4 DUP2 LT ISZERO PUSH2 0xE0E JUMPI PUSH2 0xDEB DUP3 PUSH2 0xD9B JUMP JUMPDEST PUSH2 0xDF5 DUP8 DUP3 PUSH2 0xA11 JUMP JUMPDEST SWAP7 POP PUSH2 0xE00 DUP4 PUSH2 0xDAD JUMP JUMPDEST SWAP3 POP POP PUSH1 0x1 DUP2 ADD SWAP1 POP PUSH2 0xDDA JUMP JUMPDEST POP POP POP POP POP POP JUMP JUMPDEST PUSH0 PUSH2 0x280 DUP3 ADD SWAP1 POP PUSH2 0xE2A PUSH0 DUP4 ADD DUP6 PUSH2 0xD09 JUMP JUMPDEST PUSH2 0xE38 PUSH2 0x140 DUP4 ADD DUP5 PUSH2 0xDB9 JUMP JUMPDEST SWAP4 SWAP3 POP POP POP JUMP INVALID LOG2 PUSH5 0x6970667358 0x22 SLT KECCAK256 LOG0 PUSH21 0xC75C9E9271E455BCFA2C31C36C9DE2282ED0B1F6AB DUP2 0x29 CREATE 0x4C PUSH11 0x309FFA2064736F6C634300 ADDMOD 0x1E STOP CALLER "
				},
				"gasEstimates": {
					"creation": {
						"codeDepositCost": "740200",
						"executionCost": "771",
						"totalCost": "740971"
					},
					"external": {
						"TOP_N()": "347",
						"getPlayer(address)": "infinite",
						"getTopPlayers()": "infinite",
						"players(address)": "infinite",
						"submitScore(uint256)": "infinite",
						"topPlayers(uint256)": "2862",
						"topScores(uint256)": "infinite",
						"unlockAchievement(uint256)": "infinite"
					},
					"internal": {
						"_updateLeaderboard(address,uint256)": "infinite"
					}
				},
				"methodIdentifiers": {
					"TOP_N()": "dfc22a6b",
					"getPlayer(address)": "5c12cd4b",
					"getTopPlayers()": "88e814e6",
					"players(address)": "e2eb41ff",
					"submitScore(uint256)": "aff0b297",
					"topPlayers(uint256)": "af137ca8",
					"topScores(uint256)": "5112711a",
					"unlockAchievement(uint256)": "f5556c44"
				}
			},
			"storageLayout": {
				"storage": [
					{
						"astId": 14,
						"contract": "main.sol:GameLeaderboardTopN",
						"label": "players",
						"offset": 0,
						"slot": "0",
						"type": "t_mapping(t_address,t_struct(Player)9_storage)"
					},
					{
						"astId": 18,
						"contract": "main.sol:GameLeaderboardTopN",
						"label": "topPlayers",
						"offset": 0,
						"slot": "1",
						"type": "t_array(t_address)10_storage"
					},
					{
						"astId": 22,
						"contract": "main.sol:GameLeaderboardTopN",
						"label": "topScores",
						"offset": 0,
						"slot": "11",
						"type": "t_array(t_uint256)10_storage"
					}
				],
				"types": {
					"t_address": {
						"encoding": "inplace",
						"label": "address",
						"numberOfBytes": "20"
					},
					"t_array(t_address)10_storage": {
						"base": "t_address",
						"encoding": "inplace",
						"label": "address[10]",
						"numberOfBytes": "320"
					},
					"t_array(t_uint256)10_storage": {
						"base": "t_uint256",
						"encoding": "inplace",
						"label": "uint256[10]",
						"numberOfBytes": "320"
					},
					"t_mapping(t_address,t_struct(Player)9_storage)": {
						"encoding": "mapping",
						"key": "t_address",
						"label": "mapping(address => struct GameLeaderboardTopN.Player)",
						"numberOfBytes": "32",
						"value": "t_struct(Player)9_storage"
					},
					"t_struct(Player)9_storage": {
						"encoding": "inplace",
						"label": "struct GameLeaderboardTopN.Player",
						"members": [
							{
								"astId": 6,
								"contract": "main.sol:GameLeaderboardTopN",
								"label": "highScore",
								"offset": 0,
								"slot": "0",
								"type": "t_uint256"
							},
							{
								"astId": 8,
								"contract": "main.sol:GameLeaderboardTopN",
								"label": "achievements",
								"offset": 0,
								"slot": "1",
								"type": "t_uint256"
							}
						],
						"numberOfBytes": "64"
					},
					"t_uint256": {
						"encoding": "inplace",
						"label": "uint256",
						"numberOfBytes": "32"
					}
				}
			},
			"userdoc": {
				"kind": "user",
				"methods": {},
				"version": 1
			}
		}
	}
}