{
	"main.sol": {
		"GameLeaderboardTopN": {
			"abi": [
				{
					"inputs": [],
					"stateMutability": "nonpayable",
					"type": "constructor"
				},
				{
					"anonymous": false,
					"inputs": [
						{
							"indexed": true,
							"internalType": "address",
							"name": "player",
							"type": "address"
						},
						{
							"indexed": false,
							"internalType": "uint256",
							"name": "achievementId",
							"type": "uint256"
						}
					],
					"name": "AchievementUnlocked",
					"type": "event"
				},
				{
					"anonymous": false,
					"inputs": [
						{
							"indexed": false,
							"internalType": "address[10]",
							"name": "topPlayers",
							"type": "address[10]"
						},
						{
							"indexed": false,
							"internalType": "uint256[10]",
							"name": "topScores",
							"type": "uint256[10]"
						}
					],
					"name": "LeaderboardUpdated",
					"type": "event"
				},
				{
					"anonymous": false,
					"inputs": [
						{
							"indexed": true,
							"internalType": "address",
							"name": "player",
							"type": "address"
						},
						{
							"indexed": false,
							"internalType": "uint256",
							"name": "score",
							"type": "uint256"
						}
					],
					"name": "ScoreSubmitted",
					"type": "event"
				},
				{
					"inputs": [],
					"name": "TOP_N",
					"outputs": [
						{
							"internalType": "uint256",
							"name": "",
							"type": "uint256"
						}
					],
					"stateMutability": "view",
					"type": "function"
				},
				{
					"inputs": [
						{
							"internalType": "address",
							"name": "addr",
							"type": "address"
						}
					],
					"name": "getPlayer",
					"outputs": [
						{
							"internalType": "uint256",
							"name": "highScore",
							"type": "uint256"
						},
						{
							"internalType": "uint256",
							"name": "achievements",
							"type": "uint256"
						}
					],
					"stateMutability": "view",
					"type": "function"
				},
				{
					"inputs": [],
					"name": "getTopPlayers",
					"outputs": [
						{
							"internalType": "address[10]",
							"name": "",
							"type": "address[10]"
						},
						{
							"internalType": "uint256[10]",
							"name": "",
							"type": "uint256[10]"
						}
					],
					"stateMutability": "view",
					"type": "function"
				},
				{
					"inputs": [],
					"name": "owner",
					"outputs": [
						{
							"internalType": "address",
							"name": "",
							"type": "address"
						}
					],
					"stateMutability": "view",
					"type": "function"
				},
				{
					"inputs": [
						{
							"internalType": "address",
							"name": "",
							"type": "address"
						}
					],
					"name": "players",
					"outputs": [
						{
							"internalType": "uint256",
							"name": "highScore",
							"type": "uint256"
						},
						{
							"internalType": "uint256",
							"name": "achievements",
							"type": "uint256"
						}
					],
					"stateMutability": "view",
					"type": "function"
				},
				{
					"inputs": [
						{
							"internalType": "address",
							"name": "playerAddr",
							"type": "address"
						},
						{
							"internalType": "uint256",
							"name": "score",
							"type": "uint256"
						}
					],
					"name": "submitScore",
					"outputs": [],
					"stateMutability": "nonpayable",
					"type": "function"
				},
				{
					"inputs": [
						{
							"internalType": "uint256",
							"name": "",
							"type": "uint256"
						}
					],
					"name": "topPlayers",
					"outputs": [
						{
							"internalType": "address",
							"name": "",
							"type": "address"
						}
					],
					"stateMutability": "view",
					"type": "function"
				},
				{
					"inputs": [
						{
							"internalType": "uint256",
							"name": "",
							"type": "uint256"
						}
					],
					"name": "topScores",
					"outputs": [
						{
							"internalType": "uint256",
							"name": "",
							"type": "uint256"
						}
					],
					"stateMutability": "view",
					"type": "function"
				},
				{
					"inputs": [
						{
							"internalType": "uint256",
							"name": "achievementId",
							"type": "uint256"
						}
					],
					"name": "unlockAchievement",
					"outputs": [],
					"stateMutability": "nonpayable",
					"type": "function"
				}
			],
			"devdoc": {
				"kind": "dev",
				"methods": {},
				"version": 1
			},
			"evm": {
				"assembly": "    /* \"main.sol\":58:3158  contract GameLeaderboardTopN {... */\n  mstore(0x40, 0x80)\n    /* \"main.sol\":763:812  constructor() {... */\n  callvalue\n  dup1\n  iszero\n  tag_1\n  jumpi\n  revert(0x00, 0x00)\ntag_1:\n  pop\n    /* \"main.sol\":795:805  msg.sender */\n  caller\n    /* \"main.sol\":787:792  owner */\n  0x00\n  0x00\n    /* \"main.sol\":787:805  owner = msg.sender */\n  0x0100\n  exp\n  dup2\n  sload\n  dup2\n  0xffffffffffffffffffffffffffffffffffffffff\n  mul\n  not\n  and\n  swap1\n  dup4\n  0xffffffffffffffffffffffffffffffffffffffff\n  and\n  mul\n  or\n  swap1\n  sstore\n  pop\n    /* \"main.sol\":58:3158  contract GameLeaderboardTopN {... */\n  dataSize(sub_0)\n  dup1\n  dataOffset(sub_0)\n  0x00\n  codecopy\n  0x00\n  return\nstop\n\nsub_0: assembly {\n        /* \"main.sol\":58:3158  contract GameLeaderboardTopN {... */\n      mstore(0x40, 0x80)\n      callvalue\n      dup1\n      iszero\n      tag_1\n      jumpi\n      revert(0x00, 0x00)\n    tag_1:\n      pop\n      jumpi(tag_2, lt(calldatasize, 0x04))\n      shr(0xe0, calldataload(0x00))\n      dup1\n      0x8da5cb5b\n      gt\n      tag_12\n      jumpi\n      dup1\n      0x8da5cb5b\n      eq\n      tag_7\n      jumpi\n      dup1\n      0xaf137ca8\n      eq\n      tag_8\n      jumpi\n      dup1\n      0xdfc22a6b\n      eq\n      tag_9\n      jumpi\n      dup1\n      0xe2eb41ff\n      eq\n      tag_10\n      jumpi\n      dup1\n      0xf5556c44\n      eq\n      tag_11\n      jumpi\n      jump(tag_2)\n    tag_12:\n      dup1\n      0x1db544c0\n      eq\n      tag_3\n      jumpi\n      dup1\n      0x5112711a\n      eq\n      tag_4\n      jumpi\n      dup1\n      0x5c12cd4b\n      eq\n      tag_5\n      jumpi\n      dup1\n      0x88e814e6\n      eq\n      tag_6\n      jumpi\n    tag_2:\n      revert(0x00, 0x00)\n        /* \"main.sol\":1001:1354  function submitScore(address playerAddr, uint256 score) external onlyOwner {... */\n    tag_3:\n      tag_13\n      0x04\n      dup1\n      calldatasize\n      sub\n      dup2\n      add\n      swap1\n      tag_14\n      swap2\n      swap1\n      tag_15\n      jump\t// in\n    tag_14:\n      tag_16\n      jump\t// in\n    tag_13:\n      stop\n        /* \"main.sol\":442:473  uint256[TOP_N] public topScores */\n    tag_4:\n      tag_17\n      0x04\n      dup1\n      calldatasize\n      sub\n      dup2\n      add\n      swap1\n      tag_18\n      swap2\n      swap1\n      tag_19\n      jump\t// in\n    tag_18:\n      tag_20\n      jump\t// in\n    tag_17:\n      mload(0x40)\n      tag_21\n      swap2\n      swap1\n      tag_22\n      jump\t// in\n    tag_21:\n      mload(0x40)\n      dup1\n      swap2\n      sub\n      swap1\n      return\n        /* \"main.sol\":2765:2972  function getPlayer(address addr) external view returns (uint256 highScore, uint256 achievements) {... */\n    tag_5:\n      tag_23\n      0x04\n      dup1\n      calldatasize\n      sub\n      dup2\n      add\n      swap1\n      tag_24\n      swap2\n      swap1\n      tag_25\n      jump\t// in\n    tag_24:\n      tag_26\n      jump\t// in\n    tag_23:\n      mload(0x40)\n      tag_27\n      swap3\n      swap2\n      swap1\n      tag_28\n      jump\t// in\n    tag_27:\n      mload(0x40)\n      dup1\n      swap2\n      sub\n      swap1\n      return\n        /* \"main.sol\":3015:3156  function getTopPlayers() external view returns (address[TOP_N] memory, uint256[TOP_N] memory) {... */\n    tag_6:\n      tag_29\n      tag_30\n      jump\t// in\n    tag_29:\n      mload(0x40)\n      tag_31\n      swap3\n      swap2\n      swap1\n      tag_32\n      jump\t// in\n    tag_31:\n      mload(0x40)\n      dup1\n      swap2\n      sub\n      swap1\n      return\n        /* \"main.sol\":114:134  address public owner */\n    tag_7:\n      tag_33\n      tag_34\n      jump\t// in\n    tag_33:\n      mload(0x40)\n      tag_35\n      swap2\n      swap1\n      tag_36\n      jump\t// in\n    tag_35:\n      mload(0x40)\n      dup1\n      swap2\n      sub\n      swap1\n      return\n        /* \"main.sol\":404:436  address[TOP_N] public topPlayers */\n    tag_8:\n      tag_37\n      0x04\n      dup1\n      calldatasize\n      sub\n      dup2\n      add\n      swap1\n      tag_38\n      swap2\n      swap1\n      tag_19\n      jump\t// in\n    tag_38:\n      tag_39\n      jump\t// in\n    tag_37:\n      mload(0x40)\n      tag_40\n      swap2\n      swap1\n      tag_36\n      jump\t// in\n    tag_40:\n      mload(0x40)\n      dup1\n      swap2\n      sub\n      swap1\n      return\n        /* \"main.sol\":163:197  uint256 public constant TOP_N = 10 */\n    tag_9:\n      tag_41\n      tag_42\n      jump\t// in\n    tag_41:\n      mload(0x40)\n      tag_43\n      swap2\n      swap1\n      tag_22\n      jump\t// in\n    tag_43:\n      mload(0x40)\n      dup1\n      swap2\n      sub\n      swap1\n      return\n        /* \"main.sol\":331:372  mapping(address => Player) public players */\n    tag_10:\n      tag_44\n      0x04\n      dup1\n      calldatasize\n      sub\n      dup2\n      add\n      swap1\n      tag_45\n      swap2\n      swap1\n      tag_25\n      jump\t// in\n    tag_45:\n      tag_46\n      jump\t// in\n    tag_44:\n      mload(0x40)\n      tag_47\n      swap3\n      swap2\n      swap1\n      tag_28\n      jump\t// in\n    tag_47:\n      mload(0x40)\n      dup1\n      swap2\n      sub\n      swap1\n      return\n        /* \"main.sol\":1402:1771  function unlockAchievement(uint256 achievementId) external {... */\n    tag_11:\n      tag_48\n      0x04\n      dup1\n      calldatasize\n      sub\n      dup2\n      add\n      swap1\n      tag_49\n      swap2\n      swap1\n      tag_19\n      jump\t// in\n    tag_49:\n      tag_50\n      jump\t// in\n    tag_48:\n      stop\n        /* \"main.sol\":1001:1354  function submitScore(address playerAddr, uint256 score) external onlyOwner {... */\n    tag_16:\n        /* \"main.sol\":915:920  owner */\n      0x00\n      0x00\n      swap1\n      sload\n      swap1\n      0x0100\n      exp\n      swap1\n      div\n      0xffffffffffffffffffffffffffffffffffffffff\n      and\n        /* \"main.sol\":901:920  msg.sender == owner */\n      0xffffffffffffffffffffffffffffffffffffffff\n      and\n        /* \"main.sol\":901:911  msg.sender */\n      caller\n        /* \"main.sol\":901:920  msg.sender == owner */\n      0xffffffffffffffffffffffffffffffffffffffff\n      and\n      eq\n        /* \"main.sol\":893:938  require(msg.sender == owner, \"Not the owner\") */\n      tag_52\n      jumpi\n      mload(0x40)\n      0x08c379a000000000000000000000000000000000000000000000000000000000\n      dup2\n      mstore\n      0x04\n      add\n      tag_53\n      swap1\n      tag_54\n      jump\t// in\n    tag_53:\n      mload(0x40)\n      dup1\n      swap2\n      sub\n      swap1\n      revert\n    tag_52:\n        /* \"main.sol\":1086:1107  Player storage player */\n      0x00\n        /* \"main.sol\":1110:1117  players */\n      0x01\n        /* \"main.sol\":1110:1129  players[playerAddr] */\n      0x00\n        /* \"main.sol\":1118:1128  playerAddr */\n      dup5\n        /* \"main.sol\":1110:1129  players[playerAddr] */\n      0xffffffffffffffffffffffffffffffffffffffff\n      and\n      0xffffffffffffffffffffffffffffffffffffffff\n      and\n      dup2\n      mstore\n      0x20\n      add\n      swap1\n      dup2\n      mstore\n      0x20\n      add\n      0x00\n      keccak256\n        /* \"main.sol\":1086:1129  Player storage player = players[playerAddr] */\n      swap1\n      pop\n        /* \"main.sol\":1155:1161  player */\n      dup1\n        /* \"main.sol\":1155:1171  player.highScore */\n      0x00\n      add\n      sload\n        /* \"main.sol\":1147:1152  score */\n      dup3\n        /* \"main.sol\":1147:1171  score > player.highScore */\n      gt\n        /* \"main.sol\":1139:1216  require(score > player.highScore, \"Score not higher than current high score\") */\n      tag_56\n      jumpi\n      mload(0x40)\n      0x08c379a000000000000000000000000000000000000000000000000000000000\n      dup2\n      mstore\n      0x04\n      add\n      tag_57\n      swap1\n      tag_58\n      jump\t// in\n    tag_57:\n      mload(0x40)\n      dup1\n      swap2\n      sub\n      swap1\n      revert\n    tag_56:\n        /* \"main.sol\":1246:1251  score */\n      dup2\n        /* \"main.sol\":1227:1233  player */\n      dup2\n        /* \"main.sol\":1227:1243  player.highScore */\n      0x00\n      add\n        /* \"main.sol\":1227:1251  player.highScore = score */\n      dup2\n      swap1\n      sstore\n      pop\n        /* \"main.sol\":1261:1298  _updateLeaderboard(playerAddr, score) */\n      tag_59\n        /* \"main.sol\":1280:1290  playerAddr */\n      dup4\n        /* \"main.sol\":1292:1297  score */\n      dup4\n        /* \"main.sol\":1261:1279  _updateLeaderboard */\n      tag_60\n        /* \"main.sol\":1261:1298  _updateLeaderboard(playerAddr, score) */\n      jump\t// in\n    tag_59:\n        /* \"main.sol\":1329:1339  playerAddr */\n      dup3\n        /* \"main.sol\":1314:1347  ScoreSubmitted(playerAddr, score) */\n      0xffffffffffffffffffffffffffffffffffffffff\n      and\n      0xa578df9b0453d14d7ed8615ee0e9d58f70e041e91fc5865e3b71f81ea05296c0\n        /* \"main.sol\":1341:1346  score */\n      dup4\n        /* \"main.sol\":1314:1347  ScoreSubmitted(playerAddr, score) */\n      mload(0x40)\n      tag_61\n      swap2\n      swap1\n      tag_22\n      jump\t// in\n    tag_61:\n      mload(0x40)\n      dup1\n      swap2\n      sub\n      swap1\n      log2\n        /* \"main.sol\":1076:1354  {... */\n      pop\n        /* \"main.sol\":1001:1354  function submitScore(address playerAddr, uint256 score) external onlyOwner {... */\n      pop\n      pop\n      jump\t// out\n        /* \"main.sol\":442:473  uint256[TOP_N] public topScores */\n    tag_20:\n      0x0c\n      dup2\n      0x0a\n      dup2\n      lt\n      tag_62\n      jumpi\n      0x00\n      dup1\n      revert\n    tag_62:\n      add\n      0x00\n      swap2\n      pop\n      swap1\n      pop\n      sload\n      dup2\n      jump\t// out\n        /* \"main.sol\":2765:2972  function getPlayer(address addr) external view returns (uint256 highScore, uint256 achievements) {... */\n    tag_26:\n        /* \"main.sol\":2821:2838  uint256 highScore */\n      0x00\n        /* \"main.sol\":2840:2860  uint256 achievements */\n      0x00\n        /* \"main.sol\":2872:2893  Player storage player */\n      0x00\n        /* \"main.sol\":2896:2903  players */\n      0x01\n        /* \"main.sol\":2896:2909  players[addr] */\n      0x00\n        /* \"main.sol\":2904:2908  addr */\n      dup6\n        /* \"main.sol\":2896:2909  players[addr] */\n      0xffffffffffffffffffffffffffffffffffffffff\n      and\n      0xffffffffffffffffffffffffffffffffffffffff\n      and\n      dup2\n      mstore\n      0x20\n      add\n      swap1\n      dup2\n      mstore\n      0x20\n      add\n      0x00\n      keccak256\n        /* \"main.sol\":2872:2909  Player storage player = players[addr] */\n      swap1\n      pop\n        /* \"main.sol\":2927:2933  player */\n      dup1\n        /* \"main.sol\":2927:2943  player.highScore */\n      0x00\n      add\n      sload\n        /* \"main.sol\":2945:2951  player */\n      dup2\n        /* \"main.sol\":2945:2964  player.achievements */\n      0x01\n      add\n      sload\n        /* \"main.sol\":2919:2965  return (player.highScore, player.achievements) */\n      swap3\n      pop\n      swap3\n      pop\n      pop\n        /* \"main.sol\":2765:2972  function getPlayer(address addr) external view returns (uint256 highScore, uint256 achievements) {... */\n      swap2\n      pop\n      swap2\n      jump\t// out\n        /* \"main.sol\":3015:3156  function getTopPlayers() external view returns (address[TOP_N] memory, uint256[TOP_N] memory) {... */\n    tag_30:\n        /* \"main.sol\":3063:3084  address[TOP_N] memory */\n      tag_65\n      tag_66\n      jump\t// in\n    tag_65:\n        /* \"main.sol\":3086:3107  uint256[TOP_N] memory */\n      tag_67\n      tag_68\n      jump\t// in\n    tag_67:\n        /* \"main.sol\":3127:3137  topPlayers */\n      0x02\n        /* \"main.sol\":3139:3148  topScores */\n      0x0c\n        /* \"main.sol\":3119:3149  return (topPlayers, topScores) */\n      dup2\n      0x0a\n      dup1\n      0x20\n      mul\n      mload(0x40)\n      swap1\n      dup2\n      add\n      0x40\n      mstore\n      dup1\n      swap3\n      swap2\n      swap1\n      dup3\n      0x0a\n      dup1\n      iszero\n      tag_70\n      jumpi\n      0x20\n      mul\n      dup3\n      add\n      swap2\n    tag_71:\n      dup2\n      0x00\n      swap1\n      sload\n      swap1\n      0x0100\n      exp\n      swap1\n      div\n      0xffffffffffffffffffffffffffffffffffffffff\n      and\n      0xffffffffffffffffffffffffffffffffffffffff\n      and\n      dup2\n      mstore\n      0x20\n      add\n      swap1\n      0x01\n      add\n      swap1\n      dup1\n      dup4\n      gt\n      tag_71\n      jumpi\n    tag_70:\n      pop\n      pop\n      pop\n      pop\n      pop\n      swap2\n      pop\n      dup1\n      0x0a\n      dup1\n      0x20\n      mul\n      mload(0x40)\n      swap1\n      dup2\n      add\n      0x40\n      mstore\n      dup1\n      swap3\n      swap2\n      swap1\n      dup3\n      0x0a\n      dup1\n      iszero\n      tag_72\n      jumpi\n      0x20\n      mul\n      dup3\n      add\n      swap2\n    tag_73:\n      dup2\n      sload\n      dup2\n      mstore\n      0x20\n      add\n      swap1\n      0x01\n      add\n      swap1\n      dup1\n      dup4\n      gt\n      tag_73\n      jumpi\n    tag_72:\n      pop\n      pop\n      pop\n      pop\n      pop\n      swap1\n      pop\n      swap2\n      pop\n      swap2\n      pop\n        /* \"main.sol\":3015:3156  function getTopPlayers() external view returns (address[TOP_N] memory, uint256[TOP_N] memory) {... */\n      swap1\n      swap2\n      jump\t// out\n        /* \"main.sol\":114:134  address public owner */\n    tag_34:\n      0x00\n      0x00\n      swap1\n      sload\n      swap1\n      0x0100\n      exp\n      swap1\n      div\n      0xffffffffffffffffffffffffffffffffffffffff\n      and\n      dup2\n      jump\t// out\n        /* \"main.sol\":404:436  address[TOP_N] public topPlayers */\n    tag_39:\n      0x02\n      dup2\n      0x0a\n      dup2\n      lt\n      tag_74\n      jumpi\n      0x00\n      dup1\n      revert\n    tag_74:\n      add\n      0x00\n      swap2\n      pop\n      sload\n      swap1\n      0x0100\n      exp\n      swap1\n      div\n      0xffffffffffffffffffffffffffffffffffffffff\n      and\n      dup2\n      jump\t// out\n        /* \"main.sol\":163:197  uint256 public constant TOP_N = 10 */\n    tag_42:\n        /* \"main.sol\":195:197  10 */\n      0x0a\n        /* \"main.sol\":163:197  uint256 public constant TOP_N = 10 */\n      dup2\n      jump\t// out\n        /* \"main.sol\":331:372  mapping(address => Player) public players */\n    tag_46:\n      mstore(0x20, 0x01)\n      dup1\n      0x00\n      mstore\n      keccak256(0x00, 0x40)\n      0x00\n      swap2\n      pop\n      swap1\n      pop\n      dup1\n      0x00\n      add\n      sload\n      swap1\n      dup1\n      0x01\n      add\n      sload\n      swap1\n      pop\n      dup3\n      jump\t// out\n        /* \"main.sol\":1402:1771  function unlockAchievement(uint256 achievementId) external {... */\n    tag_50:\n        /* \"main.sol\":1471:1492  Player storage player */\n      0x00\n        /* \"main.sol\":1495:1502  players */\n      0x01\n        /* \"main.sol\":1495:1514  players[msg.sender] */\n      0x00\n        /* \"main.sol\":1503:1513  msg.sender */\n      caller\n        /* \"main.sol\":1495:1514  players[msg.sender] */\n      0xffffffffffffffffffffffffffffffffffffffff\n      and\n      0xffffffffffffffffffffffffffffffffffffffff\n      and\n      dup2\n      mstore\n      0x20\n      add\n      swap1\n      dup2\n      mstore\n      0x20\n      add\n      0x00\n      keccak256\n        /* \"main.sol\":1471:1514  Player storage player = players[msg.sender] */\n      swap1\n      pop\n        /* \"main.sol\":1593:1594  0 */\n      0x00\n        /* \"main.sol\":1574:1587  achievementId */\n      dup3\n        /* \"main.sol\":1569:1570  1 */\n      0x01\n        /* \"main.sol\":1569:1587  1 << achievementId */\n      swap1\n      shl\n        /* \"main.sol\":1546:1552  player */\n      dup3\n        /* \"main.sol\":1546:1565  player.achievements */\n      0x01\n      add\n      sload\n        /* \"main.sol\":1546:1588  player.achievements & (1 << achievementId) */\n      and\n        /* \"main.sol\":1545:1594  (player.achievements & (1 << achievementId)) == 0 */\n      eq\n        /* \"main.sol\":1524:1648  require(... */\n      tag_77\n      jumpi\n      mload(0x40)\n      0x08c379a000000000000000000000000000000000000000000000000000000000\n      dup2\n      mstore\n      0x04\n      add\n      tag_78\n      swap1\n      tag_79\n      jump\t// in\n    tag_78:\n      mload(0x40)\n      dup1\n      swap2\n      sub\n      swap1\n      revert\n    tag_77:\n        /* \"main.sol\":1688:1701  achievementId */\n      dup2\n        /* \"main.sol\":1683:1684  1 */\n      0x01\n        /* \"main.sol\":1683:1701  1 << achievementId */\n      swap1\n      shl\n        /* \"main.sol\":1659:1665  player */\n      dup2\n        /* \"main.sol\":1659:1678  player.achievements */\n      0x01\n      add\n      0x00\n        /* \"main.sol\":1659:1702  player.achievements |= (1 << achievementId) */\n      dup3\n      dup3\n      sload\n      or\n      swap3\n      pop\n      pop\n      dup2\n      swap1\n      sstore\n      pop\n        /* \"main.sol\":1738:1748  msg.sender */\n      caller\n        /* \"main.sol\":1718:1764  AchievementUnlocked(msg.sender, achievementId) */\n      0xffffffffffffffffffffffffffffffffffffffff\n      and\n      0xecfcf3a608fefe3b6ea7d5efc965cfc3ad0043767f8618944c737253329892d7\n        /* \"main.sol\":1750:1763  achievementId */\n      dup4\n        /* \"main.sol\":1718:1764  AchievementUnlocked(msg.sender, achievementId) */\n      mload(0x40)\n      tag_80\n      swap2\n      swap1\n      tag_22\n      jump\t// in\n    tag_80:\n      mload(0x40)\n      dup1\n      swap2\n      sub\n      swap1\n      log2\n        /* \"main.sol\":1461:1771  {... */\n      pop\n        /* \"main.sol\":1402:1771  function unlockAchievement(uint256 achievementId) external {... */\n      pop\n      jump\t// out\n        /* \"main.sol\":1830:2736  function _updateLeaderboard(address playerAddr, uint256 score) internal {... */\n    tag_60:\n        /* \"main.sol\":1955:1974  int256 currentIndex */\n      0x00\n        /* \"main.sol\":1977:1979  -1 */\n      0xffffffffffffffffffffffffffffffffffffffffffffffffffffffffffffffff\n        /* \"main.sol\":1955:1979  int256 currentIndex = -1 */\n      swap1\n      pop\n        /* \"main.sol\":1994:2003  uint256 i */\n      0x00\n        /* \"main.sol\":2006:2007  0 */\n      0x00\n        /* \"main.sol\":1994:2007  uint256 i = 0 */\n      swap1\n      pop\n        /* \"main.sol\":1989:2162  for (uint256 i = 0; i < TOP_N; i++) {... */\n    tag_82:\n        /* \"main.sol\":195:197  10 */\n      0x0a\n        /* \"main.sol\":2009:2010  i */\n      dup2\n        /* \"main.sol\":2009:2018  i < TOP_N */\n      lt\n        /* \"main.sol\":1989:2162  for (uint256 i = 0; i < TOP_N; i++) {... */\n      iszero\n      tag_83\n      jumpi\n        /* \"main.sol\":2060:2070  playerAddr */\n      dup4\n        /* \"main.sol\":2043:2070  topPlayers[i] == playerAddr */\n      0xffffffffffffffffffffffffffffffffffffffff\n      and\n        /* \"main.sol\":2043:2053  topPlayers */\n      0x02\n        /* \"main.sol\":2054:2055  i */\n      dup3\n        /* \"main.sol\":2043:2056  topPlayers[i] */\n      0x0a\n      dup2\n      lt\n      tag_85\n      jumpi\n      tag_86\n      tag_87\n      jump\t// in\n    tag_86:\n    tag_85:\n      add\n      0x00\n      swap1\n      sload\n      swap1\n      0x0100\n      exp\n      swap1\n      div\n      0xffffffffffffffffffffffffffffffffffffffff\n      and\n        /* \"main.sol\":2043:2070  topPlayers[i] == playerAddr */\n      0xffffffffffffffffffffffffffffffffffffffff\n      and\n      sub\n        /* \"main.sol\":2039:2152  if (topPlayers[i] == playerAddr) {... */\n      tag_89\n      jumpi\n        /* \"main.sol\":2112:2113  i */\n      dup1\n        /* \"main.sol\":2090:2114  currentIndex = int256(i) */\n      swap2\n      pop\n        /* \"main.sol\":2132:2137  break */\n      jump(tag_83)\n        /* \"main.sol\":2039:2152  if (topPlayers[i] == playerAddr) {... */\n    tag_89:\n        /* \"main.sol\":2020:2023  i++ */\n      dup1\n      dup1\n      0x01\n      add\n      swap2\n      pop\n      pop\n        /* \"main.sol\":1989:2162  for (uint256 i = 0; i < TOP_N; i++) {... */\n      jump(tag_82)\n    tag_83:\n      pop\n        /* \"main.sol\":2205:2214  uint256 i */\n      0x00\n        /* \"main.sol\":2217:2218  0 */\n      0x00\n        /* \"main.sol\":2205:2218  uint256 i = 0 */\n      swap1\n      pop\n        /* \"main.sol\":2200:2673  for (uint256 i = 0; i < TOP_N; i++) {... */\n    tag_90:\n        /* \"main.sol\":195:197  10 */\n      0x0a\n        /* \"main.sol\":2220:2221  i */\n      dup2\n        /* \"main.sol\":2220:2229  i < TOP_N */\n      lt\n        /* \"main.sol\":2200:2673  for (uint256 i = 0; i < TOP_N; i++) {... */\n      iszero\n      tag_91\n      jumpi\n        /* \"main.sol\":2262:2271  topScores */\n      0x0c\n        /* \"main.sol\":2272:2273  i */\n      dup2\n        /* \"main.sol\":2262:2274  topScores[i] */\n      0x0a\n      dup2\n      lt\n      tag_93\n      jumpi\n      tag_94\n      tag_87\n      jump\t// in\n    tag_94:\n    tag_93:\n      add\n      sload\n        /* \"main.sol\":2254:2259  score */\n      dup4\n        /* \"main.sol\":2254:2274  score > topScores[i] */\n      gt\n        /* \"main.sol\":2250:2663  if (score > topScores[i]) {... */\n      iszero\n      tag_96\n      jumpi\n        /* \"main.sol\":2342:2351  uint256 j */\n      0x00\n        /* \"main.sol\":2362:2363  1 */\n      0x01\n        /* \"main.sol\":195:197  10 */\n      0x0a\n        /* \"main.sol\":2354:2363  TOP_N - 1 */\n      tag_100\n      swap2\n      swap1\n      tag_101\n      jump\t// in\n    tag_100:\n        /* \"main.sol\":2342:2363  uint256 j = TOP_N - 1 */\n      swap1\n      pop\n        /* \"main.sol\":2337:2504  for (uint256 j = TOP_N - 1; j > i; j--) {... */\n    tag_97:\n        /* \"main.sol\":2369:2370  i */\n      dup2\n        /* \"main.sol\":2365:2366  j */\n      dup2\n        /* \"main.sol\":2365:2370  j > i */\n      gt\n        /* \"main.sol\":2337:2504  for (uint256 j = TOP_N - 1; j > i; j--) {... */\n      iszero\n      tag_98\n      jumpi\n        /* \"main.sol\":2415:2425  topPlayers */\n      0x02\n        /* \"main.sol\":2430:2431  1 */\n      0x01\n        /* \"main.sol\":2426:2427  j */\n      dup3\n        /* \"main.sol\":2426:2431  j - 1 */\n      tag_102\n      swap2\n      swap1\n      tag_101\n      jump\t// in\n    tag_102:\n        /* \"main.sol\":2415:2432  topPlayers[j - 1] */\n      0x0a\n      dup2\n      lt\n      tag_103\n      jumpi\n      tag_104\n      tag_87\n      jump\t// in\n    tag_104:\n    tag_103:\n      add\n      0x00\n      swap1\n      sload\n      swap1\n      0x0100\n      exp\n      swap1\n      div\n      0xffffffffffffffffffffffffffffffffffffffff\n      and\n        /* \"main.sol\":2399:2409  topPlayers */\n      0x02\n        /* \"main.sol\":2410:2411  j */\n      dup3\n        /* \"main.sol\":2399:2412  topPlayers[j] */\n      0x0a\n      dup2\n      lt\n      tag_106\n      jumpi\n      tag_107\n      tag_87\n      jump\t// in\n    tag_107:\n    tag_106:\n      add\n      0x00\n        /* \"main.sol\":2399:2432  topPlayers[j] = topPlayers[j - 1] */\n      0x0100\n      exp\n      dup2\n      sload\n      dup2\n      0xffffffffffffffffffffffffffffffffffffffff\n      mul\n      not\n      and\n      swap1\n      dup4\n      0xffffffffffffffffffffffffffffffffffffffff\n      and\n      mul\n      or\n      swap1\n      sstore\n      pop\n        /* \"main.sol\":2469:2478  topScores */\n      0x0c\n        /* \"main.sol\":2483:2484  1 */\n      0x01\n        /* \"main.sol\":2479:2480  j */\n      dup3\n        /* \"main.sol\":2479:2484  j - 1 */\n      tag_109\n      swap2\n      swap1\n      tag_101\n      jump\t// in\n    tag_109:\n        /* \"main.sol\":2469:2485  topScores[j - 1] */\n      0x0a\n      dup2\n      lt\n      tag_110\n      jumpi\n      tag_111\n      tag_87\n      jump\t// in\n    tag_111:\n    tag_110:\n      add\n      sload\n        /* \"main.sol\":2454:2463  topScores */\n      0x0c\n        /* \"main.sol\":2464:2465  j */\n      dup3\n        /* \"main.sol\":2454:2466  topScores[j] */\n      0x0a\n      dup2\n      lt\n      tag_113\n      jumpi\n      tag_114\n      tag_87\n      jump\t// in\n    tag_114:\n    tag_113:\n      add\n        /* \"main.sol\":2454:2485  topScores[j] = topScores[j - 1] */\n      dup2\n      swap1\n      sstore\n      pop\n        /* \"main.sol\":2372:2375  j-- */\n      dup1\n      dup1\n      tag_116\n      swap1\n      tag_117\n      jump\t// in\n    tag_116:\n      swap2\n      pop\n      pop\n        /* \"main.sol\":2337:2504  for (uint256 j = TOP_N - 1; j > i; j--) {... */\n      jump(tag_97)\n    tag_98:\n      pop\n        /* \"main.sol\":2577:2587  playerAddr */\n      dup4\n        /* \"main.sol\":2561:2571  topPlayers */\n      0x02\n        /* \"main.sol\":2572:2573  i */\n      dup3\n        /* \"main.sol\":2561:2574  topPlayers[i] */\n      0x0a\n      dup2\n      lt\n      tag_118\n      jumpi\n      tag_119\n      tag_87\n      jump\t// in\n    tag_119:\n    tag_118:\n      add\n      0x00\n        /* \"main.sol\":2561:2587  topPlayers[i] = playerAddr */\n      0x0100\n      exp\n      dup2\n      sload\n      dup2\n      0xffffffffffffffffffffffffffffffffffffffff\n      mul\n      not\n      and\n      swap1\n      dup4\n      0xffffffffffffffffffffffffffffffffffffffff\n      and\n      mul\n      or\n      swap1\n      sstore\n      pop\n        /* \"main.sol\":2620:2625  score */\n      dup3\n        /* \"main.sol\":2605:2614  topScores */\n      0x0c\n        /* \"main.sol\":2615:2616  i */\n      dup3\n        /* \"main.sol\":2605:2617  topScores[i] */\n      0x0a\n      dup2\n      lt\n      tag_121\n      jumpi\n      tag_122\n      tag_87\n      jump\t// in\n    tag_122:\n    tag_121:\n      add\n        /* \"main.sol\":2605:2625  topScores[i] = score */\n      dup2\n      swap1\n      sstore\n      pop\n        /* \"main.sol\":2643:2648  break */\n      jump(tag_91)\n        /* \"main.sol\":2250:2663  if (score > topScores[i]) {... */\n    tag_96:\n        /* \"main.sol\":2231:2234  i++ */\n      dup1\n      dup1\n      0x01\n      add\n      swap2\n      pop\n      pop\n        /* \"main.sol\":2200:2673  for (uint256 i = 0; i < TOP_N; i++) {... */\n      jump(tag_90)\n    tag_91:\n      pop\n        /* \"main.sol\":2688:2729  LeaderboardUpdated(topPlayers, topScores) */\n      0x3ac3291d6b440f4c2faa1d819aeebdaca8f721badda0885fe12114814467d18c\n        /* \"main.sol\":2707:2717  topPlayers */\n      0x02\n        /* \"main.sol\":2719:2728  topScores */\n      0x0c\n        /* \"main.sol\":2688:2729  LeaderboardUpdated(topPlayers, topScores) */\n      mload(0x40)\n      tag_124\n      swap3\n      swap2\n      swap1\n      tag_125\n      jump\t// in\n    tag_124:\n      mload(0x40)\n      dup1\n      swap2\n      sub\n      swap1\n      log1\n        /* \"main.sol\":1902:2736  {... */\n      pop\n        /* \"main.sol\":1830:2736  function _updateLeaderboard(address playerAddr, uint256 score) internal {... */\n      pop\n      pop\n      jump\t// out\n    tag_66:\n      mload(0x40)\n      dup1\n      0x0140\n      add\n      0x40\n      mstore\n      dup1\n      0x0a\n      swap1\n      0x20\n      dup3\n      mul\n      dup1\n      calldatasize\n      dup4\n      calldatacopy\n      dup1\n      dup3\n      add\n      swap2\n      pop\n      pop\n      swap1\n      pop\n      pop\n      swap1\n      jump\t// out\n    tag_68:\n      mload(0x40)\n      dup1\n      0x0140\n      add\n      0x40\n      mstore\n      dup1\n      0x0a\n      swap1\n      0x20\n      dup3\n      mul\n      dup1\n      calldatasize\n      dup4\n      calldatacopy\n      dup1\n      dup3\n      add\n      swap2\n      pop\n      pop\n      swap1\n      pop\n      pop\n      swap1\n      jump\t// out\n        /* \"#utility.yul\":88:205   */\n    tag_127:\n        /* \"#utility.yul\":197:198   */\n      0x00\n        /* \"#utility.yul\":194:195   */\n      0x00\n        /* \"#utility.yul\":187:199   */\n      revert\n        /* \"#utility.yul\":334:460   */\n    tag_129:\n        /* \"#utility.yul\":371:378   */\n      0x00\n        /* \"#utility.yul\":411:453   */\n      0xffffffffffffffffffffffffffffffffffffffff\n        /* \"#utility.yul\":404:409   */\n      dup3\n        /* \"#utility.yul\":400:454   */\n      and\n        /* \"#utility.yul\":389:454   */\n      swap1\n      pop\n        /* \"#utility.yul\":334:460   */\n      swap2\n      swap1\n      pop\n      jump\t// out\n        /* \"#utility.yul\":466:562   */\n    tag_130:\n        /* \"#utility.yul\":503:510   */\n      0x00\n        /* \"#utility.yul\":532:556   */\n      tag_181\n        /* \"#utility.yul\":550:555   */\n      dup3\n        /* \"#utility.yul\":532:556   */\n      tag_129\n      jump\t// in\n    tag_181:\n        /* \"#utility.yul\":521:556   */\n      swap1\n      pop\n        /* \"#utility.yul\":466:562   */\n      swap2\n      swap1\n      pop\n      jump\t// out\n        /* \"#utility.yul\":568:690   */\n    tag_131:\n        /* \"#utility.yul\":641:665   */\n      tag_183\n        /* \"#utility.yul\":659:664   */\n      dup2\n        /* \"#utility.yul\":641:665   */\n      tag_130\n      jump\t// in\n    tag_183:\n        /* \"#utility.yul\":634:639   */\n      dup2\n        /* \"#utility.yul\":631:666   */\n      eq\n        /* \"#utility.yul\":621:684   */\n      tag_184\n      jumpi\n        /* \"#utility.yul\":680:681   */\n      0x00\n        /* \"#utility.yul\":677:678   */\n      0x00\n        /* \"#utility.yul\":670:682   */\n      revert\n        /* \"#utility.yul\":621:684   */\n    tag_184:\n        /* \"#utility.yul\":568:690   */\n      pop\n      jump\t// out\n        /* \"#utility.yul\":696:835   */\n    tag_132:\n        /* \"#utility.yul\":742:747   */\n      0x00\n        /* \"#utility.yul\":780:786   */\n      dup2\n        /* \"#utility.yul\":767:787   */\n      calldataload\n        /* \"#utility.yul\":758:787   */\n      swap1\n      pop\n        /* \"#utility.yul\":796:829   */\n      tag_186\n        /* \"#utility.yul\":823:828   */\n      dup2\n        /* \"#utility.yul\":796:829   */\n      tag_131\n      jump\t// in\n    tag_186:\n        /* \"#utility.yul\":696:835   */\n      swap3\n      swap2\n      pop\n      pop\n      jump\t// out\n        /* \"#utility.yul\":841:918   */\n    tag_133:\n        /* \"#utility.yul\":878:885   */\n      0x00\n        /* \"#utility.yul\":907:912   */\n      dup2\n        /* \"#utility.yul\":896:912   */\n      swap1\n      pop\n        /* \"#utility.yul\":841:918   */\n      swap2\n      swap1\n      pop\n      jump\t// out\n        /* \"#utility.yul\":924:1046   */\n    tag_134:\n        /* \"#utility.yul\":997:1021   */\n      tag_189\n        /* \"#utility.yul\":1015:1020   */\n      dup2\n        /* \"#utility.yul\":997:1021   */\n      tag_133\n      jump\t// in\n    tag_189:\n        /* \"#utility.yul\":990:995   */\n      dup2\n        /* \"#utility.yul\":987:1022   */\n      eq\n        /* \"#utility.yul\":977:1040   */\n      tag_190\n      jumpi\n        /* \"#utility.yul\":1036:1037   */\n      0x00\n        /* \"#utility.yul\":1033:1034   */\n      0x00\n        /* \"#utility.yul\":1026:1038   */\n      revert\n        /* \"#utility.yul\":977:1040   */\n    tag_190:\n        /* \"#utility.yul\":924:1046   */\n      pop\n      jump\t// out\n        /* \"#utility.yul\":1052:1191   */\n    tag_135:\n        /* \"#utility.yul\":1098:1103   */\n      0x00\n        /* \"#utility.yul\":1136:1142   */\n      dup2\n        /* \"#utility.yul\":1123:1143   */\n      calldataload\n        /* \"#utility.yul\":1114:1143   */\n      swap1\n      pop\n        /* \"#utility.yul\":1152:1185   */\n      tag_192\n        /* \"#utility.yul\":1179:1184   */\n      dup2\n        /* \"#utility.yul\":1152:1185   */\n      tag_134\n      jump\t// in\n    tag_192:\n        /* \"#utility.yul\":1052:1191   */\n      swap3\n      swap2\n      pop\n      pop\n      jump\t// out\n        /* \"#utility.yul\":1197:1671   */\n    tag_15:\n        /* \"#utility.yul\":1265:1271   */\n      0x00\n        /* \"#utility.yul\":1273:1279   */\n      0x00\n        /* \"#utility.yul\":1322:1324   */\n      0x40\n        /* \"#utility.yul\":1310:1319   */\n      dup4\n        /* \"#utility.yul\":1301:1308   */\n      dup6\n        /* \"#utility.yul\":1297:1320   */\n      sub\n        /* \"#utility.yul\":1293:1325   */\n      slt\n        /* \"#utility.yul\":1290:1409   */\n      iszero\n      tag_194\n      jumpi\n        /* \"#utility.yul\":1328:1407   */\n      tag_195\n      tag_127\n      jump\t// in\n    tag_195:\n        /* \"#utility.yul\":1290:1409   */\n    tag_194:\n        /* \"#utility.yul\":1448:1449   */\n      0x00\n        /* \"#utility.yul\":1473:1526   */\n      tag_196\n        /* \"#utility.yul\":1518:1525   */\n      dup6\n        /* \"#utility.yul\":1509:1515   */\n      dup3\n        /* \"#utility.yul\":1498:1507   */\n      dup7\n        /* \"#utility.yul\":1494:1516   */\n      add\n        /* \"#utility.yul\":1473:1526   */\n      tag_132\n      jump\t// in\n    tag_196:\n        /* \"#utility.yul\":1463:1526   */\n      swap3\n      pop\n        /* \"#utility.yul\":1419:1536   */\n      pop\n        /* \"#utility.yul\":1575:1577   */\n      0x20\n        /* \"#utility.yul\":1601:1654   */\n      tag_197\n        /* \"#utility.yul\":1646:1653   */\n      dup6\n        /* \"#utility.yul\":1637:1643   */\n      dup3\n        /* \"#utility.yul\":1626:1635   */\n      dup7\n        /* \"#utility.yul\":1622:1644   */\n      add\n        /* \"#utility.yul\":1601:1654   */\n      tag_135\n      jump\t// in\n    tag_197:\n        /* \"#utility.yul\":1591:1654   */\n      swap2\n      pop\n        /* \"#utility.yul\":1546:1664   */\n      pop\n        /* \"#utility.yul\":1197:1671   */\n      swap3\n      pop\n      swap3\n      swap1\n      pop\n      jump\t// out\n        /* \"#utility.yul\":1677:2006   */\n    tag_19:\n        /* \"#utility.yul\":1736:1742   */\n      0x00\n        /* \"#utility.yul\":1785:1787   */\n      0x20\n        /* \"#utility.yul\":1773:1782   */\n      dup3\n        /* \"#utility.yul\":1764:1771   */\n      dup5\n        /* \"#utility.yul\":1760:1783   */\n      sub\n        /* \"#utility.yul\":1756:1788   */\n      slt\n        /* \"#utility.yul\":1753:1872   */\n      iszero\n      tag_199\n      jumpi\n        /* \"#utility.yul\":1791:1870   */\n      tag_200\n      tag_127\n      jump\t// in\n    tag_200:\n        /* \"#utility.yul\":1753:1872   */\n    tag_199:\n        /* \"#utility.yul\":1911:1912   */\n      0x00\n        /* \"#utility.yul\":1936:1989   */\n      tag_201\n        /* \"#utility.yul\":1981:1988   */\n      dup5\n        /* \"#utility.yul\":1972:1978   */\n      dup3\n        /* \"#utility.yul\":1961:1970   */\n      dup6\n        /* \"#utility.yul\":1957:1979   */\n      add\n        /* \"#utility.yul\":1936:1989   */\n      tag_135\n      jump\t// in\n    tag_201:\n        /* \"#utility.yul\":1926:1989   */\n      swap2\n      pop\n        /* \"#utility.yul\":1882:1999   */\n      pop\n        /* \"#utility.yul\":1677:2006   */\n      swap3\n      swap2\n      pop\n      pop\n      jump\t// out\n        /* \"#utility.yul\":2012:2130   */\n    tag_136:\n        /* \"#utility.yul\":2099:2123   */\n      tag_203\n        /* \"#utility.yul\":2117:2122   */\n      dup2\n        /* \"#utility.yul\":2099:2123   */\n      tag_133\n      jump\t// in\n    tag_203:\n        /* \"#utility.yul\":2094:2097   */\n      dup3\n        /* \"#utility.yul\":2087:2124   */\n      mstore\n        /* \"#utility.yul\":2012:2130   */\n      pop\n      pop\n      jump\t// out\n        /* \"#utility.yul\":2136:2358   */\n    tag_22:\n        /* \"#utility.yul\":2229:2233   */\n      0x00\n        /* \"#utility.yul\":2267:2269   */\n      0x20\n        /* \"#utility.yul\":2256:2265   */\n      dup3\n        /* \"#utility.yul\":2252:2270   */\n      add\n        /* \"#utility.yul\":2244:2270   */\n      swap1\n      pop\n        /* \"#utility.yul\":2280:2351   */\n      tag_205\n        /* \"#utility.yul\":2348:2349   */\n      0x00\n        /* \"#utility.yul\":2337:2346   */\n      dup4\n        /* \"#utility.yul\":2333:2350   */\n      add\n        /* \"#utility.yul\":2324:2330   */\n      dup5\n        /* \"#utility.yul\":2280:2351   */\n      tag_136\n      jump\t// in\n    tag_205:\n        /* \"#utility.yul\":2136:2358   */\n      swap3\n      swap2\n      pop\n      pop\n      jump\t// out\n        /* \"#utility.yul\":2364:2693   */\n    tag_25:\n        /* \"#utility.yul\":2423:2429   */\n      0x00\n        /* \"#utility.yul\":2472:2474   */\n      0x20\n        /* \"#utility.yul\":2460:2469   */\n      dup3\n        /* \"#utility.yul\":2451:2458   */\n      dup5\n        /* \"#utility.yul\":2447:2470   */\n      sub\n        /* \"#utility.yul\":2443:2475   */\n      slt\n        /* \"#utility.yul\":2440:2559   */\n      iszero\n      tag_207\n      jumpi\n        /* \"#utility.yul\":2478:2557   */\n      tag_208\n      tag_127\n      jump\t// in\n    tag_208:\n        /* \"#utility.yul\":2440:2559   */\n    tag_207:\n        /* \"#utility.yul\":2598:2599   */\n      0x00\n        /* \"#utility.yul\":2623:2676   */\n      tag_209\n        /* \"#utility.yul\":2668:2675   */\n      dup5\n        /* \"#utility.yul\":2659:2665   */\n      dup3\n        /* \"#utility.yul\":2648:2657   */\n      dup6\n        /* \"#utility.yul\":2644:2666   */\n      add\n        /* \"#utility.yul\":2623:2676   */\n      tag_132\n      jump\t// in\n    tag_209:\n        /* \"#utility.yul\":2613:2676   */\n      swap2\n      pop\n        /* \"#utility.yul\":2569:2686   */\n      pop\n        /* \"#utility.yul\":2364:2693   */\n      swap3\n      swap2\n      pop\n      pop\n      jump\t// out\n        /* \"#utility.yul\":2699:3031   */\n    tag_28:\n        /* \"#utility.yul\":2820:2824   */\n      0x00\n        /* \"#utility.yul\":2858:2860   */\n      0x40\n        /* \"#utility.yul\":2847:2856   */\n      dup3\n        /* \"#utility.yul\":2843:2861   */\n      add\n        /* \"#utility.yul\":2835:2861   */\n      swap1\n      pop\n        /* \"#utility.yul\":2871:2942   */\n      tag_211\n        /* \"#utility.yul\":2939:2940   */\n      0x00\n        /* \"#utility.yul\":2928:2937   */\n      dup4\n        /* \"#utility.yul\":2924:2941   */\n      add\n        /* \"#utility.yul\":2915:2921   */\n      dup6\n        /* \"#utility.yul\":2871:2942   */\n      tag_136\n      jump\t// in\n    tag_211:\n        /* \"#utility.yul\":2952:3024   */\n      tag_212\n        /* \"#utility.yul\":3020:3022   */\n      0x20\n        /* \"#utility.yul\":3009:3018   */\n      dup4\n        /* \"#utility.yul\":3005:3023   */\n      add\n        /* \"#utility.yul\":2996:3002   */\n      dup5\n        /* \"#utility.yul\":2952:3024   */\n      tag_136\n      jump\t// in\n    tag_212:\n        /* \"#utility.yul\":2699:3031   */\n      swap4\n      swap3\n      pop\n      pop\n      pop\n      jump\t// out\n        /* \"#utility.yul\":3037:3142   */\n    tag_137:\n        /* \"#utility.yul\":3103:3109   */\n      0x00\n        /* \"#utility.yul\":3131:3135   */\n      0x0a\n        /* \"#utility.yul\":3121:3135   */\n      swap1\n      pop\n        /* \"#utility.yul\":3037:3142   */\n      swap2\n      swap1\n      pop\n      jump\t// out\n        /* \"#utility.yul\":3148:3292   */\n    tag_138:\n        /* \"#utility.yul\":3246:3257   */\n      0x00\n        /* \"#utility.yul\":3283:3286   */\n      dup2\n        /* \"#utility.yul\":3268:3286   */\n      swap1\n      pop\n        /* \"#utility.yul\":3148:3292   */\n      swap3\n      swap2\n      pop\n      pop\n      jump\t// out\n        /* \"#utility.yul\":3298:3397   */\n    tag_139:\n        /* \"#utility.yul\":3364:3368   */\n      0x00\n        /* \"#utility.yul\":3387:3390   */\n      dup2\n        /* \"#utility.yul\":3379:3390   */\n      swap1\n      pop\n        /* \"#utility.yul\":3298:3397   */\n      swap2\n      swap1\n      pop\n      jump\t// out\n        /* \"#utility.yul\":3403:3511   */\n    tag_140:\n        /* \"#utility.yul\":3480:3504   */\n      tag_217\n        /* \"#utility.yul\":3498:3503   */\n      dup2\n        /* \"#utility.yul\":3480:3504   */\n      tag_130\n      jump\t// in\n    tag_217:\n        /* \"#utility.yul\":3475:3478   */\n      dup3\n        /* \"#utility.yul\":3468:3505   */\n      mstore\n        /* \"#utility.yul\":3403:3511   */\n      pop\n      pop\n      jump\t// out\n        /* \"#utility.yul\":3517:3696   */\n    tag_141:\n        /* \"#utility.yul\":3586:3596   */\n      0x00\n        /* \"#utility.yul\":3607:3653   */\n      tag_219\n        /* \"#utility.yul\":3649:3652   */\n      dup4\n        /* \"#utility.yul\":3641:3647   */\n      dup4\n        /* \"#utility.yul\":3607:3653   */\n      tag_140\n      jump\t// in\n    tag_219:\n        /* \"#utility.yul\":3685:3689   */\n      0x20\n        /* \"#utility.yul\":3680:3683   */\n      dup4\n        /* \"#utility.yul\":3676:3690   */\n      add\n        /* \"#utility.yul\":3662:3690   */\n      swap1\n      pop\n        /* \"#utility.yul\":3517:3696   */\n      swap3\n      swap2\n      pop\n      pop\n      jump\t// out\n        /* \"#utility.yul\":3702:3814   */\n    tag_142:\n        /* \"#utility.yul\":3771:3775   */\n      0x00\n        /* \"#utility.yul\":3803:3807   */\n      0x20\n        /* \"#utility.yul\":3798:3801   */\n      dup3\n        /* \"#utility.yul\":3794:3808   */\n      add\n        /* \"#utility.yul\":3786:3808   */\n      swap1\n      pop\n        /* \"#utility.yul\":3702:3814   */\n      swap2\n      swap1\n      pop\n      jump\t// out\n        /* \"#utility.yul\":3854:4554   */\n    tag_143:\n        /* \"#utility.yul\":3992:4045   */\n      tag_222\n        /* \"#utility.yul\":4039:4044   */\n      dup2\n        /* \"#utility.yul\":3992:4045   */\n      tag_137\n      jump\t// in\n    tag_222:\n        /* \"#utility.yul\":4061:4146   */\n      tag_223\n        /* \"#utility.yul\":4139:4145   */\n      dup2\n        /* \"#utility.yul\":4134:4137   */\n      dup5\n        /* \"#utility.yul\":4061:4146   */\n      tag_138\n      jump\t// in\n    tag_223:\n        /* \"#utility.yul\":4054:4146   */\n      swap3\n      pop\n        /* \"#utility.yul\":4170:4225   */\n      tag_224\n        /* \"#utility.yul\":4219:4224   */\n      dup3\n        /* \"#utility.yul\":4170:4225   */\n      tag_139\n      jump\t// in\n    tag_224:\n        /* \"#utility.yul\":4248:4255   */\n      dup1\n        /* \"#utility.yul\":4279:4280   */\n      0x00\n        /* \"#utility.yul\":4264:4547   */\n    tag_225:\n        /* \"#utility.yul\":4289:4295   */\n      dup4\n        /* \"#utility.yul\":4286:4287   */\n      dup2\n        /* \"#utility.yul\":4283:4296   */\n      lt\n        /* \"#utility.yul\":4264:4547   */\n      iszero\n      tag_227\n      jumpi\n        /* \"#utility.yul\":4365:4371   */\n      dup2\n        /* \"#utility.yul\":4359:4372   */\n      mload\n        /* \"#utility.yul\":4392:4455   */\n      tag_228\n        /* \"#utility.yul\":4451:4454   */\n      dup8\n        /* \"#utility.yul\":4436:4449   */\n      dup3\n        /* \"#utility.yul\":4392:4455   */\n      tag_141\n      jump\t// in\n    tag_228:\n        /* \"#utility.yul\":4385:4455   */\n      swap7\n      pop\n        /* \"#utility.yul\":4478:4537   */\n      tag_229\n        /* \"#utility.yul\":4530:4536   */\n      dup4\n        /* \"#utility.yul\":4478:4537   */\n      tag_142\n      jump\t// in\n    tag_229:\n        /* \"#utility.yul\":4468:4537   */\n      swap3\n      pop\n        /* \"#utility.yul\":4324:4547   */\n      pop\n        /* \"#utility.yul\":4311:4312   */\n      0x01\n        /* \"#utility.yul\":4308:4309   */\n      dup2\n        /* \"#utility.yul\":4304:4313   */\n      add\n        /* \"#utility.yul\":4299:4313   */\n      swap1\n      pop\n        /* \"#utility.yul\":4264:4547   */\n      jump(tag_225)\n    tag_227:\n        /* \"#utility.yul\":4268:4282   */\n      pop\n        /* \"#utility.yul\":3968:4554   */\n      pop\n      pop\n      pop\n        /* \"#utility.yul\":3854:4554   */\n      pop\n      pop\n      jump\t// out\n        /* \"#utility.yul\":4560:4665   */\n    tag_144:\n        /* \"#utility.yul\":4626:4632   */\n      0x00\n        /* \"#utility.yul\":4654:4658   */\n      0x0a\n        /* \"#utility.yul\":4644:4658   */\n      swap1\n      pop\n        /* \"#utility.yul\":4560:4665   */\n      swap2\n      swap1\n      pop\n      jump\t// out\n        /* \"#utility.yul\":4671:4815   */\n    tag_145:\n        /* \"#utility.yul\":4769:4780   */\n      0x00\n        /* \"#utility.yul\":4806:4809   */\n      dup2\n        /* \"#utility.yul\":4791:4809   */\n      swap1\n      pop\n        /* \"#utility.yul\":4671:4815   */\n      swap3\n      swap2\n      pop\n      pop\n      jump\t// out\n        /* \"#utility.yul\":4821:4920   */\n    tag_146:\n        /* \"#utility.yul\":4887:4891   */\n      0x00\n        /* \"#utility.yul\":4910:4913   */\n      dup2\n        /* \"#utility.yul\":4902:4913   */\n      swap1\n      pop\n        /* \"#utility.yul\":4821:4920   */\n      swap2\n      swap1\n      pop\n      jump\t// out\n        /* \"#utility.yul\":4926:5034   */\n    tag_147:\n        /* \"#utility.yul\":5003:5027   */\n      tag_234\n        /* \"#utility.yul\":5021:5026   */\n      dup2\n        /* \"#utility.yul\":5003:5027   */\n      tag_133\n      jump\t// in\n    tag_234:\n        /* \"#utility.yul\":4998:5001   */\n      dup3\n        /* \"#utility.yul\":4991:5028   */\n      mstore\n        /* \"#utility.yul\":4926:5034   */\n      pop\n      pop\n      jump\t// out\n        /* \"#utility.yul\":5040:5219   */\n    tag_148:\n        /* \"#utility.yul\":5109:5119   */\n      0x00\n        /* \"#utility.yul\":5130:5176   */\n      tag_236\n        /* \"#utility.yul\":5172:5175   */\n      dup4\n        /* \"#utility.yul\":5164:5170   */\n      dup4\n        /* \"#utility.yul\":5130:5176   */\n      tag_147\n      jump\t// in\n    tag_236:\n        /* \"#utility.yul\":5208:5212   */\n      0x20\n        /* \"#utility.yul\":5203:5206   */\n      dup4\n        /* \"#utility.yul\":5199:5213   */\n      add\n        /* \"#utility.yul\":5185:5213   */\n      swap1\n      pop\n        /* \"#utility.yul\":5040:5219   */\n      swap3\n      swap2\n      pop\n      pop\n      jump\t// out\n        /* \"#utility.yul\":5225:5337   */\n    tag_149:\n        /* \"#utility.yul\":5294:5298   */\n      0x00\n        /* \"#utility.yul\":5326:5330   */\n      0x20\n        /* \"#utility.yul\":5321:5324   */\n      dup3\n        /* \"#utility.yul\":5317:5331   */\n      add\n        /* \"#utility.yul\":5309:5331   */\n      swap1\n      pop\n        /* \"#utility.yul\":5225:5337   */\n      swap2\n      swap1\n      pop\n      jump\t// out\n        /* \"#utility.yul\":5377:6077   */\n    tag_150:\n        /* \"#utility.yul\":5515:5568   */\n      tag_239\n        /* \"#utility.yul\":5562:5567   */\n      dup2\n        /* \"#utility.yul\":5515:5568   */\n      tag_144\n      jump\t// in\n    tag_239:\n        /* \"#utility.yul\":5584:5669   */\n      tag_240\n        /* \"#utility.yul\":5662:5668   */\n      dup2\n        /* \"#utility.yul\":5657:5660   */\n      dup5\n        /* \"#utility.yul\":5584:5669   */\n      tag_145\n      jump\t// in\n    tag_240:\n        /* \"#utility.yul\":5577:5669   */\n      swap3\n      pop\n        /* \"#utility.yul\":5693:5748   */\n      tag_241\n        /* \"#utility.yul\":5742:5747   */\n      dup3\n        /* \"#utility.yul\":5693:5748   */\n      tag_146\n      jump\t// in\n    tag_241:\n        /* \"#utility.yul\":5771:5778   */\n      dup1\n        /* \"#utility.yul\":5802:5803   */\n      0x00\n        /* \"#utility.yul\":5787:6070   */\n    tag_242:\n        /* \"#utility.yul\":5812:5818   */\n      dup4\n        /* \"#utility.yul\":5809:5810   */\n      dup2\n        /* \"#utility.yul\":5806:5819   */\n      lt\n        /* \"#utility.yul\":5787:6070   */\n      iszero\n      tag_244\n      jumpi\n        /* \"#utility.yul\":5888:5894   */\n      dup2\n        /* \"#utility.yul\":5882:5895   */\n      mload\n        /* \"#utility.yul\":5915:5978   */\n      tag_245\n        /* \"#utility.yul\":5974:5977   */\n      dup8\n        /* \"#utility.yul\":5959:5972   */\n      dup3\n        /* \"#utility.yul\":5915:5978   */\n      tag_148\n      jump\t// in\n    tag_245:\n        /* \"#utility.yul\":5908:5978   */\n      swap7\n      pop\n        /* \"#utility.yul\":6001:6060   */\n      tag_246\n        /* \"#utility.yul\":6053:6059   */\n      dup4\n        /* \"#utility.yul\":6001:6060   */\n      tag_149\n      jump\t// in\n    tag_246:\n        /* \"#utility.yul\":5991:6060   */\n      swap3\n      pop\n        /* \"#utility.yul\":5847:6070   */\n      pop\n        /* \"#utility.yul\":5834:5835   */\n      0x01\n        /* \"#utility.yul\":5831:5832   */\n      dup2\n        /* \"#utility.yul\":5827:5836   */\n      add\n        /* \"#utility.yul\":5822:5836   */\n      swap1\n      pop\n        /* \"#utility.yul\":5787:6070   */\n      jump(tag_242)\n    tag_244:\n        /* \"#utility.yul\":5791:5805   */\n      pop\n        /* \"#utility.yul\":5491:6077   */\n      pop\n      pop\n      pop\n        /* \"#utility.yul\":5377:6077   */\n      pop\n      pop\n      jump\t// out\n        /* \"#utility.yul\":6083:6609   */\n    tag_32:\n        /* \"#utility.yul\":6300:6304   */\n      0x00\n        /* \"#utility.yul\":6338:6341   */\n      0x0280\n        /* \"#utility.yul\":6327:6336   */\n      dup3\n        /* \"#utility.yul\":6323:6342   */\n      add\n        /* \"#utility.yul\":6315:6342   */\n      swap1\n      pop\n        /* \"#utility.yul\":6352:6471   */\n      tag_248\n        /* \"#utility.yul\":6468:6469   */\n      0x00\n        /* \"#utility.yul\":6457:6466   */\n      dup4\n        /* \"#utility.yul\":6453:6470   */\n      add\n        /* \"#utility.yul\":6444:6450   */\n      dup6\n        /* \"#utility.yul\":6352:6471   */\n      tag_143\n      jump\t// in\n    tag_248:\n        /* \"#utility.yul\":6481:6602   */\n      tag_249\n        /* \"#utility.yul\":6597:6600   */\n      0x0140\n        /* \"#utility.yul\":6586:6595   */\n      dup4\n        /* \"#utility.yul\":6582:6601   */\n      add\n        /* \"#utility.yul\":6573:6579   */\n      dup5\n        /* \"#utility.yul\":6481:6602   */\n      tag_150\n      jump\t// in\n    tag_249:\n        /* \"#utility.yul\":6083:6609   */\n      swap4\n      swap3\n      pop\n      pop\n      pop\n      jump\t// out\n        /* \"#utility.yul\":6615:6733   */\n    tag_151:\n        /* \"#utility.yul\":6702:6726   */\n      tag_251\n        /* \"#utility.yul\":6720:6725   */\n      dup2\n        /* \"#utility.yul\":6702:6726   */\n      tag_130\n      jump\t// in\n    tag_251:\n        /* \"#utility.yul\":6697:6700   */\n      dup3\n        /* \"#utility.yul\":6690:6727   */\n      mstore\n        /* \"#utility.yul\":6615:6733   */\n      pop\n      pop\n      jump\t// out\n        /* \"#utility.yul\":6739:6961   */\n    tag_36:\n        /* \"#utility.yul\":6832:6836   */\n      0x00\n        /* \"#utility.yul\":6870:6872   */\n      0x20\n        /* \"#utility.yul\":6859:6868   */\n      dup3\n        /* \"#utility.yul\":6855:6873   */\n      add\n        /* \"#utility.yul\":6847:6873   */\n      swap1\n      pop\n        /* \"#utility.yul\":6883:6954   */\n      tag_253\n        /* \"#utility.yul\":6951:6952   */\n      0x00\n        /* \"#utility.yul\":6940:6949   */\n      dup4\n        /* \"#utility.yul\":6936:6953   */\n      add\n        /* \"#utility.yul\":6927:6933   */\n      dup5\n        /* \"#utility.yul\":6883:6954   */\n      tag_151\n      jump\t// in\n    tag_253:\n        /* \"#utility.yul\":6739:6961   */\n      swap3\n      swap2\n      pop\n      pop\n      jump\t// out\n        /* \"#utility.yul\":6967:7136   */\n    tag_152:\n        /* \"#utility.yul\":7051:7062   */\n      0x00\n        /* \"#utility.yul\":7085:7091   */\n      dup3\n        /* \"#utility.yul\":7080:7083   */\n      dup3\n        /* \"#utility.yul\":7073:7092   */\n      mstore\n        /* \"#utility.yul\":7125:7129   */\n      0x20\n        /* \"#utility.yul\":7120:7123   */\n      dup3\n        /* \"#utility.yul\":7116:7130   */\n      add\n        /* \"#utility.yul\":7101:7130   */\n      swap1\n      pop\n        /* \"#utility.yul\":6967:7136   */\n      swap3\n      swap2\n      pop\n      pop\n      jump\t// out\n        /* \"#utility.yul\":7142:7305   */\n    tag_153:\n        /* \"#utility.yul\":7282:7297   */\n      0x4e6f7420746865206f776e657200000000000000000000000000000000000000\n        /* \"#utility.yul\":7278:7279   */\n      0x00\n        /* \"#utility.yul\":7270:7276   */\n      dup3\n        /* \"#utility.yul\":7266:7280   */\n      add\n        /* \"#utility.yul\":7259:7298   */\n      mstore\n        /* \"#utility.yul\":7142:7305   */\n      pop\n      jump\t// out\n        /* \"#utility.yul\":7311:7677   */\n    tag_154:\n        /* \"#utility.yul\":7453:7456   */\n      0x00\n        /* \"#utility.yul\":7474:7541   */\n      tag_257\n        /* \"#utility.yul\":7538:7540   */\n      0x0d\n        /* \"#utility.yul\":7533:7536   */\n      dup4\n        /* \"#utility.yul\":7474:7541   */\n      tag_152\n      jump\t// in\n    tag_257:\n        /* \"#utility.yul\":7467:7541   */\n      swap2\n      pop\n        /* \"#utility.yul\":7550:7643   */\n      tag_258\n        /* \"#utility.yul\":7639:7642   */\n      dup3\n        /* \"#utility.yul\":7550:7643   */\n      tag_153\n      jump\t// in\n    tag_258:\n        /* \"#utility.yul\":7668:7670   */\n      0x20\n        /* \"#utility.yul\":7663:7666   */\n      dup3\n        /* \"#utility.yul\":7659:7671   */\n      add\n        /* \"#utility.yul\":7652:7671   */\n      swap1\n      pop\n        /* \"#utility.yul\":7311:7677   */\n      swap2\n      swap1\n      pop\n      jump\t// out\n        /* \"#utility.yul\":7683:8102   */\n    tag_54:\n        /* \"#utility.yul\":7849:7853   */\n      0x00\n        /* \"#utility.yul\":7887:7889   */\n      0x20\n        /* \"#utility.yul\":7876:7885   */\n      dup3\n        /* \"#utility.yul\":7872:7890   */\n      add\n        /* \"#utility.yul\":7864:7890   */\n      swap1\n      pop\n        /* \"#utility.yul\":7936:7945   */\n      dup2\n        /* \"#utility.yul\":7930:7934   */\n      dup2\n        /* \"#utility.yul\":7926:7946   */\n      sub\n        /* \"#utility.yul\":7922:7923   */\n      0x00\n        /* \"#utility.yul\":7911:7920   */\n      dup4\n        /* \"#utility.yul\":7907:7924   */\n      add\n        /* \"#utility.yul\":7900:7947   */\n      mstore\n        /* \"#utility.yul\":7964:8095   */\n      tag_260\n        /* \"#utility.yul\":8090:8094   */\n      dup2\n        /* \"#utility.yul\":7964:8095   */\n      tag_154\n      jump\t// in\n    tag_260:\n        /* \"#utility.yul\":7956:8095   */\n      swap1\n      pop\n        /* \"#utility.yul\":7683:8102   */\n      swap2\n      swap1\n      pop\n      jump\t// out\n        /* \"#utility.yul\":8108:8335   */\n    tag_155:\n        /* \"#utility.yul\":8248:8282   */\n      0x53636f7265206e6f7420686967686572207468616e2063757272656e74206869\n        /* \"#utility.yul\":8244:8245   */\n      0x00\n        /* \"#utility.yul\":8236:8242   */\n      dup3\n        /* \"#utility.yul\":8232:8246   */\n      add\n        /* \"#utility.yul\":8225:8283   */\n      mstore\n        /* \"#utility.yul\":8317:8327   */\n      0x67682073636f7265000000000000000000000000000000000000000000000000\n        /* \"#utility.yul\":8312:8314   */\n      0x20\n        /* \"#utility.yul\":8304:8310   */\n      dup3\n        /* \"#utility.yul\":8300:8315   */\n      add\n        /* \"#utility.yul\":8293:8328   */\n      mstore\n        /* \"#utility.yul\":8108:8335   */\n      pop\n      jump\t// out\n        /* \"#utility.yul\":8341:8707   */\n    tag_156:\n        /* \"#utility.yul\":8483:8486   */\n      0x00\n        /* \"#utility.yul\":8504:8571   */\n      tag_263\n        /* \"#utility.yul\":8568:8570   */\n      0x28\n        /* \"#utility.yul\":8563:8566   */\n      dup4\n        /* \"#utility.yul\":8504:8571   */\n      tag_152\n      jump\t// in\n    tag_263:\n        /* \"#utility.yul\":8497:8571   */\n      swap2\n      pop\n        /* \"#utility.yul\":8580:8673   */\n      tag_264\n        /* \"#utility.yul\":8669:8672   */\n      dup3\n        /* \"#utility.yul\":8580:8673   */\n      tag_155\n      jump\t// in\n    tag_264:\n        /* \"#utility.yul\":8698:8700   */\n      0x40\n        /* \"#utility.yul\":8693:8696   */\n      dup3\n        /* \"#utility.yul\":8689:8701   */\n      add\n        /* \"#utility.yul\":8682:8701   */\n      swap1\n      pop\n        /* \"#utility.yul\":8341:8707   */\n      swap2\n      swap1\n      pop\n      jump\t// out\n        /* \"#utility.yul\":8713:9132   */\n    tag_58:\n        /* \"#utility.yul\":8879:8883   */\n      0x00\n        /* \"#utility.yul\":8917:8919   */\n      0x20\n        /* \"#utility.yul\":8906:8915   */\n      dup3\n        /* \"#utility.yul\":8902:8920   */\n      add\n        /* \"#utility.yul\":8894:8920   */\n      swap1\n      pop\n        /* \"#utility.yul\":8966:8975   */\n      dup2\n        /* \"#utility.yul\":8960:8964   */\n      dup2\n        /* \"#utility.yul\":8956:8976   */\n      sub\n        /* \"#utility.yul\":8952:8953   */\n      0x00\n        /* \"#utility.yul\":8941:8950   */\n      dup4\n        /* \"#utility.yul\":8937:8954   */\n      add\n        /* \"#utility.yul\":8930:8977   */\n      mstore\n        /* \"#utility.yul\":8994:9125   */\n      tag_266\n        /* \"#utility.yul\":9120:9124   */\n      dup2\n        /* \"#utility.yul\":8994:9125   */\n      tag_156\n      jump\t// in\n    tag_266:\n        /* \"#utility.yul\":8986:9125   */\n      swap1\n      pop\n        /* \"#utility.yul\":8713:9132   */\n      swap2\n      swap1\n      pop\n      jump\t// out\n        /* \"#utility.yul\":9138:9316   */\n    tag_157:\n        /* \"#utility.yul\":9278:9308   */\n      0x416368696576656d656e7420616c726561647920756e6c6f636b656400000000\n        /* \"#utility.yul\":9274:9275   */\n      0x00\n        /* \"#utility.yul\":9266:9272   */\n      dup3\n        /* \"#utility.yul\":9262:9276   */\n      add\n        /* \"#utility.yul\":9255:9309   */\n      mstore\n        /* \"#utility.yul\":9138:9316   */\n      pop\n      jump\t// out\n        /* \"#utility.yul\":9322:9688   */\n    tag_158:\n        /* \"#utility.yul\":9464:9467   */\n      0x00\n        /* \"#utility.yul\":9485:9552   */\n      tag_269\n        /* \"#utility.yul\":9549:9551   */\n      0x1c\n        /* \"#utility.yul\":9544:9547   */\n      dup4\n        /* \"#utility.yul\":9485:9552   */\n      tag_152\n      jump\t// in\n    tag_269:\n        /* \"#utility.yul\":9478:9552   */\n      swap2\n      pop\n        /* \"#utility.yul\":9561:9654   */\n      tag_270\n        /* \"#utility.yul\":9650:9653   */\n      dup3\n        /* \"#utility.yul\":9561:9654   */\n      tag_157\n      jump\t// in\n    tag_270:\n        /* \"#utility.yul\":9679:9681   */\n      0x20\n        /* \"#utility.yul\":9674:9677   */\n      dup3\n        /* \"#utility.yul\":9670:9682   */\n      add\n        /* \"#utility.yul\":9663:9682   */\n      swap1\n      pop\n        /* \"#utility.yul\":9322:9688   */\n      swap2\n      swap1\n      pop\n      jump\t// out\n        /* \"#utility.yul\":9694:10113   */\n    tag_79:\n        /* \"#utility.yul\":9860:9864   */\n      0x00\n        /* \"#utility.yul\":9898:9900   */\n      0x20\n        /* \"#utility.yul\":9887:9896   */\n      dup3\n        /* \"#utility.yul\":9883:9901   */\n      add\n        /* \"#utility.yul\":9875:9901   */\n      swap1\n      pop\n        /* \"#utility.yul\":9947:9956   */\n      dup2\n        /* \"#utility.yul\":9941:9945   */\n      dup2\n        /* \"#utility.yul\":9937:9957   */\n      sub\n        /* \"#utility.yul\":9933:9934   */\n      0x00\n        /* \"#utility.yul\":9922:9931   */\n      dup4\n        /* \"#utility.yul\":9918:9935   */\n      add\n        /* \"#utility.yul\":9911:9958   */\n      mstore\n        /* \"#utility.yul\":9975:10106   */\n      tag_272\n        /* \"#utility.yul\":10101:10105   */\n      dup2\n        /* \"#utility.yul\":9975:10106   */\n      tag_158\n      jump\t// in\n    tag_272:\n        /* \"#utility.yul\":9967:10106   */\n      swap1\n      pop\n        /* \"#utility.yul\":9694:10113   */\n      swap2\n      swap1\n      pop\n      jump\t// out\n        /* \"#utility.yul\":10119:10299   */\n    tag_87:\n        /* \"#utility.yul\":10167:10244   */\n      0x4e487b7100000000000000000000000000000000000000000000000000000000\n        /* \"#utility.yul\":10164:10165   */\n      0x00\n        /* \"#utility.yul\":10157:10245   */\n      mstore\n        /* \"#utility.yul\":10264:10268   */\n      0x32\n        /* \"#utility.yul\":10261:10262   */\n      0x04\n        /* \"#utility.yul\":10254:10269   */\n      mstore\n        /* \"#utility.yul\":10288:10292   */\n      0x24\n        /* \"#utility.yul\":10285:10286   */\n      0x00\n        /* \"#utility.yul\":10278:10293   */\n      revert\n        /* \"#utility.yul\":10305:10485   */\n    tag_159:\n        /* \"#utility.yul\":10353:10430   */\n      0x4e487b7100000000000000000000000000000000000000000000000000000000\n        /* \"#utility.yul\":10350:10351   */\n      0x00\n        /* \"#utility.yul\":10343:10431   */\n      mstore\n        /* \"#utility.yul\":10450:10454   */\n      0x11\n        /* \"#utility.yul\":10447:10448   */\n      0x04\n        /* \"#utility.yul\":10440:10455   */\n      mstore\n        /* \"#utility.yul\":10474:10478   */\n      0x24\n        /* \"#utility.yul\":10471:10472   */\n      0x00\n        /* \"#utility.yul\":10464:10479   */\n      revert\n        /* \"#utility.yul\":10491:10685   */\n    tag_101:\n        /* \"#utility.yul\":10531:10535   */\n      0x00\n        /* \"#utility.yul\":10551:10571   */\n      tag_276\n        /* \"#utility.yul\":10569:10570   */\n      dup3\n        /* \"#utility.yul\":10551:10571   */\n      tag_133\n      jump\t// in\n    tag_276:\n        /* \"#utility.yul\":10546:10571   */\n      swap2\n      pop\n        /* \"#utility.yul\":10585:10605   */\n      tag_277\n        /* \"#utility.yul\":10603:10604   */\n      dup4\n        /* \"#utility.yul\":10585:10605   */\n      tag_133\n      jump\t// in\n    tag_277:\n        /* \"#utility.yul\":10580:10605   */\n      swap3\n      pop\n        /* \"#utility.yul\":10629:10630   */\n      dup3\n        /* \"#utility.yul\":10626:10627   */\n      dup3\n        /* \"#utility.yul\":10622:10631   */\n      sub\n        /* \"#utility.yul\":10614:10631   */\n      swap1\n      pop\n        /* \"#utility.yul\":10653:10654   */\n      dup2\n        /* \"#utility.yul\":10647:10651   */\n      dup2\n        /* \"#utility.yul\":10644:10655   */\n      gt\n        /* \"#utility.yul\":10641:10678   */\n      iszero\n      tag_278\n      jumpi\n        /* \"#utility.yul\":10658:10676   */\n      tag_279\n      tag_159\n      jump\t// in\n    tag_279:\n        /* \"#utility.yul\":10641:10678   */\n    tag_278:\n        /* \"#utility.yul\":10491:10685   */\n      swap3\n      swap2\n      pop\n      pop\n      jump\t// out\n        /* \"#utility.yul\":10691:10862   */\n    tag_117:\n        /* \"#utility.yul\":10730:10733   */\n      0x00\n        /* \"#utility.yul\":10753:10777   */\n      tag_281\n        /* \"#utility.yul\":10771:10776   */\n      dup3\n        /* \"#utility.yul\":10753:10777   */\n      tag_133\n      jump\t// in\n    tag_281:\n        /* \"#utility.yul\":10744:10777   */\n      swap2\n      pop\n        /* \"#utility.yul\":10799:10803   */\n      0x00\n        /* \"#utility.yul\":10792:10797   */\n      dup3\n        /* \"#utility.yul\":10789:10804   */\n      sub\n        /* \"#utility.yul\":10786:10827   */\n      tag_282\n      jumpi\n        /* \"#utility.yul\":10807:10825   */\n      tag_283\n      tag_159\n      jump\t// in\n    tag_283:\n        /* \"#utility.yul\":10786:10827   */\n    tag_282:\n        /* \"#utility.yul\":10854:10855   */\n      0x01\n        /* \"#utility.yul\":10847:10852   */\n      dup3\n        /* \"#utility.yul\":10843:10856   */\n      sub\n        /* \"#utility.yul\":10836:10856   */\n      swap1\n      pop\n        /* \"#utility.yul\":10691:10862   */\n      swap2\n      swap1\n      pop\n      jump\t// out\n        /* \"#utility.yul\":10868:10970   */\n    tag_160:\n        /* \"#utility.yul\":10931:10937   */\n      0x00\n        /* \"#utility.yul\":10959:10963   */\n      0x0a\n        /* \"#utility.yul\":10949:10963   */\n      swap1\n      pop\n        /* \"#utility.yul\":10868:10970   */\n      swap2\n      swap1\n      pop\n      jump\t// out\n        /* \"#utility.yul\":10976:11072   */\n    tag_161:\n        /* \"#utility.yul\":11039:11043   */\n      0x00\n        /* \"#utility.yul\":11062:11065   */\n      dup2\n        /* \"#utility.yul\":11054:11065   */\n      swap1\n      pop\n        /* \"#utility.yul\":10976:11072   */\n      swap2\n      swap1\n      pop\n      jump\t// out\n        /* \"#utility.yul\":11078:11180   */\n    tag_162:\n        /* \"#utility.yul\":11120:11128   */\n      0x00\n        /* \"#utility.yul\":11167:11172   */\n      dup2\n        /* \"#utility.yul\":11164:11165   */\n      0x00\n        /* \"#utility.yul\":11160:11173   */\n      shr\n        /* \"#utility.yul\":11139:11173   */\n      swap1\n      pop\n        /* \"#utility.yul\":11078:11180   */\n      swap2\n      swap1\n      pop\n      jump\t// out\n        /* \"#utility.yul\":11186:11325   */\n    tag_163:\n        /* \"#utility.yul\":11236:11243   */\n      0x00\n        /* \"#utility.yul\":11276:11318   */\n      0xffffffffffffffffffffffffffffffffffffffff\n        /* \"#utility.yul\":11269:11274   */\n      dup3\n        /* \"#utility.yul\":11265:11319   */\n      and\n        /* \"#utility.yul\":11254:11319   */\n      swap1\n      pop\n        /* \"#utility.yul\":11186:11325   */\n      swap2\n      swap1\n      pop\n      jump\t// out\n        /* \"#utility.yul\":11331:11498   */\n    tag_164:\n        /* \"#utility.yul\":11401:11406   */\n      0x00\n        /* \"#utility.yul\":11426:11492   */\n      tag_289\n        /* \"#utility.yul\":11457:11491   */\n      tag_290\n        /* \"#utility.yul\":11480:11490   */\n      dup4\n        /* \"#utility.yul\":11457:11491   */\n      tag_162\n      jump\t// in\n    tag_290:\n        /* \"#utility.yul\":11426:11492   */\n      tag_163\n      jump\t// in\n    tag_289:\n        /* \"#utility.yul\":11417:11492   */\n      swap1\n      pop\n        /* \"#utility.yul\":11331:11498   */\n      swap2\n      swap1\n      pop\n      jump\t// out\n        /* \"#utility.yul\":11504:11649   */\n    tag_165:\n        /* \"#utility.yul\":11559:11564   */\n      0x00\n        /* \"#utility.yul\":11584:11642   */\n      tag_292\n        /* \"#utility.yul\":11636:11640   */\n      dup3\n        /* \"#utility.yul\":11630:11641   */\n      sload\n        /* \"#utility.yul\":11584:11642   */\n      tag_164\n      jump\t// in\n    tag_292:\n        /* \"#utility.yul\":11575:11642   */\n      swap1\n      pop\n        /* \"#utility.yul\":11504:11649   */\n      swap2\n      swap1\n      pop\n      jump\t// out\n        /* \"#utility.yul\":11655:11764   */\n    tag_166:\n        /* \"#utility.yul\":11721:11725   */\n      0x00\n        /* \"#utility.yul\":11753:11757   */\n      0x01\n        /* \"#utility.yul\":11748:11751   */\n      dup3\n        /* \"#utility.yul\":11744:11758   */\n      add\n        /* \"#utility.yul\":11736:11758   */\n      swap1\n      pop\n        /* \"#utility.yul\":11655:11764   */\n      swap2\n      swap1\n      pop\n      jump\t// out\n        /* \"#utility.yul\":11804:12523   */\n    tag_167:\n        /* \"#utility.yul\":11939:11989   */\n      tag_295\n        /* \"#utility.yul\":11983:11988   */\n      dup2\n        /* \"#utility.yul\":11939:11989   */\n      tag_160\n      jump\t// in\n    tag_295:\n        /* \"#utility.yul\":12005:12090   */\n      tag_296\n        /* \"#utility.yul\":12083:12089   */\n      dup2\n        /* \"#utility.yul\":12078:12081   */\n      dup5\n        /* \"#utility.yul\":12005:12090   */\n      tag_138\n      jump\t// in\n    tag_296:\n        /* \"#utility.yul\":11998:12090   */\n      swap3\n      pop\n        /* \"#utility.yul\":12114:12166   */\n      tag_297\n        /* \"#utility.yul\":12160:12165   */\n      dup3\n        /* \"#utility.yul\":12114:12166   */\n      tag_161\n      jump\t// in\n    tag_297:\n        /* \"#utility.yul\":12189:12196   */\n      dup1\n        /* \"#utility.yul\":12220:12221   */\n      0x00\n        /* \"#utility.yul\":12205:12516   */\n    tag_298:\n        /* \"#utility.yul\":12230:12236   */\n      dup4\n        /* \"#utility.yul\":12227:12228   */\n      dup2\n        /* \"#utility.yul\":12224:12237   */\n      lt\n        /* \"#utility.yul\":12205:12516   */\n      iszero\n      tag_300\n      jumpi\n        /* \"#utility.yul\":12300:12344   */\n      tag_301\n        /* \"#utility.yul\":12337:12343   */\n      dup3\n        /* \"#utility.yul\":12300:12344   */\n      tag_165\n      jump\t// in\n    tag_301:\n        /* \"#utility.yul\":12364:12427   */\n      tag_302\n        /* \"#utility.yul\":12423:12426   */\n      dup8\n        /* \"#utility.yul\":12408:12421   */\n      dup3\n        /* \"#utility.yul\":12364:12427   */\n      tag_141\n      jump\t// in\n    tag_302:\n        /* \"#utility.yul\":12357:12427   */\n      swap7\n      pop\n        /* \"#utility.yul\":12450:12506   */\n      tag_303\n        /* \"#utility.yul\":12499:12505   */\n      dup4\n        /* \"#utility.yul\":12450:12506   */\n      tag_166\n      jump\t// in\n    tag_303:\n        /* \"#utility.yul\":12440:12506   */\n      swap3\n      pop\n        /* \"#utility.yul\":12265:12516   */\n      pop\n        /* \"#utility.yul\":12252:12253   */\n      0x01\n        /* \"#utility.yul\":12249:12250   */\n      dup2\n        /* \"#utility.yul\":12245:12254   */\n      add\n        /* \"#utility.yul\":12240:12254   */\n      swap1\n      pop\n        /* \"#utility.yul\":12205:12516   */\n      jump(tag_298)\n    tag_300:\n        /* \"#utility.yul\":12209:12223   */\n      pop\n        /* \"#utility.yul\":11915:12523   */\n      pop\n      pop\n      pop\n        /* \"#utility.yul\":11804:12523   */\n      pop\n      pop\n      jump\t// out\n        /* \"#utility.yul\":12529:12631   */\n    tag_168:\n        /* \"#utility.yul\":12592:12598   */\n      0x00\n        /* \"#utility.yul\":12620:12624   */\n      0x0a\n        /* \"#utility.yul\":12610:12624   */\n      swap1\n      pop\n        /* \"#utility.yul\":12529:12631   */\n      swap2\n      swap1\n      pop\n      jump\t// out\n        /* \"#utility.yul\":12637:12733   */\n    tag_169:\n        /* \"#utility.yul\":12700:12704   */\n      0x00\n        /* \"#utility.yul\":12723:12726   */\n      dup2\n        /* \"#utility.yul\":12715:12726   */\n      swap1\n      pop\n        /* \"#utility.yul\":12637:12733   */\n      swap2\n      swap1\n      pop\n      jump\t// out\n        /* \"#utility.yul\":12739:12829   */\n    tag_170:\n        /* \"#utility.yul\":12789:12796   */\n      0x00\n        /* \"#utility.yul\":12818:12823   */\n      dup2\n        /* \"#utility.yul\":12807:12823   */\n      swap1\n      pop\n        /* \"#utility.yul\":12739:12829   */\n      swap2\n      swap1\n      pop\n      jump\t// out\n        /* \"#utility.yul\":12835:13002   */\n    tag_171:\n        /* \"#utility.yul\":12905:12910   */\n      0x00\n        /* \"#utility.yul\":12930:12996   */\n      tag_308\n        /* \"#utility.yul\":12961:12995   */\n      tag_309\n        /* \"#utility.yul\":12984:12994   */\n      dup4\n        /* \"#utility.yul\":12961:12995   */\n      tag_162\n      jump\t// in\n    tag_309:\n        /* \"#utility.yul\":12930:12996   */\n      tag_170\n      jump\t// in\n    tag_308:\n        /* \"#utility.yul\":12921:12996   */\n      swap1\n      pop\n        /* \"#utility.yul\":12835:13002   */\n      swap2\n      swap1\n      pop\n      jump\t// out\n        /* \"#utility.yul\":13008:13153   */\n    tag_172:\n        /* \"#utility.yul\":13063:13068   */\n      0x00\n        /* \"#utility.yul\":13088:13146   */\n      tag_311\n        /* \"#utility.yul\":13140:13144   */\n      dup3\n        /* \"#utility.yul\":13134:13145   */\n      sload\n        /* \"#utility.yul\":13088:13146   */\n      tag_171\n      jump\t// in\n    tag_311:\n        /* \"#utility.yul\":13079:13146   */\n      swap1\n      pop\n        /* \"#utility.yul\":13008:13153   */\n      swap2\n      swap1\n      pop\n      jump\t// out\n        /* \"#utility.yul\":13159:13268   */\n    tag_173:\n        /* \"#utility.yul\":13225:13229   */\n      0x00\n        /* \"#utility.yul\":13257:13261   */\n      0x01\n        /* \"#utility.yul\":13252:13255   */\n      dup3\n        /* \"#utility.yul\":13248:13262   */\n      add\n        /* \"#utility.yul\":13240:13262   */\n      swap1\n      pop\n        /* \"#utility.yul\":13159:13268   */\n      swap2\n      swap1\n      pop\n      jump\t// out\n        /* \"#utility.yul\":13308:14027   */\n    tag_174:\n        /* \"#utility.yul\":13443:13493   */\n      tag_314\n        /* \"#utility.yul\":13487:13492   */\n      dup2\n        /* \"#utility.yul\":13443:13493   */\n      tag_168\n      jump\t// in\n    tag_314:\n        /* \"#utility.yul\":13509:13594   */\n      tag_315\n        /* \"#utility.yul\":13587:13593   */\n      dup2\n        /* \"#utility.yul\":13582:13585   */\n      dup5\n        /* \"#utility.yul\":13509:13594   */\n      tag_145\n      jump\t// in\n    tag_315:\n        /* \"#utility.yul\":13502:13594   */\n      swap3\n      pop\n        /* \"#utility.yul\":13618:13670   */\n      tag_316\n        /* \"#utility.yul\":13664:13669   */\n      dup3\n        /* \"#utility.yul\":13618:13670   */\n      tag_169\n      jump\t// in\n    tag_316:\n        /* \"#utility.yul\":13693:13700   */\n      dup1\n        /* \"#utility.yul\":13724:13725   */\n      0x00\n        /* \"#utility.yul\":13709:14020   */\n    tag_317:\n        /* \"#utility.yul\":13734:13740   */\n      dup4\n        /* \"#utility.yul\":13731:13732   */\n      dup2\n        /* \"#utility.yul\":13728:13741   */\n      lt\n        /* \"#utility.yul\":13709:14020   */\n      iszero\n      tag_319\n      jumpi\n        /* \"#utility.yul\":13804:13848   */\n      tag_320\n        /* \"#utility.yul\":13841:13847   */\n      dup3\n        /* \"#utility.yul\":13804:13848   */\n      tag_172\n      jump\t// in\n    tag_320:\n        /* \"#utility.yul\":13868:13931   */\n      tag_321\n        /* \"#utility.yul\":13927:13930   */\n      dup8\n        /* \"#utility.yul\":13912:13925   */\n      dup3\n        /* \"#utility.yul\":13868:13931   */\n      tag_148\n      jump\t// in\n    tag_321:\n        /* \"#utility.yul\":13861:13931   */\n      swap7\n      pop\n        /* \"#utility.yul\":13954:14010   */\n      tag_322\n        /* \"#utility.yul\":14003:14009   */\n      dup4\n        /* \"#utility.yul\":13954:14010   */\n      tag_173\n      jump\t// in\n    tag_322:\n        /* \"#utility.yul\":13944:14010   */\n      swap3\n      pop\n        /* \"#utility.yul\":13769:14020   */\n      pop\n        /* \"#utility.yul\":13756:13757   */\n      0x01\n        /* \"#utility.yul\":13753:13754   */\n      dup2\n        /* \"#utility.yul\":13749:13758   */\n      add\n        /* \"#utility.yul\":13744:13758   */\n      swap1\n      pop\n        /* \"#utility.yul\":13709:14020   */\n      jump(tag_317)\n    tag_319:\n        /* \"#utility.yul\":13713:13727   */\n      pop\n        /* \"#utility.yul\":13419:14027   */\n      pop\n      pop\n      pop\n        /* \"#utility.yul\":13308:14027   */\n      pop\n      pop\n      jump\t// out\n        /* \"#utility.yul\":14033:14547   */\n    tag_125:\n        /* \"#utility.yul\":14244:14248   */\n      0x00\n        /* \"#utility.yul\":14282:14285   */\n      0x0280\n        /* \"#utility.yul\":14271:14280   */\n      dup3\n        /* \"#utility.yul\":14267:14286   */\n      add\n        /* \"#utility.yul\":14259:14286   */\n      swap1\n      pop\n        /* \"#utility.yul\":14296:14412   */\n      tag_324\n        /* \"#utility.yul\":14409:14410   */\n      0x00\n        /* \"#utility.yul\":14398:14407   */\n      dup4\n        /* \"#utility.yul\":14394:14411   */\n      add\n        /* \"#utility.yul\":14385:14391   */\n      dup6\n        /* \"#utility.yul\":14296:14412   */\n      tag_167\n      jump\t// in\n    tag_324:\n        /* \"#utility.yul\":14422:14540   */\n      tag_325\n        /* \"#utility.yul\":14535:14538   */\n      0x0140\n        /* \"#utility.yul\":14524:14533   */\n      dup4\n        /* \"#utility.yul\":14520:14539   */\n      add\n        /* \"#utility.yul\":14511:14517   */\n      dup5\n        /* \"#utility.yul\":14422:14540   */\n      tag_174\n      jump\t// in\n    tag_325:\n        /* \"#utility.yul\":14033:14547   */\n      swap4\n      swap3\n      pop\n      pop\n      pop\n      jump\t// out\n\n    auxdata: 0xa264697066735822122025a2a316c8b0b2a52cec3852867a91c8fb39de562ea42dfa9e5788a0f0f1327764736f6c634300081e0033\n}\n",
				"bytecode": {
					"linkReferences": {},
					"object": "6080604052348015600e575f5ffd5b50335f5f6101000a81548173ffffffffffffffffffffffffffffffffffffffff021916908373ffffffffffffffffffffffffffffffffffffffff160217905550610ffc8061005b5f395ff3fe608060405234801561000f575f5ffd5b5060043610610091575f3560e01c80638da5cb5b116100645780638da5cb5b14610131578063af137ca81461014f578063dfc22a6b1461017f578063e2eb41ff1461019d578063f5556c44146101ce57610091565b80631db544c0146100955780635112711a146100b15780635c12cd4b146100e157806388e814e614610112575b5f5ffd5b6100af60048036038101906100aa919061097c565b6101ea565b005b6100cb60048036038101906100c691906109ba565b610362565b6040516100d891906109f4565b60405180910390f35b6100fb60048036038101906100f69190610a0d565b61037b565b604051610109929190610a38565b60405180910390f35b61011a6103d0565b604051610128929190610ba9565b60405180910390f35b61013961049f565b6040516101469190610be1565b60405180910390f35b610169600480360381019061016491906109ba565b6104c3565b6040516101769190610be1565b60405180910390f35b6101876104f7565b60405161019491906109f4565b60405180910390f35b6101b760048036038101906101b29190610a0d565b6104fc565b6040516101c5929190610a38565b60405180910390f35b6101e860048036038101906101e391906109ba565b61051c565b005b5f5f9054906101000a900473ffffffffffffffffffffffffffffffffffffffff1673ffffffffffffffffffffffffffffffffffffffff163373ffffffffffffffffffffffffffffffffffffffff1614610278576040517f08c379a000000000000000000000000000000000000000000000000000000000815260040161026f90610c54565b60405180910390fd5b5f60015f8473ffffffffffffffffffffffffffffffffffffffff1673ffffffffffffffffffffffffffffffffffffffff1681526020019081526020015f209050805f015482116102fd576040517f08c379a00000000000000000000000000000000000000000000000000000000081526004016102f490610ce2565b60405180910390fd5b81815f018190555061030f838361060f565b8273ffffffffffffffffffffffffffffffffffffffff167fa578df9b0453d14d7ed8615ee0e9d58f70e041e91fc5865e3b71f81ea05296c08360405161035591906109f4565b60405180910390a2505050565b600c81600a8110610371575f80fd5b015f915090505481565b5f5f5f60015f8573ffffffffffffffffffffffffffffffffffffffff1673ffffffffffffffffffffffffffffffffffffffff1681526020019081526020015f209050805f015481600101549250925050915091565b6103d86108a5565b6103e06108c8565b6002600c81600a806020026040519081016040528092919082600a8015610451576020028201915b815f9054906101000a900473ffffffffffffffffffffffffffffffffffffffff1673ffffffffffffffffffffffffffffffffffffffff1681526020019060010190808311610408575b5050505050915080600a806020026040519081016040528092919082600a8015610490576020028201915b81548152602001906001019080831161047c575b50505050509050915091509091565b5f5f9054906101000a900473ffffffffffffffffffffffffffffffffffffffff1681565b600281600a81106104d2575f80fd5b015f915054906101000a900473ffffffffffffffffffffffffffffffffffffffff1681565b600a81565b6001602052805f5260405f205f91509050805f0154908060010154905082565b5f60015f3373ffffffffffffffffffffffffffffffffffffffff1673ffffffffffffffffffffffffffffffffffffffff1681526020019081526020015f2090505f826001901b826001015416146105a8576040517f08c379a000000000000000000000000000000000000000000000000000000000815260040161059f90610d4a565b60405180910390fd5b816001901b816001015f82825417925050819055503373ffffffffffffffffffffffffffffffffffffffff167fecfcf3a608fefe3b6ea7d5efc965cfc3ad0043767f8618944c737253329892d78360405161060391906109f4565b60405180910390a25050565b5f7fffffffffffffffffffffffffffffffffffffffffffffffffffffffffffffffff90505f5f90505b600a8110156106bd578373ffffffffffffffffffffffffffffffffffffffff16600282600a811061066c5761066b610d68565b5b015f9054906101000a900473ffffffffffffffffffffffffffffffffffffffff1673ffffffffffffffffffffffffffffffffffffffff16036106b0578091506106bd565b8080600101915050610638565b505f5f90505b600a81101561086457600c81600a81106106e0576106df610d68565b5b0154831115610857575f6001600a6106f89190610dc2565b90505b818111156107e45760026001826107129190610dc2565b600a811061072357610722610d68565b5b015f9054906101000a900473ffffffffffffffffffffffffffffffffffffffff16600282600a811061075857610757610d68565b5b015f6101000a81548173ffffffffffffffffffffffffffffffffffffffff021916908373ffffffffffffffffffffffffffffffffffffffff160217905550600c6001826107a59190610dc2565b600a81106107b6576107b5610d68565b5b0154600c82600a81106107cc576107cb610d68565b5b018190555080806107dc90610df5565b9150506106fb565b5083600282600a81106107fa576107f9610d68565b5b015f6101000a81548173ffffffffffffffffffffffffffffffffffffffff021916908373ffffffffffffffffffffffffffffffffffffffff16021790555082600c82600a811061084d5761084c610d68565b5b0181905550610864565b80806001019150506106c3565b507f3ac3291d6b440f4c2faa1d819aeebdaca8f721badda0885fe12114814467d18c6002600c604051610898929190610f9d565b60405180910390a1505050565b604051806101400160405280600a90602082028036833780820191505090505090565b604051806101400160405280600a90602082028036833780820191505090505090565b5f5ffd5b5f73ffffffffffffffffffffffffffffffffffffffff82169050919050565b5f610918826108ef565b9050919050565b6109288161090e565b8114610932575f5ffd5b50565b5f813590506109438161091f565b92915050565b5f819050919050565b61095b81610949565b8114610965575f5ffd5b50565b5f8135905061097681610952565b92915050565b5f5f60408385031215610992576109916108eb565b5b5f61099f85828601610935565b92505060206109b085828601610968565b9150509250929050565b5f602082840312156109cf576109ce6108eb565b5b5f6109dc84828501610968565b91505092915050565b6109ee81610949565b82525050565b5f602082019050610a075f8301846109e5565b92915050565b5f60208284031215610a2257610a216108eb565b5b5f610a2f84828501610935565b91505092915050565b5f604082019050610a4b5f8301856109e5565b610a5860208301846109e5565b9392505050565b5f600a9050919050565b5f81905092915050565b5f819050919050565b610a858161090e565b82525050565b5f610a968383610a7c565b60208301905092915050565b5f602082019050919050565b610ab781610a5f565b610ac18184610a69565b9250610acc82610a73565b805f5b83811015610afc578151610ae38782610a8b565b9650610aee83610aa2565b925050600181019050610acf565b505050505050565b5f600a9050919050565b5f81905092915050565b5f819050919050565b610b2a81610949565b82525050565b5f610b3b8383610b21565b60208301905092915050565b5f602082019050919050565b610b5c81610b04565b610b668184610b0e565b9250610b7182610b18565b805f5b83811015610ba1578151610b888782610b30565b9650610b9383610b47565b925050600181019050610b74565b505050505050565b5f61028082019050610bbd5f830185610aae565b610bcb610140830184610b53565b9392505050565b610bdb8161090e565b82525050565b5f602082019050610bf45f830184610bd2565b92915050565b5f82825260208201905092915050565b7f4e6f7420746865206f776e6572000000000000000000000000000000000000005f82015250565b5f610c3e600d83610bfa565b9150610c4982610c0a565b602082019050919050565b5f6020820190508181035f830152610c6b81610c32565b9050919050565b7f53636f7265206e6f7420686967686572207468616e2063757272656e742068695f8201527f67682073636f7265000000000000000000000000000000000000000000000000602082015250565b5f610ccc602883610bfa565b9150610cd782610c72565b604082019050919050565b5f6020820190508181035f830152610cf981610cc0565b9050919050565b7f416368696576656d656e7420616c726561647920756e6c6f636b6564000000005f82015250565b5f610d34601c83610bfa565b9150610d3f82610d00565b602082019050919050565b5f6020820190508181035f830152610d6181610d28565b9050919050565b7f4e487b71000000000000000000000000000000000000000000000000000000005f52603260045260245ffd5b7f4e487b71000000000000000000000000000000000000000000000000000000005f52601160045260245ffd5b5f610dcc82610949565b9150610dd783610949565b9250828203905081811115610def57610dee610d95565b5b92915050565b5f610dff82610949565b91505f8203610e1157610e10610d95565b5b600182039050919050565b5f600a9050919050565b5f819050919050565b5f815f1c9050919050565b5f73ffffffffffffffffffffffffffffffffffffffff82169050919050565b5f610e6b610e6683610e2f565b610e3a565b9050919050565b5f610e7d8254610e59565b9050919050565b5f600182019050919050565b610e9981610e1c565b610ea38184610a69565b9250610eae82610e26565b805f5b83811015610ee557610ec282610e72565b610ecc8782610a8b565b9650610ed783610e84565b925050600181019050610eb1565b505050505050565b5f600a9050919050565b5f819050919050565b5f819050919050565b5f610f1b610f1683610e2f565b610f00565b9050919050565b5f610f2d8254610f09565b9050919050565b5f600182019050919050565b610f4981610eed565b610f538184610b0e565b9250610f5e82610ef7565b805f5b83811015610f9557610f7282610f22565b610f7c8782610b30565b9650610f8783610f34565b925050600181019050610f61565b505050505050565b5f61028082019050610fb15f830185610e90565b610fbf610140830184610f40565b939250505056fea264697066735822122025a2a316c8b0b2a52cec3852867a91c8fb39de562ea42dfa9e5788a0f0f1327764736f6c634300081e0033",
					"opcodes": "PUSH1 0x80 PUSH1 0x40 MSTORE CALLVALUE DUP1 ISZERO PUSH1 0xE JUMPI PUSH0 PUSH0 REVERT JUMPDEST POP CALLER PUSH0 PUSH0 PUSH2 0x100 EXP DUP2 SLOAD DUP2 PUSH20 0xFFFFFFFFFFFFFFFFFFFFFFFFFFFFFFFFFFFFFFFF MUL NOT AND SWAP1 DUP4 PUSH20 0xFFFFFFFFFFFFFFFFFFFFFFFFFFFFFFFFFFFFFFFF AND MUL OR SWAP1 SSTORE POP PUSH2 0xFFC DUP1 PUSH2 0x5B PUSH0 CODECOPY PUSH0 RETURN INVALID PUSH1 0x80 PUSH1 0x40 MSTORE CALLVALUE DUP1 ISZERO PUSH2 0xF JUMPI PUSH0 PUSH0 REVERT JUMPDEST POP PUSH1 0x4 CALLDATASIZE LT PUSH2 0x91 JUMPI PUSH0 CALLDATALOAD PUSH1 0xE0 SHR DUP1 PUSH4 0x8DA5CB5B GT PUSH2 0x64 JUMPI DUP1 PUSH4 0x8DA5CB5B EQ PUSH2 0x131 JUMPI DUP1 PUSH4 0xAF137CA8 EQ PUSH2 0x14F JUMPI DUP1 PUSH4 0xDFC22A6B EQ PUSH2 0x17F JUMPI DUP1 PUSH4 0xE2EB41FF EQ PUSH2 0x19D JUMPI DUP1 PUSH4 0xF5556C44 EQ PUSH2 0x1CE JUMPI PUSH2 0x91 JUMP JUMPDEST DUP1 PUSH4 0x1DB544C0 EQ PUSH2 0x95 JUMPI DUP1 PUSH4 0x5112711A EQ PUSH2 0xB1 JUMPI DUP1 PUSH4 0x5C12CD4B EQ PUSH2 0xE1 JUMPI DUP1 PUSH4 0x88E814E6 EQ PUSH2 0x112 JUMPI JUMPDEST PUSH0 PUSH0 REVERT JUMPDEST PUSH2 0xAF PUSH1 0x4 DUP1 CALLDATASIZE SUB DUP2 ADD SWAP1 PUSH2 0xAA SWAP2 SWAP1 PUSH2 0x97C JUMP JUMPDEST PUSH2 0x1EA JUMP JUMPDEST STOP JUMPDEST PUSH2 0xCB PUSH1 0x4 DUP1 CALLDATASIZE SUB DUP2 ADD SWAP1 PUSH2 0xC6 SWAP2 SWAP1 PUSH2 0x9BA JUMP JUMPDEST PUSH2 0x362 JUMP JUMPDEST PUSH1 0x40 MLOAD PUSH2 0xD8 SWAP2 SWAP1 PUSH2 0x9F4 JUMP JUMPDEST PUSH1 0x40 MLOAD DUP1 SWAP2 SUB SWAP1 RETURN JUMPDEST PUSH2 0xFB PUSH1 0x4 DUP1 CALLDATASIZE SUB DUP2 ADD SWAP1 PUSH2 0xF6 SWAP2 SWAP1 PUSH2 0xA0D JUMP JUMPDEST PUSH2 0x37B JUMP JUMPDEST PUSH1 0x40 MLOAD PUSH2 0x109 SWAP3 SWAP2 SWAP1 PUSH2 0xA38 JUMP JUMPDEST PUSH1 0x40 MLOAD DUP1 SWAP2 SUB SWAP1 RETURN JUMPDEST PUSH2 0x11A PUSH2 0x3D0 JUMP JUMPDEST PUSH1 0x40 MLOAD PUSH2 0x128 SWAP3 SWAP2 SWAP1 PUSH2 0xBA9 JUMP JUMPDEST PUSH1 0x40 MLOAD DUP1 SWAP2 SUB SWAP1 RETURN JUMPDEST PUSH2 0x139 PUSH2 0x49F JUMP JUMPDEST PUSH1 0x40 MLOAD PUSH2 0x146 SWAP2 SWAP1 PUSH2 0xBE1 JUMP JUMPDEST PUSH1 0x40 MLOAD DUP1 SWAP2 SUB SWAP1 RETURN JUMPDEST PUSH2 0x169 PUSH1 0x4 DUP1 CALLDATASIZE SUB DUP2 ADD SWAP1 PUSH2 0x164 SWAP2 SWAP1 PUSH2 0x9BA JUMP JUMPDEST PUSH2 0x4C3 JUMP JUMPDEST PUSH1 0x40 MLOAD PUSH2 0x176 SWAP2 SWAP1 PUSH2 0xBE1 JUMP JUMPDEST PUSH1 0x40 MLOAD DUP1 SWAP2 SUB SWAP1 RETURN JUMPDEST PUSH2 0x187 PUSH2 0x4F7 JUMP JUMPDEST PUSH1 0x40 MLOAD PUSH2 0x194 SWAP2 SWAP1 PUSH2 0x9F4 JUMP JUMPDEST PUSH1 0x40 MLOAD DUP1 SWAP2 SUB SWAP1 RETURN JUMPDEST PUSH2 0x1B7 PUSH1 0x4 DUP1 CALLDATASIZE SUB DUP2 ADD SWAP1 PUSH2 0x1B2 SWAP2 SWAP1 PUSH2 0xA0D JUMP JUMPDEST PUSH2 0x4FC JUMP JUMPDEST PUSH1 0x40 MLOAD PUSH2 0x1C5 SWAP3 SWAP2 SWAP1 PUSH2 0xA38 JUMP JUMPDEST PUSH1 0x40 MLOAD DUP1 SWAP2 SUB SWAP1 RETURN JUMPDEST PUSH2 0x1E8 PUSH1 0x4 DUP1 CALLDATASIZE SUB DUP2 ADD SWAP1 PUSH2 0x1E3 SWAP2 SWAP1 PUSH2 0x9BA JUMP JUMPDEST PUSH2 0x51C JUMP JUMPDEST STOP JUMPDEST PUSH0 PUSH0 SWAP1 SLOAD SWAP1 PUSH2 0x100 EXP SWAP1 DIV PUSH20 0xFFFFFFFFFFFFFFFFFFFFFFFFFFFFFFFFFFFFFFFF AND PUSH20 0xFFFFFFFFFFFFFFFFFFFFFFFFFFFFFFFFFFFFFFFF AND CALLER PUSH20 0xFFFFFFFFFFFFFFFFFFFFFFFFFFFFFFFFFFFFFFFF AND EQ PUSH2 0x278 JUMPI PUSH1 0x40 MLOAD PUSH32 0x8C379A000000000000000000000000000000000000000000000000000000000 DUP2 MSTORE PUSH1 0x4 ADD PUSH2 0x26F SWAP1 PUSH2 0xC54 JUMP JUMPDEST PUSH1 0x40 MLOAD DUP1 SWAP2 SUB SWAP1 REVERT JUMPDEST PUSH0 PUSH1 0x1 PUSH0 DUP5 PUSH20 0xFFFFFFFFFFFFFFFFFFFFFFFFFFFFFFFFFFFFFFFF AND PUSH20 0xFFFFFFFFFFFFFFFFFFFFFFFFFFFFFFFFFFFFFFFF AND DUP2 MSTORE PUSH1 0x20 ADD SWAP1 DUP2 MSTORE PUSH1 0x20 ADD PUSH0 KECCAK256 SWAP1 POP DUP1 PUSH0 ADD SLOAD DUP3 GT PUSH2 0x2FD JUMPI PUSH1 0x40 MLOAD PUSH32 0x8C379A000000000000000000000000000000000000000000000000000000000 DUP2 MSTORE PUSH1 0x4 ADD PUSH2 0x2F4 SWAP1 PUSH2 0xCE2 JUMP JUMPDEST PUSH1 0x40 MLOAD DUP1 SWAP2 SUB SWAP1 REVERT JUMPDEST DUP2 DUP2 PUSH0 ADD DUP2 SWAP1 SSTORE POP PUSH2 0x30F DUP4 DUP4 PUSH2 0x60F JUMP JUMPDEST DUP3 PUSH20 0xFFFFFFFFFFFFFFFFFFFFFFFFFFFFFFFFFFFFFFFF AND PUSH32 0xA578DF9B0453D14D7ED8615EE0E9D58F70E041E91FC5865E3B71F81EA05296C0 DUP4 PUSH1 0x40 MLOAD PUSH2 0x355 SWAP2 SWAP1 PUSH2 0x9F4 JUMP JUMPDEST PUSH1 0x40 MLOAD DUP1 SWAP2 SUB SWAP1 LOG2 POP POP POP JUMP JUMPDEST PUSH1 0xC DUP2 PUSH1 0xA DUP2 LT PUSH2 0x371 JUMPI PUSH0 DUP1 REVERT JUMPDEST ADD PUSH0 SWAP2 POP SWAP1 POP SLOAD DUP2 JUMP JUMPDEST PUSH0 PUSH0 PUSH0 PUSH1 0x1 PUSH0 DUP6 PUSH20 0xFFFFFFFFFFFFFFFFFFFFFFFFFFFFFFFFFFFFFFFF AND PUSH20 0xFFFFFFFFFFFFFFFFFFFFFFFFFFFFFFFFFFFFFFFF AND DUP2 MSTORE PUSH1 0x20 ADD SWAP1 DUP2 MSTORE PUSH1 0x20 ADD PUSH0 KECCAK256 SWAP1 POP DUP1 PUSH0 ADD SLOAD DUP2 PUSH1 0x1 ADD SLOAD SWAP3 POP SWAP3 POP POP SWAP2 POP SWAP2 JUMP JUMPDEST PUSH2 0x3D8 PUSH2 0x8A5 JUMP JUMPDEST PUSH2 0x3E0 PUSH2 0x8C8 JUMP JUMPDEST PUSH1 0x2 PUSH1 0xC DUP2 PUSH1 0xA DUP1 PUSH1 0x20 MUL PUSH1 0x40 MLOAD SWAP1 DUP2 ADD PUSH1 0x40 MSTORE DUP1 SWAP3 SWAP2 SWAP1 DUP3 PUSH1 0xA DUP1 ISZERO PUSH2 0x451 JUMPI PUSH1 0x20 MUL DUP3 ADD SWAP2 JUMPDEST DUP2 PUSH0 SWAP1 SLOAD SWAP1 PUSH2 0x100 EXP SWAP1 DIV PUSH20 0xFFFFFFFFFFFFFFFFFFFFFFFFFFFFFFFFFFFFFFFF AND PUSH20 0xFFFFFFFFFFFFFFFFFFFFFFFFFFFFFFFFFFFFFFFF AND DUP2 MSTORE PUSH1 0x20 ADD SWAP1 PUSH1 0x1 ADD SWAP1 DUP1 DUP4 GT PUSH2 0x408 JUMPI JUMPDEST POP POP POP POP POP SWAP2 POP DUP1 PUSH1 0xA DUP1 PUSH1 0x20 MUL PUSH1 0x40 MLOAD SWAP1 DUP2 ADD PUSH1 0x40 MSTORE DUP1 SWAP3 SWAP2 SWAP1 DUP3 PUSH1 0xA DUP1 ISZERO PUSH2 0x490 JUMPI PUSH1 0x20 MUL DUP3 ADD SWAP2 JUMPDEST DUP2 SLOAD DUP2 MSTORE PUSH1 0x20 ADD SWAP1 PUSH1 0x1 ADD SWAP1 DUP1 DUP4 GT PUSH2 0x47C JUMPI JUMPDEST POP POP POP POP POP SWAP1 POP SWAP2 POP SWAP2 POP SWAP1 SWAP2 JUMP JUMPDEST PUSH0 PUSH0 SWAP1 SLOAD SWAP1 PUSH2 0x100 EXP SWAP1 DIV PUSH20 0xFFFFFFFFFFFFFFFFFFFFFFFFFFFFFFFFFFFFFFFF AND DUP2 JUMP JUMPDEST PUSH1 0x2 DUP2 PUSH1 0xA DUP2 LT PUSH2 0x4D2 JUMPI PUSH0 DUP1 REVERT JUMPDEST ADD PUSH0 SWAP2 POP SLOAD SWAP1 PUSH2 0x100 EXP SWAP1 DIV PUSH20 0xFFFFFFFFFFFFFFFFFFFFFFFFFFFFFFFFFFFFFFFF AND DUP2 JUMP JUMPDEST PUSH1 0xA DUP2 JUMP JUMPDEST PUSH1 0x1 PUSH1 0x20 MSTORE DUP1 PUSH0 MSTORE PUSH1 0x40 PUSH0 KECCAK256 PUSH0 SWAP2 POP SWAP1 POP DUP1 PUSH0 ADD SLOAD SWAP1 DUP1 PUSH1 0x1 ADD SLOAD SWAP1 POP DUP3 JUMP JUMPDEST PUSH0 PUSH1 0x1 PUSH0 CALLER PUSH20 0xFFFFFFFFFFFFFFFFFFFFFFFFFFFFFFFFFFFFFFFF AND PUSH20 0xFFFFFFFFFFFFFFFFFFFFFFFFFFFFFFFFFFFFFFFF AND DUP2 MSTORE PUSH1 0x20 ADD SWAP1 DUP2 MSTORE PUSH1 0x20 ADD PUSH0 KECCAK256 SWAP1 POP PUSH0 DUP3 PUSH1 0x1 SWAP1 SHL DUP3 PUSH1 0x1 ADD SLOAD AND EQ PUSH2 0x5A8 JUMPI PUSH1 0x40 MLOAD PUSH32 0x8C379A000000000000000000000000000000000000000000000000000000000 DUP2 MSTORE PUSH1 0x4 ADD PUSH2 0x59F SWAP1 PUSH2 0xD4A JUMP JUMPDEST PUSH1 0x40 MLOAD DUP1 SWAP2 SUB SWAP1 REVERT JUMPDEST DUP2 PUSH1 0x1 SWAP1 SHL DUP2 PUSH1 0x1 ADD PUSH0 DUP3 DUP3 SLOAD OR SWAP3 POP POP DUP2 SWAP1 SSTORE POP CALLER PUSH20 0xFFFFFFFFFFFFFFFFFFFFFFFFFFFFFFFFFFFFFFFF AND PUSH32 0xECFCF3A608FEFE3B6EA7D5EFC965CFC3AD0043767F8618944C737253329892D7 DUP4 PUSH1 0x40 MLOAD PUSH2 0x603 SWAP2 SWAP1 PUSH2 0x9F4 JUMP JUMPDEST PUSH1 0x40 MLOAD DUP1 SWAP2 SUB SWAP1 LOG2 POP POP JUMP JUMPDEST PUSH0 PUSH32 0xFFFFFFFFFFFFFFFFFFFFFFFFFFFFFFFFFFFFFFFFFFFFFFFFFFFFFFFFFFFFFFFF SWAP1 POP PUSH0 PUSH0 SWAP1 POP JUMPDEST PUSH1 0xA DUP2 LT ISZERO PUSH2 0x6BD JUMPI DUP4 PUSH20 0xFFFFFFFFFFFFFFFFFFFFFFFFFFFFFFFFFFFFFFFF AND PUSH1 0x2 DUP3 PUSH1 0xA DUP2 LT PUSH2 0x66C JUMPI PUSH2 0x66B PUSH2 0xD68 JUMP JUMPDEST JUMPDEST ADD PUSH0 SWAP1 SLOAD SWAP1 PUSH2 0x100 EXP SWAP1 DIV PUSH20 0xFFFFFFFFFFFFFFFFFFFFFFFFFFFFFFFFFFFFFFFF AND PUSH20 0xFFFFFFFFFFFFFFFFFFFFFFFFFFFFFFFFFFFFFFFF AND SUB PUSH2 0x6B0 JUMPI DUP1 SWAP2 POP PUSH2 0x6BD JUMP JUMPDEST DUP1 DUP1 PUSH1 0x1 ADD SWAP2 POP POP PUSH2 0x638 JUMP JUMPDEST POP PUSH0 PUSH0 SWAP1 POP JUMPDEST PUSH1 0xA DUP2 LT ISZERO PUSH2 0x864 JUMPI PUSH1 0xC DUP2 PUSH1 0xA DUP2 LT PUSH2 0x6E0 JUMPI PUSH2 0x6DF PUSH2 0xD68 JUMP JUMPDEST JUMPDEST ADD SLOAD DUP4 GT ISZERO PUSH2 0x857 JUMPI PUSH0 PUSH1 0x1 PUSH1 0xA PUSH2 0x6F8 SWAP2 SWAP1 PUSH2 0xDC2 JUMP JUMPDEST SWAP1 POP JUMPDEST DUP2 DUP2 GT ISZERO PUSH2 0x7E4 JUMPI PUSH1 0x2 PUSH1 0x1 DUP3 PUSH2 0x712 SWAP2 SWAP1 PUSH2 0xDC2 JUMP JUMPDEST PUSH1 0xA DUP2 LT PUSH2 0x723 JUMPI PUSH2 0x722 PUSH2 0xD68 JUMP JUMPDEST JUMPDEST ADD PUSH0 SWAP1 SLOAD SWAP1 PUSH2 0x100 EXP SWAP1 DIV PUSH20 0xFFFFFFFFFFFFFFFFFFFFFFFFFFFFFFFFFFFFFFFF AND PUSH1 0x2 DUP3 PUSH1 0xA DUP2 LT PUSH2 0x758 JUMPI PUSH2 0x757 PUSH2 0xD68 JUMP JUMPDEST JUMPDEST ADD PUSH0 PUSH2 0x100 EXP DUP2 SLOAD DUP2 PUSH20 0xFFFFFFFFFFFFFFFFFFFFFFFFFFFFFFFFFFFFFFFF MUL NOT AND SWAP1 DUP4 PUSH20 0xFFFFFFFFFFFFFFFFFFFFFFFFFFFFFFFFFFFFFFFF AND MUL OR SWAP1 SSTORE POP PUSH1 0xC PUSH1 0x1 DUP3 PUSH2 0x7A5 SWAP2 SWAP1 PUSH2 0xDC2 JUMP JUMPDEST PUSH1 0xA DUP2 LT PUSH2 0x7B6 JUMPI PUSH2 0x7B5 PUSH2 0xD68 JUMP JUMPDEST JUMPDEST ADD SLOAD PUSH1 0xC DUP3 PUSH1 0xA DUP2 LT PUSH2 0x7CC JUMPI PUSH2 0x7CB PUSH2 0xD68 JUMP JUMPDEST JUMPDEST ADD DUP2 SWAP1 SSTORE POP DUP1 DUP1 PUSH2 0x7DC SWAP1 PUSH2 0xDF5 JUMP JUMPDEST SWAP2 POP POP PUSH2 0x6FB JUMP JUMPDEST POP DUP4 PUSH1 0x2 DUP3 PUSH1 0xA DUP2 LT PUSH2 0x7FA JUMPI PUSH2 0x7F9 PUSH2 0xD68 JUMP JUMPDEST JUMPDEST ADD PUSH0 PUSH2 0x100 EXP DUP2 SLOAD DUP2 PUSH20 0xFFFFFFFFFFFFFFFFFFFFFFFFFFFFFFFFFFFFFFFF MUL NOT AND SWAP1 DUP4 PUSH20 0xFFFFFFFFFFFFFFFFFFFFFFFFFFFFFFFFFFFFFFFF AND MUL OR SWAP1 SSTORE POP DUP3 PUSH1 0xC DUP3 PUSH1 0xA DUP2 LT PUSH2 0x84D JUMPI PUSH2 0x84C PUSH2 0xD68 JUMP JUMPDEST JUMPDEST ADD DUP2 SWAP1 SSTORE POP PUSH2 0x864 JUMP JUMPDEST DUP1 DUP1 PUSH1 0x1 ADD SWAP2 POP POP PUSH2 0x6C3 JUMP JUMPDEST POP PUSH32 0x3AC3291D6B440F4C2FAA1D819AEEBDACA8F721BADDA0885FE12114814467D18C PUSH1 0x2 PUSH1 0xC PUSH1 0x40 MLOAD PUSH2 0x898 SWAP3 SWAP2 SWAP1 PUSH2 0xF9D JUMP JUMPDEST PUSH1 0x40 MLOAD DUP1 SWAP2 SUB SWAP1 LOG1 POP POP POP JUMP JUMPDEST PUSH1 0x40 MLOAD DUP1 PUSH2 0x140 ADD PUSH1 0x40 MSTORE DUP1 PUSH1 0xA SWAP1 PUSH1 0x20 DUP3 MUL DUP1 CALLDATASIZE DUP4 CALLDATACOPY DUP1 DUP3 ADD SWAP2 POP POP SWAP1 POP POP SWAP1 JUMP JUMPDEST PUSH1 0x40 MLOAD DUP1 PUSH2 0x140 ADD PUSH1 0x40 MSTORE DUP1 PUSH1 0xA SWAP1 PUSH1 0x20 DUP3 MUL DUP1 CALLDATASIZE DUP4 CALLDATACOPY DUP1 DUP3 ADD SWAP2 POP POP SWAP1 POP POP SWAP1 JUMP JUMPDEST PUSH0 PUSH0 REVERT JUMPDEST PUSH0 PUSH20 0xFFFFFFFFFFFFFFFFFFFFFFFFFFFFFFFFFFFFFFFF DUP3 AND SWAP1 POP SWAP2 SWAP1 POP JUMP JUMPDEST PUSH0 PUSH2 0x918 DUP3 PUSH2 0x8EF JUMP JUMPDEST SWAP1 POP SWAP2 SWAP1 POP JUMP JUMPDEST PUSH2 0x928 DUP2 PUSH2 0x90E JUMP JUMPDEST DUP2 EQ PUSH2 0x932 JUMPI PUSH0 PUSH0 REVERT JUMPDEST POP JUMP JUMPDEST PUSH0 DUP2 CALLDATALOAD SWAP1 POP PUSH2 0x943 DUP2 PUSH2 0x91F JUMP JUMPDEST SWAP3 SWAP2 POP POP JUMP JUMPDEST PUSH0 DUP2 SWAP1 POP SWAP2 SWAP1 POP JUMP JUMPDEST PUSH2 0x95B DUP2 PUSH2 0x949 JUMP JUMPDEST DUP2 EQ PUSH2 0x965 JUMPI PUSH0 PUSH0 REVERT JUMPDEST POP JUMP JUMPDEST PUSH0 DUP2 CALLDATALOAD SWAP1 POP PUSH2 0x976 DUP2 PUSH2 0x952 JUMP JUMPDEST SWAP3 SWAP2 POP POP JUMP JUMPDEST PUSH0 PUSH0 PUSH1 0x40 DUP4 DUP6 SUB SLT ISZERO PUSH2 0x992 JUMPI PUSH2 0x991 PUSH2 0x8EB JUMP JUMPDEST JUMPDEST PUSH0 PUSH2 0x99F DUP6 DUP3 DUP7 ADD PUSH2 0x935 JUMP JUMPDEST SWAP3 POP POP PUSH1 0x20 PUSH2 0x9B0 DUP6 DUP3 DUP7 ADD PUSH2 0x968 JUMP JUMPDEST SWAP2 POP POP SWAP3 POP SWAP3 SWAP1 POP JUMP JUMPDEST PUSH0 PUSH1 0x20 DUP3 DUP5 SUB SLT ISZERO PUSH2 0x9CF JUMPI PUSH2 0x9CE PUSH2 0x8EB JUMP JUMPDEST JUMPDEST PUSH0 PUSH2 0x9DC DUP5 DUP3 DUP6 ADD PUSH2 0x968 JUMP JUMPDEST SWAP2 POP POP SWAP3 SWAP2 POP POP JUMP JUMPDEST PUSH2 0x9EE DUP2 PUSH2 0x949 JUMP JUMPDEST DUP3 MSTORE POP POP JUMP JUMPDEST PUSH0 PUSH1 0x20 DUP3 ADD SWAP1 POP PUSH2 0xA07 PUSH0 DUP4 ADD DUP5 PUSH2 0x9E5 JUMP JUMPDEST SWAP3 SWAP2 POP POP JUMP JUMPDEST PUSH0 PUSH1 0x20 DUP3 DUP5 SUB SLT ISZERO PUSH2 0xA22 JUMPI PUSH2 0xA21 PUSH2 0x8EB JUMP JUMPDEST JUMPDEST PUSH0 PUSH2 0xA2F DUP5 DUP3 DUP6 ADD PUSH2 0x935 JUMP JUMPDEST SWAP2 POP POP SWAP3 SWAP2 POP POP JUMP JUMPDEST PUSH0 PUSH1 0x40 DUP3 ADD SWAP1 POP PUSH2 0xA4B PUSH0 DUP4 ADD DUP6 PUSH2 0x9E5 JUMP JUMPDEST PUSH2 0xA58 PUSH1 0x20 DUP4 ADD DUP5 PUSH2 0x9E5 JUMP JUMPDEST SWAP4 SWAP3 POP POP POP JUMP JUMPDEST PUSH0 PUSH1 0xA SWAP1 POP SWAP2 SWAP1 POP JUMP JUMPDEST PUSH0 DUP2 SWAP1 POP SWAP3 SWAP2 POP POP JUMP JUMPDEST PUSH0 DUP2 SWAP1 POP SWAP2 SWAP1 POP JUMP JUMPDEST PUSH2 0xA85 DUP2 PUSH2 0x90E JUMP JUMPDEST DUP3 MSTORE POP POP JUMP JUMPDEST PUSH0 PUSH2 0xA96 DUP4 DUP4 PUSH2 0xA7C JUMP JUMPDEST PUSH1 0x20 DUP4 ADD SWAP1 POP SWAP3 SWAP2 POP POP JUMP JUMPDEST PUSH0 PUSH1 0x20 DUP3 ADD SWAP1 POP SWAP2 SWAP1 POP JUMP JUMPDEST PUSH2 0xAB7 DUP2 PUSH2 0xA5F JUMP JUMPDEST PUSH2 0xAC1 DUP2 DUP5 PUSH2 0xA69 JUMP JUMPDEST SWAP3 POP PUSH2 0xACC DUP3 PUSH2 0xA73 JUMP JUMPDEST DUP1 PUSH0 JUMPDEST DUP4 DUP2 LT ISZERO PUSH2 0xAFC JUMPI DUP2 MLOAD PUSH2 0xAE3 DUP8 DUP3 PUSH2 0xA8B JUMP JUMPDEST SWAP7 POP PUSH2 0xAEE DUP4 PUSH2 0xAA2 JUMP JUMPDEST SWAP3 POP POP PUSH1 0x1 DUP2 ADD SWAP1 POP PUSH2 0xACF JUMP JUMPDEST POP POP POP POP POP POP JUMP JUMPDEST PUSH0 PUSH1 0xA SWAP1 POP SWAP2 SWAP1 POP JUMP JUMPDEST PUSH0 DUP2 SWAP1 POP SWAP3 SWAP2 POP POP JUMP JUMPDEST PUSH0 DUP2 SWAP1 POP SWAP2 SWAP1 POP JUMP JUMPDEST PUSH2 0xB2A DUP2 PUSH2 0x949 JUMP JUMPDEST DUP3 MSTORE POP POP JUMP JUMPDEST PUSH0 PUSH2 0xB3B DUP4 DUP4 PUSH2 0xB21 JUMP JUMPDEST PUSH1 0x20 DUP4 ADD SWAP1 POP SWAP3 SWAP2 POP POP JUMP JUMPDEST PUSH0 PUSH1 0x20 DUP3 ADD SWAP1 POP SWAP2 SWAP1 POP JUMP JUMPDEST PUSH2 0xB5C DUP2 PUSH2 0xB04 JUMP JUMPDEST PUSH2 0xB66 DUP2 DUP5 PUSH2 0xB0E JUMP JUMPDEST SWAP3 POP PUSH2 0xB71 DUP3 PUSH2 0xB18 JUMP JUMPDEST DUP1 PUSH0 JUMPDEST DUP4 DUP2 LT ISZERO PUSH2 0xBA1 JUMPI DUP2 MLOAD PUSH2 0xB88 DUP8 DUP3 PUSH2 0xB30 JUMP JUMPDEST SWAP7 POP PUSH2 0xB93 DUP4 PUSH2 0xB47 JUMP JUMPDEST SWAP3 POP POP PUSH1 0x1 DUP2 ADD SWAP1 POP PUSH2 0xB74 JUMP JUMPDEST POP POP POP POP POP POP JUMP JUMPDEST PUSH0 PUSH2 0x280 DUP3 ADD SWAP1 POP PUSH2 0xBBD PUSH0 DUP4 ADD DUP6 PUSH2 0xAAE JUMP JUMPDEST PUSH2 0xBCB PUSH2 0x140 DUP4 ADD DUP5 PUSH2 0xB53 JUMP JUMPDEST SWAP4 SWAP3 POP POP POP JUMP JUMPDEST PUSH2 0xBDB DUP2 PUSH2 0x90E JUMP JUMPDEST DUP3 MSTORE POP POP JUMP JUMPDEST PUSH0 PUSH1 0x20 DUP3 ADD SWAP1 POP PUSH2 0xBF4 PUSH0 DUP4 ADD DUP5 PUSH2 0xBD2 JUMP JUMPDEST SWAP3 SWAP2 POP POP JUMP JUMPDEST PUSH0 DUP3 DUP3 MSTORE PUSH1 0x20 DUP3 ADD SWAP1 POP SWAP3 SWAP2 POP POP JUMP JUMPDEST PUSH32 0x4E6F7420746865206F776E657200000000000000000000000000000000000000 PUSH0 DUP3 ADD MSTORE POP JUMP JUMPDEST PUSH0 PUSH2 0xC3E PUSH1 0xD DUP4 PUSH2 0xBFA JUMP JUMPDEST SWAP2 POP PUSH2 0xC49 DUP3 PUSH2 0xC0A JUMP JUMPDEST PUSH1 0x20 DUP3 ADD SWAP1 POP SWAP2 SWAP1 POP JUMP JUMPDEST PUSH0 PUSH1 0x20 DUP3 ADD SWAP1 POP DUP2 DUP2 SUB PUSH0 DUP4 ADD MSTORE PUSH2 0xC6B DUP2 PUSH2 0xC32 JUMP JUMPDEST SWAP1 POP SWAP2 SWAP1 POP JUMP JUMPDEST PUSH32 0x53636F7265206E6F7420686967686572207468616E2063757272656E74206869 PUSH0 DUP3 ADD MSTORE PUSH32 0x67682073636F7265000000000000000000000000000000000000000000000000 PUSH1 0x20 DUP3 ADD MSTORE POP JUMP JUMPDEST PUSH0 PUSH2 0xCCC PUSH1 0x28 DUP4 PUSH2 0xBFA JUMP JUMPDEST SWAP2 POP PUSH2 0xCD7 DUP3 PUSH2 0xC72 JUMP JUMPDEST PUSH1 0x40 DUP3 ADD SWAP1 POP SWAP2 SWAP1 POP JUMP JUMPDEST PUSH0 PUSH1 0x20 DUP3 ADD SWAP1 POP DUP2 DUP2 SUB PUSH0 DUP4 ADD MSTORE PUSH2 0xCF9 DUP2 PUSH2 0xCC0 JUMP JUMPDEST SWAP1 POP SWAP2 SWAP1 POP JUMP JUMPDEST PUSH32 0x416368696576656D656E7420616C726561647920756E6C6F636B656400000000 PUSH0 DUP3 ADD MSTORE POP JUMP JUMPDEST PUSH0 PUSH2 0xD34 PUSH1 0x1C DUP4 PUSH2 0xBFA JUMP JUMPDEST SWAP2 POP PUSH2 0xD3F DUP3 PUSH2 0xD00 JUMP JUMPDEST PUSH1 0x20 DUP3 ADD SWAP1 POP SWAP2 SWAP1 POP JUMP JUMPDEST PUSH0 PUSH1 0x20 DUP3 ADD SWAP1 POP DUP2 DUP2 SUB PUSH0 DUP4 ADD MSTORE PUSH2 0xD61 DUP2 PUSH2 0xD28 JUMP JUMPDEST SWAP1 POP SWAP2 SWAP1 POP JUMP JUMPDEST PUSH32 0x4E487B7100000000000000000000000000000000000000000000000000000000 PUSH0 MSTORE PUSH1 0x32 PUSH1 0x4 MSTORE PUSH1 0x24 PUSH0 REVERT JUMPDEST PUSH32 0x4E487B7100000000000000000000000000000000000000000000000000000000 PUSH0 MSTORE PUSH1 0x11 PUSH1 0x4 MSTORE PUSH1 0x24 PUSH0 REVERT JUMPDEST PUSH0 PUSH2 0xDCC DUP3 PUSH2 0x949 JUMP JUMPDEST SWAP2 POP PUSH2 0xDD7 DUP4 PUSH2 0x949 JUMP JUMPDEST SWAP3 POP DUP3 DUP3 SUB SWAP1 POP DUP2 DUP2 GT ISZERO PUSH2 0xDEF JUMPI PUSH2 0xDEE PUSH2 0xD95 JUMP JUMPDEST JUMPDEST SWAP3 SWAP2 POP POP JUMP JUMPDEST PUSH0 PUSH2 0xDFF DUP3 PUSH2 0x949 JUMP JUMPDEST SWAP2 POP PUSH0 DUP3 SUB PUSH2 0xE11 JUMPI PUSH2 0xE10 PUSH2 0xD95 JUMP JUMPDEST JUMPDEST PUSH1 0x1 DUP3 SUB SWAP1 POP SWAP2 SWAP1 POP JUMP JUMPDEST PUSH0 PUSH1 0xA SWAP1 POP SWAP2 SWAP1 POP JUMP JUMPDEST PUSH0 DUP2 SWAP1 POP SWAP2 SWAP1 POP JUMP JUMPDEST PUSH0 DUP2 PUSH0 SHR SWAP1 POP SWAP2 SWAP1 POP JUMP JUMPDEST PUSH0 PUSH20 0xFFFFFFFFFFFFFFFFFFFFFFFFFFFFFFFFFFFFFFFF DUP3 AND SWAP1 POP SWAP2 SWAP1 POP JUMP JUMPDEST PUSH0 PUSH2 0xE6B PUSH2 0xE66 DUP4 PUSH2 0xE2F JUMP JUMPDEST PUSH2 0xE3A JUMP JUMPDEST SWAP1 POP SWAP2 SWAP1 POP JUMP JUMPDEST PUSH0 PUSH2 0xE7D DUP3 SLOAD PUSH2 0xE59 JUMP JUMPDEST SWAP1 POP SWAP2 SWAP1 POP JUMP JUMPDEST PUSH0 PUSH1 0x1 DUP3 ADD SWAP1 POP SWAP2 SWAP1 POP JUMP JUMPDEST PUSH2 0xE99 DUP2 PUSH2 0xE1C JUMP JUMPDEST PUSH2 0xEA3 DUP2 DUP5 PUSH2 0xA69 JUMP JUMPDEST SWAP3 POP PUSH2 0xEAE DUP3 PUSH2 0xE26 JUMP JUMPDEST DUP1 PUSH0 JUMPDEST DUP4 DUP2 LT ISZERO PUSH2 0xEE5 JUMPI PUSH2 0xEC2 DUP3 PUSH2 0xE72 JUMP JUMPDEST PUSH2 0xECC DUP8 DUP3 PUSH2 0xA8B JUMP JUMPDEST SWAP7 POP PUSH2 0xED7 DUP4 PUSH2 0xE84 JUMP JUMPDEST SWAP3 POP POP PUSH1 0x1 DUP2 ADD SWAP1 POP PUSH2 0xEB1 JUMP JUMPDEST POP POP POP POP POP POP JUMP JUMPDEST PUSH0 PUSH1 0xA SWAP1 POP SWAP2 SWAP1 POP JUMP JUMPDEST PUSH0 DUP2 SWAP1 POP SWAP2 SWAP1 POP JUMP JUMPDEST PUSH0 DUP2 SWAP1 POP SWAP2 SWAP1 POP JUMP JUMPDEST PUSH0 PUSH2 0xF1B PUSH2 0xF16 DUP4 PUSH2 0xE2F JUMP JUMPDEST PUSH2 0xF00 JUMP JUMPDEST SWAP1 POP SWAP2 SWAP1 POP JUMP JUMPDEST PUSH0 PUSH2 0xF2D DUP3 SLOAD PUSH2 0xF09 JUMP JUMPDEST SWAP1 POP SWAP2 SWAP1 POP JUMP JUMPDEST PUSH0 PUSH1 0x1 DUP3 ADD SWAP1 POP SWAP2 SWAP1 POP JUMP JUMPDEST PUSH2 0xF49 DUP2 PUSH2 0xEED JUMP JUMPDEST PUSH2 0xF53 DUP2 DUP5 PUSH2 0xB0E JUMP JUMPDEST SWAP3 POP PUSH2 0xF5E DUP3 PUSH2 0xEF7 JUMP JUMPDEST DUP1 PUSH0 JUMPDEST DUP4 DUP2 LT ISZERO PUSH2 0xF95 JUMPI PUSH2 0xF72 DUP3 PUSH2 0xF22 JUMP JUMPDEST PUSH2 0xF7C DUP8 DUP3 PUSH2 0xB30 JUMP JUMPDEST SWAP7 POP PUSH2 0xF87 DUP4 PUSH2 0xF34 JUMP JUMPDEST SWAP3 POP POP PUSH1 0x1 DUP2 ADD SWAP1 POP PUSH2 0xF61 JUMP JUMPDEST POP POP POP POP POP POP JUMP JUMPDEST PUSH0 PUSH2 0x280 DUP3 ADD SWAP1 POP PUSH2 0xFB1 PUSH0 DUP4 ADD DUP6 PUSH2 0xE90 JUMP JUMPDEST PUSH2 0xFBF PUSH2 0x140 DUP4 ADD DUP5 PUSH2 0xF40 JUMP JUMPDEST SWAP4 SWAP3 POP POP POP JUMP INVALID LOG2 PUSH5 0x6970667358 0x22 SLT KECCAK256 0x25 LOG2 LOG3 AND 0xC8 0xB0 0xB2 0xA5 0x2C EOFCREATE 0x38 MSTORE DUP7 PUSH27 0x91C8FB39DE562EA42DFA9E5788A0F0F1327764736F6C634300081E STOP CALLER "
				},
				"gasEstimates": {
					"creation": {
						"codeDepositCost": "818400",
						"executionCost": "25113",
						"totalCost": "843513"
					},
					"external": {
						"TOP_N()": "369",
						"getPlayer(address)": "infinite",
						"getTopPlayers()": "infinite",
						"owner()": "2507",
						"players(address)": "infinite",
						"submitScore(address,uint256)": "infinite",
						"topPlayers(uint256)": "2817",
						"topScores(uint256)": "infinite",
						"unlockAchievement(uint256)": "infinite"
					},
					"internal": {
						"_updateLeaderboard(address,uint256)": "infinite"
					}
				},
				"methodIdentifiers": {
					"TOP_N()": "dfc22a6b",
					"getPlayer(address)": "5c12cd4b",
					"getTopPlayers()": "88e814e6",
					"owner()": "8da5cb5b",
					"players(address)": "e2eb41ff",
					"submitScore(address,uint256)": "1db544c0",
					"topPlayers(uint256)": "af137ca8",
					"topScores(uint256)": "5112711a",
					"unlockAchievement(uint256)": "f5556c44"
				}
			},
			"storageLayout": {
				"storage": [
					{
						"astId": 3,
						"contract": "main.sol:GameLeaderboardTopN",
						"label": "owner",
						"offset": 0,
						"slot": "0",
						"type": "t_address"
					},
					{
						"astId": 16,
						"contract": "main.sol:GameLeaderboardTopN",
						"label": "players",
						"offset": 0,
						"slot": "1",
						"type": "t_mapping(t_address,t_struct(Player)11_storage)"
					},
					{
						"astId": 20,
						"contract": "main.sol:GameLeaderboardTopN",
						"label": "topPlayers",
						"offset": 0,
						"slot": "2",
						"type": "t_array(t_address)10_storage"
					},
					{
						"astId": 24,
						"contract": "main.sol:GameLeaderboardTopN",
						"label": "topScores",
						"offset": 0,
						"slot": "12",
						"type": "t_array(t_uint256)10_storage"
					}
				],
				"types": {
					"t_address": {
						"encoding": "inplace",
						"label": "address",
						"numberOfBytes": "20"
					},
					"t_array(t_address)10_storage": {
						"base": "t_address",
						"encoding": "inplace",
						"label": "address[10]",
						"numberOfBytes": "320"
					},
					"t_array(t_uint256)10_storage": {
						"base": "t_uint256",
						"encoding": "inplace",
						"label": "uint256[10]",
						"numberOfBytes": "320"
					},
					"t_mapping(t_address,t_struct(Player)11_storage)": {
						"encoding": "mapping",
						"key": "t_address",
						"label": "mapping(address => struct GameLeaderboardTopN.Player)",
						"numberOfBytes": "32",
						"value": "t_struct(Player)11_storage"
					},
					"t_struct(Player)11_storage": {
						"encoding": "inplace",
						"label": "struct GameLeaderboardTopN.Player",
						"members": [
							{
								"astId": 8,
								"contract": "main.sol:GameLeaderboardTopN",
								"label": "highScore",
								"offset": 0,
								"slot": "0",
								"type": "t_uint256"
							},
							{
								"astId": 10,
								"contract": "main.sol:GameLeaderboardTopN",
								"label": "achievements",
								"offset": 0,
								"slot": "1",
								"type": "t_uint256"
							}
						],
						"numberOfBytes": "64"
					},
					"t_uint256": {
						"encoding": "inplace",
						"label": "uint256",
						"numberOfBytes": "32"
					}
				}
			},
			"userdoc": {
				"kind": "user",
				"methods": {},
				"version": 1
			}
		}
	}
}